{
  "contractName": "Agora",
  "abi": [
    {
      "inputs": [
        {
          "internalType": "string",
          "name": "Name",
          "type": "string"
        },
        {
          "internalType": "address",
          "name": "token_address",
          "type": "address"
        },
        {
          "internalType": "address",
          "name": "citizen_address",
          "type": "address"
        }
      ],
      "stateMutability": "nonpayable",
      "type": "constructor"
    },
    {
      "anonymous": false,
      "inputs": [
        {
          "indexed": false,
          "internalType": "address",
          "name": "new_constitution",
          "type": "address"
        }
      ],
      "name": "Constitution_Changed",
      "type": "event"
    },
    {
      "anonymous": false,
      "inputs": [
        {
          "indexed": false,
          "internalType": "address",
          "name": "register",
          "type": "address"
        },
        {
          "indexed": false,
          "internalType": "bytes32",
          "name": "key",
          "type": "bytes32"
        },
        {
          "indexed": false,
          "internalType": "uint256",
          "name": "Function_Call_Nbr",
          "type": "uint256"
        }
      ],
      "name": "Function_Call_Executed",
      "type": "event"
    },
    {
      "anonymous": false,
      "inputs": [
        {
          "indexed": false,
          "internalType": "address",
          "name": "Address",
          "type": "address"
        },
        {
          "indexed": false,
          "internalType": "enum Institution.Institution_Type",
          "name": "Type",
          "type": "uint8"
        }
      ],
      "name": "Institution_Created",
      "type": "event"
    },
    {
      "anonymous": false,
      "inputs": [],
      "name": "Name_Changed",
      "type": "event"
    },
    {
      "anonymous": false,
      "inputs": [
        {
          "indexed": false,
          "internalType": "address",
          "name": "register",
          "type": "address"
        },
        {
          "indexed": false,
          "internalType": "bytes32",
          "name": "key",
          "type": "bytes32"
        },
        {
          "indexed": false,
          "internalType": "uint256",
          "name": "proposal_index",
          "type": "uint256"
        }
      ],
      "name": "New_Proposal",
      "type": "event"
    },
    {
      "anonymous": false,
      "inputs": [
        {
          "indexed": false,
          "internalType": "address",
          "name": "register_address",
          "type": "address"
        },
        {
          "indexed": false,
          "internalType": "bytes32",
          "name": "key",
          "type": "bytes32"
        }
      ],
      "name": "New_Referendum",
      "type": "event"
    },
    {
      "anonymous": false,
      "inputs": [
        {
          "indexed": false,
          "internalType": "address",
          "name": "register",
          "type": "address"
        },
        {
          "indexed": false,
          "internalType": "bytes32",
          "name": "key",
          "type": "bytes32"
        }
      ],
      "name": "Project_Adopted",
      "type": "event"
    },
    {
      "anonymous": false,
      "inputs": [
        {
          "indexed": false,
          "internalType": "address",
          "name": "register",
          "type": "address"
        },
        {
          "indexed": false,
          "internalType": "bytes32",
          "name": "key",
          "type": "bytes32"
        }
      ],
      "name": "Project_Executed",
      "type": "event"
    },
    {
      "anonymous": false,
      "inputs": [
        {
          "indexed": false,
          "internalType": "address",
          "name": "register",
          "type": "address"
        },
        {
          "indexed": false,
          "internalType": "bytes32",
          "name": "key",
          "type": "bytes32"
        }
      ],
      "name": "Projet_Rejected",
      "type": "event"
    },
    {
      "anonymous": false,
      "inputs": [
        {
          "indexed": false,
          "internalType": "address",
          "name": "register",
          "type": "address"
        },
        {
          "indexed": false,
          "internalType": "bytes32",
          "name": "key",
          "type": "bytes32"
        }
      ],
      "name": "Projet_Signed",
      "type": "event"
    },
    {
      "anonymous": false,
      "inputs": [
        {
          "indexed": false,
          "internalType": "address",
          "name": "register",
          "type": "address"
        },
        {
          "indexed": false,
          "internalType": "bytes32",
          "name": "key",
          "type": "bytes32"
        },
        {
          "indexed": false,
          "internalType": "uint256",
          "name": "proposal_index",
          "type": "uint256"
        }
      ],
      "name": "Proposal_Modified",
      "type": "event"
    },
    {
      "anonymous": false,
      "inputs": [
        {
          "indexed": false,
          "internalType": "address",
          "name": "register_address",
          "type": "address"
        },
        {
          "indexed": false,
          "internalType": "uint256",
          "name": "new_version",
          "type": "uint256"
        }
      ],
      "name": "Referendum_Parameters_Updated",
      "type": "event"
    },
    {
      "anonymous": false,
      "inputs": [
        {
          "indexed": false,
          "internalType": "address",
          "name": "register",
          "type": "address"
        },
        {
          "indexed": false,
          "internalType": "bytes32",
          "name": "key",
          "type": "bytes32"
        },
        {
          "indexed": false,
          "internalType": "bytes32",
          "name": "ballot_key",
          "type": "bytes32"
        }
      ],
      "name": "Voting_Stage_Started",
      "type": "event"
    },
    {
      "inputs": [],
      "name": "Constitution_Address",
      "outputs": [
        {
          "internalType": "address",
          "name": "",
          "type": "address"
        }
      ],
      "stateMutability": "view",
      "type": "function",
      "constant": true
    },
    {
      "inputs": [
        {
          "internalType": "bytes32",
          "name": "",
          "type": "bytes32"
        }
      ],
      "name": "List_Law_Project",
      "outputs": [
        {
          "internalType": "bytes",
          "name": "Title",
          "type": "bytes"
        },
        {
          "internalType": "bytes",
          "name": "Description",
          "type": "bytes"
        },
        {
          "internalType": "uint256",
          "name": "Proposal_Count",
          "type": "uint256"
        },
        {
          "internalType": "uint256",
          "name": "Winning_Proposal",
          "type": "uint256"
        }
      ],
      "stateMutability": "view",
      "type": "function",
      "constant": true
    },
    {
      "inputs": [],
      "name": "Name",
      "outputs": [
        {
          "internalType": "string",
          "name": "",
          "type": "string"
        }
      ],
      "stateMutability": "view",
      "type": "function",
      "constant": true
    },
    {
      "inputs": [
        {
          "internalType": "bytes32",
          "name": "",
          "type": "bytes32"
        }
      ],
      "name": "Referendums",
      "outputs": [
        {
          "internalType": "uint256",
          "name": "Token_Amount_Consummed",
          "type": "uint256"
        },
        {
          "internalType": "uint256",
          "name": "Petition_Counter",
          "type": "uint256"
        },
        {
          "internalType": "uint256",
          "name": "Version",
          "type": "uint256"
        },
        {
          "internalType": "uint256",
          "name": "Creation_Timestamps",
          "type": "uint256"
        },
        {
          "internalType": "uint256",
          "name": "Start_Vote_Timestamps",
          "type": "uint256"
        },
        {
          "internalType": "uint256",
          "name": "Voter_Reward",
          "type": "uint256"
        },
        {
          "internalType": "enum Agora.Status",
          "name": "Referendum_Status",
          "type": "uint8"
        }
      ],
      "stateMutability": "view",
      "type": "function",
      "constant": true
    },
    {
      "inputs": [
        {
          "internalType": "address",
          "name": "new_constitution",
          "type": "address"
        }
      ],
      "name": "Set_Constitution",
      "outputs": [],
      "stateMutability": "nonpayable",
      "type": "function"
    },
    {
      "inputs": [
        {
          "internalType": "string",
          "name": "name",
          "type": "string"
        }
      ],
      "name": "Set_Name",
      "outputs": [],
      "stateMutability": "nonpayable",
      "type": "function"
    },
    {
      "inputs": [],
      "name": "Total_Token_To_Redistribute",
      "outputs": [
        {
          "internalType": "uint256",
          "name": "",
          "type": "uint256"
        }
      ],
      "stateMutability": "view",
      "type": "function",
      "constant": true
    },
    {
      "inputs": [],
      "name": "Type_Institution",
      "outputs": [
        {
          "internalType": "enum Institution.Institution_Type",
          "name": "",
          "type": "uint8"
        }
      ],
      "stateMutability": "view",
      "type": "function",
      "constant": true
    },
    {
      "inputs": [
        {
          "internalType": "address",
          "name": "register_address",
          "type": "address"
        },
        {
          "internalType": "bytes",
          "name": "Title",
          "type": "bytes"
        },
        {
          "internalType": "bytes",
          "name": "Description",
          "type": "bytes"
        }
      ],
      "name": "Add_Law_Project",
      "outputs": [],
      "stateMutability": "nonpayable",
      "type": "function"
    },
    {
      "inputs": [
        {
          "internalType": "address",
          "name": "register_address",
          "type": "address"
        },
        {
          "internalType": "bytes32",
          "name": "referendum_key",
          "type": "bytes32"
        },
        {
          "internalType": "uint256",
          "name": "Parent",
          "type": "uint256"
        },
        {
          "internalType": "uint256[]",
          "name": "Parent_Proposals_Reuse",
          "type": "uint256[]"
        },
        {
          "internalType": "bytes[]",
          "name": "New_Function_Call",
          "type": "bytes[]"
        },
        {
          "internalType": "bytes",
          "name": "Description",
          "type": "bytes"
        }
      ],
      "name": "Add_Proposal",
      "outputs": [],
      "stateMutability": "nonpayable",
      "type": "function"
    },
    {
      "inputs": [
        {
          "internalType": "address",
          "name": "register_address",
          "type": "address"
        },
        {
          "internalType": "bytes32",
          "name": "referendum_key",
          "type": "bytes32"
        },
        {
          "internalType": "uint256",
          "name": "Proposal",
          "type": "uint256"
        },
        {
          "internalType": "bytes[]",
          "name": "New_Items",
          "type": "bytes[]"
        },
        {
          "internalType": "uint256[]",
          "name": "Indexs",
          "type": "uint256[]"
        }
      ],
      "name": "Add_Item",
      "outputs": [],
      "stateMutability": "nonpayable",
      "type": "function"
    },
    {
      "inputs": [
        {
          "internalType": "address",
          "name": "register_address",
          "type": "address"
        },
        {
          "internalType": "bytes32",
          "name": "referendum_key",
          "type": "bytes32"
        }
      ],
      "name": "Sign_Petition",
      "outputs": [],
      "stateMutability": "nonpayable",
      "type": "function"
    },
    {
      "inputs": [
        {
          "internalType": "address",
          "name": "register_address",
          "type": "address"
        },
        {
          "internalType": "bytes32",
          "name": "referendum_key",
          "type": "bytes32"
        }
      ],
      "name": "End_Proposition_Stage",
      "outputs": [],
      "stateMutability": "nonpayable",
      "type": "function"
    },
    {
      "inputs": [
        {
          "internalType": "address",
          "name": "register_address",
          "type": "address"
        },
        {
          "internalType": "bytes32",
          "name": "referendum_key",
          "type": "bytes32"
        }
      ],
      "name": "End_Vote",
      "outputs": [],
      "stateMutability": "nonpayable",
      "type": "function"
    },
    {
      "inputs": [
        {
          "internalType": "address",
          "name": "register_address",
          "type": "address"
        },
        {
          "internalType": "bytes32",
          "name": "referendum_key",
          "type": "bytes32"
        },
        {
          "internalType": "uint256",
          "name": "num_function_call_ToExecute",
          "type": "uint256"
        }
      ],
      "name": "Execute_Law",
      "outputs": [],
      "stateMutability": "nonpayable",
      "type": "function"
    },
    {
      "inputs": [
        {
          "internalType": "address",
          "name": "register_address",
          "type": "address"
        },
        {
          "internalType": "bytes32",
          "name": "referendum_key",
          "type": "bytes32"
        }
      ],
      "name": "Get_Voter_Reward",
      "outputs": [],
      "stateMutability": "nonpayable",
      "type": "function"
    },
    {
      "inputs": [
        {
          "internalType": "address",
          "name": "register_address",
          "type": "address"
        },
        {
          "internalType": "uint8",
          "name": "register_type",
          "type": "uint8"
        }
      ],
      "name": "Create_Register_Referendum",
      "outputs": [],
      "stateMutability": "nonpayable",
      "type": "function"
    },
    {
      "inputs": [
        {
          "internalType": "address",
          "name": "register_address",
          "type": "address"
        },
        {
          "internalType": "uint256",
          "name": "Petition_Duration",
          "type": "uint256"
        },
        {
          "internalType": "uint256",
          "name": "Vote_Duration",
          "type": "uint256"
        },
        {
          "internalType": "uint256",
          "name": "Vote_Checking_Duration",
          "type": "uint256"
        },
        {
          "internalType": "uint256",
          "name": "Law_Initialisation_Price",
          "type": "uint256"
        },
        {
          "internalType": "uint256",
          "name": "FunctionCall_Price",
          "type": "uint256"
        },
        {
          "internalType": "uint16",
          "name": "Required_Petition_Rate",
          "type": "uint16"
        },
        {
          "internalType": "address",
          "name": "Ivote_address",
          "type": "address"
        }
      ],
      "name": "Update_Register_Referendum_Parameters",
      "outputs": [],
      "stateMutability": "nonpayable",
      "type": "function"
    },
    {
      "inputs": [
        {
          "internalType": "address",
          "name": "register_address",
          "type": "address"
        }
      ],
      "name": "Get_Referendum_Register",
      "outputs": [
        {
          "internalType": "uint256",
          "name": "last_version",
          "type": "uint256"
        },
        {
          "internalType": "enum Institution.Institution_Type",
          "name": "institution_type",
          "type": "uint8"
        },
        {
          "internalType": "bytes32[]",
          "name": "list_referendums",
          "type": "bytes32[]"
        }
      ],
      "stateMutability": "view",
      "type": "function",
      "constant": true
    },
    {
      "inputs": [
        {
          "internalType": "address",
          "name": "register_address",
          "type": "address"
        },
        {
          "internalType": "uint256",
          "name": "version",
          "type": "uint256"
        }
      ],
      "name": "Get_Referendum_Register_Parameters",
      "outputs": [
        {
          "components": [
            {
              "internalType": "uint256",
              "name": "Petition_Duration",
              "type": "uint256"
            },
            {
              "internalType": "uint256",
              "name": "Vote_Duration",
              "type": "uint256"
            },
            {
              "internalType": "uint256",
              "name": "Vote_Checking_Duration",
              "type": "uint256"
            },
            {
              "internalType": "uint256",
              "name": "Law_Initialisation_Price",
              "type": "uint256"
            },
            {
              "internalType": "uint256",
              "name": "FunctionCall_Price",
              "type": "uint256"
            },
            {
              "internalType": "uint16",
              "name": "Required_Petition_Rate",
              "type": "uint16"
            },
            {
              "internalType": "address",
              "name": "Ivote_address",
              "type": "address"
            }
          ],
          "internalType": "struct Agora.Referendum_Parameters",
          "name": "parameters",
          "type": "tuple"
        }
      ],
      "stateMutability": "view",
      "type": "function",
      "constant": true
    },
    {
      "inputs": [
        {
          "internalType": "bytes32",
          "name": "key",
          "type": "bytes32"
        },
        {
          "internalType": "uint256",
          "name": "id",
          "type": "uint256"
        }
      ],
      "name": "Get_Proposal",
      "outputs": [
        {
          "internalType": "bytes",
          "name": "description",
          "type": "bytes"
        },
        {
          "internalType": "uint256[]",
          "name": "childrens",
          "type": "uint256[]"
        },
        {
          "internalType": "bytes[]",
          "name": "function_calls",
          "type": "bytes[]"
        },
        {
          "internalType": "uint256",
          "name": "func_call_counter",
          "type": "uint256"
        },
        {
          "internalType": "uint256",
          "name": "parent",
          "type": "uint256"
        },
        {
          "internalType": "address",
          "name": "author",
          "type": "address"
        }
      ],
      "stateMutability": "view",
      "type": "function",
      "constant": true
    },
    {
      "inputs": [
        {
          "internalType": "bytes32",
          "name": "key",
          "type": "bytes32"
        }
      ],
      "name": "Get_Law_Results",
      "outputs": [
        {
          "internalType": "uint256",
          "name": "Winning_Proposal",
          "type": "uint256"
        },
        {
          "components": [
            {
              "internalType": "bool",
              "name": "Success",
              "type": "bool"
            },
            {
              "internalType": "bytes",
              "name": "Receipt",
              "type": "bytes"
            }
          ],
          "internalType": "struct Initiative_Legislative_Lib.Function_Call_Result[]",
          "name": "Receipts",
          "type": "tuple[]"
        }
      ],
      "stateMutability": "view",
      "type": "function",
      "constant": true
    }
  ],
  "bytecode": "0x60806040523480156200001157600080fd5b5060405162004b4138038062004b4183398101604081905262000034916200015f565b60016000819055835184916200004f9160208401906200009c565b505060028054600160a11b60ff60a01b19336001600160a01b03199384161716179091556007805482166001600160a01b03948516179055600880549091169190921617905550620002af565b828054620000aa906200025c565b90600052602060002090601f016020900481019282620000ce576000855562000119565b82601f10620000e957805160ff191683800117855562000119565b8280016001018555821562000119579182015b8281111562000119578251825591602001919060010190620000fc565b50620001279291506200012b565b5090565b5b808211156200012757600081556001016200012c565b80516001600160a01b03811681146200015a57600080fd5b919050565b60008060006060848603121562000174578283fd5b83516001600160401b03808211156200018b578485fd5b818601915086601f8301126200019f578485fd5b815181811115620001b457620001b462000299565b604051601f8201601f19908116603f01168101908382118183101715620001df57620001df62000299565b81604052828152602093508984848701011115620001fb578788fd5b8791505b828210156200021e5784820184015181830185015290830190620001ff565b828211156200022f57878484830101525b96506200024191505086820162000142565b93505050620002536040850162000142565b90509250925092565b6002810460018216806200027157607f821691505b602082108114156200029357634e487b7160e01b600052602260045260246000fd5b50919050565b634e487b7160e01b600052604160045260246000fd5b61488280620002bf6000396000f3fe608060405234801561001057600080fd5b50600436106101825760003560e01c80639155e45b116100d8578063c3cef4321161008c578063eb101b2311610066578063eb101b2314610360578063ef37750714610375578063fa0706401461038857610182565b8063c3cef43214610317578063c9cf9b991461032a578063da8348041461033d57610182565b80639d2f7ba3116100bd5780639d2f7ba3146102de578063bbfc76c1146102f1578063c288def21461030457610182565b80639155e45b146102ab578063938bdf9d146102be57610182565b806350af72ab1161013a5780638052474d116101145780638052474d1461025d5780638330041314610272578063847c0cdf1461028557610182565b806350af72ab1461022257806353b0600a1461023557806368e13b5d1461024a57610182565b806319fc53351161016b57806319fc5335146101c65780631d0527e7146101eb5780633c289ea81461020d57610182565b806302d4cd281461018757806315a42475146101a5575b600080fd5b61018f61039b565b60405161019c9190613c9e565b60405180910390f35b6101b86101b3366004613968565b6103b7565b60405161019c929190614495565b6101d96101d4366004613980565b6104d6565b60405161019c96959493929190613e32565b6101fe6101f9366004613579565b61065e565b60405161019c9392919061452f565b61022061021b366004613579565b6106f4565b005b610220610230366004613595565b6107e2565b61023d610b3e565b60405161019c9190613d6b565b6102206102583660046135c0565b610b44565b610265611067565b60405161019c9190613f33565b610220610280366004613595565b6110f5565b610298610293366004613968565b611521565b60405161019c979695949392919061457a565b6102206102b9366004613abe565b611562565b6102d16102cc3660046137c5565b6115d3565b60405161019c919061442d565b6102206102ec3660046135f4565b61166e565b6102206102ff3660046137d7565b611ade565b610220610312366004613595565b611ea0565b610220610325366004613687565b6124bd565b610220610338366004613595565b612a1c565b61035061034b366004613968565b612c6b565b60405161019c9493929190613eec565b610368612da3565b60405161019c9190613f25565b610220610383366004613858565b612dc4565b610220610396366004613745565b612eae565b60025473ffffffffffffffffffffffffffffffffffffffff1681565b600081815260036020908152604080832060058101546006909101805483518186028101860190945280845260609492939192839190879084015b828210156104c75760008481526020908190206040805180820190915260028502909101805460ff16151582526001810180549293919291840191610436906146ca565b80601f0160208091040260200160405190810160405280929190818152602001828054610462906146ca565b80156104af5780601f10610484576101008083540402835291602001916104af565b820191906000526020600020905b81548152906001019060200180831161049257829003601f168201915b505050505081525050815260200190600101906103f2565b50505050905091509150915091565b60008281526003602052604080822090517fbebe81d2000000000000000000000000000000000000000000000000000000008152606092839283928291829173__Initiative_Legislative_Lib____________9163bebe81d29161054091908b90600401613c90565b60006040518083038186803b15801561055857600080fd5b505af415801561056c573d6000803e3d6000fd5b505050506040513d6000823e601f3d908101601f191682016040526105949190810190613895565b6000898152600360205260409081902090517f2c64627600000000000000000000000000000000000000000000000000000000815291955073__Initiative_Legislative_Lib____________91632c646276916105f6918b90600401613c90565b60006040518083038186803b15801561060e57600080fd5b505af4158015610622573d6000803e3d6000fd5b505050506040513d6000823e601f3d908101601f1916820160405261064a91908101906139e1565b939c929b5096995097509495509392505050565b73ffffffffffffffffffffffffffffffffffffffff8116600090815260046020908152604080832080546001820154600290920180548451818702810187019095528085528695606095939460ff16939183918301828280156106e057602002820191906000526020600020905b8154815260200190600101908083116106cc575b505050505090509250925092509193909250565b60025473ffffffffffffffffffffffffffffffffffffffff1633146107345760405162461bcd60e51b815260040161072b90613fb4565b60405180910390fd5b73ffffffffffffffffffffffffffffffffffffffff81166107675760405162461bcd60e51b815260040161072b90614048565b600280547fffffffffffffffffffffffff00000000000000000000000000000000000000001673ffffffffffffffffffffffffffffffffffffffff83161790556040517feaf9201ae5a091c46918bca9c5ced3b9aa103362b0a68a1f36b9f2858b0a4c14906107d7908390613c9e565b60405180910390a150565b6008546040517f57f98d3200000000000000000000000000000000000000000000000000000000815273ffffffffffffffffffffffffffffffffffffffff909116906357f98d3290610838903390600401613c9e565b60206040518083038186803b15801561085057600080fd5b505afa158015610864573d6000803e3d6000fd5b505050506040513d601f19601f820116820180604052508101906108889190613923565b6108a45760405162461bcd60e51b815260040161072b90614192565b60008181526005602090815260408083206002015473ffffffffffffffffffffffffffffffffffffffff861684526004909252909120546108f75760405162461bcd60e51b815260040161072b9061407f565b600160008381526005602052604090206006015460ff166004811115610946577f4e487b7100000000000000000000000000000000000000000000000000000000600052602160045260246000fd5b146109635760405162461bcd60e51b815260040161072b906142dc565b60008281526005602090815260408083206004015490516109879286929101613c90565b60408051601f19818403018152828252805160209182012073ffffffffffffffffffffffffffffffffffffffff80891660009081526004808552858220898352600301909452938420600501547fce584e12000000000000000000000000000000000000000000000000000000008652919550620100009091041692839163ce584e1291610a19918791869101613c90565b60206040518083038186803b158015610a3157600080fd5b505afa158015610a45573d6000803e3d6000fd5b505050506040513d601f19601f82011682018060405250810190610a699190613afe565b6000868152600360205260409020600501819055905080610adf5760008581526005602052604090819020600601805460ff19166004179055517fc0484628c45470ef274ad33a8349f25e4872443bfa84ae4449565f856e2d154790610ad29088908890613d17565b60405180910390a1610b36565b60008581526005602052604090819020600601805460ff19166002179055517f30163b7fdf14635a330fe4fe05c140eb127856c17cdd70e13a033c99179d7ab790610b2d9088908890613d17565b60405180910390a15b505050505050565b60065481565b6008546040517f57f98d3200000000000000000000000000000000000000000000000000000000815273ffffffffffffffffffffffffffffffffffffffff909116906357f98d3290610b9a903390600401613c9e565b60206040518083038186803b158015610bb257600080fd5b505afa158015610bc6573d6000803e3d6000fd5b505050506040513d601f19601f82011682018060405250810190610bea9190613923565b610c065760405162461bcd60e51b815260040161072b90614192565b60026000541415610c295760405162461bcd60e51b815260040161072b906142a5565b6002600090815573ffffffffffffffffffffffffffffffffffffffff8416815260046020526040902054610c6f5760405162461bcd60e51b815260040161072b9061407f565b600260008381526005602052604090206006015460ff166004811115610cbe577f4e487b7100000000000000000000000000000000000000000000000000000000600052602160045260246000fd5b14610cdb5760405162461bcd60e51b815260040161072b90613f46565b7f6788cb9b25df12671543610cf8b18b59ef71b4bdc371adf75a2cb8e42dd81d18838383604051610d0e93929190613d3d565b60405180910390a16000828152600360205260409081902090517f8a73792500000000000000000000000000000000000000000000000000000000815273__Initiative_Legislative_Lib____________91638a73792591610d7891908590889060040161434c565b60206040518083038186803b158015610d9057600080fd5b505af4158015610da4573d6000803e3d6000fd5b505050506040513d601f19601f82011682018060405250810190610dc89190613923565b1561105d576000828152600560209081526040808320600401549051610df19286929101613c90565b60408051808303601f1901815282825280516020918201206000878152600580845284822060068101805460ff19166003908117909155815473ffffffffffffffffffffffffffffffffffffffff8d811686526004808952898720600290950154875293909201909652958320909101547f2422de8700000000000000000000000000000000000000000000000000000000875292965092946201000090920490931692918391632422de8791610eaa91889101613d6b565b60206040518083038186803b158015610ec257600080fd5b505afa158015610ed6573d6000803e3d6000fd5b505050506040513d601f19601f82011682018060405250810190610efa9190613afe565b6006546007546040517f70a0823100000000000000000000000000000000000000000000000000000000815292935060009273ffffffffffffffffffffffffffffffffffffffff909116906370a0823190610f59903090600401613c9e565b60206040518083038186803b158015610f7157600080fd5b505afa158015610f85573d6000803e3d6000fd5b505050506040513d601f19601f82011682018060405250810190610fa99190613afe565b610fb39190614683565b90508015610fe0578060066000828254610fcd919061461a565b90915550610fdd9050818561461a565b93505b610fea8285614632565b600088815260056020819052604090912001556110078285614757565b600660008282546110189190614683565b90915550506040517fe9f42b97fc287852ff1cd5bf77ebbb531da76c47f889eb8b827e39b12d11c21e9061104f908a908a90613d17565b60405180910390a150505050505b5050600160005550565b60018054611074906146ca565b80601f01602080910402602001604051908101604052809291908181526020018280546110a0906146ca565b80156110ed5780601f106110c2576101008083540402835291602001916110ed565b820191906000526020600020905b8154815290600101906020018083116110d057829003601f168201915b505050505081565b73ffffffffffffffffffffffffffffffffffffffff82166000908152600460205260409020546111375760405162461bcd60e51b815260040161072b9061407f565b600081815260056020908152604080832033845260080190915290205460ff16156111745760405162461bcd60e51b815260040161072b90614237565b600360008281526005602052604090206006015460ff1660048111156111c3577f4e487b7100000000000000000000000000000000000000000000000000000000600052602160045260246000fd5b146111e05760405162461bcd60e51b815260040161072b9061415b565b600081815260056020818152604080842060028101548185015473ffffffffffffffffffffffffffffffffffffffff808a1688526004808752858920848a5260030187528589208801548a8a529787529093015493519196909562010000900490921693919261125292889201613c90565b60408051601f19818403018152918152815160209283012073ffffffffffffffffffffffffffffffffffffffff891660009081526004845282812088825260030190935291206002015490915015611370576040517f589edb4400000000000000000000000000000000000000000000000000000000815260009073ffffffffffffffffffffffffffffffffffffffff84169063589edb44906112fb9085903390600401613d74565b604080518083038186803b15801561131257600080fd5b505afa158015611326573d6000803e3d6000fd5b505050506040513d601f19601f8201168201806040525081019061134a919061393d565b5090508061136a5760405162461bcd60e51b815260040161072b90614124565b50611430565b6040517f6e85cb0a00000000000000000000000000000000000000000000000000000000815273ffffffffffffffffffffffffffffffffffffffff831690636e85cb0a906113c49084903390600401613d74565b60206040518083038186803b1580156113dc57600080fd5b505afa1580156113f0573d6000803e3d6000fd5b505050506040513d601f19601f820116820180604052508101906114149190613923565b6114305760405162461bcd60e51b815260040161072b906141c9565b60008581526005602090815260408083203384526008019091528120805460ff1916600117905560068054859290611469908490614683565b90915550506007546040517fa9059cbb00000000000000000000000000000000000000000000000000000000815273ffffffffffffffffffffffffffffffffffffffff9091169063a9059cbb906114c69033908790600401613d17565b602060405180830381600087803b1580156114e057600080fd5b505af11580156114f4573d6000803e3d6000fd5b505050506040513d601f19601f820116820180604052508101906115189190613923565b50505050505050565b600560208190526000918252604090912080546001820154600283015460038401546004850154958501546006909501549395929491939092919060ff1687565b60025473ffffffffffffffffffffffffffffffffffffffff1633146115995760405162461bcd60e51b815260040161072b90613fb4565b6115a560018383613376565b506040517f379308d0bb59c3a96480e25be5a540b7ed745d0ba7bc0d59819082fb1d8f5a0d90600090a15050565b6115db6133fa565b5073ffffffffffffffffffffffffffffffffffffffff80831660009081526004602081815260408084208685526003908101835293819020815160e0810183528154815260018201549381019390935260028101549183019190915292830154606082015290820154608082015260059091015461ffff811660a083015262010000900490911660c08201525b92915050565b6008546040517f57f98d3200000000000000000000000000000000000000000000000000000000815273ffffffffffffffffffffffffffffffffffffffff909116906357f98d32906116c4903390600401613c9e565b60206040518083038186803b1580156116dc57600080fd5b505afa1580156116f0573d6000803e3d6000fd5b505050506040513d601f19601f820116820180604052508101906117149190613923565b6117305760405162461bcd60e51b815260040161072b90614192565b60008681526005602090815260408083206002015473ffffffffffffffffffffffffffffffffffffffff8b1684526004909252909120546117835760405162461bcd60e51b815260040161072b9061407f565b806117a05760405162461bcd60e51b815260040161072b90614200565b60008781526005602052604081206006015460ff1660048111156117ed577f4e487b7100000000000000000000000000000000000000000000000000000000600052602160045260246000fd5b1461180a5760405162461bcd60e51b815260040161072b906140ed565b73ffffffffffffffffffffffffffffffffffffffff881660009081526004602081815260408084208585526003019091528220015461184a908690614646565b6007546040517fdd62ed3e000000000000000000000000000000000000000000000000000000008152919250829173ffffffffffffffffffffffffffffffffffffffff9091169063dd62ed3e906118a79033903090600401613cbf565b60206040518083038186803b1580156118bf57600080fd5b505afa1580156118d3573d6000803e3d6000fd5b505050506040513d601f19601f820116820180604052508101906118f79190613afe565b10156119155760405162461bcd60e51b815260040161072b90613f7d565b6000888152600560205260408120805483929061193390849061461a565b92505081905550806006600082825461194c919061461a565b90915550506000888152600360205260409081902090517fea02218200000000000000000000000000000000000000000000000000000000815273__Initiative_Legislative_Lib____________9163ea022182916119bb91908b908b908b908b908b903390600401614378565b60006040518083038186803b1580156119d357600080fd5b505af41580156119e7573d6000803e3d6000fd5b505050507ff72e3c142ffc8ff45a605c45381ac88b2d9118d0fa9c99d677029114a4b66d73898989604051611a1e93929190613d3d565b60405180910390a16007546040517f23b872dd00000000000000000000000000000000000000000000000000000000815273ffffffffffffffffffffffffffffffffffffffff909116906323b872dd90611a8090339030908690600401613ce6565b602060405180830381600087803b158015611a9a57600080fd5b505af1158015611aae573d6000803e3d6000fd5b505050506040513d601f19601f82011682018060405250810190611ad29190613923565b50505050505050505050565b60025473ffffffffffffffffffffffffffffffffffffffff163314611b155760405162461bcd60e51b815260040161072b90613fb4565b73ffffffffffffffffffffffffffffffffffffffff8816600090815260046020526040812054611b4690600161461a565b905087600460008b73ffffffffffffffffffffffffffffffffffffffff1673ffffffffffffffffffffffffffffffffffffffff16815260200190815260200160002060030160008381526020019081526020016000206000018190555086600460008b73ffffffffffffffffffffffffffffffffffffffff1673ffffffffffffffffffffffffffffffffffffffff16815260200190815260200160002060030160008381526020019081526020016000206001018190555085600460008b73ffffffffffffffffffffffffffffffffffffffff1673ffffffffffffffffffffffffffffffffffffffff16815260200190815260200160002060030160008381526020019081526020016000206002018190555084600460008b73ffffffffffffffffffffffffffffffffffffffff1673ffffffffffffffffffffffffffffffffffffffff16815260200190815260200160002060030160008381526020019081526020016000206003018190555083600460008b73ffffffffffffffffffffffffffffffffffffffff1673ffffffffffffffffffffffffffffffffffffffff16815260200190815260200160002060030160008381526020019081526020016000206004018190555082600460008b73ffffffffffffffffffffffffffffffffffffffff1673ffffffffffffffffffffffffffffffffffffffff168152602001908152602001600020600301600083815260200190815260200160002060050160006101000a81548161ffff021916908361ffff16021790555081600460008b73ffffffffffffffffffffffffffffffffffffffff1673ffffffffffffffffffffffffffffffffffffffff168152602001908152602001600020600301600083815260200190815260200160002060050160026101000a81548173ffffffffffffffffffffffffffffffffffffffff021916908373ffffffffffffffffffffffffffffffffffffffff16021790555080600460008b73ffffffffffffffffffffffffffffffffffffffff1673ffffffffffffffffffffffffffffffffffffffff168152602001908152602001600020600001819055507f7bb8283c3247c95f823358b1c6be303d182859f7e0173cd80ec6f6fee14d58028982604051611e8d929190613d17565b60405180910390a1505050505050505050565b6008546040517f57f98d3200000000000000000000000000000000000000000000000000000000815273ffffffffffffffffffffffffffffffffffffffff909116906357f98d3290611ef6903390600401613c9e565b60206040518083038186803b158015611f0e57600080fd5b505afa158015611f22573d6000803e3d6000fd5b505050506040513d601f19601f82011682018060405250810190611f469190613923565b611f625760405162461bcd60e51b815260040161072b90614192565b60008181526005602090815260408083206002015473ffffffffffffffffffffffffffffffffffffffff86168452600490925290912054611fb55760405162461bcd60e51b815260040161072b9061407f565b80611fd25760405162461bcd60e51b815260040161072b90614200565b60008281526005602052604081206006015460ff16600481111561201f577f4e487b7100000000000000000000000000000000000000000000000000000000600052602160045260246000fd5b1461203c5760405162461bcd60e51b815260040161072b906140ed565b73ffffffffffffffffffffffffffffffffffffffff831660009081526004602090815260408083208484526003908101835281842054868552600590935292209091015461208a9042614683565b116120a75760405162461bcd60e51b815260040161072b906140b6565b73ffffffffffffffffffffffffffffffffffffffff80841660009081526004602081815260408084208685526003018252928390206005015460085484517ffa91965f000000000000000000000000000000000000000000000000000000008152945161217a9661ffff90931695919092169363fa91965f93828201939092909190829003018186803b15801561213d57600080fd5b505afa158015612151573d6000803e3d6000fd5b505050506040513d601f19601f820116820180604052508101906121759190613afe565b613352565b600083815260056020526040902060010154108015906121aa575060008281526003602052604090206004015415155b1561244857600082426040516020016121c4929190613c90565b60408051808303601f19018152828252805160209182012073ffffffffffffffffffffffffffffffffffffffff8881166000908152600480855285822089835260030185528582206005908101548b8452955294902042948101949094556006909301805460ff19166001179055935062010000900416907f0bd9e7b208fda4121b4742c651edb73ab6eb27fb08d7c5e934b777269b6774419061226d90879087908690613d3d565b60405180910390a1600854604080517f285b8822000000000000000000000000000000000000000000000000000000008152905173ffffffffffffffffffffffffffffffffffffffff8481169363e13453589387939290911691829163285b8822916004808301926020929190829003018186803b1580156122ee57600080fd5b505afa158015612302573d6000803e3d6000fd5b505050506040513d601f19601f8201168201806040525081019061232691906139a1565b600460008b73ffffffffffffffffffffffffffffffffffffffff1673ffffffffffffffffffffffffffffffffffffffff168152602001908152602001600020600301600089815260200190815260200160002060010154600460008c73ffffffffffffffffffffffffffffffffffffffff1673ffffffffffffffffffffffffffffffffffffffff16815260200190815260200160002060030160008a815260200190815260200160002060020154600360008c81526020019081526020016000206004015460016040518863ffffffff1660e01b815260040161240f9796959493929190613d98565b600060405180830381600087803b15801561242957600080fd5b505af115801561243d573d6000803e3d6000fd5b5050505050506124b8565b60008281526005602052604081206006808201805460ff1916600417905590548154909290612478908490614683565b90915550506040517fc0484628c45470ef274ad33a8349f25e4872443bfa84ae4449565f856e2d1547906124af9085908590613d17565b60405180910390a15b505050565b6008546040517f57f98d3200000000000000000000000000000000000000000000000000000000815273ffffffffffffffffffffffffffffffffffffffff909116906357f98d3290612513903390600401613c9e565b60206040518083038186803b15801561252b57600080fd5b505afa15801561253f573d6000803e3d6000fd5b505050506040513d601f19601f820116820180604052508101906125639190613923565b61257f5760405162461bcd60e51b815260040161072b90614192565b60008881526005602090815260408083206002015473ffffffffffffffffffffffffffffffffffffffff8d1684526004909252909120546125d25760405162461bcd60e51b815260040161072b9061407f565b806125ef5760405162461bcd60e51b815260040161072b90614200565b60008981526005602052604081206006015460ff16600481111561263c577f4e487b7100000000000000000000000000000000000000000000000000000000600052602160045260246000fd5b146126595760405162461bcd60e51b815260040161072b906140ed565b73ffffffffffffffffffffffffffffffffffffffff8a16600090815260046020818152604080842085855260030190915282200154612699908690614646565b6007546040517fdd62ed3e000000000000000000000000000000000000000000000000000000008152919250829173ffffffffffffffffffffffffffffffffffffffff9091169063dd62ed3e906126f69033903090600401613cbf565b60206040518083038186803b15801561270e57600080fd5b505afa158015612722573d6000803e3d6000fd5b505050506040513d601f19601f820116820180604052508101906127469190613afe565b10156127645760405162461bcd60e51b815260040161072b90613f7d565b60008a8152600560205260408120805483929061278290849061461a565b92505081905550806006600082825461279b919061461a565b909155505060008a815260056020908152604080832033845260070190915290205460ff166128155760008a8152600560208181526040808420338552600781018352908420805460ff19166001908117909155938e90529190528101546128029161461a565b60008b8152600560205260409020600101555b60008a81526003602052604081206004015461283290600161461a565b905033600360008d8152602001908152602001600020600301600083815260200190815260200160002060050160006101000a81548173ffffffffffffffffffffffffffffffffffffffff021916908373ffffffffffffffffffffffffffffffffffffffff160217905550600360008c815260200190815260200160002073__Initiative_Legislative_Lib____________63902f807f90918c8c8c8c8c8c8c6040518963ffffffff1660e01b81526004016128f69897969594939291906143d6565b60006040518083038186803b15801561290e57600080fd5b505af4158015612922573d6000803e3d6000fd5b505050507fad59e609f2c36c5e4829994a203558758493015a7595e52a658449c18ab4a0328c8c8360405161295993929190613d3d565b60405180910390a16007546040517f23b872dd00000000000000000000000000000000000000000000000000000000815273ffffffffffffffffffffffffffffffffffffffff909116906323b872dd906129bb90339030908790600401613ce6565b602060405180830381600087803b1580156129d557600080fd5b505af11580156129e9573d6000803e3d6000fd5b505050506040513d601f19601f82011682018060405250810190612a0d9190613923565b50505050505050505050505050565b6008546040517f57f98d3200000000000000000000000000000000000000000000000000000000815273ffffffffffffffffffffffffffffffffffffffff909116906357f98d3290612a72903390600401613c9e565b60206040518083038186803b158015612a8a57600080fd5b505afa158015612a9e573d6000803e3d6000fd5b505050506040513d601f19601f82011682018060405250810190612ac29190613923565b612ade5760405162461bcd60e51b815260040161072b90614192565b73ffffffffffffffffffffffffffffffffffffffff8216600090815260046020526040902054612b205760405162461bcd60e51b815260040161072b9061407f565b60008181526005602052604090206002015480612b4f5760405162461bcd60e51b815260040161072b90614200565b60008281526005602052604081206006015460ff166004811115612b9c577f4e487b7100000000000000000000000000000000000000000000000000000000600052602160045260246000fd5b14612bb95760405162461bcd60e51b815260040161072b906140ed565b600082815260056020908152604080832033845260070190915290205460ff1615612bf65760405162461bcd60e51b815260040161072b9061426e565b6000828152600560208181526040808420338552600781018352908420805460ff191660019081179091558685529290915201805491612c358361471e565b91905055507fa0acab554b8bc32a9b2c60e08ab206908a93174bb93a315e05040f40a4794e1c83836040516124af929190613d17565b600360205260009081526040902080548190612c86906146ca565b80601f0160208091040260200160405190810160405280929190818152602001828054612cb2906146ca565b8015612cff5780601f10612cd457610100808354040283529160200191612cff565b820191906000526020600020905b815481529060010190602001808311612ce257829003601f168201915b505050505090806001018054612d14906146ca565b80601f0160208091040260200160405190810160405280929190818152602001828054612d40906146ca565b8015612d8d5780601f10612d6257610100808354040283529160200191612d8d565b820191906000526020600020905b815481529060010190602001808311612d7057829003601f168201915b5050505050908060040154908060050154905084565b60025474010000000000000000000000000000000000000000900460ff1681565b60025473ffffffffffffffffffffffffffffffffffffffff163314612dfb5760405162461bcd60e51b815260040161072b90613fb4565b8060ff166006811115612e37577f4e487b7100000000000000000000000000000000000000000000000000000000600052602160045260246000fd5b73ffffffffffffffffffffffffffffffffffffffff8316600090815260046020526040902060019081018054909160ff1990911690836006811115612ea5577f4e487b7100000000000000000000000000000000000000000000000000000000600052602160045260246000fd5b02179055505050565b6008546040517f57f98d3200000000000000000000000000000000000000000000000000000000815273ffffffffffffffffffffffffffffffffffffffff909116906357f98d3290612f04903390600401613c9e565b60206040518083038186803b158015612f1c57600080fd5b505afa158015612f30573d6000803e3d6000fd5b505050506040513d601f19601f82011682018060405250810190612f549190613923565b612f705760405162461bcd60e51b815260040161072b90614192565b73ffffffffffffffffffffffffffffffffffffffff851660009081526004602052604090205480612fb35760405162461bcd60e51b815260040161072b9061407f565b73ffffffffffffffffffffffffffffffffffffffff8087166000908152600460208181526040808420868552600390810190925292839020015460075492517fdd62ed3e00000000000000000000000000000000000000000000000000000000815290938493169163dd62ed3e9161302f913391309101613cbf565b60206040518083038186803b15801561304757600080fd5b505afa15801561305b573d6000803e3d6000fd5b505050506040513d601f19601f8201168201806040525081019061307f9190613afe565b101561309d5760405162461bcd60e51b815260040161072b90613f7d565b6000868686866040516020016130b69493929190613e00565b60408051601f19818403018152918152815160209283012060008181526005909352912060020154909150156130fe5760405162461bcd60e51b815260040161072b90613feb565b6000818152600360205260409081902090517f35dbcfb200000000000000000000000000000000000000000000000000000000815273__Initiative_Legislative_Lib____________916335dbcfb29161316491908b908b908b908b90600401614313565b60006040518083038186803b15801561317c57600080fd5b505af4158015613190573d6000803e3d6000fd5b505050600082815260056020818152604080842060028101899055426003820155338552600781018352908420805460ff19166001908117909155938690529190528101546131e092509061461a565b600082815260056020818152604080842060018082019690965573ffffffffffffffffffffffffffffffffffffffff8e168552600483529084206002018054958601815584528184209094018590558483525281548492919061324490849061461a565b92505081905550816006600082825461325d919061461a565b90915550506007546040517f23b872dd00000000000000000000000000000000000000000000000000000000815273ffffffffffffffffffffffffffffffffffffffff909116906323b872dd906132bc90339030908790600401613ce6565b602060405180830381600087803b1580156132d657600080fd5b505af11580156132ea573d6000803e3d6000fd5b505050506040513d601f19601f8201168201806040525081019061330e9190613923565b507fe7eced308252117ea126d89bd85cc3c84ac9b6d53828f666e786228bf13958cb8882604051613340929190613d17565b60405180910390a15050505050505050565b60006127106133658361ffff8616614646565b61336f9190614632565b9392505050565b828054613382906146ca565b90600052602060002090601f0160209004810192826133a457600085556133ea565b82601f106133bd5782800160ff198235161785556133ea565b828001600101855582156133ea579182015b828111156133ea5782358255916020019190600101906133cf565b506133f6929150613451565b5090565b6040518060e001604052806000815260200160008152602001600081526020016000815260200160008152602001600061ffff168152602001600073ffffffffffffffffffffffffffffffffffffffff1681525090565b5b808211156133f65760008155600101613452565b805161347181614827565b919050565b60008083601f840112613487578182fd5b50813567ffffffffffffffff81111561349e578182fd5b60208301915083602080830285010111156134b857600080fd5b9250929050565b8051801515811461347157600080fd5b60008083601f8401126134e0578182fd5b50813567ffffffffffffffff8111156134f7578182fd5b6020830191508360208285010111156134b857600080fd5b600082601f83011261351f578081fd5b815167ffffffffffffffff811115613539576135396147f8565b61354c6020601f19601f840116016145c5565b818152846020838601011115613560578283fd5b61357182602083016020870161469a565b949350505050565b60006020828403121561358a578081fd5b813561336f81614827565b600080604083850312156135a7578081fd5b82356135b281614827565b946020939093013593505050565b6000806000606084860312156135d4578081fd5b83356135df81614827565b95602085013595506040909401359392505050565b600080600080600080600060a0888a03121561360e578283fd5b873561361981614827565b96506020880135955060408801359450606088013567ffffffffffffffff80821115613643578485fd5b61364f8b838c01613476565b909650945060808a0135915080821115613667578384fd5b506136748a828b01613476565b989b979a50959850939692959293505050565b600080600080600080600080600060c08a8c0312156136a4578283fd5b89356136af81614827565b985060208a0135975060408a0135965060608a013567ffffffffffffffff808211156136d9578485fd5b6136e58d838e01613476565b909850965060808c01359150808211156136fd578485fd5b6137098d838e01613476565b909650945060a08c0135915080821115613721578384fd5b5061372e8c828d016134cf565b915080935050809150509295985092959850929598565b60008060008060006060868803121561375c578283fd5b853561376781614827565b9450602086013567ffffffffffffffff80821115613783578485fd5b61378f89838a016134cf565b909650945060408801359150808211156137a7578283fd5b506137b4888289016134cf565b969995985093965092949392505050565b600080604083850312156135a7578182fd5b600080600080600080600080610100898b0312156137f3578182fd5b88356137fe81614827565b97506020890135965060408901359550606089013594506080890135935060a0890135925060c089013561ffff81168114613837578283fd5b915060e089013561384781614827565b809150509295985092959890939650565b6000806040838503121561386a578182fd5b823561387581614827565b9150602083013560ff8116811461388a578182fd5b809150509250929050565b600060208083850312156138a7578182fd5b825167ffffffffffffffff8111156138bd578283fd5b8301601f810185136138cd578283fd5b80516138e06138db826145f6565b6145c5565b81815283810190838501865b84811015613915576139038a88845189010161350f565b845292860192908601906001016138ec565b509098975050505050505050565b600060208284031215613934578081fd5b61336f826134bf565b6000806040838503121561394f578182fd5b613958836134bf565b9150602083015190509250929050565b600060208284031215613979578081fd5b5035919050565b60008060408385031215613992578182fd5b50508035926020909101359150565b6000602082840312156139b2578081fd5b81517fffffffff000000000000000000000000000000000000000000000000000000008116811461336f578182fd5b600080600080600060a086880312156139f8578283fd5b855167ffffffffffffffff80821115613a0f578485fd5b613a1b89838a0161350f565b9650602091508188015181811115613a31578586fd5b88019050601f81018913613a43578485fd5b8051613a516138db826145f6565b81815283810190838501858402850186018d1015613a6d578889fd5b8894505b83851015613a8f578051835260019490940193918501918501613a71565b5080985050505050506040860151925060608601519150613ab260808701613466565b90509295509295909350565b60008060208385031215613ad0578182fd5b823567ffffffffffffffff811115613ae6578283fd5b613af2858286016134cf565b90969095509350505050565b600060208284031215613b0f578081fd5b5051919050565b73ffffffffffffffffffffffffffffffffffffffff169052565b818352602080840193600091908185020181018584845b87811015613bcc57828403895281357fffffffffffffffffffffffffffffffffffffffffffffffffffffffffffffffe1883603018112613b85578687fd5b8701803567ffffffffffffffff811115613b9d578788fd5b803603891315613bab578788fd5b613bb88682898501613c26565b9a87019a9550505090840190600101613b47565b5091979650505050505050565b60008284527f07ffffffffffffffffffffffffffffffffffffffffffffffffffffffffffffff831115613c0a578081fd5b6020830280836020870137939093016020019283525090919050565b60008284528282602086013780602084860101526020601f19601f85011685010190509392505050565b60008151808452613c6881602086016020860161469a565b601f01601f19169290920160200192915050565b60078110613c8c57613c8c6147c9565b9052565b918252602082015260400190565b73ffffffffffffffffffffffffffffffffffffffff91909116815260200190565b73ffffffffffffffffffffffffffffffffffffffff92831681529116602082015260400190565b73ffffffffffffffffffffffffffffffffffffffff9384168152919092166020820152604081019190915260600190565b73ffffffffffffffffffffffffffffffffffffffff929092168252602082015260400190565b73ffffffffffffffffffffffffffffffffffffffff9390931683526020830191909152604082015260600190565b90815260200190565b91825273ffffffffffffffffffffffffffffffffffffffff16602082015260400190565b96875273ffffffffffffffffffffffffffffffffffffffff9590951660208701527fffffffff000000000000000000000000000000000000000000000000000000009390931660408601526060850191909152608084015260a083015260c082015260e00190565b600060408252613e14604083018688613c26565b8281036020840152613e27818587613c26565b979650505050505050565b600060c08252613e4560c0830189613c50565b828103602084810191909152885180835289820192820190845b81811015613e7b57845183529383019391830191600101613e5f565b505084810360408601528851808252828201935082810282018301838b01865b83811015613ec957601f19858403018752613eb7838351613c50565b96860196925090850190600101613e9b565b50508095505050505050846060830152836080830152613e2760a0830184613b16565b600060808252613eff6080830187613c50565b8281036020840152613f118187613c50565b604084019590955250506060015292915050565b602081016116688284613c7c565b60006020825261336f6020830184613c50565b60208082526013908201527f50726f6a656374204e6f742041444f5054454400000000000000000000000000604082015260600190565b60208082526018908201527f496e63726561736520546f6b656e20416c6c6f77616e63650000000000000000604082015260600190565b60208082526011908201527f436f6e737469747574696f6e204f6e6c79000000000000000000000000000000604082015260600190565b60208082526023908201527f5265666572656e64756d732070726f6a65637420616c7265616479206372656160408201527f7465640000000000000000000000000000000000000000000000000000000000606082015260800190565b60208082526009908201527f4164647265737320300000000000000000000000000000000000000000000000604082015260600190565b60208082526010908201527f526567697374657220756e6b6e6f776e00000000000000000000000000000000604082015260600190565b6020808252601c908201527f5045544954494f4e53207374616765206e6f742066696e697368656400000000604082015260600190565b60208082526017908201527f4e6f74206174205045544954494f4e5320737461747573000000000000000000604082015260600190565b6020808252601a908201527f566f7465206861736e2774206265656e2076616c696461746564000000000000604082015260600190565b60208082526014908201527f50726f6a656374204e6f74204558454355544544000000000000000000000000604082015260600190565b6020808252600c908201527f436974697a656e204f6e6c790000000000000000000000000000000000000000604082015260600190565b60208082526011908201527f596f7520686176656e277420766f746564000000000000000000000000000000604082015260600190565b6020808252601e908201527f4e6f206578697374696e67205265666572656e64756d2050726f6a6563740000604082015260600190565b60208082526016908201527f566f74657220616c726561647920726577617264656400000000000000000000604082015260600190565b6020808252600e908201527f416c7265616479205369676e6564000000000000000000000000000000000000604082015260600190565b6020808252601f908201527f5265656e7472616e637947756172643a207265656e7472616e742063616c6c00604082015260600190565b60208082526012908201527f4e6f7420617420564f5445207374617475730000000000000000000000000000604082015260600190565b60008682526060602083015261432d606083018688613c26565b8281036040840152614340818587613c26565b98975050505050505050565b928352602083019190915273ffffffffffffffffffffffffffffffffffffffff16604082015260600190565b600088825287602083015260a0604083015261439860a083018789613b30565b82810360608401526143ab818688613bd9565b91505073ffffffffffffffffffffffffffffffffffffffff8316608083015298975050505050505050565b600089825288602083015260a060408301526143f660a08301888a613bd9565b8281036060840152614409818789613b30565b9050828103608084015261441e818587613c26565b9b9a5050505050505050505050565b600060e082019050825182526020830151602083015260408301516040830152606083015160608301526080830151608083015261ffff60a08401511660a083015273ffffffffffffffffffffffffffffffffffffffff60c08401511660c083015292915050565b600060408083018584526020828186015281865180845260608701915060608382028801019350828801865b82811015614520578886037fffffffffffffffffffffffffffffffffffffffffffffffffffffffffffffffa0018452815180511515875285015185870188905261450d88880182613c50565b96505092840192908401906001016144c1565b50939998505050505050505050565b600060608201858352602061454681850187613c7c565b60606040850152845191829052808501916080850190845b818110156139155784518352938301939183019160010161455e565b600060e0820190508882528760208301528660408301528560608301528460808301528360a0830152600583106145b3576145b36147c9565b8260c083015298975050505050505050565b604051601f8201601f1916810167ffffffffffffffff811182821017156145ee576145ee6147f8565b604052919050565b600067ffffffffffffffff821115614610576146106147f8565b5060209081020190565b6000821982111561462d5761462d61476b565b500190565b6000826146415761464161479a565b500490565b6000817fffffffffffffffffffffffffffffffffffffffffffffffffffffffffffffffff048311821515161561467e5761467e61476b565b500290565b6000828210156146955761469561476b565b500390565b60005b838110156146b557818101518382015260200161469d565b838111156146c4576000848401525b50505050565b6002810460018216806146de57607f821691505b60208210811415614718577f4e487b7100000000000000000000000000000000000000000000000000000000600052602260045260246000fd5b50919050565b60007fffffffffffffffffffffffffffffffffffffffffffffffffffffffffffffffff8214156147505761475061476b565b5060010190565b6000826147665761476661479a565b500690565b7f4e487b7100000000000000000000000000000000000000000000000000000000600052601160045260246000fd5b7f4e487b7100000000000000000000000000000000000000000000000000000000600052601260045260246000fd5b7f4e487b7100000000000000000000000000000000000000000000000000000000600052602160045260246000fd5b7f4e487b7100000000000000000000000000000000000000000000000000000000600052604160045260246000fd5b73ffffffffffffffffffffffffffffffffffffffff8116811461484957600080fd5b5056fea26469706673582212204798cb1dbcdf27b7cf85fc3aa27d9c92b4fbd7dd6ffb42ef16da92060483581364736f6c63430008010033",
  "immutableReferences": {},
  "source": "// SPDX-License-Identifier: MIT\npragma solidity ^0.8.0;\n/*\nimport \"Initiative_Legislative_lib.sol\";\nimport \"Citizens_Register.sol\";\nimport \"IVote.sol\";\n*/\n\nimport \"contracts/Initiative_Legislative_lib.sol\";\nimport \"contracts/Citizens_Register.sol\";\nimport \"contracts/IVote.sol\";\n\n\n\n/**\n * @notice In the ancient Greece the Agora was the public place where the population used to gather and which  was the center of social, economic and political life of the city. Etymologically, Agora means gathering place, Assembly. \n * In a Web3 Direct Democracy project, the Agora is the contract used to implement direct democracy via a legislative referendum of people initiative.\n * There is a single Agora contract in a Web3 Direct Democracy and all citizens can take part in it's democratic process.\n*/\ncontract Agora is Institution{\n    using EnumerableSet for EnumerableSet.AddressSet;\n    using EnumerableSet for EnumerableSet.Bytes32Set;\n    using SafeMath for uint;\n    using Initiative_Legislative_Lib for Initiative_Legislative_Lib.Law_Project;\n    enum Status{\n        PETITIONS,\n        VOTE,\n        ADOPTED,\n        EXECUTED,\n        REJECTED\n    }\n    \n    struct Referendum_Parameters{\n        uint Petition_Duration;\n         uint Vote_Duration;\n         uint Vote_Checking_Duration;\n         uint Law_Initialisation_Price;\n         uint FunctionCall_Price;\n\n         uint16 Required_Petition_Rate;\n         address Ivote_address;\n    }\n    \n    struct Referendum_Register{\n        uint Last_Version;\n        Institution_Type Type;\n        bytes32[] List_Referendums;\n        mapping(uint=>Referendum_Parameters) Parameters_Versions;\n    }\n    \n    struct Referendum{\n        uint Token_Amount_Consummed;\n        uint Petition_Counter;\n        uint Version;\n        uint Creation_Timestamps;\n        uint Start_Vote_Timestamps;\n        uint Voter_Reward;\n        Status Referendum_Status;\n        mapping(address=>bool) Petitions;\n        mapping(address=>bool) Voter_Rewarded;\n    }\n    \n    \n    modifier Citizen_Only{\n        require(Citizens.Contains(msg.sender),\"Citizen Only\");\n        _;\n    }\n    \n    \n    /*EVENTS*/\n    event Referendum_Parameters_Updated(address register_address, uint new_version);\n    event New_Referendum(address register_address, bytes32 key);\n    event New_Proposal(address register, bytes32 key, uint proposal_index);\n    event Proposal_Modified(address register, bytes32 key, uint proposal_index);\n    event Voting_Stage_Started(address register, bytes32 key, bytes32 ballot_key);\n    event Projet_Signed(address register, bytes32 key);\n    event Projet_Rejected(address register, bytes32 key);\n    event Project_Adopted(address register, bytes32 key);\n    event Function_Call_Executed(address register, bytes32 key, uint Function_Call_Nbr);\n    event Project_Executed(address register, bytes32 key);\n    \n    /*STATE*/\n    /// @dev Mapping of {Law_Project} structure ({Initiative_Legislative_Lib} library)\n    mapping(bytes32 => Initiative_Legislative_Lib.Law_Project) public List_Law_Project;\n    \n    mapping(address=>Referendum_Register) Referendums_Registers;\n    \n    ///@dev Mapping of {Referendum} structure corresponding to contract's referendum projects (pending, aborted and passed)\n    mapping(bytes32=>Referendum) public Referendums;\n    \n    ///@notice Token amount consummed for emmiting propositions during Petition stage and not yet redistributed\n    uint public Total_Token_To_Redistribute;\n    \n    \n    DemoCoin Democoin;\n    Citizens_Register Citizens;\n    \n    \n    /**\n     * @param Name Name of the Agora contract\n     * @param token_address Address of the {DemoCoin} contract of the Web3 Direct Democracy project\n     * @param citizen_address Address of the {Citizens_Register} contract of the Web3 Direct Democracy project\n     */ \n    constructor(string memory Name, address token_address, address citizen_address)Institution(Name){\n        Type_Institution =Institution_Type.AGORA;\n\n        Democoin = DemoCoin(token_address);\n        Citizens = Citizens_Register(citizen_address);\n    }\n    \n    \n    /** \n     * @dev Function can be called by any citizen to submit a new law project. Caller must approve {Law_Initialisation_Price} DemoCoin token for Agora contract\n     * @param register_address Address of the register contract the law proposition is about. The address must be contained in Referendums_Registers mapping.\n     * @param Title Title of the Referendum Proposition. Can be an hash.\n     * @param Description Text explaining the spirit and generals goals of the referendum proposition. Can be an hash.\n    */\n    function Add_Law_Project(address register_address, bytes calldata Title, bytes calldata Description)external Citizen_Only{\n       \n        uint version = Referendums_Registers[register_address].Last_Version;\n        require(version!=0, \"Register unknown\");\n        uint Law_Initialisation_Price = Referendums_Registers[register_address].Parameters_Versions[version].Law_Initialisation_Price;\n\n        /*Token operations AND Size checking*/\n        require(Democoin.allowance(msg.sender, address(this)) >= Law_Initialisation_Price, \"Increase Token Allowance\");\n        \n        bytes32 key = keccak256(abi.encode(Title,Description));\n        require(Referendums[key].Version==0,\"Referendums project already created\");\n        \n        List_Law_Project[key].Add_Law_Project(Title,  Description);\n        \n        Referendums[key].Version = version;\n        Referendums[key].Creation_Timestamps = block.timestamp;\n        Referendums[key].Petitions[msg.sender] = true;\n        Referendums[key].Petition_Counter = Referendums[key].Petition_Counter+1;\n        \n        Referendums_Registers[register_address].List_Referendums.push(key);\n        \n        \n        Referendums[key].Token_Amount_Consummed +=Law_Initialisation_Price;\n        Total_Token_To_Redistribute+=Law_Initialisation_Price;\n        \n        Democoin.transferFrom(msg.sender, address(this), Law_Initialisation_Price);\n        \n        emit New_Referendum(register_address, key);\n    }\n    \n    \n    /** \n     * @dev Function can be called by a citizen to submit a corpus of function calls propositions to an existing pending law project. Caller must approve {FunctionCall_Price} DemoCoin Token multiplied by the number of function call contained in the proposition, token for Delegation contract.\n     * @param register_address Address of the register concerned by the referendum project.\n     * @param referendum_key Id of the referendum proposition the caller wants to add a proposition to. The Id is obtained by hashing the Title with the Description of the referendum proposition.\n     * @param Parent Id of the parent proposition the caller wants to attach his proposition to. It's the parent proposition in the proposal tree. If there isn't any proposition in the tree we want to attach the new proposition to, we set Parent to 0\n     * @param Parent_Proposals_Reuse List of Parent's function calls index we want to reuse in the new proposition. Function calls are ordered in the order we want them to be executed. 0 elements correspond to new function calls that have to be added by the caller in {New_Function_Call} argument.\n     * @param New_Function_Call List of new function calls added by the caller. For each element of the New_Function_Call array, caller must set a 0 element in {Parent_Proposals_Reuse} array at the index he want the custom function call to be positioned \n     * @param Description Text to justify the new proposal. Can be an hash.\n    */\n    function Add_Proposal(address register_address, bytes32 referendum_key, uint Parent, uint[] calldata Parent_Proposals_Reuse, bytes[] calldata New_Function_Call, bytes calldata Description) external Citizen_Only{\n        uint version = Referendums[referendum_key].Version;\n        require(Referendums_Registers[register_address].Last_Version!=0,\"Register unknown\");\n        require(version!=0,\"No existing Referendum Project\");\n        require(Referendums[referendum_key].Referendum_Status == Status.PETITIONS, \"Not at PETITIONS status\");\n        \n        \n        uint Cost = Referendums_Registers[register_address].Parameters_Versions[version].FunctionCall_Price*New_Function_Call.length;\n        \n        require(Democoin.allowance(msg.sender, address(this)) >= Cost, \"Increase Token Allowance\");\n        \n        Referendums[referendum_key].Token_Amount_Consummed +=Cost;\n        Total_Token_To_Redistribute+=Cost;\n        \n        if(!Referendums[referendum_key].Petitions[msg.sender]){\n            Referendums[referendum_key].Petitions[msg.sender] = true;\n            Referendums[referendum_key].Petition_Counter = Referendums[referendum_key].Petition_Counter+1;\n        }\n        \n        uint proposal_index = List_Law_Project[referendum_key].Proposal_Count +1;\n        List_Law_Project[referendum_key].Proposals_Tree[proposal_index].Author = msg.sender;\n        List_Law_Project[referendum_key].Add_Corpus_Proposal(Parent, Parent_Proposals_Reuse, New_Function_Call, Description);\n        emit New_Proposal( register_address,referendum_key, proposal_index);\n        \n        Democoin.transferFrom(msg.sender, address(this), Cost);\n    }\n    \n    /** \n     * @dev Function can be called by a citizen to add function calls to a proposition that he has already created (He have to be the author of the proposition). \n     * Caller must approve {FunctionCall_Price} multiplied by the number of function call he wants to add to the proposition.\n     * @param register_address Address of the register concerned by the referendum project.\n     * @param referendum_key Id of the referendum proposition the caller wants to add function calls to. The Id is obtained by hashing the Title with the Description of the law project.\n     * @param Proposal Proposition Id to modify.\n     * @param New_Items Array of new function calls to add to the Proposition.\n     * @param Indexs array of Proposition's function call list indexs to inser new function call (contained in {New_Items}) to. {New_Items} and {Indexs} have the same length.\n    */\n    function Add_Item(address register_address, bytes32 referendum_key, uint Proposal, bytes[] calldata New_Items, uint[] calldata Indexs) external Citizen_Only{\n        uint version = Referendums[referendum_key].Version;\n        require(Referendums_Registers[register_address].Last_Version!=0,\"Register unknown\");\n        require(version!=0,\"No existing Referendum Project\");\n        require(Referendums[referendum_key].Referendum_Status == Status.PETITIONS, \"Not at PETITIONS status\");\n        \n        uint Cost = Referendums_Registers[register_address].Parameters_Versions[version].FunctionCall_Price*New_Items.length;\n        \n        require(Democoin.allowance(msg.sender, address(this)) >= Cost, \"Increase Token Allowance\");\n        \n        Referendums[referendum_key].Token_Amount_Consummed +=Cost;\n        Total_Token_To_Redistribute+=Cost;\n        \n        List_Law_Project[referendum_key].Add_Item_Proposal( Proposal, New_Items, Indexs, msg.sender);\n        emit Proposal_Modified(register_address, referendum_key, Proposal);\n        \n        Democoin.transferFrom(msg.sender, address(this), Cost);\n    }\n    \n     /** \n     * @dev Function can be called by any citizen to a Referendum proposition petition. A citizen can sign for a specific Referendum proposition only once.\n     * @param register_address Address of the register contract the Referendum proposition is about. The address must be contained in Referendums_Registers mapping.\n     * @param referendum_key Id of the referendum proposition the caller wants to sign. The Id is obtained by hashing the Title with the Description of the law project.\n    */\n    function Sign_Petition(address register_address, bytes32 referendum_key) external Citizen_Only{\n        require(Referendums_Registers[register_address].Last_Version!=0,\"Register unknown\");\n        uint version = Referendums[referendum_key].Version;\n        require(version!=0,\"No existing Referendum Project\");\n        require(Referendums[referendum_key].Referendum_Status == Status.PETITIONS, \"Not at PETITIONS status\");\n        require(!Referendums[referendum_key].Petitions[msg.sender], \"Already Signed\");\n        Referendums[referendum_key].Petitions[msg.sender]=true;\n        Referendums[referendum_key].Petition_Counter++;\n        emit Projet_Signed(register_address, referendum_key);\n    }\n    \n    /** \n     * @dev Function can be called by any citizen to end the proposition stage if it's finished. If there are enough signatures then we pass to the Voting stage, else the referendum proposition is aborted.\n     * @param register_address Address of the register contract the Referendum proposition is about. The address must be contained in Referendums_Registers mapping.\n     * @param referendum_key Id of the referendum proposition. \n    */\n    function End_Proposition_Stage(address register_address, bytes32 referendum_key)external Citizen_Only{\n        uint version = Referendums[referendum_key].Version;\n        require(Referendums_Registers[register_address].Last_Version!=0,\"Register unknown\");\n        require(version!=0,\"No existing Referendum Project\");\n        require(Referendums[referendum_key].Referendum_Status == Status.PETITIONS, \"Not at PETITIONS status\");\n        require(block.timestamp - Referendums[referendum_key].Creation_Timestamps > Referendums_Registers[register_address].Parameters_Versions[version].Petition_Duration, \"PETITIONS stage not finished\");\n        \n        if(Referendums[referendum_key].Petition_Counter >= Percentage(Referendums_Registers[register_address].Parameters_Versions[version].Required_Petition_Rate, Citizens.Get_Citizen_Number()) && List_Law_Project[referendum_key].Proposal_Count>0){\n            bytes32 ballot_key= keccak256(abi.encodePacked(referendum_key,block.timestamp));\n            IVote Vote_Instance = IVote(Referendums_Registers[register_address].Parameters_Versions[version].Ivote_address);\n            \n            Referendums[referendum_key].Start_Vote_Timestamps = block.timestamp;\n            Referendums[referendum_key].Referendum_Status = Status.VOTE;\n            \n            emit Voting_Stage_Started(register_address, referendum_key, ballot_key);\n            \n            Vote_Instance.Create_Ballot(ballot_key, address(Citizens), Citizens.Contains_Function_Selector(), Referendums_Registers[register_address].Parameters_Versions[version].Vote_Duration, Referendums_Registers[register_address].Parameters_Versions[version].Vote_Checking_Duration, List_Law_Project[referendum_key].Proposal_Count, 1);\n            \n            \n        }else{\n            Referendums[referendum_key].Referendum_Status = Status.REJECTED;\n            Total_Token_To_Redistribute -= Referendums[referendum_key].Token_Amount_Consummed;\n            emit Projet_Rejected(register_address, referendum_key);\n        }\n    }\n    \n\n    /**\n     * @dev Function can be called by any citizen to end the voting stage if it's finished. If the winning proposal id is >0 then the proposal is adopted and can be executed, else if the default proposition is chosen, the referendum proposition is rejected.\n     * @param register_address Address of the register contract the Referendum proposition is about.\n     * @param referendum_key Id of the referendum proposition. \n    */\n    function End_Vote(address register_address, bytes32 referendum_key)external Citizen_Only{\n        uint version = Referendums[referendum_key].Version;\n        require(Referendums_Registers[register_address].Last_Version!=0,\"Register unknown\");\n        require(Referendums[referendum_key].Referendum_Status == Status.VOTE, \"Not at VOTE status\");\n        bytes32 ballot_key = keccak256(abi.encodePacked(referendum_key,  Referendums[referendum_key].Start_Vote_Timestamps));\n        \n        IVote Vote_Instance = IVote(Referendums_Registers[register_address].Parameters_Versions[version].Ivote_address);\n        uint winning_proposal= Vote_Instance.Get_Winning_Proposition_byId(ballot_key,0);\n        List_Law_Project[referendum_key].Winning_Proposal = winning_proposal;\n        \n        if(winning_proposal==0){\n            Referendums[referendum_key].Referendum_Status = Status.REJECTED;\n            emit Projet_Rejected(register_address, referendum_key);\n        }else{\n            Referendums[referendum_key].Referendum_Status = Status.ADOPTED;\n            emit Project_Adopted(register_address, referendum_key);\n        }\n    }\n    \n     /**\n     * @dev Once the referendum proposition has been adopted (ADOPTED value of {Status} enum) then any citizen can call this function to execute all or some of the remaining function call of the winning proposition. \n     * For the Referendum proposition to be fully executed all function call have to be executed.\n     * @param register_address Address of the register contract the Referendum proposition is about.\n     * @param referendum_key Id of the referendum proposition. \n     * @param num_function_call_ToExecute Number of function calls to execute.\n     */\n    function Execute_Law(address register_address, bytes32 referendum_key, uint num_function_call_ToExecute)external Citizen_Only nonReentrant{\n        require(Referendums_Registers[register_address].Last_Version!=0,\"Register unknown\");\n        require(Referendums[referendum_key].Referendum_Status ==  Status.ADOPTED, \"Project Not ADOPTED\");\n        emit Function_Call_Executed( register_address, referendum_key, num_function_call_ToExecute);\n        if(List_Law_Project[referendum_key].Execute_Winning_Proposal(num_function_call_ToExecute, register_address)){\n            bytes32 ballot_key = keccak256(abi.encodePacked(referendum_key,  Referendums[referendum_key].Start_Vote_Timestamps));\n            \n            Referendums[referendum_key].Referendum_Status = Status.EXECUTED;\n            uint Total_Reward = Referendums[referendum_key].Token_Amount_Consummed;\n            IVote Vote_Instance = IVote(Referendums_Registers[register_address].Parameters_Versions[Referendums[referendum_key].Version].Ivote_address);\n            uint num_voter = Vote_Instance.Get_Voter_Number(ballot_key);\n            uint bonnus_amount = Democoin.balanceOf(address(this)) - Total_Token_To_Redistribute; //If there is an amount of token on Agora account that doesn't come from proposition submission, it is redistributed to voters\n            if(bonnus_amount>0){\n                 Total_Token_To_Redistribute +=bonnus_amount;\n                 Total_Reward+=bonnus_amount;\n            }\n            Referendums[referendum_key].Voter_Reward = Total_Reward/num_voter;\n            Total_Token_To_Redistribute-=Total_Reward%num_voter;   \n            emit Project_Executed(register_address, referendum_key);\n        }\n        \n    }\n    \n    /**\n     * @dev Once the referendum proposition has been executed (EXECUTED value of {status} enum), each citizen that has voted can get his DemoCoin token reward. If proposition proposition had a validation stage, then accounts must have voted AND validated their vote for getting their rewards.\n     * @param register_address Address of the register contract the Referendum proposition is about.\n     * @param referendum_key Id of the referendum proposition. \n     */\n    function Get_Voter_Reward(address register_address, bytes32 referendum_key)external {\n        require(Referendums_Registers[register_address].Last_Version!=0,\"Register unknown\");\n        require(!Referendums[referendum_key].Voter_Rewarded[msg.sender], \"Voter already rewarded\");\n        require(Referendums[referendum_key].Referendum_Status ==  Status.EXECUTED, \"Project Not EXECUTED\");\n        uint version = Referendums[referendum_key].Version;\n        uint voter_reward=Referendums[referendum_key].Voter_Reward;\n        IVote Vote_Instance = IVote(Referendums_Registers[register_address].Parameters_Versions[version].Ivote_address);\n        bytes32 ballot_key = keccak256(abi.encodePacked(referendum_key,  Referendums[referendum_key].Start_Vote_Timestamps));\n        \n        if(Referendums_Registers[register_address].Parameters_Versions[version].Vote_Checking_Duration>0){\n            (bool HasValidated,)= Vote_Instance.HasValidated(ballot_key, msg.sender);\n            require(HasValidated, \"Vote hasn't been validated\");\n        }else{\n            require(Vote_Instance.HasVoted(ballot_key, msg.sender), \"You haven't voted\");\n        }\n        Referendums[referendum_key].Voter_Rewarded[msg.sender]=true;\n        Total_Token_To_Redistribute-= voter_reward;\n        Democoin.transfer(msg.sender, voter_reward);\n    }\n    \n    \n    \n    /*Constitution_Only functions*/\n    \n    \n    /**\n     * @dev Add a new register under Agora's control. Register's address is added as a {Referendum_Register} struct.\n     * @param register_address Address of the register contract to add \n     * @param register_type Type of the new register ({Status} enum)\n     */\n    function Create_Register_Referendum(address register_address, uint8 register_type) external Constitution_Only {\n        Referendums_Registers[register_address].Type = Institution_Type(register_type);\n    }\n    \n    /**\n     * @dev Update parameters of referendums related to a specific register. Parameters are registered in a {Referendum_Parameters} struct\n     * @param register_address Address of the register contract.\n     * @param Petition_Duration Duration of the proposition/petition stage\n     * @param Vote_Duration Duration of the voting stage\n     * @param Vote_Duration Duration of the validation stage\n     * @param Law_Initialisation_Price Amount of DemoCoin token to pay to submit a new Referendum proposition.\n     * @param FunctionCall_Price Amount of DemoCoin token to pay for each new function call of a function call corpus proposal submission.\n     * @param Required_Petition_Rate The minimum ratio of citizens signatures required to submit the referendum proposition as a referendum to all citizens.\n     * @param Ivote_address Address of the IVote contract used in the voting and validation stage\n     */\n    function Update_Register_Referendum_Parameters(address register_address, uint Petition_Duration, uint Vote_Duration, uint Vote_Checking_Duration, uint Law_Initialisation_Price, uint FunctionCall_Price, uint16 Required_Petition_Rate, address Ivote_address) external Constitution_Only{\n        \n        uint new_version = Referendums_Registers[register_address].Last_Version +1;\n        Referendums_Registers[register_address].Parameters_Versions[new_version].Petition_Duration= Petition_Duration;\n        Referendums_Registers[register_address].Parameters_Versions[new_version].Vote_Duration = Vote_Duration;\n        Referendums_Registers[register_address].Parameters_Versions[new_version].Vote_Checking_Duration = Vote_Checking_Duration;\n        Referendums_Registers[register_address].Parameters_Versions[new_version].Law_Initialisation_Price = Law_Initialisation_Price;\n        Referendums_Registers[register_address].Parameters_Versions[new_version].FunctionCall_Price = FunctionCall_Price;\n\n        Referendums_Registers[register_address].Parameters_Versions[new_version].Required_Petition_Rate = Required_Petition_Rate;\n        \n        Referendums_Registers[register_address].Parameters_Versions[new_version].Ivote_address =Ivote_address;\n        \n        Referendums_Registers[register_address].Last_Version = new_version;\n        \n        emit Referendum_Parameters_Updated( register_address,  new_version);\n    }\n    \n    \n    \n\n    /*GETTER*/\n    \n    /**\n     * @dev Get globals informations about a Register contract ruled by Agora: The last version of Parameters related to the Register contract, it's institution type and the list of referendums (represented by their Ids) that are related to it. \n     * @param register_address Address of the corresponding Register Contract\n     * @return last_version Last Parameters version\n     * @return institution_type Type of the Register Contract\n     * @return list_referendums List of referendum Id that are related to the Register \n     */\n    function Get_Referendum_Register(address register_address) external view returns(uint last_version, Institution_Type institution_type, bytes32[] memory list_referendums){\n        return (Referendums_Registers[register_address].Last_Version, Referendums_Registers[register_address].Type, Referendums_Registers[register_address].List_Referendums);\n    }\n    \n     /**\n     * @dev Get Parameters related to a register Contract ruled by Agora. It return a {Referendum_Parameters} structure\n     * @param register_address Address of the corresponding Register Contract\n     * @param version Parameters version.\n     * @return parameters \n     */\n    function Get_Referendum_Register_Parameters(address register_address, uint version) external view returns(Referendum_Parameters memory parameters){\n        return (Referendums_Registers[register_address].Parameters_Versions[version]);\n    }\n    \n    /**\n     * @dev Get informations about a proposal ({Corpus_Proposal} structure of {Initiative_Legislative_Lib} library) of a law project ({Law_Project} structure of {Initiative_Legislative_Lib} library.\n     * @param key Id of the law project tha contains the proposal\n     * @param id Id of the proposal in the law project\n     * @return description Text describing the spirit and goals of the proposal. \n     * @return childrens List of Proposal's children in the Proposal tree\n     * @return function_calls List of function calls proposed in the Proposal.\n     * @return func_call_counter Number of function call contained in {function_calls}.\n     * @return parent Proposal's parent in the Proposal Tree.\n     * @return author Account that has submited the proposal.\n     */\n    function Get_Proposal(bytes32 key, uint id)external view returns(bytes memory description, uint[] memory childrens, bytes[] memory function_calls, uint func_call_counter, uint parent, address author){\n        function_calls = List_Law_Project[key].Get_Proposal_FunctionCall_List(id);\n        (description, childrens,func_call_counter, parent, author) = List_Law_Project[key].Get_Proposal_Infos(id);\n    }\n    \n   \n    /**\n     * @dev Get results of a Referendum proposition.\n     * @param key Id of the law project tha contains the proposal\n     * @return Winning_Proposal Id of the proposal that has been voted by citizens.\n     * @return Receipts Results of function calls to register functions.\n     */ \n    function Get_Law_Results(bytes32 key)external view returns(uint Winning_Proposal, Initiative_Legislative_Lib.Function_Call_Result[] memory Receipts){\n        return(List_Law_Project[key].Winning_Proposal, List_Law_Project[key].Function_Call_Receipts);\n    }\n    \n    \n}",
  "sourcePath": "/home/andrei/Alyra/Web3_Referendum/contracts/Agora.sol",
  "compiler": {
    "name": "solc",
    "version": "0.8.1+commit.df193b15.Emscripten.clang"
  },
  "schemaVersion": "3.3.1",
  "updatedAt": "2021-05-05T13:23:55.704Z",
  "networkType": "ethereum",
  "devdoc": {
    "kind": "dev",
    "methods": {
      "Add_Item(address,bytes32,uint256,bytes[],uint256[])": {
        "details": "Function can be called by a citizen to add function calls to a proposition that he has already created (He have to be the author of the proposition).  Caller must approve {FunctionCall_Price} multiplied by the number of function call he wants to add to the proposition.",
        "params": {
          "Indexs": "array of Proposition's function call list indexs to inser new function call (contained in {New_Items}) to. {New_Items} and {Indexs} have the same length.",
          "New_Items": "Array of new function calls to add to the Proposition.",
          "Proposal": "Proposition Id to modify.",
          "referendum_key": "Id of the referendum proposition the caller wants to add function calls to. The Id is obtained by hashing the Title with the Description of the law project.",
          "register_address": "Address of the register concerned by the referendum project."
        }
      },
      "Add_Law_Project(address,bytes,bytes)": {
        "details": "Function can be called by any citizen to submit a new law project. Caller must approve {Law_Initialisation_Price} DemoCoin token for Agora contract",
        "params": {
          "Description": "Text explaining the spirit and generals goals of the referendum proposition. Can be an hash.",
          "Title": "Title of the Referendum Proposition. Can be an hash.",
          "register_address": "Address of the register contract the law proposition is about. The address must be contained in Referendums_Registers mapping."
        }
      },
      "Add_Proposal(address,bytes32,uint256,uint256[],bytes[],bytes)": {
        "details": "Function can be called by a citizen to submit a corpus of function calls propositions to an existing pending law project. Caller must approve {FunctionCall_Price} DemoCoin Token multiplied by the number of function call contained in the proposition, token for Delegation contract.",
        "params": {
          "Description": "Text to justify the new proposal. Can be an hash.",
          "New_Function_Call": "List of new function calls added by the caller. For each element of the New_Function_Call array, caller must set a 0 element in {Parent_Proposals_Reuse} array at the index he want the custom function call to be positioned ",
          "Parent": "Id of the parent proposition the caller wants to attach his proposition to. It's the parent proposition in the proposal tree. If there isn't any proposition in the tree we want to attach the new proposition to, we set Parent to 0",
          "Parent_Proposals_Reuse": "List of Parent's function calls index we want to reuse in the new proposition. Function calls are ordered in the order we want them to be executed. 0 elements correspond to new function calls that have to be added by the caller in {New_Function_Call} argument.",
          "referendum_key": "Id of the referendum proposition the caller wants to add a proposition to. The Id is obtained by hashing the Title with the Description of the referendum proposition.",
          "register_address": "Address of the register concerned by the referendum project."
        }
      },
      "Create_Register_Referendum(address,uint8)": {
        "details": "Add a new register under Agora's control. Register's address is added as a {Referendum_Register} struct.",
        "params": {
          "register_address": "Address of the register contract to add ",
          "register_type": "Type of the new register ({Status} enum)"
        }
      },
      "End_Proposition_Stage(address,bytes32)": {
        "details": "Function can be called by any citizen to end the proposition stage if it's finished. If there are enough signatures then we pass to the Voting stage, else the referendum proposition is aborted.",
        "params": {
          "referendum_key": "Id of the referendum proposition. ",
          "register_address": "Address of the register contract the Referendum proposition is about. The address must be contained in Referendums_Registers mapping."
        }
      },
      "End_Vote(address,bytes32)": {
        "details": "Function can be called by any citizen to end the voting stage if it's finished. If the winning proposal id is >0 then the proposal is adopted and can be executed, else if the default proposition is chosen, the referendum proposition is rejected.",
        "params": {
          "referendum_key": "Id of the referendum proposition. ",
          "register_address": "Address of the register contract the Referendum proposition is about."
        }
      },
      "Execute_Law(address,bytes32,uint256)": {
        "details": "Once the referendum proposition has been adopted (ADOPTED value of {Status} enum) then any citizen can call this function to execute all or some of the remaining function call of the winning proposition.  For the Referendum proposition to be fully executed all function call have to be executed.",
        "params": {
          "num_function_call_ToExecute": "Number of function calls to execute.",
          "referendum_key": "Id of the referendum proposition. ",
          "register_address": "Address of the register contract the Referendum proposition is about."
        }
      },
      "Get_Law_Results(bytes32)": {
        "details": "Get results of a Referendum proposition.",
        "params": {
          "key": "Id of the law project tha contains the proposal"
        },
        "returns": {
          "Receipts": "Results of function calls to register functions.",
          "Winning_Proposal": "Id of the proposal that has been voted by citizens."
        }
      },
      "Get_Proposal(bytes32,uint256)": {
        "details": "Get informations about a proposal ({Corpus_Proposal} structure of {Initiative_Legislative_Lib} library) of a law project ({Law_Project} structure of {Initiative_Legislative_Lib} library.",
        "params": {
          "id": "Id of the proposal in the law project",
          "key": "Id of the law project tha contains the proposal"
        },
        "returns": {
          "author": "Account that has submited the proposal.",
          "childrens": "List of Proposal's children in the Proposal tree",
          "description": "Text describing the spirit and goals of the proposal. ",
          "func_call_counter": "Number of function call contained in {function_calls}.",
          "function_calls": "List of function calls proposed in the Proposal.",
          "parent": "Proposal's parent in the Proposal Tree."
        }
      },
      "Get_Referendum_Register(address)": {
        "details": "Get globals informations about a Register contract ruled by Agora: The last version of Parameters related to the Register contract, it's institution type and the list of referendums (represented by their Ids) that are related to it. ",
        "params": {
          "register_address": "Address of the corresponding Register Contract"
        },
        "returns": {
          "institution_type": "Type of the Register Contract",
          "last_version": "Last Parameters version",
          "list_referendums": "List of referendum Id that are related to the Register "
        }
      },
      "Get_Referendum_Register_Parameters(address,uint256)": {
        "details": "Get Parameters related to a register Contract ruled by Agora. It return a {Referendum_Parameters} structure",
        "params": {
          "register_address": "Address of the corresponding Register Contract",
          "version": "Parameters version."
        },
        "returns": {
          "parameters": ""
        }
      },
      "Get_Voter_Reward(address,bytes32)": {
        "details": "Once the referendum proposition has been executed (EXECUTED value of {status} enum), each citizen that has voted can get his DemoCoin token reward. If proposition proposition had a validation stage, then accounts must have voted AND validated their vote for getting their rewards.",
        "params": {
          "referendum_key": "Id of the referendum proposition. ",
          "register_address": "Address of the register contract the Referendum proposition is about."
        }
      },
      "Set_Constitution(address)": {
        "details": "The function Allows to change the Constitution contract the current Institution obey to. The function is only callable by the {Constitution_Address}",
        "params": {
          "new_constitution": "Address of the new Constitution contract."
        }
      },
      "Sign_Petition(address,bytes32)": {
        "details": "Function can be called by any citizen to a Referendum proposition petition. A citizen can sign for a specific Referendum proposition only once.",
        "params": {
          "referendum_key": "Id of the referendum proposition the caller wants to sign. The Id is obtained by hashing the Title with the Description of the law project.",
          "register_address": "Address of the register contract the Referendum proposition is about. The address must be contained in Referendums_Registers mapping."
        }
      },
      "Update_Register_Referendum_Parameters(address,uint256,uint256,uint256,uint256,uint256,uint16,address)": {
        "details": "Update parameters of referendums related to a specific register. Parameters are registered in a {Referendum_Parameters} struct",
        "params": {
          "FunctionCall_Price": "Amount of DemoCoin token to pay for each new function call of a function call corpus proposal submission.",
          "Ivote_address": "Address of the IVote contract used in the voting and validation stage",
          "Law_Initialisation_Price": "Amount of DemoCoin token to pay to submit a new Referendum proposition.",
          "Petition_Duration": "Duration of the proposition/petition stage",
          "Required_Petition_Rate": "The minimum ratio of citizens signatures required to submit the referendum proposition as a referendum to all citizens.",
          "Vote_Duration": "Duration of the validation stage",
          "register_address": "Address of the register contract."
        }
      },
      "constructor": {
        "params": {
          "Name": "Name of the Agora contract",
          "citizen_address": "Address of the {Citizens_Register} contract of the Web3 Direct Democracy project",
          "token_address": "Address of the {DemoCoin} contract of the Web3 Direct Democracy project"
        }
      }
    },
    "stateVariables": {
      "List_Law_Project": {
        "details": "Mapping of {Law_Project} structure ({Initiative_Legislative_Lib} library)"
      },
      "Referendums": {
        "details": "Mapping of {Referendum} structure corresponding to contract's referendum projects (pending, aborted and passed)"
      }
    },
    "version": 1
  },
  "userdoc": {
    "kind": "user",
    "methods": {
      "Constitution_Address()": {
        "notice": "Address of the constitution of the DAO"
      },
      "Name()": {
        "notice": "Name of the institution"
      },
      "Total_Token_To_Redistribute()": {
        "notice": "Token amount consummed for emmiting propositions during Petition stage and not yet redistributed"
      },
      "Type_Institution()": {
        "notice": "Type of the Institution"
      }
    },
    "notice": "In the ancient Greece the Agora was the public place where the population used to gather and which  was the center of social, economic and political life of the city. Etymologically, Agora means gathering place, Assembly.  In a Web3 Direct Democracy project, the Agora is the contract used to implement direct democracy via a legislative referendum of people initiative. There is a single Agora contract in a Web3 Direct Democracy and all citizens can take part in it's democratic process.",
    "version": 1
  }
}