{
  "contractName": "DemoCoin",
  "abi": [
    {
      "inputs": [
        {
          "internalType": "string",
          "name": "name_",
          "type": "string"
        },
        {
          "internalType": "string",
          "name": "symbol_",
          "type": "string"
        },
        {
          "internalType": "address[]",
          "name": "initials_accounts",
          "type": "address[]"
        },
        {
          "internalType": "uint256[]",
          "name": "initials_amount",
          "type": "uint256[]"
        }
      ],
      "stateMutability": "nonpayable",
      "type": "constructor"
    },
    {
      "anonymous": false,
      "inputs": [
        {
          "indexed": true,
          "internalType": "address",
          "name": "owner",
          "type": "address"
        },
        {
          "indexed": true,
          "internalType": "address",
          "name": "spender",
          "type": "address"
        },
        {
          "indexed": false,
          "internalType": "uint256",
          "name": "value",
          "type": "uint256"
        }
      ],
      "name": "Approval",
      "type": "event"
    },
    {
      "anonymous": false,
      "inputs": [
        {
          "indexed": false,
          "internalType": "address",
          "name": "burner",
          "type": "address"
        }
      ],
      "name": "Burner_Added",
      "type": "event"
    },
    {
      "anonymous": false,
      "inputs": [
        {
          "indexed": false,
          "internalType": "address",
          "name": "burner",
          "type": "address"
        }
      ],
      "name": "Burner_Removed",
      "type": "event"
    },
    {
      "anonymous": false,
      "inputs": [
        {
          "indexed": false,
          "internalType": "address",
          "name": "minter",
          "type": "address"
        }
      ],
      "name": "Minter_Added",
      "type": "event"
    },
    {
      "anonymous": false,
      "inputs": [
        {
          "indexed": false,
          "internalType": "address",
          "name": "minter",
          "type": "address"
        }
      ],
      "name": "Minter_Removed",
      "type": "event"
    },
    {
      "anonymous": false,
      "inputs": [
        {
          "indexed": true,
          "internalType": "address",
          "name": "from",
          "type": "address"
        },
        {
          "indexed": true,
          "internalType": "address",
          "name": "to",
          "type": "address"
        },
        {
          "indexed": false,
          "internalType": "uint256",
          "name": "value",
          "type": "uint256"
        }
      ],
      "name": "Transfer",
      "type": "event"
    },
    {
      "inputs": [],
      "name": "Constitution_Address",
      "outputs": [
        {
          "internalType": "address",
          "name": "",
          "type": "address"
        }
      ],
      "stateMutability": "view",
      "type": "function",
      "constant": true
    },
    {
      "inputs": [
        {
          "internalType": "address",
          "name": "owner",
          "type": "address"
        },
        {
          "internalType": "address",
          "name": "spender",
          "type": "address"
        }
      ],
      "name": "allowance",
      "outputs": [
        {
          "internalType": "uint256",
          "name": "",
          "type": "uint256"
        }
      ],
      "stateMutability": "view",
      "type": "function",
      "constant": true
    },
    {
      "inputs": [
        {
          "internalType": "address",
          "name": "spender",
          "type": "address"
        },
        {
          "internalType": "uint256",
          "name": "amount",
          "type": "uint256"
        }
      ],
      "name": "approve",
      "outputs": [
        {
          "internalType": "bool",
          "name": "",
          "type": "bool"
        }
      ],
      "stateMutability": "nonpayable",
      "type": "function"
    },
    {
      "inputs": [
        {
          "internalType": "address",
          "name": "account",
          "type": "address"
        }
      ],
      "name": "balanceOf",
      "outputs": [
        {
          "internalType": "uint256",
          "name": "",
          "type": "uint256"
        }
      ],
      "stateMutability": "view",
      "type": "function",
      "constant": true
    },
    {
      "inputs": [],
      "name": "decimals",
      "outputs": [
        {
          "internalType": "uint8",
          "name": "",
          "type": "uint8"
        }
      ],
      "stateMutability": "view",
      "type": "function",
      "constant": true
    },
    {
      "inputs": [
        {
          "internalType": "address",
          "name": "spender",
          "type": "address"
        },
        {
          "internalType": "uint256",
          "name": "subtractedValue",
          "type": "uint256"
        }
      ],
      "name": "decreaseAllowance",
      "outputs": [
        {
          "internalType": "bool",
          "name": "",
          "type": "bool"
        }
      ],
      "stateMutability": "nonpayable",
      "type": "function"
    },
    {
      "inputs": [
        {
          "internalType": "address",
          "name": "spender",
          "type": "address"
        },
        {
          "internalType": "uint256",
          "name": "addedValue",
          "type": "uint256"
        }
      ],
      "name": "increaseAllowance",
      "outputs": [
        {
          "internalType": "bool",
          "name": "",
          "type": "bool"
        }
      ],
      "stateMutability": "nonpayable",
      "type": "function"
    },
    {
      "inputs": [],
      "name": "name",
      "outputs": [
        {
          "internalType": "string",
          "name": "",
          "type": "string"
        }
      ],
      "stateMutability": "view",
      "type": "function",
      "constant": true
    },
    {
      "inputs": [],
      "name": "symbol",
      "outputs": [
        {
          "internalType": "string",
          "name": "",
          "type": "string"
        }
      ],
      "stateMutability": "view",
      "type": "function",
      "constant": true
    },
    {
      "inputs": [],
      "name": "totalSupply",
      "outputs": [
        {
          "internalType": "uint256",
          "name": "",
          "type": "uint256"
        }
      ],
      "stateMutability": "view",
      "type": "function",
      "constant": true
    },
    {
      "inputs": [
        {
          "internalType": "address",
          "name": "recipient",
          "type": "address"
        },
        {
          "internalType": "uint256",
          "name": "amount",
          "type": "uint256"
        }
      ],
      "name": "transfer",
      "outputs": [
        {
          "internalType": "bool",
          "name": "",
          "type": "bool"
        }
      ],
      "stateMutability": "nonpayable",
      "type": "function"
    },
    {
      "inputs": [
        {
          "internalType": "address",
          "name": "sender",
          "type": "address"
        },
        {
          "internalType": "address",
          "name": "recipient",
          "type": "address"
        },
        {
          "internalType": "uint256",
          "name": "amount",
          "type": "uint256"
        }
      ],
      "name": "transferFrom",
      "outputs": [
        {
          "internalType": "bool",
          "name": "",
          "type": "bool"
        }
      ],
      "stateMutability": "nonpayable",
      "type": "function"
    },
    {
      "inputs": [
        {
          "internalType": "address",
          "name": "new_constitution",
          "type": "address"
        }
      ],
      "name": "Set_Constitution",
      "outputs": [],
      "stateMutability": "nonpayable",
      "type": "function"
    },
    {
      "inputs": [
        {
          "internalType": "address",
          "name": "minter",
          "type": "address"
        }
      ],
      "name": "Add_Minter",
      "outputs": [],
      "stateMutability": "nonpayable",
      "type": "function"
    },
    {
      "inputs": [
        {
          "internalType": "address",
          "name": "burner",
          "type": "address"
        }
      ],
      "name": "Add_Burner",
      "outputs": [],
      "stateMutability": "nonpayable",
      "type": "function"
    },
    {
      "inputs": [
        {
          "internalType": "address",
          "name": "minter",
          "type": "address"
        }
      ],
      "name": "Remove_Minter",
      "outputs": [],
      "stateMutability": "nonpayable",
      "type": "function"
    },
    {
      "inputs": [
        {
          "internalType": "address",
          "name": "burner",
          "type": "address"
        }
      ],
      "name": "Remove_Burner",
      "outputs": [],
      "stateMutability": "nonpayable",
      "type": "function"
    },
    {
      "inputs": [
        {
          "internalType": "address",
          "name": "account",
          "type": "address"
        },
        {
          "internalType": "uint256",
          "name": "amount",
          "type": "uint256"
        }
      ],
      "name": "Mint",
      "outputs": [],
      "stateMutability": "nonpayable",
      "type": "function"
    },
    {
      "inputs": [
        {
          "internalType": "address",
          "name": "account",
          "type": "address"
        },
        {
          "internalType": "uint256",
          "name": "amount",
          "type": "uint256"
        }
      ],
      "name": "Burn",
      "outputs": [],
      "stateMutability": "nonpayable",
      "type": "function"
    },
    {
      "inputs": [],
      "name": "Get_Mint_Authorities",
      "outputs": [
        {
          "internalType": "bytes32[]",
          "name": "",
          "type": "bytes32[]"
        }
      ],
      "stateMutability": "view",
      "type": "function",
      "constant": true
    },
    {
      "inputs": [],
      "name": "Get_Burn_Authorities",
      "outputs": [
        {
          "internalType": "bytes32[]",
          "name": "",
          "type": "bytes32[]"
        }
      ],
      "stateMutability": "view",
      "type": "function",
      "constant": true
    }
  ],
  "bytecode": "0x60806040523480156200001157600080fd5b50604051620023af380380620023af83398101604081905262000034916200050e565b8351849084906200004d90600390602085019062000363565b5080516200006390600490602084019062000363565b50506005805460ff1916601217905550815181518114620000a15760405162461bcd60e51b8152600401620000989062000668565b60405180910390fd5b33600560016101000a8154816001600160a01b0302191690836001600160a01b03160217905550620000e3336006620001c060201b62000c391790919060201c565b50620000ff336008620001c060201b62000c391790919060201c565b5060005b81811015620001b4578281815181106200012d57634e487b7160e01b600052603260045260246000fd5b60200260200101516000146200019f576200019f8482815181106200016257634e487b7160e01b600052603260045260246000fd5b60200260200101518483815181106200018b57634e487b7160e01b600052603260045260246000fd5b6020026020010151620001e060201b60201c565b80620001ab8162000790565b91505062000103565b505050505050620007da565b6000620001d7836001600160a01b038416620002c3565b90505b92915050565b6001600160a01b038216620002095760405162461bcd60e51b815260040162000098906200069f565b620002176000838362000312565b62000233816002546200031760201b62000c621790919060201c565b6002556001600160a01b038216600090815260208181526040909120546200026691839062000c6262000317821b17901c565b6001600160a01b0383166000818152602081905260408082209390935591519091907fddf252ad1be2c89b69c2b068fc378daa952ba7f163c4a11628f55a4df523b3ef90620002b7908590620006d6565b60405180910390a35050565b6000620002d183836200034b565b6200030957508154600181810184556000848152602080822090930184905584548482528286019093526040902091909155620001da565b506000620001da565b505050565b60008062000326838562000738565b905083811015620001d75760405162461bcd60e51b8152600401620000989062000631565b60009081526001919091016020526040902054151590565b828054620003719062000753565b90600052602060002090601f016020900481019282620003955760008555620003e0565b82601f10620003b057805160ff1916838001178555620003e0565b82800160010185558215620003e0579182015b82811115620003e0578251825591602001919060010190620003c3565b50620003ee929150620003f2565b5090565b5b80821115620003ee5760008155600101620003f3565b600082601f8301126200041a578081fd5b81516020620004336200042d8362000712565b620006df565b828152818101908583018385028701840188101562000450578586fd5b855b85811015620004705781518452928401929084019060010162000452565b5090979650505050505050565b600082601f8301126200048e578081fd5b81516001600160401b03811115620004aa57620004aa620007c4565b6020620004c0601f8301601f19168201620006df565b8281528582848701011115620004d4578384fd5b835b83811015620004f3578581018301518282018401528201620004d6565b838111156200050457848385840101525b5095945050505050565b6000806000806080858703121562000524578384fd5b84516001600160401b03808211156200053b578586fd5b62000549888389016200047d565b955060209150818701518181111562000560578586fd5b6200056e89828a016200047d565b95505060408701518181111562000583578485fd5b8701601f8101891362000594578485fd5b8051620005a56200042d8262000712565b81815284810190838601868402850187018d1015620005c2578889fd5b8894505b83851015620005fb5780516001600160a01b0381168114620005e657898afd5b835260019490940193918601918601620005c6565b5060608b015190975094505050508082111562000616578283fd5b50620006258782880162000409565b91505092959194509250565b6020808252601b908201527f536166654d6174683a206164646974696f6e206f766572666c6f770000000000604082015260600190565b60208082526018908201527f417272617973206f6620646966666572656e742073697a650000000000000000604082015260600190565b6020808252601f908201527f45524332303a206d696e7420746f20746865207a65726f206164647265737300604082015260600190565b90815260200190565b604051601f8201601f191681016001600160401b03811182821017156200070a576200070a620007c4565b604052919050565b60006001600160401b038211156200072e576200072e620007c4565b5060209081020190565b600082198211156200074e576200074e620007ae565b500190565b6002810460018216806200076857607f821691505b602082108114156200078a57634e487b7160e01b600052602260045260246000fd5b50919050565b6000600019821415620007a757620007a7620007ae565b5060010190565b634e487b7160e01b600052601160045260246000fd5b634e487b7160e01b600052604160045260246000fd5b611bc580620007ea6000396000f3fe608060405234801561001057600080fd5b50600436106101775760003560e01c806370a08231116100d8578063a2777e0e1161008c578063cc16f5db11610066578063cc16f5db146102de578063d2a00912146102f1578063dd62ed3e1461030457610177565b8063a2777e0e146102a5578063a457c2d7146102b8578063a9059cbb146102cb57610177565b806384bf1633116100bd57806384bf16331461028257806389347c9b1461029557806395d89b411461029d57610177565b806370a082311461025a57806371d089091461026d57610177565b806323b872dd1161012f578063395093511161011457806339509351146102215780633c289ea81461023457806358c75ed11461024757610177565b806323b872dd146101f9578063313ce5671461020c57610177565b8063095ea7b311610160578063095ea7b3146101af5780630f6798a5146101cf57806318160ddd146101e457610177565b806302d4cd281461017c57806306fdde031461019a575b600080fd5b610184610317565b60405161019191906114eb565b60405180910390f35b6101a2610338565b604051610191919061155b565b6101c26101bd3660046114c2565b6103ca565b6040516101919190611550565b6101e26101dd3660046114c2565b6103e8565b005b6101ec610440565b6040516101919190611a31565b6101c2610207366004611487565b610446565b6102146104e7565b6040516101919190611a3a565b6101c261022f3660046114c2565b6104f0565b6101e261024236600461143b565b61054b565b6101e261025536600461143b565b610652565b6101ec61026836600461143b565b61077f565b6102756107ab565b604051610191919061150c565b6101e261029036600461143b565b610801565b610275610923565b6101a2610978565b6101e26102b336600461143b565b610987565b6101c26102c63660046114c2565b610a5a565b6101c26102d93660046114c2565b610acf565b6101e26102ec3660046114c2565b610ae3565b6101e26102ff36600461143b565b610b2e565b6101ec610312366004611455565b610c01565b600554610100900473ffffffffffffffffffffffffffffffffffffffff1681565b60606003805461034790611a77565b80601f016020809104026020016040519081016040528092919081815260200182805461037390611a77565b80156103c05780601f10610395576101008083540402835291602001916103c0565b820191906000526020600020905b8154815290600101906020018083116103a357829003601f168201915b5050505050905090565b60006103de6103d7610cab565b8484610caf565b5060015b92915050565b6103f3600633610dbe565b610432576040517f08c379a000000000000000000000000000000000000000000000000000000000815260040161042990611629565b60405180910390fd5b61043c8282610de0565b5050565b60025490565b6000610453848484610ee1565b6104dd8461045f610cab565b6104d885604051806060016040528060288152602001611b436028913973ffffffffffffffffffffffffffffffffffffffff8a166000908152600160205260408120906104aa610cab565b73ffffffffffffffffffffffffffffffffffffffff168152602081019190915260400160002054919061106b565b610caf565b5060019392505050565b60055460ff1690565b60006103de6104fd610cab565b846104d8856001600061050e610cab565b73ffffffffffffffffffffffffffffffffffffffff908116825260208083019390935260409182016000908120918c168152925290205490610c62565b600554610100900473ffffffffffffffffffffffffffffffffffffffff1633146105a1576040517f08c379a0000000000000000000000000000000000000000000000000000000008152600401610429906119c3565b6005546105cb90600690610100900473ffffffffffffffffffffffffffffffffffffffff166110bc565b506005546105f690600890610100900473ffffffffffffffffffffffffffffffffffffffff166110bc565b50600580547fffffffffffffffffffffff0000000000000000000000000000000000000000ff1661010073ffffffffffffffffffffffffffffffffffffffff841602179055610646600682610c39565b5061043c600882610c39565b600554610100900473ffffffffffffffffffffffffffffffffffffffff1633146106a8576040517f08c379a000000000000000000000000000000000000000000000000000000000815260040161042990611660565b6106b3600882610dbe565b6106e9576040517f08c379a0000000000000000000000000000000000000000000000000000000008152600401610429906117d0565b3373ffffffffffffffffffffffffffffffffffffffff82161415610739576040517f08c379a00000000000000000000000000000000000000000000000000000000081526004016104299061172b565b6107446008826110bc565b507f703e172ae1942cb0c22d2562ddb7bbe2db8ea40b8578cba8be1991715022914b8160405161077491906114eb565b60405180910390a150565b73ffffffffffffffffffffffffffffffffffffffff81166000908152602081905260409020545b919050565b6006805460408051602080840282018101909252828152606093909290918301828280156103c057602002820191906000526020600020905b8154815260200190600101908083116107e4575050505050905090565b600554610100900473ffffffffffffffffffffffffffffffffffffffff163314610857576040517f08c379a000000000000000000000000000000000000000000000000000000000815260040161042990611660565b610862600682610dbe565b610898576040517f08c379a00000000000000000000000000000000000000000000000000000000081526004016104299061183e565b3373ffffffffffffffffffffffffffffffffffffffff821614156108e8576040517f08c379a00000000000000000000000000000000000000000000000000000000081526004016104299061172b565b6108f36006826110bc565b507fd14f3aba22505d96f653c9003dc1f3413413c7451122c8b291019443356069538160405161077491906114eb565b6008805460408051602080840282018101909252828152606093909290918301828280156103c057602002820191906000526020600020908154815260200190600101908083116107e4575050505050905090565b60606004805461034790611a77565b600554610100900473ffffffffffffffffffffffffffffffffffffffff1633146109dd576040517f08c379a000000000000000000000000000000000000000000000000000000000815260040161042990611660565b6109e8600882610dbe565b15610a1f576040517f08c379a000000000000000000000000000000000000000000000000000000000815260040161042990611807565b610a2a600882610c39565b507f6731585473ebca612015dea9ce8981863a516574ae390b11edeb173e9c431ff88160405161077491906114eb565b60006103de610a67610cab565b846104d885604051806060016040528060258152602001611b6b6025913960016000610a91610cab565b73ffffffffffffffffffffffffffffffffffffffff908116825260208083019390935260409182016000908120918d1681529252902054919061106b565b60006103de610adc610cab565b8484610ee1565b610aee600833610dbe565b610b24576040517f08c379a00000000000000000000000000000000000000000000000000000000081526004016104299061198c565b61043c82826110de565b600554610100900473ffffffffffffffffffffffffffffffffffffffff163314610b84576040517f08c379a000000000000000000000000000000000000000000000000000000000815260040161042990611660565b610b8f600682610dbe565b15610bc6576040517f08c379a000000000000000000000000000000000000000000000000000000000815260040161042990611799565b610bd1600682610c39565b507f1db31250a892864f24733002e9143c12d301258add2c9e60c3b1998befc1dcc58160405161077491906114eb565b73ffffffffffffffffffffffffffffffffffffffff918216600090815260016020908152604080832093909416825291909152205490565b6000610c5b8373ffffffffffffffffffffffffffffffffffffffff8416611202565b9392505050565b600080610c6f8385611a48565b905083811015610c5b576040517f08c379a0000000000000000000000000000000000000000000000000000000008152600401610429906116f4565b3390565b73ffffffffffffffffffffffffffffffffffffffff8316610cfc576040517f08c379a00000000000000000000000000000000000000000000000000000000081526004016104299061192f565b73ffffffffffffffffffffffffffffffffffffffff8216610d49576040517f08c379a000000000000000000000000000000000000000000000000000000000815260040161042990611697565b73ffffffffffffffffffffffffffffffffffffffff80841660008181526001602090815260408083209487168084529490915290819020849055517f8c5be1e5ebec7d5bd14f71427d1e84f3dd0314c0f7b2291e5b200ac8c7c3b92590610db1908590611a31565b60405180910390a3505050565b6000610c5b8373ffffffffffffffffffffffffffffffffffffffff841661124c565b73ffffffffffffffffffffffffffffffffffffffff8216610e2d576040517f08c379a0000000000000000000000000000000000000000000000000000000008152600401610429906119fa565b610e3960008383611264565b600254610e469082610c62565b60025573ffffffffffffffffffffffffffffffffffffffff8216600090815260208190526040902054610e799082610c62565b73ffffffffffffffffffffffffffffffffffffffff83166000818152602081905260408082209390935591519091907fddf252ad1be2c89b69c2b068fc378daa952ba7f163c4a11628f55a4df523b3ef90610ed5908590611a31565b60405180910390a35050565b73ffffffffffffffffffffffffffffffffffffffff8316610f2e576040517f08c379a0000000000000000000000000000000000000000000000000000000008152600401610429906118d2565b73ffffffffffffffffffffffffffffffffffffffff8216610f7b576040517f08c379a0000000000000000000000000000000000000000000000000000000008152600401610429906115cc565b610f86838383611264565b610fd081604051806060016040528060268152602001611b1d6026913973ffffffffffffffffffffffffffffffffffffffff8616600090815260208190526040902054919061106b565b73ffffffffffffffffffffffffffffffffffffffff808516600090815260208190526040808220939093559084168152205461100c9082610c62565b73ffffffffffffffffffffffffffffffffffffffff80841660008181526020819052604090819020939093559151908516907fddf252ad1be2c89b69c2b068fc378daa952ba7f163c4a11628f55a4df523b3ef90610db1908590611a31565b600081848411156110a9576040517f08c379a0000000000000000000000000000000000000000000000000000000008152600401610429919061155b565b506110b48385611a60565b949350505050565b6000610c5b8373ffffffffffffffffffffffffffffffffffffffff8416611269565b73ffffffffffffffffffffffffffffffffffffffff821661112b576040517f08c379a000000000000000000000000000000000000000000000000000000000815260040161042990611875565b61113782600083611264565b61118181604051806060016040528060228152602001611afb6022913973ffffffffffffffffffffffffffffffffffffffff8516600090815260208190526040902054919061106b565b73ffffffffffffffffffffffffffffffffffffffff83166000908152602081905260409020556002546111b490826113d1565b60025560405160009073ffffffffffffffffffffffffffffffffffffffff8416907fddf252ad1be2c89b69c2b068fc378daa952ba7f163c4a11628f55a4df523b3ef90610ed5908590611a31565b600061120e838361124c565b611244575081546001818101845560008481526020808220909301849055845484825282860190935260409020919091556103e2565b5060006103e2565b60009081526001919091016020526040902054151590565b505050565b600081815260018301602052604081205480156113c757600061128d600183611a60565b85549091506000906112a190600190611a60565b905060008660000182815481106112e1577f4e487b7100000000000000000000000000000000000000000000000000000000600052603260045260246000fd5b906000526020600020015490508087600001848154811061132b577f4e487b7100000000000000000000000000000000000000000000000000000000600052603260045260246000fd5b600091825260209091200155611342836001611a48565b6000828152600189016020526040902055865487908061138b577f4e487b7100000000000000000000000000000000000000000000000000000000600052603160045260246000fd5b600190038181906000526020600020016000905590558660010160008781526020019081526020016000206000905560019450505050506103e2565b60009150506103e2565b60008282111561140d576040517f08c379a000000000000000000000000000000000000000000000000000000000815260040161042990611762565b610c5b8284611a60565b803573ffffffffffffffffffffffffffffffffffffffff811681146107a657600080fd5b60006020828403121561144c578081fd5b610c5b82611417565b60008060408385031215611467578081fd5b61147083611417565b915061147e60208401611417565b90509250929050565b60008060006060848603121561149b578081fd5b6114a484611417565b92506114b260208501611417565b9150604084013590509250925092565b600080604083850312156114d4578182fd5b6114dd83611417565b946020939093013593505050565b73ffffffffffffffffffffffffffffffffffffffff91909116815260200190565b6020808252825182820181905260009190848201906040850190845b8181101561154457835183529284019291840191600101611528565b50909695505050505050565b901515815260200190565b6000602080835283518082850152825b818110156115875785810183015185820160400152820161156b565b818111156115985783604083870101525b50601f017fffffffffffffffffffffffffffffffffffffffffffffffffffffffffffffffe016929092016040019392505050565b60208082526023908201527f45524332303a207472616e7366657220746f20746865207a65726f206164647260408201527f6573730000000000000000000000000000000000000000000000000000000000606082015260800190565b6020808252601b908201527f41646472657373204e6f7420416c6c6f77656420746f206d696e740000000000604082015260600190565b60208082526011908201527f436f6e737469747574696f6e204f6e6c79000000000000000000000000000000604082015260600190565b60208082526022908201527f45524332303a20617070726f766520746f20746865207a65726f20616464726560408201527f7373000000000000000000000000000000000000000000000000000000000000606082015260800190565b6020808252601b908201527f536166654d6174683a206164646974696f6e206f766572666c6f770000000000604082015260600190565b6020808252601d908201527f436f6e737469747574696f6e2063616e27742062652072656d6f766564000000604082015260600190565b6020808252601e908201527f536166654d6174683a207375627472616374696f6e206f766572666c6f770000604082015260600190565b60208082526011908201527f497320616c7265616479206d696e746572000000000000000000000000000000604082015260600190565b60208082526012908201527f6275726e657220646f6e27742065786973740000000000000000000000000000604082015260600190565b60208082526011908201527f497320616c7265616479206275726e6572000000000000000000000000000000604082015260600190565b60208082526012908201527f6d696e74657220646f6e27742065786973740000000000000000000000000000604082015260600190565b60208082526021908201527f45524332303a206275726e2066726f6d20746865207a65726f2061646472657360408201527f7300000000000000000000000000000000000000000000000000000000000000606082015260800190565b60208082526025908201527f45524332303a207472616e736665722066726f6d20746865207a65726f20616460408201527f6472657373000000000000000000000000000000000000000000000000000000606082015260800190565b60208082526024908201527f45524332303a20617070726f76652066726f6d20746865207a65726f2061646460408201527f7265737300000000000000000000000000000000000000000000000000000000606082015260800190565b6020808252601b908201527f41646472657373204e6f7420416c6c6f77656420746f206275726e0000000000604082015260600190565b60208082526011908201527f436f6e737469747574696f6e5f4f6e6c79000000000000000000000000000000604082015260600190565b6020808252601f908201527f45524332303a206d696e7420746f20746865207a65726f206164647265737300604082015260600190565b90815260200190565b60ff91909116815260200190565b60008219821115611a5b57611a5b611acb565b500190565b600082821015611a7257611a72611acb565b500390565b600281046001821680611a8b57607f821691505b60208210811415611ac5577f4e487b7100000000000000000000000000000000000000000000000000000000600052602260045260246000fd5b50919050565b7f4e487b7100000000000000000000000000000000000000000000000000000000600052601160045260246000fdfe45524332303a206275726e20616d6f756e7420657863656564732062616c616e636545524332303a207472616e7366657220616d6f756e7420657863656564732062616c616e636545524332303a207472616e7366657220616d6f756e74206578636565647320616c6c6f77616e636545524332303a2064656372656173656420616c6c6f77616e63652062656c6f77207a65726fa264697066735822122081475cd29e701cfe682e7d898966ba183d67dd8588fe5166b53927281f6ae82264736f6c63430008010033",
  "immutableReferences": {},
  "source": "// SPDX-License-Identifier: MIT\npragma solidity ^0.8.0;\n\n/*import \"https://github.com/OpenZeppelin/openzeppelin-contracts/blob/master/contracts/token/ERC20/ERC20.sol\";\nimport \"https://github.com/OpenZeppelin/openzeppelin-contracts/blob/master/contracts/utils/structs/EnumerableSet.sol\";*/\n\nimport \"@openzeppelin/contracts/token/ERC20/ERC20.sol\";\nimport \"@openzeppelin/contracts/utils/EnumerableSet.sol\";\n\n\n/**\n * It's an ERC20 token used for submiting referendum propositions and rewarding voters of a Web3 Direct Democracy DAO. \n * It offers features for handling address that are allowed to mint and burn tokens.\n */\n\ncontract DemoCoin is ERC20{\n    using EnumerableSet for EnumerableSet.AddressSet;\n    \n    ///@notice Address of the costitution of the DAO.\n    address public Constitution_Address;\n    \n    EnumerableSet.AddressSet Mint_Authorities;\n    \n    EnumerableSet.AddressSet Burn_Authorities;\n    \n    event Minter_Added(address minter);\n    event Minter_Removed(address minter);\n    event Burner_Added(address burner);\n    event Burner_Removed(address burner);\n    \n    \n    /** \n     * @dev Set parameters of token\n     * \n     * @param name_ Name of the token\n     * @param symbol_ Symbole of the token\n     * @param initials_accounts Addesses of initials owners of the token\n     * @param initials_amount List of amount of token to attribute to {initials_accounts}\n    */\n    constructor(string memory name_, string memory symbol_, address[] memory initials_accounts, uint[] memory initials_amount) ERC20(name_, symbol_){\n        uint len = initials_accounts.length;\n        require(len == initials_amount.length, \"Arrays of different size\");\n        Constitution_Address = msg.sender;\n        Mint_Authorities.add(msg.sender);\n        Burn_Authorities.add(msg.sender);\n        \n        for(uint i=0; i<len; i++){\n            if(initials_amount[i] !=0){\n                _mint(initials_accounts[i], initials_amount[i]);\n            }\n        }\n        \n    }\n\n\n\n    function Set_Constitution(address new_constitution)external{\n        require(msg.sender==Constitution_Address,\"Constitution_Only\");\n        Mint_Authorities.remove(Constitution_Address);\n        Burn_Authorities.remove(Constitution_Address);\n        Constitution_Address = new_constitution;\n        Mint_Authorities.add(new_constitution);\n        Burn_Authorities.add(new_constitution);\n    }\n    \n    /**\n     * @dev Add an address to the list of accounts allowed to mint token\n     * @param minter New account allowed to mint token\n     * */    \n     function Add_Minter(address minter) external{\n        require(msg.sender == Constitution_Address, \"Constitution Only\");\n        require(!Mint_Authorities.contains(minter), \"Is already minter\");\n        Mint_Authorities.add(minter);\n        emit Minter_Added(minter);\n    }\n    \n    /**\n     * @dev Add an address to the list of accounts allowed to burn token\n     * @param burner New account allowed to burn token\n    */\n    function Add_Burner(address burner) external{\n        require(msg.sender == Constitution_Address, \"Constitution Only\");\n        require(!Burn_Authorities.contains(burner), \"Is already burner\");\n        Burn_Authorities.add(burner);\n        emit Burner_Added(burner);\n    }\n    \n    /**\n     * @dev Remove an address from the list of accounts allowed to mint token\n     * @param minter Minter address removed from {Mint_Authorities}\n     * */\n    function Remove_Minter(address minter) external{\n        require(msg.sender == Constitution_Address, \"Constitution Only\");\n        require(Mint_Authorities.contains(minter), \"minter don't exist\");\n        require(msg.sender != minter, \"Constitution can't be removed\");\n        \n        Mint_Authorities.remove(minter);\n        emit Minter_Removed(minter);\n    }\n    \n    /**\n     * @dev Remove an address from the list of accounts allowed to burn token\n     * @param burner Burner address removed from {Burn_Authorities]\n     * */\n    function Remove_Burner(address burner) external{\n        require(msg.sender == Constitution_Address, \"Constitution Only\");\n        require(Burn_Authorities.contains(burner), \"burner don't exist\");\n        require(msg.sender != burner, \"Constitution can't be removed\");\n        Burn_Authorities.remove(burner);\n        emit Burner_Removed(burner);\n    }\n    \n    \n    /**\n     * @dev This function is used to mint token. It's only callable by members of {Mint_Authorities}\n     * @param account Address to mint token to.\n     * @param amount Amount of token to mint.\n     * */\n    function Mint(address account, uint256 amount) external{\n        require(Mint_Authorities.contains(msg.sender), \"Address Not Allowed to mint\");\n        _mint(account, amount);\n    }\n    \n    /**\n     * @dev This function is used to burn token. It's only callable by members of {Burn_Authorities}\n     * @param account Address to burn token from.\n     * @param amount Amount of token to burn.\n     * */\n    function Burn(address account, uint256 amount) external{\n        require(Burn_Authorities.contains(msg.sender), \"Address Not Allowed to burn\");\n        _burn(account, amount);\n    }\n    \n    \n        \n    /**\n     * @dev Getter for {Mint_Authorities}\n     * @return Return all address allowed to mint tokens\n    **/\n    function Get_Mint_Authorities() external view returns(bytes32[] memory){\n        return Mint_Authorities._inner._values;\n    }\n    \n     /**\n     * @dev Getter for {Burn_Authorities}\n     * @return Return all address allowed to burn tokens\n    **/\n    function Get_Burn_Authorities() external view returns(bytes32[] memory){\n        return Burn_Authorities._inner._values;\n    }\n    \n}",
  "sourcePath": "/home/andrei/Alyra/Web3_Referendum/contracts/DemoCoin.sol",
  "compiler": {
    "name": "solc",
    "version": "0.8.1+commit.df193b15.Emscripten.clang"
  },
  "schemaVersion": "3.3.1",
  "updatedAt": "2021-05-05T13:23:55.842Z",
  "networkType": "ethereum",
  "devdoc": {
    "kind": "dev",
    "methods": {
      "Add_Burner(address)": {
        "details": "Add an address to the list of accounts allowed to burn token",
        "params": {
          "burner": "New account allowed to burn token"
        }
      },
      "Add_Minter(address)": {
        "details": "Add an address to the list of accounts allowed to mint token",
        "params": {
          "minter": "New account allowed to mint token "
        }
      },
      "Burn(address,uint256)": {
        "details": "This function is used to burn token. It's only callable by members of {Burn_Authorities}",
        "params": {
          "account": "Address to burn token from.",
          "amount": "Amount of token to burn. "
        }
      },
      "Get_Burn_Authorities()": {
        "details": "Getter for {Burn_Authorities}",
        "returns": {
          "_0": "Return all address allowed to burn tokens*"
        }
      },
      "Get_Mint_Authorities()": {
        "details": "Getter for {Mint_Authorities}",
        "returns": {
          "_0": "Return all address allowed to mint tokens*"
        }
      },
      "Mint(address,uint256)": {
        "details": "This function is used to mint token. It's only callable by members of {Mint_Authorities}",
        "params": {
          "account": "Address to mint token to.",
          "amount": "Amount of token to mint. "
        }
      },
      "Remove_Burner(address)": {
        "details": "Remove an address from the list of accounts allowed to burn token",
        "params": {
          "burner": "Burner address removed from {Burn_Authorities] "
        }
      },
      "Remove_Minter(address)": {
        "details": "Remove an address from the list of accounts allowed to mint token",
        "params": {
          "minter": "Minter address removed from {Mint_Authorities} "
        }
      },
      "allowance(address,address)": {
        "details": "See {IERC20-allowance}."
      },
      "approve(address,uint256)": {
        "details": "See {IERC20-approve}. Requirements: - `spender` cannot be the zero address."
      },
      "balanceOf(address)": {
        "details": "See {IERC20-balanceOf}."
      },
      "constructor": {
        "details": "Set parameters of token ",
        "params": {
          "initials_accounts": "Addesses of initials owners of the token",
          "initials_amount": "List of amount of token to attribute to {initials_accounts}",
          "name_": "Name of the token",
          "symbol_": "Symbole of the token"
        }
      },
      "decimals()": {
        "details": "Returns the number of decimals used to get its user representation. For example, if `decimals` equals `2`, a balance of `505` tokens should be displayed to a user as `5,05` (`505 / 10 ** 2`). Tokens usually opt for a value of 18, imitating the relationship between Ether and Wei. This is the value {ERC20} uses, unless {_setupDecimals} is called. NOTE: This information is only used for _display_ purposes: it in no way affects any of the arithmetic of the contract, including {IERC20-balanceOf} and {IERC20-transfer}."
      },
      "decreaseAllowance(address,uint256)": {
        "details": "Atomically decreases the allowance granted to `spender` by the caller. This is an alternative to {approve} that can be used as a mitigation for problems described in {IERC20-approve}. Emits an {Approval} event indicating the updated allowance. Requirements: - `spender` cannot be the zero address. - `spender` must have allowance for the caller of at least `subtractedValue`."
      },
      "increaseAllowance(address,uint256)": {
        "details": "Atomically increases the allowance granted to `spender` by the caller. This is an alternative to {approve} that can be used as a mitigation for problems described in {IERC20-approve}. Emits an {Approval} event indicating the updated allowance. Requirements: - `spender` cannot be the zero address."
      },
      "name()": {
        "details": "Returns the name of the token."
      },
      "symbol()": {
        "details": "Returns the symbol of the token, usually a shorter version of the name."
      },
      "totalSupply()": {
        "details": "See {IERC20-totalSupply}."
      },
      "transfer(address,uint256)": {
        "details": "See {IERC20-transfer}. Requirements: - `recipient` cannot be the zero address. - the caller must have a balance of at least `amount`."
      },
      "transferFrom(address,address,uint256)": {
        "details": "See {IERC20-transferFrom}. Emits an {Approval} event indicating the updated allowance. This is not required by the EIP. See the note at the beginning of {ERC20}. Requirements: - `sender` and `recipient` cannot be the zero address. - `sender` must have a balance of at least `amount`. - the caller must have allowance for ``sender``'s tokens of at least `amount`."
      }
    },
    "version": 1
  },
  "userdoc": {
    "kind": "user",
    "methods": {
      "Constitution_Address()": {
        "notice": "Address of the costitution of the DAO."
      }
    },
    "notice": "It's an ERC20 token used for submiting referendum propositions and rewarding voters of a Web3 Direct Democracy DAO.  It offers features for handling address that are allowed to mint and burn tokens.",
    "version": 1
  }
}