{
  "contractName": "SimpleStorage",
  "abi": [
    {
      "inputs": [
        {
          "internalType": "uint256",
          "name": "x",
          "type": "uint256"
        },
        {
          "internalType": "bytes",
          "name": "y",
          "type": "bytes"
        }
      ],
      "name": "set",
      "outputs": [],
      "stateMutability": "nonpayable",
      "type": "function"
    },
    {
      "inputs": [],
      "name": "get",
      "outputs": [
        {
          "internalType": "uint256",
          "name": "uint_data",
          "type": "uint256"
        },
        {
          "internalType": "bytes",
          "name": "bytes_data",
          "type": "bytes"
        }
      ],
      "stateMutability": "view",
      "type": "function",
      "constant": true
    }
  ],
  "bytecode": "0x608060405234801561001057600080fd5b50610354806100206000396000f3fe608060405234801561001057600080fd5b50600436106100365760003560e01c80636d4ce63c1461003b5780638b2829471461005a575b600080fd5b61004361006f565b604051610051929190610251565b60405180910390f35b61006d6100683660046101da565b61010c565b005b600060606000546001808054610084906102ca565b80601f01602080910402602001604051908101604052809291908181526020018280546100b0906102ca565b80156100fd5780601f106100d2576101008083540402835291602001916100fd565b820191906000526020600020905b8154815290600101906020018083116100e057829003601f168201915b50505050509050915091509091565b600083905561011d60018383610123565b50505050565b82805461012f906102ca565b90600052602060002090601f01602090048101928261015157600085556101b5565b82601f10610188578280017fffffffffffffffffffffffffffffffffffffffffffffffffffffffffffffff008235161785556101b5565b828001600101855582156101b5579182015b828111156101b557823582559160200191906001019061019a565b506101c19291506101c5565b5090565b5b808211156101c157600081556001016101c6565b6000806000604084860312156101ee578283fd5b83359250602084013567ffffffffffffffff8082111561020c578384fd5b818601915086601f83011261021f578384fd5b81358181111561022d578485fd5b87602082850101111561023e578485fd5b6020830194508093505050509250925092565b600083825260206040818401528351806040850152825b8181101561028457858101830151858201606001528201610268565b818111156102955783606083870101525b50601f017fffffffffffffffffffffffffffffffffffffffffffffffffffffffffffffffe01692909201606001949350505050565b6002810460018216806102de57607f821691505b60208210811415610318577f4e487b7100000000000000000000000000000000000000000000000000000000600052602260045260246000fd5b5091905056fea2646970667358221220c88669aca4a2c542b7c84894a118dc12de0652484280769ac255248cd3dfe68f64736f6c63430008010033",
  "immutableReferences": {},
  "source": "// SPDX-License-Identifier: MIT\npragma solidity ^0.8.1;\n\ncontract SimpleStorage {\n  uint UintStoredData;\n  bytes BytesStoredData;\n\n  function set(uint x, bytes calldata y) public {\n    UintStoredData = x;\n    BytesStoredData = y;\n  }\n\n  function get() public view returns (uint uint_data, bytes memory bytes_data) {\n    return (UintStoredData, BytesStoredData);\n  }\n}\n",
  "sourcePath": "/home/andrei/Alyra/Web3_Referendum/contracts/SimpleStorage.sol",
  "compiler": {
    "name": "solc",
    "version": "0.8.1+commit.df193b15.Emscripten.clang"
  },
  "schemaVersion": "3.3.1",
  "updatedAt": "2021-05-05T13:23:48.990Z",
  "networkType": "ethereum",
  "devdoc": {
    "kind": "dev",
    "methods": {},
    "version": 1
  },
  "userdoc": {
    "kind": "user",
    "methods": {},
    "version": 1
  }
}