{
  "contractName": "Voter_Register_Mock",
  "abi": [
    {
      "inputs": [
        {
          "internalType": "address[]",
          "name": "members",
          "type": "address[]"
        }
      ],
      "stateMutability": "nonpayable",
      "type": "constructor"
    },
    {
      "inputs": [
        {
          "internalType": "address",
          "name": "member",
          "type": "address"
        }
      ],
      "name": "Contains",
      "outputs": [
        {
          "internalType": "bool",
          "name": "",
          "type": "bool"
        }
      ],
      "stateMutability": "view",
      "type": "function"
    }
  ],
  "bytecode": "0x608060405234801561001057600080fd5b506040516103ce3803806103ce83398101604081905261002f91610130565b60005b815181101561008d5761007a82828151811061005e57634e487b7160e01b600052603260045260246000fd5b6020026020010151600061009460201b61006b1790919060201c565b5080610085816101f5565b915050610032565b5050610232565b60006100a9836001600160a01b0384166100b2565b90505b92915050565b60006100be83836100fc565b6100f4575081546001818101845560008481526020808220909301849055845484825282860190935260409020919091556100ac565b5060006100ac565b60009081526001919091016020526040902054151590565b80516001600160a01b038116811461012b57600080fd5b919050565b60006020808385031215610142578182fd5b82516001600160401b0380821115610158578384fd5b818501915085601f83011261016b578384fd5b81518181111561017d5761017d61021c565b838102604051601f19603f830116810181811085821117156101a1576101a161021c565b604052828152858101935084860182860187018a10156101bf578788fd5b8795505b838610156101e8576101d481610114565b8552600195909501949386019386016101c3565b5098975050505050505050565b600060001982141561021557634e487b7160e01b81526011600452602481fd5b5060010190565b634e487b7160e01b600052604160045260246000fd5b61018d806102416000396000f3fe608060405234801561001057600080fd5b506004361061002b5760003560e01c806357f98d3214610030575b600080fd5b61004361003e366004610118565b610059565b604051610050919061014c565b60405180910390f35b60006100658183610094565b92915050565b600061008d8373ffffffffffffffffffffffffffffffffffffffff84166100b6565b9392505050565b600061008d8373ffffffffffffffffffffffffffffffffffffffff8416610100565b60006100c28383610100565b6100f857508154600181810184556000848152602080822090930184905584548482528286019093526040902091909155610065565b506000610065565b60009081526001919091016020526040902054151590565b600060208284031215610129578081fd5b813573ffffffffffffffffffffffffffffffffffffffff8116811461008d578182fd5b90151581526020019056fea2646970667358221220312a7bbbf535127ad64ddb210d1558bd380204511fd21389043718ad279e844e64736f6c63430008010033",
  "immutableReferences": {},
  "source": "\n// SPDX-License-Identifier: MIT\npragma solidity ^0.8.0;\n//pragma experimental ABIEncoderV2;\n\nimport \"@openzeppelin/contracts/utils/EnumerableSet.sol\";\n//import \"contracts/Institution.sol\";\n//import \"Institution.sol\";\n\ncontract  Voter_Register_Mock {\n    using EnumerableSet for EnumerableSet.AddressSet;\n    \n    EnumerableSet.AddressSet Members;\n\n    constructor(address[] memory members) {\n        for(uint i =0; i<members.length; i++){\n            Members.add(members[i]);\n        }\n    }\n\n    function Contains(address member) external view returns(bool){\n        return Members.contains(member);\n    }\n    \n}",
  "sourcePath": "/home/andrei/Alyra/Web3_Referendum/contracts/Mock/Voter_Register_Mock.sol",
  "compiler": {
    "name": "solc",
    "version": "0.8.1+commit.df193b15.Emscripten.clang"
  },
  "schemaVersion": "3.3.1",
  "updatedAt": "2021-04-07T11:15:10.351Z",
  "devdoc": {
    "kind": "dev",
    "methods": {},
    "version": 1
  },
  "userdoc": {
    "kind": "user",
    "methods": {},
    "version": 1
  }
}