{
  "contractName": "Agora",
  "abi": [
    {
      "inputs": [
        {
          "internalType": "string",
          "name": "Name",
          "type": "string"
        },
        {
          "internalType": "address",
          "name": "token_address",
          "type": "address"
        },
        {
          "internalType": "address",
          "name": "citizen_address",
          "type": "address"
        }
      ],
      "stateMutability": "nonpayable",
      "type": "constructor"
    },
    {
      "anonymous": false,
      "inputs": [
        {
          "indexed": false,
          "internalType": "address",
          "name": "new_constitution",
          "type": "address"
        }
      ],
      "name": "Constitution_Changed",
      "type": "event"
    },
    {
      "anonymous": false,
      "inputs": [
        {
          "indexed": false,
          "internalType": "address",
          "name": "register",
          "type": "address"
        },
        {
          "indexed": false,
          "internalType": "bytes32",
          "name": "key",
          "type": "bytes32"
        },
        {
          "indexed": false,
          "internalType": "uint256",
          "name": "Function_Call_Nbr",
          "type": "uint256"
        }
      ],
      "name": "Function_Call_Executed",
      "type": "event"
    },
    {
      "anonymous": false,
      "inputs": [
        {
          "indexed": false,
          "internalType": "address",
          "name": "Address",
          "type": "address"
        },
        {
          "indexed": false,
          "internalType": "enum Institution.Institution_Type",
          "name": "Type",
          "type": "uint8"
        }
      ],
      "name": "Institution_Created",
      "type": "event"
    },
    {
      "anonymous": false,
      "inputs": [
        {
          "indexed": false,
          "internalType": "address",
          "name": "register",
          "type": "address"
        },
        {
          "indexed": false,
          "internalType": "bytes32",
          "name": "key",
          "type": "bytes32"
        },
        {
          "indexed": false,
          "internalType": "uint256",
          "name": "proposal_index",
          "type": "uint256"
        }
      ],
      "name": "New_Proposal",
      "type": "event"
    },
    {
      "anonymous": false,
      "inputs": [
        {
          "indexed": false,
          "internalType": "address",
          "name": "register_address",
          "type": "address"
        },
        {
          "indexed": false,
          "internalType": "bytes32",
          "name": "key",
          "type": "bytes32"
        }
      ],
      "name": "New_Referendum",
      "type": "event"
    },
    {
      "anonymous": false,
      "inputs": [
        {
          "indexed": false,
          "internalType": "address",
          "name": "register",
          "type": "address"
        },
        {
          "indexed": false,
          "internalType": "bytes32",
          "name": "key",
          "type": "bytes32"
        }
      ],
      "name": "Project_Adopted",
      "type": "event"
    },
    {
      "anonymous": false,
      "inputs": [
        {
          "indexed": false,
          "internalType": "address",
          "name": "register",
          "type": "address"
        },
        {
          "indexed": false,
          "internalType": "bytes32",
          "name": "key",
          "type": "bytes32"
        }
      ],
      "name": "Project_Executed",
      "type": "event"
    },
    {
      "anonymous": false,
      "inputs": [
        {
          "indexed": false,
          "internalType": "address",
          "name": "register",
          "type": "address"
        },
        {
          "indexed": false,
          "internalType": "bytes32",
          "name": "key",
          "type": "bytes32"
        }
      ],
      "name": "Projet_Rejected",
      "type": "event"
    },
    {
      "anonymous": false,
      "inputs": [
        {
          "indexed": false,
          "internalType": "address",
          "name": "register",
          "type": "address"
        },
        {
          "indexed": false,
          "internalType": "bytes32",
          "name": "key",
          "type": "bytes32"
        }
      ],
      "name": "Projet_Signed",
      "type": "event"
    },
    {
      "anonymous": false,
      "inputs": [
        {
          "indexed": false,
          "internalType": "address",
          "name": "register",
          "type": "address"
        },
        {
          "indexed": false,
          "internalType": "bytes32",
          "name": "key",
          "type": "bytes32"
        },
        {
          "indexed": false,
          "internalType": "uint256",
          "name": "proposal_index",
          "type": "uint256"
        }
      ],
      "name": "Proposal_Modified",
      "type": "event"
    },
    {
      "anonymous": false,
      "inputs": [
        {
          "indexed": false,
          "internalType": "address",
          "name": "register_address",
          "type": "address"
        },
        {
          "indexed": false,
          "internalType": "uint256",
          "name": "new_version",
          "type": "uint256"
        }
      ],
      "name": "Referendum_Parameters_Updated",
      "type": "event"
    },
    {
      "anonymous": false,
      "inputs": [
        {
          "indexed": false,
          "internalType": "address",
          "name": "register",
          "type": "address"
        },
        {
          "indexed": false,
          "internalType": "bytes32",
          "name": "key",
          "type": "bytes32"
        },
        {
          "indexed": false,
          "internalType": "bytes32",
          "name": "ballot_key",
          "type": "bytes32"
        }
      ],
      "name": "Voting_Stage_Started",
      "type": "event"
    },
    {
      "inputs": [],
      "name": "Constitution_Address",
      "outputs": [
        {
          "internalType": "address",
          "name": "",
          "type": "address"
        }
      ],
      "stateMutability": "view",
      "type": "function",
      "constant": true
    },
    {
      "inputs": [],
      "name": "Constitution_Interface",
      "outputs": [
        {
          "internalType": "contract IConstitution_Agora",
          "name": "",
          "type": "address"
        }
      ],
      "stateMutability": "view",
      "type": "function",
      "constant": true
    },
    {
      "inputs": [
        {
          "internalType": "bytes32",
          "name": "",
          "type": "bytes32"
        }
      ],
      "name": "List_Law_Project",
      "outputs": [
        {
          "internalType": "bytes",
          "name": "Title",
          "type": "bytes"
        },
        {
          "internalType": "bytes",
          "name": "Description",
          "type": "bytes"
        },
        {
          "internalType": "uint256",
          "name": "Proposal_Count",
          "type": "uint256"
        },
        {
          "internalType": "uint256",
          "name": "Winning_Proposal",
          "type": "uint256"
        }
      ],
      "stateMutability": "view",
      "type": "function",
      "constant": true
    },
    {
      "inputs": [],
      "name": "Name",
      "outputs": [
        {
          "internalType": "string",
          "name": "",
          "type": "string"
        }
      ],
      "stateMutability": "view",
      "type": "function",
      "constant": true
    },
    {
      "inputs": [
        {
          "internalType": "bytes32",
          "name": "",
          "type": "bytes32"
        }
      ],
      "name": "Referendums",
      "outputs": [
        {
          "internalType": "uint256",
          "name": "Token_Amount_Consummed",
          "type": "uint256"
        },
        {
          "internalType": "uint256",
          "name": "Petition_Counter",
          "type": "uint256"
        },
        {
          "internalType": "uint256",
          "name": "Version",
          "type": "uint256"
        },
        {
          "internalType": "uint256",
          "name": "Creation_Timestamps",
          "type": "uint256"
        },
        {
          "internalType": "uint256",
          "name": "Start_Vote_Timestamps",
          "type": "uint256"
        },
        {
          "internalType": "uint256",
          "name": "Voter_Reward",
          "type": "uint256"
        },
        {
          "internalType": "enum Agora.Status",
          "name": "Referendum_Status",
          "type": "uint8"
        }
      ],
      "stateMutability": "view",
      "type": "function",
      "constant": true
    },
    {
      "inputs": [
        {
          "internalType": "address",
          "name": "new_constitution",
          "type": "address"
        }
      ],
      "name": "Set_Constitution",
      "outputs": [],
      "stateMutability": "nonpayable",
      "type": "function"
    },
    {
      "inputs": [],
      "name": "Total_Token_To_Redistribute",
      "outputs": [
        {
          "internalType": "uint256",
          "name": "",
          "type": "uint256"
        }
      ],
      "stateMutability": "view",
      "type": "function",
      "constant": true
    },
    {
      "inputs": [],
      "name": "Type_Institution",
      "outputs": [
        {
          "internalType": "enum Institution.Institution_Type",
          "name": "",
          "type": "uint8"
        }
      ],
      "stateMutability": "view",
      "type": "function",
      "constant": true
    },
    {
      "inputs": [
        {
          "internalType": "address",
          "name": "register_address",
          "type": "address"
        },
        {
          "internalType": "bytes",
          "name": "Title",
          "type": "bytes"
        },
        {
          "internalType": "bytes",
          "name": "Description",
          "type": "bytes"
        }
      ],
      "name": "Add_Law_Project",
      "outputs": [],
      "stateMutability": "nonpayable",
      "type": "function"
    },
    {
      "inputs": [
        {
          "internalType": "address",
          "name": "register_address",
          "type": "address"
        },
        {
          "internalType": "bytes32",
          "name": "referendum_key",
          "type": "bytes32"
        },
        {
          "internalType": "uint256",
          "name": "Parent",
          "type": "uint256"
        },
        {
          "internalType": "uint256[]",
          "name": "Parent_Proposals_Reuse",
          "type": "uint256[]"
        },
        {
          "internalType": "bytes[]",
          "name": "New_Function_Call",
          "type": "bytes[]"
        },
        {
          "internalType": "bytes",
          "name": "Description",
          "type": "bytes"
        }
      ],
      "name": "Add_Proposal",
      "outputs": [],
      "stateMutability": "nonpayable",
      "type": "function"
    },
    {
      "inputs": [
        {
          "internalType": "address",
          "name": "register_address",
          "type": "address"
        },
        {
          "internalType": "bytes32",
          "name": "referendum_key",
          "type": "bytes32"
        },
        {
          "internalType": "uint256",
          "name": "Proposal",
          "type": "uint256"
        },
        {
          "internalType": "bytes[]",
          "name": "New_Items",
          "type": "bytes[]"
        },
        {
          "internalType": "uint256[]",
          "name": "Indexs",
          "type": "uint256[]"
        }
      ],
      "name": "Add_Item",
      "outputs": [],
      "stateMutability": "nonpayable",
      "type": "function"
    },
    {
      "inputs": [
        {
          "internalType": "address",
          "name": "register_address",
          "type": "address"
        },
        {
          "internalType": "bytes32",
          "name": "referendum_key",
          "type": "bytes32"
        }
      ],
      "name": "Sign_Petition",
      "outputs": [],
      "stateMutability": "nonpayable",
      "type": "function"
    },
    {
      "inputs": [
        {
          "internalType": "address",
          "name": "register_address",
          "type": "address"
        },
        {
          "internalType": "bytes32",
          "name": "referendum_key",
          "type": "bytes32"
        }
      ],
      "name": "End_Proposition_Stage",
      "outputs": [],
      "stateMutability": "nonpayable",
      "type": "function"
    },
    {
      "inputs": [
        {
          "internalType": "address",
          "name": "register_address",
          "type": "address"
        },
        {
          "internalType": "bytes32",
          "name": "referendum_key",
          "type": "bytes32"
        }
      ],
      "name": "End_Vote",
      "outputs": [],
      "stateMutability": "nonpayable",
      "type": "function"
    },
    {
      "inputs": [
        {
          "internalType": "address",
          "name": "register_address",
          "type": "address"
        },
        {
          "internalType": "bytes32",
          "name": "referendum_key",
          "type": "bytes32"
        },
        {
          "internalType": "uint256",
          "name": "num_function_call_ToExecute",
          "type": "uint256"
        }
      ],
      "name": "Execute_Law",
      "outputs": [],
      "stateMutability": "nonpayable",
      "type": "function"
    },
    {
      "inputs": [
        {
          "internalType": "address",
          "name": "register_address",
          "type": "address"
        },
        {
          "internalType": "bytes32",
          "name": "referendum_key",
          "type": "bytes32"
        }
      ],
      "name": "Get_Voter_Reward",
      "outputs": [],
      "stateMutability": "nonpayable",
      "type": "function"
    },
    {
      "inputs": [
        {
          "internalType": "address",
          "name": "register_address",
          "type": "address"
        },
        {
          "internalType": "uint8",
          "name": "register_type",
          "type": "uint8"
        }
      ],
      "name": "Create_Register_Referendum",
      "outputs": [],
      "stateMutability": "nonpayable",
      "type": "function"
    },
    {
      "inputs": [
        {
          "internalType": "address",
          "name": "register_address",
          "type": "address"
        },
        {
          "internalType": "uint256",
          "name": "Petition_Duration",
          "type": "uint256"
        },
        {
          "internalType": "uint256",
          "name": "Vote_Duration",
          "type": "uint256"
        },
        {
          "internalType": "uint256",
          "name": "Vote_Checking_Duration",
          "type": "uint256"
        },
        {
          "internalType": "uint256",
          "name": "Law_Initialisation_Price",
          "type": "uint256"
        },
        {
          "internalType": "uint256",
          "name": "FunctionCall_Price",
          "type": "uint256"
        },
        {
          "internalType": "uint16",
          "name": "Required_Petition_Rate",
          "type": "uint16"
        },
        {
          "internalType": "address",
          "name": "Ivote_address",
          "type": "address"
        }
      ],
      "name": "Update_Register_Referendum_Parameters",
      "outputs": [],
      "stateMutability": "nonpayable",
      "type": "function"
    },
    {
      "inputs": [
        {
          "internalType": "address",
          "name": "register_address",
          "type": "address"
        }
      ],
      "name": "Get_Referendum_Register",
      "outputs": [
        {
          "internalType": "uint256",
          "name": "last_version",
          "type": "uint256"
        },
        {
          "internalType": "enum Institution.Institution_Type",
          "name": "institution_type",
          "type": "uint8"
        },
        {
          "internalType": "bytes32[]",
          "name": "list_referendums",
          "type": "bytes32[]"
        }
      ],
      "stateMutability": "view",
      "type": "function",
      "constant": true
    },
    {
      "inputs": [
        {
          "internalType": "address",
          "name": "register_address",
          "type": "address"
        },
        {
          "internalType": "uint256",
          "name": "version",
          "type": "uint256"
        }
      ],
      "name": "Get_Referendum_Register_Parameters",
      "outputs": [
        {
          "components": [
            {
              "internalType": "uint256",
              "name": "Petition_Duration",
              "type": "uint256"
            },
            {
              "internalType": "uint256",
              "name": "Vote_Duration",
              "type": "uint256"
            },
            {
              "internalType": "uint256",
              "name": "Vote_Checking_Duration",
              "type": "uint256"
            },
            {
              "internalType": "uint256",
              "name": "Law_Initialisation_Price",
              "type": "uint256"
            },
            {
              "internalType": "uint256",
              "name": "FunctionCall_Price",
              "type": "uint256"
            },
            {
              "internalType": "uint16",
              "name": "Required_Petition_Rate",
              "type": "uint16"
            },
            {
              "internalType": "address",
              "name": "Ivote_address",
              "type": "address"
            }
          ],
          "internalType": "struct Agora.Referendum_Parameters",
          "name": "",
          "type": "tuple"
        }
      ],
      "stateMutability": "view",
      "type": "function",
      "constant": true
    },
    {
      "inputs": [
        {
          "internalType": "bytes32",
          "name": "key",
          "type": "bytes32"
        },
        {
          "internalType": "uint256",
          "name": "id",
          "type": "uint256"
        }
      ],
      "name": "Get_Proposal",
      "outputs": [
        {
          "internalType": "bytes",
          "name": "description",
          "type": "bytes"
        },
        {
          "internalType": "uint256[]",
          "name": "childrens",
          "type": "uint256[]"
        },
        {
          "internalType": "bytes[]",
          "name": "function_calls",
          "type": "bytes[]"
        },
        {
          "internalType": "uint256",
          "name": "func_call_counter",
          "type": "uint256"
        },
        {
          "internalType": "uint256",
          "name": "parent",
          "type": "uint256"
        },
        {
          "internalType": "address",
          "name": "author",
          "type": "address"
        }
      ],
      "stateMutability": "view",
      "type": "function",
      "constant": true
    },
    {
      "inputs": [
        {
          "internalType": "bytes32",
          "name": "key",
          "type": "bytes32"
        }
      ],
      "name": "Get_Law_Results",
      "outputs": [
        {
          "internalType": "uint256",
          "name": "Winning_Proposal",
          "type": "uint256"
        },
        {
          "components": [
            {
              "internalType": "bool",
              "name": "Success",
              "type": "bool"
            },
            {
              "internalType": "bytes",
              "name": "Receipt",
              "type": "bytes"
            }
          ],
          "internalType": "struct Initiative_Legislative_Lib.Function_Call_Result[]",
          "name": "Receipts",
          "type": "tuple[]"
        }
      ],
      "stateMutability": "view",
      "type": "function",
      "constant": true
    }
  ],
  "bytecode": "0x60806040523480156200001157600080fd5b5060405162004a8138038062004a8183398101604081905262000034916200016f565b60016000819055835184916200004f916020840190620000ac565b5050600280546001600160a01b0319908116331760ff60a01b1916600160a11b1791829055600380546001600160a01b039384169083161790556008805482169483169490941790935560098054909316911617905550620002bf565b828054620000ba906200026c565b90600052602060002090601f016020900481019282620000de576000855562000129565b82601f10620000f957805160ff191683800117855562000129565b8280016001018555821562000129579182015b82811115620001295782518255916020019190600101906200010c565b50620001379291506200013b565b5090565b5b808211156200013757600081556001016200013c565b80516001600160a01b03811681146200016a57600080fd5b919050565b60008060006060848603121562000184578283fd5b83516001600160401b03808211156200019b578485fd5b818601915086601f830112620001af578485fd5b815181811115620001c457620001c4620002a9565b604051601f8201601f19908116603f01168101908382118183101715620001ef57620001ef620002a9565b816040528281526020935089848487010111156200020b578788fd5b8791505b828210156200022e57848201840151818301850152908301906200020f565b828211156200023f57878484830101525b96506200025191505086820162000152565b93505050620002636040850162000152565b90509250925092565b6002810460018216806200028157607f821691505b60208210811415620002a357634e487b7160e01b600052602260045260246000fd5b50919050565b634e487b7160e01b600052604160045260246000fd5b6147b280620002cf6000396000f3fe608060405234801561001057600080fd5b50600436106101825760003560e01c8063847c0cdf116100d8578063c3cef4321161008c578063eb101b2311610066578063eb101b2314610355578063ef3775071461036a578063fa0706401461037d57610182565b8063c3cef4321461030c578063c9cf9b991461031f578063da8348041461033257610182565b80639d2f7ba3116100bd5780639d2f7ba3146102d3578063bbfc76c1146102e6578063c288def2146102f957610182565b8063847c0cdf1461028d578063938bdf9d146102b357610182565b80633c289ea81161013a57806368e13b5d1161011457806368e13b5d146102525780638052474d14610265578063833004131461027a57610182565b80633c289ea81461021557806350af72ab1461022a57806353b0600a1461023d57610182565b806315a424751161016b57806315a42475146101ad57806319fc5335146101ce5780631d0527e7146101f357610182565b806302d4cd28146101875780630c18adb8146101a5575b600080fd5b61018f610390565b60405161019c9190613bce565b60405180910390f35b61018f6103ac565b6101c06101bb3660046138d8565b6103c8565b60405161019c9291906143c5565b6101e16101dc3660046138f0565b6104e7565b60405161019c96959493929190613d62565b6102066102013660046134e9565b61065e565b60405161019c9392919061445f565b6102286102233660046134e9565b6106f4565b005b610228610238366004613505565b6107e2565b610245610b7c565b60405161019c9190613c9b565b610228610260366004613530565b610b82565b61026d6110c0565b60405161019c9190613e63565b610228610288366004613505565b61114e565b6102a061029b3660046138d8565b61159a565b60405161019c97969594939291906144aa565b6102c66102c1366004613735565b6115db565b60405161019c919061435d565b6102286102e1366004613564565b611674565b6102286102f4366004613747565b611ae5565b610228610307366004613505565b611e94565b61022861031a3660046135f7565b612456565b61022861032d366004613505565b6129d5565b6103456103403660046138d8565b612c42565b60405161019c9493929190613e1c565b61035d612d7a565b60405161019c9190613e55565b6102286103783660046137c8565b612d9b565b61022861038b3660046136b5565b612ea3565b60025473ffffffffffffffffffffffffffffffffffffffff1681565b60035473ffffffffffffffffffffffffffffffffffffffff1681565b600081815260046020908152604080832060058101546006909101805483518186028101860190945280845260609492939192839190879084015b828210156104d85760008481526020908190206040805180820190915260028502909101805460ff16151582526001810180549293919291840191610447906145fa565b80601f0160208091040260200160405190810160405280929190818152602001828054610473906145fa565b80156104c05780601f10610495576101008083540402835291602001916104c0565b820191906000526020600020905b8154815290600101906020018083116104a357829003601f168201915b50505050508152505081526020019060010190610403565b50505050905091509150915091565b606080606060008060006004600089815260200190815260200160002073__Initiative_Legislative_Lib____________63bebe81d29091896040518363ffffffff1660e01b815260040161053e929190613bc0565b60006040518083038186803b15801561055657600080fd5b505af415801561056a573d6000803e3d6000fd5b505050506040513d6000823e601f3d908101601f191682016040526105929190810190613805565b60008981526004602081905260409182902091517f2c64627600000000000000000000000000000000000000000000000000000000815292965073__Initiative_Legislative_Lib____________92632c646276926105f69290918c9101613bc0565b60006040518083038186803b15801561060e57600080fd5b505af4158015610622573d6000803e3d6000fd5b505050506040513d6000823e601f3d908101601f1916820160405261064a9190810190613951565b939c929b5096995097509495509392505050565b73ffffffffffffffffffffffffffffffffffffffff8116600090815260056020908152604080832080546001820154600290920180548451818702810187019095528085528695606095939460ff16939183918301828280156106e057602002820191906000526020600020905b8154815260200190600101908083116106cc575b505050505090509250925092509193909250565b60025473ffffffffffffffffffffffffffffffffffffffff1633146107345760405162461bcd60e51b815260040161072b90613ee4565b60405180910390fd5b73ffffffffffffffffffffffffffffffffffffffff81166107675760405162461bcd60e51b815260040161072b90613f78565b600280547fffffffffffffffffffffffff00000000000000000000000000000000000000001673ffffffffffffffffffffffffffffffffffffffff83161790556040517feaf9201ae5a091c46918bca9c5ced3b9aa103362b0a68a1f36b9f2858b0a4c14906107d7908390613bce565b60405180910390a150565b6009546040517f57f98d3200000000000000000000000000000000000000000000000000000000815273ffffffffffffffffffffffffffffffffffffffff909116906357f98d3290610838903390600401613bce565b60206040518083038186803b15801561085057600080fd5b505afa158015610864573d6000803e3d6000fd5b505050506040513d601f19601f820116820180604052508101906108889190613893565b6108a45760405162461bcd60e51b815260040161072b906140c2565b60008181526006602090815260408083206002015473ffffffffffffffffffffffffffffffffffffffff861684526005909252909120546108f75760405162461bcd60e51b815260040161072b90613faf565b60016000838152600660208190526040909120015460ff166004811115610947577f4e487b7100000000000000000000000000000000000000000000000000000000600052602160045260246000fd5b146109645760405162461bcd60e51b815260040161072b9061420c565b60008281526006602090815260408083206004015490516109889286929101613bc0565b60408051601f19818403018152828252805160209182012073ffffffffffffffffffffffffffffffffffffffff80891660009081526005808552858220898352600301909452938420909201547fce584e120000000000000000000000000000000000000000000000000000000085529094506201000090041691829063ce584e1290610a1b9086908590600401613bc0565b60206040518083038186803b158015610a3357600080fd5b505afa158015610a47573d6000803e3d6000fd5b505050506040513d601f19601f82011682018060405250810190610a6b9190613a2e565b6000868152600460205260409020600501819055905080610aff576000858152600660208190526040918290200180547fffffffffffffffffffffffffffffffffffffffffffffffffffffffffffffff00166004179055517fc0484628c45470ef274ad33a8349f25e4872443bfa84ae4449565f856e2d154790610af29088908890613c47565b60405180910390a1610b74565b6000858152600660208190526040918290200180547fffffffffffffffffffffffffffffffffffffffffffffffffffffffffffffff00166002179055517f30163b7fdf14635a330fe4fe05c140eb127856c17cdd70e13a033c99179d7ab790610b6b9088908890613c47565b60405180910390a15b505050505050565b60075481565b6009546040517f57f98d3200000000000000000000000000000000000000000000000000000000815273ffffffffffffffffffffffffffffffffffffffff909116906357f98d3290610bd8903390600401613bce565b60206040518083038186803b158015610bf057600080fd5b505afa158015610c04573d6000803e3d6000fd5b505050506040513d601f19601f82011682018060405250810190610c289190613893565b610c445760405162461bcd60e51b815260040161072b906140c2565b60026000541415610c675760405162461bcd60e51b815260040161072b906141d5565b6002600090815573ffffffffffffffffffffffffffffffffffffffff8416815260056020526040902054610cad5760405162461bcd60e51b815260040161072b90613faf565b60026000838152600660208190526040909120015460ff166004811115610cfd577f4e487b7100000000000000000000000000000000000000000000000000000000600052602160045260246000fd5b14610d1a5760405162461bcd60e51b815260040161072b90613e76565b60008281526004602081905260409182902091517f8a73792500000000000000000000000000000000000000000000000000000000815273__Initiative_Legislative_Lib____________92638a73792592610d7b92869189910161427c565b60206040518083038186803b158015610d9357600080fd5b505af4158015610da7573d6000803e3d6000fd5b505050506040513d601f19601f82011682018060405250810190610dcb9190613893565b1561107b576000828152600660209081526040808320600401549051610df49286929101613bc0565b60408051808303601f1901815282825280516020918201206000878152600680845284822090810180547fffffffffffffffffffffffffffffffffffffffffffffffffffffffffffffff00166003908117909155815473ffffffffffffffffffffffffffffffffffffffff8c81168552600580885288862060029095015486529390920190955294822001547f2422de87000000000000000000000000000000000000000000000000000000008652919550919362010000909104909216918290632422de8790610ec9908790600401613c9b565b60206040518083038186803b158015610ee157600080fd5b505afa158015610ef5573d6000803e3d6000fd5b505050506040513d601f19601f82011682018060405250810190610f199190613a2e565b6007546008546040517f70a0823100000000000000000000000000000000000000000000000000000000815292935060009273ffffffffffffffffffffffffffffffffffffffff909116906370a0823190610f78903090600401613bce565b60206040518083038186803b158015610f9057600080fd5b505afa158015610fa4573d6000803e3d6000fd5b505050506040513d601f19601f82011682018060405250810190610fc89190613a2e565b610fd291906145b3565b90508015610fff578060076000828254610fec919061454a565b90915550610ffc9050818561454a565b93505b6110098285614562565b6000888152600660205260409020600501556110258285614687565b6007600082825461103691906145b3565b90915550506040517fe9f42b97fc287852ff1cd5bf77ebbb531da76c47f889eb8b827e39b12d11c21e9061106d908a908a90613c47565b60405180910390a150505050505b7f6788cb9b25df12671543610cf8b18b59ef71b4bdc371adf75a2cb8e42dd81d188383836040516110ae93929190613c6d565b60405180910390a15050600160005550565b600180546110cd906145fa565b80601f01602080910402602001604051908101604052809291908181526020018280546110f9906145fa565b80156111465780601f1061111b57610100808354040283529160200191611146565b820191906000526020600020905b81548152906001019060200180831161112957829003601f168201915b505050505081565b73ffffffffffffffffffffffffffffffffffffffff82166000908152600560205260409020546111905760405162461bcd60e51b815260040161072b90613faf565b600081815260066020908152604080832033845260080190915290205460ff16156111cd5760405162461bcd60e51b815260040161072b90614167565b60036000828152600660208190526040909120015460ff16600481111561121d577f4e487b7100000000000000000000000000000000000000000000000000000000600052602160045260246000fd5b1461123a5760405162461bcd60e51b815260040161072b9061408b565b6000818152600660208181526040808420600281015460058083015473ffffffffffffffffffffffffffffffffffffffff808b168952828752858920848a52600301875285892090920154898952968652600490930154935191969295620100009004169391926112ad92889201613bc0565b60408051601f19818403018152918152815160209283012073ffffffffffffffffffffffffffffffffffffffff8916600090815260058452828120888252600301909352912060020154909150156113cb576040517f589edb4400000000000000000000000000000000000000000000000000000000815260009073ffffffffffffffffffffffffffffffffffffffff84169063589edb44906113569085903390600401613ca4565b604080518083038186803b15801561136d57600080fd5b505afa158015611381573d6000803e3d6000fd5b505050506040513d601f19601f820116820180604052508101906113a591906138ad565b509050806113c55760405162461bcd60e51b815260040161072b90614054565b5061148b565b6040517f6e85cb0a00000000000000000000000000000000000000000000000000000000815273ffffffffffffffffffffffffffffffffffffffff831690636e85cb0a9061141f9084903390600401613ca4565b60206040518083038186803b15801561143757600080fd5b505afa15801561144b573d6000803e3d6000fd5b505050506040513d601f19601f8201168201806040525081019061146f9190613893565b61148b5760405162461bcd60e51b815260040161072b906140f9565b6000858152600660209081526040808320338452600801909152812080547fffffffffffffffffffffffffffffffffffffffffffffffffffffffffffffff00166001179055600780548592906114e29084906145b3565b90915550506008546040517fa9059cbb00000000000000000000000000000000000000000000000000000000815273ffffffffffffffffffffffffffffffffffffffff9091169063a9059cbb9061153f9033908790600401613c47565b602060405180830381600087803b15801561155957600080fd5b505af115801561156d573d6000803e3d6000fd5b505050506040513d601f19601f820116820180604052508101906115919190613893565b50505050505050565b600660208190526000918252604090912080546001820154600283015460038401546004850154600586015495909601549395929491939092919060ff1687565b6115e361337f565b5073ffffffffffffffffffffffffffffffffffffffff80831660009081526005602081815260408084208685526003908101835293819020815160e081018352815481526001820154938101939093526002810154918301919091529283015460608201526004830154608082015291015461ffff811660a083015262010000900490911660c08201525b92915050565b6009546040517f57f98d3200000000000000000000000000000000000000000000000000000000815273ffffffffffffffffffffffffffffffffffffffff909116906357f98d32906116ca903390600401613bce565b60206040518083038186803b1580156116e257600080fd5b505afa1580156116f6573d6000803e3d6000fd5b505050506040513d601f19601f8201168201806040525081019061171a9190613893565b6117365760405162461bcd60e51b815260040161072b906140c2565b60008681526006602090815260408083206002015473ffffffffffffffffffffffffffffffffffffffff8b1684526005909252909120546117895760405162461bcd60e51b815260040161072b90613faf565b806117a65760405162461bcd60e51b815260040161072b90614130565b60008781526006602081905260408220015460ff1660048111156117f3577f4e487b7100000000000000000000000000000000000000000000000000000000600052602160045260246000fd5b146118105760405162461bcd60e51b815260040161072b9061401d565b73ffffffffffffffffffffffffffffffffffffffff88166000908152600560209081526040808320848452600301909152812060040154611852908690614576565b6008546040517fdd62ed3e000000000000000000000000000000000000000000000000000000008152919250829173ffffffffffffffffffffffffffffffffffffffff9091169063dd62ed3e906118af9033903090600401613bef565b60206040518083038186803b1580156118c757600080fd5b505afa1580156118db573d6000803e3d6000fd5b505050506040513d601f19601f820116820180604052508101906118ff9190613a2e565b101561191d5760405162461bcd60e51b815260040161072b90613ead565b6008546040517f23b872dd00000000000000000000000000000000000000000000000000000000815273ffffffffffffffffffffffffffffffffffffffff909116906323b872dd9061197790339030908690600401613c16565b602060405180830381600087803b15801561199157600080fd5b505af11580156119a5573d6000803e3d6000fd5b505050506040513d601f19601f820116820180604052508101906119c99190613893565b50600088815260066020526040812080548392906119e890849061454a565b925050819055508060076000828254611a01919061454a565b909155505060008881526004602081905260409182902091517fea02218200000000000000000000000000000000000000000000000000000000815273__Initiative_Legislative_Lib____________9263ea02218292611a6f928c918c918c918c918c913391016142a8565b60006040518083038186803b158015611a8757600080fd5b505af4158015611a9b573d6000803e3d6000fd5b505050507ff72e3c142ffc8ff45a605c45381ac88b2d9118d0fa9c99d677029114a4b66d73898989604051611ad293929190613c6d565b60405180910390a1505050505050505050565b60025473ffffffffffffffffffffffffffffffffffffffff163314611b1c5760405162461bcd60e51b815260040161072b90613ee4565b73ffffffffffffffffffffffffffffffffffffffff8816600090815260056020526040812054611b4d90600161454a565b905087600560008b73ffffffffffffffffffffffffffffffffffffffff1673ffffffffffffffffffffffffffffffffffffffff16815260200190815260200160002060030160008381526020019081526020016000206000018190555086600560008b73ffffffffffffffffffffffffffffffffffffffff1673ffffffffffffffffffffffffffffffffffffffff16815260200190815260200160002060030160008381526020019081526020016000206001018190555085600560008b73ffffffffffffffffffffffffffffffffffffffff1673ffffffffffffffffffffffffffffffffffffffff16815260200190815260200160002060030160008381526020019081526020016000206002018190555084600560008b73ffffffffffffffffffffffffffffffffffffffff1673ffffffffffffffffffffffffffffffffffffffff16815260200190815260200160002060030160008381526020019081526020016000206003018190555083600560008b73ffffffffffffffffffffffffffffffffffffffff1673ffffffffffffffffffffffffffffffffffffffff16815260200190815260200160002060030160008381526020019081526020016000206004018190555082600560008b73ffffffffffffffffffffffffffffffffffffffff1673ffffffffffffffffffffffffffffffffffffffff168152602001908152602001600020600301600083815260200190815260200160002060050160006101000a81548161ffff021916908361ffff16021790555081600560008b73ffffffffffffffffffffffffffffffffffffffff1673ffffffffffffffffffffffffffffffffffffffff168152602001908152602001600020600301600083815260200190815260200160002060050160026101000a81548173ffffffffffffffffffffffffffffffffffffffff021916908373ffffffffffffffffffffffffffffffffffffffff16021790555080600560008b73ffffffffffffffffffffffffffffffffffffffff1673ffffffffffffffffffffffffffffffffffffffff168152602001908152602001600020600001819055507f7bb8283c3247c95f823358b1c6be303d182859f7e0173cd80ec6f6fee14d58028982604051611ad2929190613c47565b6009546040517f57f98d3200000000000000000000000000000000000000000000000000000000815273ffffffffffffffffffffffffffffffffffffffff909116906357f98d3290611eea903390600401613bce565b60206040518083038186803b158015611f0257600080fd5b505afa158015611f16573d6000803e3d6000fd5b505050506040513d601f19601f82011682018060405250810190611f3a9190613893565b611f565760405162461bcd60e51b815260040161072b906140c2565b60008181526006602090815260408083206002015473ffffffffffffffffffffffffffffffffffffffff86168452600590925290912054611fa95760405162461bcd60e51b815260040161072b90613faf565b80611fc65760405162461bcd60e51b815260040161072b90614130565b60008281526006602081905260408220015460ff166004811115612013577f4e487b7100000000000000000000000000000000000000000000000000000000600052602160045260246000fd5b146120305760405162461bcd60e51b815260040161072b9061401d565b73ffffffffffffffffffffffffffffffffffffffff831660009081526005602090815260408083208484526003908101835281842054868552600690935292209091015461207e90426145b3565b1161209b5760405162461bcd60e51b815260040161072b90613fe6565b73ffffffffffffffffffffffffffffffffffffffff80841660009081526005602081815260408084208685526003018252928390209091015460095483517ffa91965f000000000000000000000000000000000000000000000000000000008152935161216b9561ffff90931694919092169263fa91965f92600480840193829003018186803b15801561212e57600080fd5b505afa158015612142573d6000803e3d6000fd5b505050506040513d601f19601f820116820180604052508101906121669190613a2e565b61335b565b600083815260066020526040902060010154106123c15760008242604051602001612197929190613bc0565b60408051601f19818403018152828252805160209182012073ffffffffffffffffffffffffffffffffffffffff8089166000908152600580855285822089835260030185529085902001546009547f285b88220000000000000000000000000000000000000000000000000000000087529451929650620100009004811694859463e13453589488949190931692839263285b88229260048083019392829003018186803b15801561224857600080fd5b505afa15801561225c573d6000803e3d6000fd5b505050506040513d601f19601f820116820180604052508101906122809190613911565b73ffffffffffffffffffffffffffffffffffffffff8a1660009081526005602090815260408083208b845260030182528083206001808201546002909201548e86526004948590529483902084015492517fffffffff0000000000000000000000000000000000000000000000000000000060e08b901b16815261230c98979695929492939201613cc8565b600060405180830381600087803b15801561232657600080fd5b505af115801561233a573d6000803e3d6000fd5b5050506000858152600660208190526040918290204260048201550180547fffffffffffffffffffffffffffffffffffffffffffffffffffffffffffffff00166001179055517f0bd9e7b208fda4121b4742c651edb73ab6eb27fb08d7c5e934b777269b67744191506123b290879087908690613c6d565b60405180910390a15050612451565b6000828152600660208190526040822090810180547fffffffffffffffffffffffffffffffffffffffffffffffffffffffffffffff001660041790555460078054919290916124119084906145b3565b90915550506040517fc0484628c45470ef274ad33a8349f25e4872443bfa84ae4449565f856e2d1547906124489085908590613c47565b60405180910390a15b505050565b6009546040517f57f98d3200000000000000000000000000000000000000000000000000000000815273ffffffffffffffffffffffffffffffffffffffff909116906357f98d32906124ac903390600401613bce565b60206040518083038186803b1580156124c457600080fd5b505afa1580156124d8573d6000803e3d6000fd5b505050506040513d601f19601f820116820180604052508101906124fc9190613893565b6125185760405162461bcd60e51b815260040161072b906140c2565b60008881526006602090815260408083206002015473ffffffffffffffffffffffffffffffffffffffff8d16845260059092529091205461256b5760405162461bcd60e51b815260040161072b90613faf565b806125885760405162461bcd60e51b815260040161072b90614130565b60008981526006602081905260408220015460ff1660048111156125d5577f4e487b7100000000000000000000000000000000000000000000000000000000600052602160045260246000fd5b146125f25760405162461bcd60e51b815260040161072b9061401d565b73ffffffffffffffffffffffffffffffffffffffff8a166000908152600560209081526040808320848452600301909152812060040154612634908690614576565b6008546040517fdd62ed3e000000000000000000000000000000000000000000000000000000008152919250829173ffffffffffffffffffffffffffffffffffffffff9091169063dd62ed3e906126919033903090600401613bef565b60206040518083038186803b1580156126a957600080fd5b505afa1580156126bd573d6000803e3d6000fd5b505050506040513d601f19601f820116820180604052508101906126e19190613a2e565b10156126ff5760405162461bcd60e51b815260040161072b90613ead565b6008546040517f23b872dd00000000000000000000000000000000000000000000000000000000815273ffffffffffffffffffffffffffffffffffffffff909116906323b872dd9061275990339030908690600401613c16565b602060405180830381600087803b15801561277357600080fd5b505af1158015612787573d6000803e3d6000fd5b505050506040513d601f19601f820116820180604052508101906127ab9190613893565b5060008a815260066020526040812080548392906127ca90849061454a565b9250508190555080600760008282546127e3919061454a565b909155505060008a815260066020908152604080832033845260070190915290205460ff1661287b5760008a815260066020818152604080842033855260078101835290842080547fffffffffffffffffffffffffffffffffffffffffffffffffffffffffffffff00166001908117909155938e90529190528101546128689161454a565b60008b8152600660205260409020600101555b60008a81526004602081905260408220015461289890600161454a565b905033600460008d8152602001908152602001600020600301600083815260200190815260200160002060050160006101000a81548173ffffffffffffffffffffffffffffffffffffffff021916908373ffffffffffffffffffffffffffffffffffffffff160217905550600460008c815260200190815260200160002073__Initiative_Legislative_Lib____________63902f807f90918c8c8c8c8c8c8c6040518963ffffffff1660e01b815260040161295c989796959493929190614306565b60006040518083038186803b15801561297457600080fd5b505af4158015612988573d6000803e3d6000fd5b505050507fad59e609f2c36c5e4829994a203558758493015a7595e52a658449c18ab4a0328c8c836040516129bf93929190613c6d565b60405180910390a1505050505050505050505050565b6009546040517f57f98d3200000000000000000000000000000000000000000000000000000000815273ffffffffffffffffffffffffffffffffffffffff909116906357f98d3290612a2b903390600401613bce565b60206040518083038186803b158015612a4357600080fd5b505afa158015612a57573d6000803e3d6000fd5b505050506040513d601f19601f82011682018060405250810190612a7b9190613893565b612a975760405162461bcd60e51b815260040161072b906140c2565b73ffffffffffffffffffffffffffffffffffffffff8216600090815260056020526040902054612ad95760405162461bcd60e51b815260040161072b90613faf565b60008181526006602052604090206002015480612b085760405162461bcd60e51b815260040161072b90614130565b60008281526006602081905260408220015460ff166004811115612b55577f4e487b7100000000000000000000000000000000000000000000000000000000600052602160045260246000fd5b14612b725760405162461bcd60e51b815260040161072b9061401d565b600082815260066020908152604080832033845260070190915290205460ff1615612baf5760405162461bcd60e51b815260040161072b9061419e565b600082815260066020818152604080842033855260078101835290842080547fffffffffffffffffffffffffffffffffffffffffffffffffffffffffffffff001660019081179091558685529290915201805491612c0c8361464e565b91905055507fa0acab554b8bc32a9b2c60e08ab206908a93174bb93a315e05040f40a4794e1c8383604051612448929190613c47565b600460205260009081526040902080548190612c5d906145fa565b80601f0160208091040260200160405190810160405280929190818152602001828054612c89906145fa565b8015612cd65780601f10612cab57610100808354040283529160200191612cd6565b820191906000526020600020905b815481529060010190602001808311612cb957829003601f168201915b505050505090806001018054612ceb906145fa565b80601f0160208091040260200160405190810160405280929190818152602001828054612d17906145fa565b8015612d645780601f10612d3957610100808354040283529160200191612d64565b820191906000526020600020905b815481529060010190602001808311612d4757829003601f168201915b5050505050908060040154908060050154905084565b60025474010000000000000000000000000000000000000000900460ff1681565b60025473ffffffffffffffffffffffffffffffffffffffff163314612dd25760405162461bcd60e51b815260040161072b90613ee4565b8060ff166006811115612e0e577f4e487b7100000000000000000000000000000000000000000000000000000000600052602160045260246000fd5b73ffffffffffffffffffffffffffffffffffffffff831660009081526005602052604090206001908101805490917fffffffffffffffffffffffffffffffffffffffffffffffffffffffffffffff0090911690836006811115612e9a577f4e487b7100000000000000000000000000000000000000000000000000000000600052602160045260246000fd5b02179055505050565b6009546040517f57f98d3200000000000000000000000000000000000000000000000000000000815273ffffffffffffffffffffffffffffffffffffffff909116906357f98d3290612ef9903390600401613bce565b60206040518083038186803b158015612f1157600080fd5b505afa158015612f25573d6000803e3d6000fd5b505050506040513d601f19601f82011682018060405250810190612f499190613893565b612f655760405162461bcd60e51b815260040161072b906140c2565b73ffffffffffffffffffffffffffffffffffffffff851660009081526005602052604090205480612fa85760405162461bcd60e51b815260040161072b90613faf565b73ffffffffffffffffffffffffffffffffffffffff8087166000908152600560209081526040808320858452600390810190925291829020015460085491517fdd62ed3e00000000000000000000000000000000000000000000000000000000815290928392169063dd62ed3e906130269033903090600401613bef565b60206040518083038186803b15801561303e57600080fd5b505afa158015613052573d6000803e3d6000fd5b505050506040513d601f19601f820116820180604052508101906130769190613a2e565b10156130945760405162461bcd60e51b815260040161072b90613ead565b6000868686866040516020016130ad9493929190613d30565b60408051601f19818403018152918152815160209283012060008181526006909352912060020154909150156130f55760405162461bcd60e51b815260040161072b90613f1b565b60008181526004602081905260409182902091517f35dbcfb200000000000000000000000000000000000000000000000000000000815273__Initiative_Legislative_Lib____________926335dbcfb29261315a928c918c918c918c9101614243565b60006040518083038186803b15801561317257600080fd5b505af4158015613186573d6000803e3d6000fd5b50505060008281526006602081815260408084206002810189905542600382015533855260078101835290842080547fffffffffffffffffffffffffffffffffffffffffffffffffffffffffffffff00166001908117909155938690529190528101546131f492509061454a565b600082815260066020908152604080832060019081019490945573ffffffffffffffffffffffffffffffffffffffff808d168452600583528184206002018054958601815584529190922090920183905560085490517f23b872dd0000000000000000000000000000000000000000000000000000000081529116906323b872dd9061328890339030908790600401613c16565b602060405180830381600087803b1580156132a257600080fd5b505af11580156132b6573d6000803e3d6000fd5b505050506040513d601f19601f820116820180604052508101906132da9190613893565b50600081815260066020526040812080548492906132f990849061454a565b925050819055508160076000828254613312919061454a565b90915550506040517fe7eced308252117ea126d89bd85cc3c84ac9b6d53828f666e786228bf13958cb90613349908a908490613c47565b60405180910390a15050505050505050565b600061271061336e8361ffff8616614576565b6133789190614562565b9392505050565b6040518060e001604052806000815260200160008152602001600081526020016000815260200160008152602001600061ffff168152602001600073ffffffffffffffffffffffffffffffffffffffff1681525090565b80516133e181614757565b919050565b60008083601f8401126133f7578182fd5b50813567ffffffffffffffff81111561340e578182fd5b602083019150836020808302850101111561342857600080fd5b9250929050565b805180151581146133e157600080fd5b60008083601f840112613450578182fd5b50813567ffffffffffffffff811115613467578182fd5b60208301915083602082850101111561342857600080fd5b600082601f83011261348f578081fd5b815167ffffffffffffffff8111156134a9576134a9614728565b6134bc6020601f19601f840116016144f5565b8181528460208386010111156134d0578283fd5b6134e18260208301602087016145ca565b949350505050565b6000602082840312156134fa578081fd5b813561337881614757565b60008060408385031215613517578081fd5b823561352281614757565b946020939093013593505050565b600080600060608486031215613544578081fd5b833561354f81614757565b95602085013595506040909401359392505050565b600080600080600080600060a0888a03121561357e578283fd5b873561358981614757565b96506020880135955060408801359450606088013567ffffffffffffffff808211156135b3578485fd5b6135bf8b838c016133e6565b909650945060808a01359150808211156135d7578384fd5b506135e48a828b016133e6565b989b979a50959850939692959293505050565b600080600080600080600080600060c08a8c031215613614578182fd5b893561361f81614757565b985060208a0135975060408a0135965060608a013567ffffffffffffffff80821115613649578384fd5b6136558d838e016133e6565b909850965060808c013591508082111561366d578384fd5b6136798d838e016133e6565b909650945060a08c0135915080821115613691578384fd5b5061369e8c828d0161343f565b915080935050809150509295985092959850929598565b6000806000806000606086880312156136cc578283fd5b85356136d781614757565b9450602086013567ffffffffffffffff808211156136f3578485fd5b6136ff89838a0161343f565b90965094506040880135915080821115613717578283fd5b506137248882890161343f565b969995985093965092949392505050565b60008060408385031215613517578182fd5b600080600080600080600080610100898b031215613763578182fd5b883561376e81614757565b97506020890135965060408901359550606089013594506080890135935060a0890135925060c089013561ffff811681146137a7578283fd5b915060e08901356137b781614757565b809150509295985092959890939650565b600080604083850312156137da578182fd5b82356137e581614757565b9150602083013560ff811681146137fa578182fd5b809150509250929050565b60006020808385031215613817578182fd5b825167ffffffffffffffff81111561382d578283fd5b8301601f8101851361383d578283fd5b805161385061384b82614526565b6144f5565b81815283810190838501865b84811015613885576138738a88845189010161347f565b8452928601929086019060010161385c565b509098975050505050505050565b6000602082840312156138a4578081fd5b6133788261342f565b600080604083850312156138bf578182fd5b6138c88361342f565b9150602083015190509250929050565b6000602082840312156138e9578081fd5b5035919050565b60008060408385031215613902578182fd5b50508035926020909101359150565b600060208284031215613922578081fd5b81517fffffffff0000000000000000000000000000000000000000000000000000000081168114613378578182fd5b600080600080600060a08688031215613968578283fd5b855167ffffffffffffffff8082111561397f578485fd5b61398b89838a0161347f565b96506020915081880151818111156139a1578586fd5b88019050601f810189136139b3578485fd5b80516139c161384b82614526565b81815283810190838501858402850186018d10156139dd578889fd5b8894505b838510156139ff5780518352600194909401939185019185016139e1565b5080985050505050506040860151925060608601519150613a22608087016133d6565b90509295509295909350565b600060208284031215613a3f578081fd5b5051919050565b73ffffffffffffffffffffffffffffffffffffffff169052565b818352602080840193600091908185020181018584845b87811015613afc57828403895281357fffffffffffffffffffffffffffffffffffffffffffffffffffffffffffffffe1883603018112613ab5578687fd5b8701803567ffffffffffffffff811115613acd578788fd5b803603891315613adb578788fd5b613ae88682898501613b56565b9a87019a9550505090840190600101613a77565b5091979650505050505050565b60008284527f07ffffffffffffffffffffffffffffffffffffffffffffffffffffffffffffff831115613b3a578081fd5b6020830280836020870137939093016020019283525090919050565b60008284528282602086013780602084860101526020601f19601f85011685010190509392505050565b60008151808452613b988160208601602086016145ca565b601f01601f19169290920160200192915050565b60078110613bbc57613bbc6146f9565b9052565b918252602082015260400190565b73ffffffffffffffffffffffffffffffffffffffff91909116815260200190565b73ffffffffffffffffffffffffffffffffffffffff92831681529116602082015260400190565b73ffffffffffffffffffffffffffffffffffffffff9384168152919092166020820152604081019190915260600190565b73ffffffffffffffffffffffffffffffffffffffff929092168252602082015260400190565b73ffffffffffffffffffffffffffffffffffffffff9390931683526020830191909152604082015260600190565b90815260200190565b91825273ffffffffffffffffffffffffffffffffffffffff16602082015260400190565b96875273ffffffffffffffffffffffffffffffffffffffff9590951660208701527fffffffff000000000000000000000000000000000000000000000000000000009390931660408601526060850191909152608084015260a083015260c082015260e00190565b600060408252613d44604083018688613b56565b8281036020840152613d57818587613b56565b979650505050505050565b600060c08252613d7560c0830189613b80565b828103602084810191909152885180835289820192820190845b81811015613dab57845183529383019391830191600101613d8f565b505084810360408601528851808252828201935082810282018301838b01865b83811015613df957601f19858403018752613de7838351613b80565b96860196925090850190600101613dcb565b50508095505050505050846060830152836080830152613d5760a0830184613a46565b600060808252613e2f6080830187613b80565b8281036020840152613e418187613b80565b604084019590955250506060015292915050565b6020810161166e8284613bac565b6000602082526133786020830184613b80565b60208082526013908201527f50726f6a656374204e6f742041444f5054454400000000000000000000000000604082015260600190565b60208082526018908201527f496e63726561736520546f6b656e20416c6c6f77616e63650000000000000000604082015260600190565b60208082526011908201527f436f6e737469747574696f6e204f6e6c79000000000000000000000000000000604082015260600190565b60208082526023908201527f5265666572656e64756d732070726f6a65637420616c7265616479206372656160408201527f7465640000000000000000000000000000000000000000000000000000000000606082015260800190565b60208082526009908201527f4164647265737320300000000000000000000000000000000000000000000000604082015260600190565b60208082526010908201527f526567697374657220756e6b6e6f776e00000000000000000000000000000000604082015260600190565b6020808252601c908201527f5045544954494f4e53207374616765206e6f742066696e697368656400000000604082015260600190565b60208082526017908201527f4e6f74206174205045544954494f4e5320737461747573000000000000000000604082015260600190565b6020808252601a908201527f566f7465206861736e2774206265656e2076616c696461746564000000000000604082015260600190565b60208082526014908201527f50726f6a656374204e6f74204558454355544544000000000000000000000000604082015260600190565b6020808252600c908201527f436974697a656e204f6e6c790000000000000000000000000000000000000000604082015260600190565b60208082526011908201527f596f7520686176656e277420766f746564000000000000000000000000000000604082015260600190565b6020808252601e908201527f4e6f206578697374696e67205265666572656e64756d2050726f6a6563740000604082015260600190565b60208082526016908201527f566f74657220616c726561647920726577617264656400000000000000000000604082015260600190565b6020808252600e908201527f416c7265616479205369676e6564000000000000000000000000000000000000604082015260600190565b6020808252601f908201527f5265656e7472616e637947756172643a207265656e7472616e742063616c6c00604082015260600190565b60208082526012908201527f4e6f7420617420564f5445207374617475730000000000000000000000000000604082015260600190565b60008682526060602083015261425d606083018688613b56565b8281036040840152614270818587613b56565b98975050505050505050565b928352602083019190915273ffffffffffffffffffffffffffffffffffffffff16604082015260600190565b600088825287602083015260a060408301526142c860a083018789613a60565b82810360608401526142db818688613b09565b91505073ffffffffffffffffffffffffffffffffffffffff8316608083015298975050505050505050565b600089825288602083015260a0604083015261432660a08301888a613b09565b8281036060840152614339818789613a60565b9050828103608084015261434e818587613b56565b9b9a5050505050505050505050565b600060e082019050825182526020830151602083015260408301516040830152606083015160608301526080830151608083015261ffff60a08401511660a083015273ffffffffffffffffffffffffffffffffffffffff60c08401511660c083015292915050565b600060408083018584526020828186015281865180845260608701915060608382028801019350828801865b82811015614450578886037fffffffffffffffffffffffffffffffffffffffffffffffffffffffffffffffa0018452815180511515875285015185870188905261443d88880182613b80565b96505092840192908401906001016143f1565b50939998505050505050505050565b600060608201858352602061447681850187613bac565b60606040850152845191829052808501916080850190845b818110156138855784518352938301939183019160010161448e565b600060e0820190508882528760208301528660408301528560608301528460808301528360a0830152600583106144e3576144e36146f9565b8260c083015298975050505050505050565b604051601f8201601f1916810167ffffffffffffffff8111828210171561451e5761451e614728565b604052919050565b600067ffffffffffffffff82111561454057614540614728565b5060209081020190565b6000821982111561455d5761455d61469b565b500190565b600082614571576145716146ca565b500490565b6000817fffffffffffffffffffffffffffffffffffffffffffffffffffffffffffffffff04831182151516156145ae576145ae61469b565b500290565b6000828210156145c5576145c561469b565b500390565b60005b838110156145e55781810151838201526020016145cd565b838111156145f4576000848401525b50505050565b60028104600182168061460e57607f821691505b60208210811415614648577f4e487b7100000000000000000000000000000000000000000000000000000000600052602260045260246000fd5b50919050565b60007fffffffffffffffffffffffffffffffffffffffffffffffffffffffffffffffff8214156146805761468061469b565b5060010190565b600082614696576146966146ca565b500690565b7f4e487b7100000000000000000000000000000000000000000000000000000000600052601160045260246000fd5b7f4e487b7100000000000000000000000000000000000000000000000000000000600052601260045260246000fd5b7f4e487b7100000000000000000000000000000000000000000000000000000000600052602160045260246000fd5b7f4e487b7100000000000000000000000000000000000000000000000000000000600052604160045260246000fd5b73ffffffffffffffffffffffffffffffffffffffff8116811461477957600080fd5b5056fea2646970667358221220134f759dbd6e3c753b00e21c4eb2a3f6747f62ab866be031160fc576d55def0264736f6c63430008010033",
  "immutableReferences": {},
  "source": "// SPDX-License-Identifier: MIT\npragma solidity ^0.8.0;\n\n/*import \"Initiative_Legislative_lib.sol\";\nimport \"Citizens_Register.sol\";\nimport \"IVote.sol\";*/\n\n\nimport \"contracts/Initiative_Legislative_lib.sol\";\nimport \"contracts/Citizens_Register.sol\";\nimport \"contracts/IVote.sol\";\n\n//import \"Constitution.sol\";\n\ninterface IConstitution_Agora{\n    function Get_Register_Parameter(address register) external view returns(uint,uint);\n    function Get_Register_Referendum_Parameters(address register) external view returns(uint[7] memory Uint256_Arg, uint16 Assembly_Max_Members, uint8[7] memory Uint8_Arg, address OffChain_Vote_Delegation, address Assembly_Associated_Delegation);\n    //function Get_Register(address register) external view returns(Register_Parameters memory);\n}\n\ncontract Agora is Institution{\n    using EnumerableSet for EnumerableSet.AddressSet;\n    using EnumerableSet for EnumerableSet.Bytes32Set;\n    using SafeMath for uint;\n    using Initiative_Legislative_Lib for Initiative_Legislative_Lib.Law_Project;\n    enum Status{\n        PETITIONS,\n        VOTE,\n        ADOPTED,\n        EXECUTED,\n        REJECTED\n    }\n    \n    /*struct Referendum_Parameters{\n        uint Petition_Duration;\n         uint Vote_Duration;\n         uint Vote_Checking_Duration;\n         uint Helper_Max_Duration;\n         uint Law_Initialisation_Price;\n         uint FunctionCall_Price;\n         uint Helper_Amount_Escrow;\n         uint16 Assembly_Max_Members;\n         \n         uint8 Required_Petition_Rate;\n         uint8 Representatives_Rates;\n         uint8 Voters_Reward_Rate;\n         uint8 Helper_Reward_Rate;\n         uint8 Assembly_Voluteer_Reward_Rate;\n         //uint8 OffChain_Delegation_Reward;\n         uint8 Vote_Type;\n         //address OffChain_Vote_Delegation;   \n         address Assembly_Associated_Delegation;\n         address Ivote_address;\n    }*/\n    \n    struct Referendum_Parameters{\n        uint Petition_Duration;\n         uint Vote_Duration;\n         uint Vote_Checking_Duration;\n         uint Law_Initialisation_Price;\n         uint FunctionCall_Price;\n\n         uint16 Required_Petition_Rate;\n         //uint8 Voters_Reward_Rate;\n         //uint8 Helper_Reward_Rate;\n         address Ivote_address;\n    }\n    \n    struct Referendum_Register{\n        uint Last_Version;\n        Institution_Type Type;\n        bytes32[] List_Referendums;\n        mapping(uint=>Referendum_Parameters) Parameters_Versions;\n    }\n    \n    struct Referendum{\n        //EnumerableSet.AddressSet Assembly_Volunteer;\n        uint Token_Amount_Consummed;\n        uint Petition_Counter;\n        uint Version;\n        uint Creation_Timestamps;\n        uint Start_Vote_Timestamps;\n        uint Voter_Reward;\n        Status Referendum_Status;\n        mapping(address=>bool) Petitions;\n        mapping(address=>bool) Voter_Rewarded;\n    }\n    \n    \n    modifier Citizen_Only{\n        require(Citizens.Contains(msg.sender),\"Citizen Only\");\n        _;\n    }\n    \n    \n    /*EVENTS*/\n    event Referendum_Parameters_Updated(address register_address, uint new_version);\n    event New_Referendum(address register_address, bytes32 key);\n    event New_Proposal(address register, bytes32 key, uint proposal_index);\n    event Proposal_Modified(address register, bytes32 key, uint proposal_index);\n    event Voting_Stage_Started(address register, bytes32 key, bytes32 ballot_key);\n    event Projet_Signed(address register, bytes32 key);\n    event Projet_Rejected(address register, bytes32 key);\n    event Project_Adopted(address register, bytes32 key);\n    event Function_Call_Executed(address register, bytes32 key, uint Function_Call_Nbr);\n    event Project_Executed(address register, bytes32 key);\n    \n    /*STATE*/\n    IConstitution_Agora public Constitution_Interface ;\n    \n    mapping(bytes32 => Initiative_Legislative_Lib.Law_Project) public List_Law_Project;\n    \n    mapping(address=>Referendum_Register) Referendums_Registers;\n    mapping(bytes32=>Referendum) public Referendums;\n    \n    ///@notice Token amount consummed for emmiting propositions during Petition stage and not yet redistributed\n    uint public Total_Token_To_Redistribute;\n    \n    \n    DemoCoin Democoin;\n    Citizens_Register Citizens;\n    \n    \n    \n    constructor(string memory Name, address token_address, address citizen_address)Institution(Name){\n        Type_Institution =Institution_Type.AGORA;\n        Constitution_Interface= IConstitution_Agora(Constitution_Address);\n        \n        Democoin = DemoCoin(token_address);\n        Citizens = Citizens_Register(citizen_address);\n    }\n    \n    \n    function Add_Law_Project(address register_address, bytes calldata Title, bytes calldata Description)external Citizen_Only{\n       \n        //_Update_Register_Referendum(register_address);\n        uint version = Referendums_Registers[register_address].Last_Version;\n        require(version!=0, \"Register unknown\");\n        uint Law_Initialisation_Price = Referendums_Registers[register_address].Parameters_Versions[version].Law_Initialisation_Price;\n        //uint Description_Max_Size = Registers_Referendums[register_address].Parameters_Versions[version].Description_Max_Size;\n        \n        /*Token operations AND Size checking*/\n        require(Democoin.allowance(msg.sender, address(this)) >= Law_Initialisation_Price, \"Increase Token Allowance\");\n        \n        bytes32 key = keccak256(abi.encode(Title,Description));\n        require(Referendums[key].Version==0,\"Referendums project already created\");\n        \n        List_Law_Project[key].Add_Law_Project(Title,  Description);\n        \n        Referendums[key].Version = version;\n        Referendums[key].Creation_Timestamps = block.timestamp;\n        Referendums[key].Petitions[msg.sender] = true;\n        Referendums[key].Petition_Counter = Referendums[key].Petition_Counter+1;\n        \n        Referendums_Registers[register_address].List_Referendums.push(key);\n        \n        Democoin.transferFrom(msg.sender, address(this), Law_Initialisation_Price);\n        Referendums[key].Token_Amount_Consummed +=Law_Initialisation_Price;\n        Total_Token_To_Redistribute+=Law_Initialisation_Price;\n        \n        emit New_Referendum(register_address, key);\n    }\n    \n    \n    function Add_Proposal(address register_address, bytes32 referendum_key, uint Parent, uint[] calldata Parent_Proposals_Reuse, bytes[] calldata New_Function_Call, bytes calldata Description) external Citizen_Only{\n        uint version = Referendums[referendum_key].Version;\n        require(Referendums_Registers[register_address].Last_Version!=0,\"Register unknown\");\n        require(version!=0,\"No existing Referendum Project\");\n        require(Referendums[referendum_key].Referendum_Status == Status.PETITIONS, \"Not at PETITIONS status\");\n        \n        \n        uint Cost = Referendums_Registers[register_address].Parameters_Versions[version].FunctionCall_Price*New_Function_Call.length;\n        \n        require(Democoin.allowance(msg.sender, address(this)) >= Cost, \"Increase Token Allowance\");\n        Democoin.transferFrom(msg.sender, address(this), Cost);\n        Referendums[referendum_key].Token_Amount_Consummed +=Cost;\n        Total_Token_To_Redistribute+=Cost;\n        \n        if(!Referendums[referendum_key].Petitions[msg.sender]){\n            Referendums[referendum_key].Petitions[msg.sender] = true;\n            Referendums[referendum_key].Petition_Counter = Referendums[referendum_key].Petition_Counter+1;\n        }\n        \n        uint proposal_index = List_Law_Project[referendum_key].Proposal_Count +1;\n        List_Law_Project[referendum_key].Proposals_Tree[proposal_index].Author = msg.sender;\n        List_Law_Project[referendum_key].Add_Corpus_Proposal(Parent, Parent_Proposals_Reuse, New_Function_Call, Description);\n        emit New_Proposal( register_address,referendum_key, proposal_index);\n    }\n    \n    function Add_Item(address register_address, bytes32 referendum_key, uint Proposal, bytes[] calldata New_Items, uint[] calldata Indexs) external Citizen_Only{\n        uint version = Referendums[referendum_key].Version;\n        require(Referendums_Registers[register_address].Last_Version!=0,\"Register unknown\");\n        require(version!=0,\"No existing Referendum Project\");\n        require(Referendums[referendum_key].Referendum_Status == Status.PETITIONS, \"Not at PETITIONS status\");\n        \n        uint Cost = Referendums_Registers[register_address].Parameters_Versions[version].FunctionCall_Price*New_Items.length;\n        \n        require(Democoin.allowance(msg.sender, address(this)) >= Cost, \"Increase Token Allowance\");\n        Democoin.transferFrom(msg.sender, address(this), Cost);\n        Referendums[referendum_key].Token_Amount_Consummed +=Cost;\n        Total_Token_To_Redistribute+=Cost;\n        \n        List_Law_Project[referendum_key].Add_Item_Proposal( Proposal, New_Items, Indexs, msg.sender);\n        emit Proposal_Modified(register_address, referendum_key, Proposal);\n    }\n    \n    function Sign_Petition(address register_address, bytes32 referendum_key) external Citizen_Only{\n        require(Referendums_Registers[register_address].Last_Version!=0,\"Register unknown\");\n        uint version = Referendums[referendum_key].Version;\n        require(version!=0,\"No existing Referendum Project\");\n        require(Referendums[referendum_key].Referendum_Status == Status.PETITIONS, \"Not at PETITIONS status\");\n        require(!Referendums[referendum_key].Petitions[msg.sender], \"Already Signed\");\n        Referendums[referendum_key].Petitions[msg.sender]=true;\n        Referendums[referendum_key].Petition_Counter++;\n        emit Projet_Signed(register_address, referendum_key);\n    }\n    \n    function End_Proposition_Stage(address register_address, bytes32 referendum_key)external Citizen_Only{\n        uint version = Referendums[referendum_key].Version;\n        require(Referendums_Registers[register_address].Last_Version!=0,\"Register unknown\");\n        require(version!=0,\"No existing Referendum Project\");\n        require(Referendums[referendum_key].Referendum_Status == Status.PETITIONS, \"Not at PETITIONS status\");\n        require(block.timestamp - Referendums[referendum_key].Creation_Timestamps > Referendums_Registers[register_address].Parameters_Versions[version].Petition_Duration, \"PETITIONS stage not finished\");\n        \n        if(Referendums[referendum_key].Petition_Counter >= Percentage(Referendums_Registers[register_address].Parameters_Versions[version].Required_Petition_Rate, Citizens.Get_Citizen_Number()) ){\n            bytes32 ballot_key= keccak256(abi.encodePacked(referendum_key,block.timestamp));\n            IVote Vote_Instance = IVote(Referendums_Registers[register_address].Parameters_Versions[version].Ivote_address);\n            Vote_Instance.Create_Ballot(ballot_key, address(Citizens), Citizens.Contains_Function_Selector(), Referendums_Registers[register_address].Parameters_Versions[version].Vote_Duration, Referendums_Registers[register_address].Parameters_Versions[version].Vote_Checking_Duration, List_Law_Project[referendum_key].Proposal_Count, 1);\n            \n            Referendums[referendum_key].Start_Vote_Timestamps = block.timestamp;\n            Referendums[referendum_key].Referendum_Status = Status.VOTE;\n            \n            emit Voting_Stage_Started(register_address, referendum_key, ballot_key);\n        }else{\n            Referendums[referendum_key].Referendum_Status = Status.REJECTED;\n            Total_Token_To_Redistribute -= Referendums[referendum_key].Token_Amount_Consummed;\n            emit Projet_Rejected(register_address, referendum_key);\n        }\n    }\n    \n    \n    function End_Vote(address register_address, bytes32 referendum_key)external Citizen_Only{\n        uint version = Referendums[referendum_key].Version;\n        //require(version!=0,\"No existing Referendum Project\");\n        require(Referendums_Registers[register_address].Last_Version!=0,\"Register unknown\");\n        require(Referendums[referendum_key].Referendum_Status == Status.VOTE, \"Not at VOTE status\");\n        bytes32 ballot_key = keccak256(abi.encodePacked(referendum_key,  Referendums[referendum_key].Start_Vote_Timestamps));\n        \n        IVote Vote_Instance = IVote(Referendums_Registers[register_address].Parameters_Versions[version].Ivote_address);\n        uint winning_proposal= Vote_Instance.Get_Winning_Proposition_byId(ballot_key,0);\n        List_Law_Project[referendum_key].Winning_Proposal = winning_proposal;\n        \n        if(winning_proposal==0){\n            Referendums[referendum_key].Referendum_Status = Status.REJECTED;\n            emit Projet_Rejected(register_address, referendum_key);\n        }else{\n            Referendums[referendum_key].Referendum_Status = Status.ADOPTED;\n            emit Project_Adopted(register_address, referendum_key);\n        }\n    }\n    \n    function Execute_Law(address register_address, bytes32 referendum_key, uint num_function_call_ToExecute)external Citizen_Only nonReentrant{\n        require(Referendums_Registers[register_address].Last_Version!=0,\"Register unknown\");\n        require(Referendums[referendum_key].Referendum_Status ==  Status.ADOPTED, \"Project Not ADOPTED\");\n        //if(Execute_Winning_Proposal(law_project, num_function_call_ToExecute, Delegation_Law_Projects[law_project].Institution_Address)){\n        if(List_Law_Project[referendum_key].Execute_Winning_Proposal(num_function_call_ToExecute, register_address)){\n            bytes32 ballot_key = keccak256(abi.encodePacked(referendum_key,  Referendums[referendum_key].Start_Vote_Timestamps));\n            \n            Referendums[referendum_key].Referendum_Status = Status.EXECUTED;\n            uint Total_Reward = Referendums[referendum_key].Token_Amount_Consummed;\n            IVote Vote_Instance = IVote(Referendums_Registers[register_address].Parameters_Versions[Referendums[referendum_key].Version].Ivote_address);\n            uint num_voter = Vote_Instance.Get_Voter_Number(ballot_key);\n            uint bonnus_amount = Democoin.balanceOf(address(this)) - Total_Token_To_Redistribute; //If there is an amount of token on Agora account that doesn't come from proposition submission, it is redistributed to voters\n            if(bonnus_amount>0){\n                 Total_Token_To_Redistribute +=bonnus_amount;\n                 Total_Reward+=bonnus_amount;\n            }\n            Referendums[referendum_key].Voter_Reward = Total_Reward/num_voter;\n            Total_Token_To_Redistribute-=Total_Reward%num_voter;   \n            emit Project_Executed(register_address, referendum_key);\n        }\n        emit Function_Call_Executed( register_address, referendum_key, num_function_call_ToExecute);\n    }\n    \n    function Get_Voter_Reward(address register_address, bytes32 referendum_key)external {\n        require(Referendums_Registers[register_address].Last_Version!=0,\"Register unknown\");\n        require(!Referendums[referendum_key].Voter_Rewarded[msg.sender], \"Voter already rewarded\");\n        require(Referendums[referendum_key].Referendum_Status ==  Status.EXECUTED, \"Project Not EXECUTED\");\n        uint version = Referendums[referendum_key].Version;\n        uint voter_reward=Referendums[referendum_key].Voter_Reward;\n        IVote Vote_Instance = IVote(Referendums_Registers[register_address].Parameters_Versions[version].Ivote_address);\n        bytes32 ballot_key = keccak256(abi.encodePacked(referendum_key,  Referendums[referendum_key].Start_Vote_Timestamps));\n        \n        if(Referendums_Registers[register_address].Parameters_Versions[version].Vote_Checking_Duration>0){\n            (bool HasValidated,)= Vote_Instance.HasValidated(ballot_key, msg.sender);\n            require(HasValidated, \"Vote hasn't been validated\");\n        }else{\n            require(Vote_Instance.HasVoted(ballot_key, msg.sender), \"You haven't voted\");\n        }\n        Referendums[referendum_key].Voter_Rewarded[msg.sender]=true;\n        Total_Token_To_Redistribute-= voter_reward;\n        Democoin.transfer(msg.sender, voter_reward);\n    }\n    \n    \n    \n    /*Constitution_Only functions*/\n    \n    function Create_Register_Referendum(address register_address, uint8 register_type) external Constitution_Only {\n        \n        //Registers_Referendums[register_address].Last_Version = 1;\n        Referendums_Registers[register_address].Type = Institution_Type(register_type);\n    }\n    \n    \n    function Update_Register_Referendum_Parameters(address register_address, uint Petition_Duration, uint Vote_Duration, uint Vote_Checking_Duration, uint Law_Initialisation_Price, uint FunctionCall_Price, uint16 Required_Petition_Rate, address Ivote_address) external Constitution_Only{\n        \n        uint new_version = Referendums_Registers[register_address].Last_Version +1;\n        Referendums_Registers[register_address].Parameters_Versions[new_version].Petition_Duration= Petition_Duration;\n        Referendums_Registers[register_address].Parameters_Versions[new_version].Vote_Duration = Vote_Duration;\n        Referendums_Registers[register_address].Parameters_Versions[new_version].Vote_Checking_Duration = Vote_Checking_Duration;\n        Referendums_Registers[register_address].Parameters_Versions[new_version].Law_Initialisation_Price = Law_Initialisation_Price;\n        Referendums_Registers[register_address].Parameters_Versions[new_version].FunctionCall_Price = FunctionCall_Price;\n\n        Referendums_Registers[register_address].Parameters_Versions[new_version].Required_Petition_Rate = Required_Petition_Rate;\n        \n        Referendums_Registers[register_address].Parameters_Versions[new_version].Ivote_address =Ivote_address;\n        \n        Referendums_Registers[register_address].Last_Version = new_version;\n        \n        emit Referendum_Parameters_Updated( register_address,  new_version);\n    }\n    \n    /*function Update_Register_Referendum_Parameters(address register_address, uint[7] memory Uint256_Arg, uint16 Assembly_Max_Members, uint8[6] memory Uint8_Arg, address Assembly_Associated_Delegation, address Ivote_address) external Constitution_Only{\n        uint new_version = Referendums_Registers[register_address].Last_Version.add(1);\n        Referendums_Registers[register_address].Parameters_Versions[new_version].Petition_Duration= Uint256_Arg[0];\n        Referendums_Registers[register_address].Parameters_Versions[new_version].Vote_Duration = Uint256_Arg[1];\n        Referendums_Registers[register_address].Parameters_Versions[new_version].Vote_Checking_Duration = Uint256_Arg[2];\n        //Referendums_Registers[register_address].Parameters_Versions[new_version].Helper_Max_Duration = Uint256_Arg[3];\n        Referendums_Registers[register_address].Parameters_Versions[new_version].Law_Initialisation_Price = Uint256_Arg[4];\n        Referendums_Registers[register_address].Parameters_Versions[new_version].FunctionCall_Price = Uint256_Arg[5];\n        //Referendums_Registers[register_address].Parameters_Versions[new_version].Helper_Amount_Escrow = Uint256_Arg[6];\n        \n        //Referendums_Registers[register_address].Parameters_Versions[new_version].Assembly_Max_Members = Assembly_Max_Members;\n        \n        Referendums_Registers[register_address].Parameters_Versions[new_version].Required_Petition_Rate = Uint8_Arg[0];\n        //Referendums_Registers[register_address].Parameters_Versions[new_version].Representatives_Rates = Uint8_Arg[1];\n        //Referendums_Registers[register_address].Parameters_Versions[new_version].Voters_Reward_Rate = Uint8_Arg[2];\n        //Referendums_Registers[register_address].Parameters_Versions[new_version].Helper_Reward_Rate = Uint8_Arg[3];\n        //Referendums_Registers[register_address].Parameters_Versions[new_version].Assembly_Voluteer_Reward_Rate = Uint8_Arg[4];\n        //Referendums_Registers[register_address].Parameters_Versions[new_version].OffChain_Delegation_Reward = Uint8_Arg[5];\n        //Referendums_Registers[register_address].Parameters_Versions[new_version].Vote_Type = Uint8_Arg[5];\n        \n        //Referendums_Registers[register_address].Parameters_Versions[new_version].Assembly_Associated_Delegation = Assembly_Associated_Delegation;\n        Referendums_Registers[register_address].Parameters_Versions[new_version].Ivote_address; Ivote_address;\n        \n        Referendums_Registers[register_address].Last_Version = new_version;\n        \n        emit Referendum_Parameters_Updated( register_address,  new_version);\n    }*/\n    \n    \n    \n    \n    \n\n    /*GETTER*/\n    \n    function Get_Referendum_Register(address register_address) external view returns(uint last_version, Institution_Type institution_type, bytes32[] memory list_referendums){\n        return (Referendums_Registers[register_address].Last_Version, Referendums_Registers[register_address].Type, Referendums_Registers[register_address].List_Referendums);\n    }\n    \n    function Get_Referendum_Register_Parameters(address register_address, uint version) external view returns(Referendum_Parameters memory){\n        return (Referendums_Registers[register_address].Parameters_Versions[version]);\n    }\n    \n    function Get_Proposal(bytes32 key, uint id)external view returns(bytes memory description, uint[] memory childrens, bytes[] memory function_calls, uint func_call_counter, uint parent, address author){\n        function_calls = List_Law_Project[key].Get_Proposal_FunctionCall_List(id);\n        (description, childrens,func_call_counter, parent, author) = List_Law_Project[key].Get_Proposal_Infos(id);\n    }\n    \n    function Get_Law_Results(bytes32 key)external view returns(uint Winning_Proposal, Initiative_Legislative_Lib.Function_Call_Result[] memory Receipts){\n        return(List_Law_Project[key].Winning_Proposal, List_Law_Project[key].Function_Call_Receipts);\n    }\n    \n    /*TEMP*/\n    /*function Set_Constitution(address consti)external{\n        Constitution_Address = consti;\n        Constitution_Interface = IConstitution_Agora(consti);\n    }*/\n}",
  "sourcePath": "/home/andrei/Alyra/Web3_Referendum/contracts/Agora.sol",
  "compiler": {
    "name": "solc",
    "version": "0.8.1+commit.df193b15.Emscripten.clang"
  },
  "schemaVersion": "3.3.1",
  "updatedAt": "2021-04-13T13:02:30.187Z",
  "networkType": "ethereum",
  "devdoc": {
    "kind": "dev",
    "methods": {
      "Set_Constitution(address)": {
        "details": "The function Allows to change the Constitution contract the current Institution obey to. The function is only callable by the {Constitution_Address}",
        "params": {
          "new_constitution": "Address of the new Constitution contract."
        }
      }
    },
    "version": 1
  },
  "userdoc": {
    "kind": "user",
    "methods": {
      "Constitution_Address()": {
        "notice": "Address of the constitution of the DAO"
      },
      "Name()": {
        "notice": "Name of the institution"
      },
      "Total_Token_To_Redistribute()": {
        "notice": "Token amount consummed for emmiting propositions during Petition stage and not yet redistributed"
      },
      "Type_Institution()": {
        "notice": "Type of the Institution"
      }
    },
    "version": 1
  }
}