{
  "contractName": "API_Register",
  "abi": [
    {
      "inputs": [
        {
          "internalType": "string",
          "name": "Name",
          "type": "string"
        },
        {
          "internalType": "address",
          "name": "agora",
          "type": "address"
        }
      ],
      "stateMutability": "nonpayable",
      "type": "constructor"
    },
    {
      "anonymous": false,
      "inputs": [
        {
          "indexed": false,
          "internalType": "address",
          "name": "authority",
          "type": "address"
        }
      ],
      "name": "Authority_Added",
      "type": "event"
    },
    {
      "anonymous": false,
      "inputs": [
        {
          "indexed": false,
          "internalType": "address",
          "name": "authority",
          "type": "address"
        }
      ],
      "name": "Authority_Removed",
      "type": "event"
    },
    {
      "anonymous": false,
      "inputs": [
        {
          "indexed": false,
          "internalType": "address",
          "name": "new_constitution",
          "type": "address"
        }
      ],
      "name": "Constitution_Changed",
      "type": "event"
    },
    {
      "anonymous": false,
      "inputs": [
        {
          "indexed": false,
          "internalType": "address",
          "name": "contract_address",
          "type": "address"
        }
      ],
      "name": "Contract_Created",
      "type": "event"
    },
    {
      "anonymous": false,
      "inputs": [
        {
          "indexed": false,
          "internalType": "address",
          "name": "contract_address",
          "type": "address"
        }
      ],
      "name": "Contract_Removed",
      "type": "event"
    },
    {
      "anonymous": false,
      "inputs": [
        {
          "indexed": false,
          "internalType": "address",
          "name": "contract_address",
          "type": "address"
        }
      ],
      "name": "Contract_param_Changed",
      "type": "event"
    },
    {
      "anonymous": false,
      "inputs": [
        {
          "indexed": false,
          "internalType": "address",
          "name": "contract_address",
          "type": "address"
        },
        {
          "indexed": false,
          "internalType": "bytes4",
          "name": "function_selector",
          "type": "bytes4"
        }
      ],
      "name": "Function_Added",
      "type": "event"
    },
    {
      "anonymous": false,
      "inputs": [
        {
          "indexed": false,
          "internalType": "address",
          "name": "contract_address",
          "type": "address"
        },
        {
          "indexed": false,
          "internalType": "bytes4",
          "name": "function_selector",
          "type": "bytes4"
        }
      ],
      "name": "Function_Executed",
      "type": "event"
    },
    {
      "anonymous": false,
      "inputs": [
        {
          "indexed": false,
          "internalType": "address",
          "name": "contract_address",
          "type": "address"
        },
        {
          "indexed": false,
          "internalType": "bytes4",
          "name": "function_selector",
          "type": "bytes4"
        }
      ],
      "name": "Function_Removed",
      "type": "event"
    },
    {
      "anonymous": false,
      "inputs": [
        {
          "indexed": false,
          "internalType": "address",
          "name": "Address",
          "type": "address"
        },
        {
          "indexed": false,
          "internalType": "enum Institution.Institution_Type",
          "name": "Type",
          "type": "uint8"
        }
      ],
      "name": "Institution_Created",
      "type": "event"
    },
    {
      "anonymous": false,
      "inputs": [],
      "name": "Name_Changed",
      "type": "event"
    },
    {
      "inputs": [
        {
          "internalType": "address",
          "name": "authority",
          "type": "address"
        }
      ],
      "name": "Add_Authority",
      "outputs": [],
      "stateMutability": "nonpayable",
      "type": "function"
    },
    {
      "inputs": [],
      "name": "Constitution_Address",
      "outputs": [
        {
          "internalType": "address",
          "name": "",
          "type": "address"
        }
      ],
      "stateMutability": "view",
      "type": "function"
    },
    {
      "inputs": [
        {
          "internalType": "address",
          "name": "",
          "type": "address"
        }
      ],
      "name": "Contracts",
      "outputs": [
        {
          "internalType": "bytes",
          "name": "Name",
          "type": "bytes"
        },
        {
          "internalType": "bytes",
          "name": "Description",
          "type": "bytes"
        },
        {
          "internalType": "uint256",
          "name": "Timestamps",
          "type": "uint256"
        }
      ],
      "stateMutability": "view",
      "type": "function"
    },
    {
      "inputs": [],
      "name": "Get_Authorities",
      "outputs": [
        {
          "internalType": "bytes32[]",
          "name": "",
          "type": "bytes32[]"
        }
      ],
      "stateMutability": "view",
      "type": "function"
    },
    {
      "inputs": [],
      "name": "Name",
      "outputs": [
        {
          "internalType": "string",
          "name": "",
          "type": "string"
        }
      ],
      "stateMutability": "view",
      "type": "function"
    },
    {
      "inputs": [
        {
          "internalType": "address",
          "name": "authority",
          "type": "address"
        }
      ],
      "name": "Remove_Authority",
      "outputs": [],
      "stateMutability": "nonpayable",
      "type": "function"
    },
    {
      "inputs": [
        {
          "internalType": "address",
          "name": "new_constitution",
          "type": "address"
        }
      ],
      "name": "Set_Constitution",
      "outputs": [],
      "stateMutability": "nonpayable",
      "type": "function"
    },
    {
      "inputs": [
        {
          "internalType": "string",
          "name": "name",
          "type": "string"
        }
      ],
      "name": "Set_Name",
      "outputs": [],
      "stateMutability": "nonpayable",
      "type": "function"
    },
    {
      "inputs": [],
      "name": "Type_Institution",
      "outputs": [
        {
          "internalType": "enum Institution.Institution_Type",
          "name": "",
          "type": "uint8"
        }
      ],
      "stateMutability": "view",
      "type": "function"
    },
    {
      "inputs": [
        {
          "internalType": "address",
          "name": "contract_address",
          "type": "address"
        },
        {
          "internalType": "bytes",
          "name": "name",
          "type": "bytes"
        },
        {
          "internalType": "bytes",
          "name": "description",
          "type": "bytes"
        }
      ],
      "name": "Add_Contract",
      "outputs": [],
      "stateMutability": "nonpayable",
      "type": "function"
    },
    {
      "inputs": [
        {
          "internalType": "address",
          "name": "contract_address",
          "type": "address"
        },
        {
          "internalType": "bytes4",
          "name": "function_selector",
          "type": "bytes4"
        }
      ],
      "name": "Add_Function",
      "outputs": [],
      "stateMutability": "nonpayable",
      "type": "function"
    },
    {
      "inputs": [
        {
          "internalType": "address",
          "name": "contract_address",
          "type": "address"
        },
        {
          "internalType": "bytes",
          "name": "name",
          "type": "bytes"
        },
        {
          "internalType": "bytes",
          "name": "description",
          "type": "bytes"
        }
      ],
      "name": "Set_Param",
      "outputs": [],
      "stateMutability": "nonpayable",
      "type": "function"
    },
    {
      "inputs": [
        {
          "internalType": "address",
          "name": "contract_address",
          "type": "address"
        },
        {
          "internalType": "bytes4",
          "name": "function_selector",
          "type": "bytes4"
        }
      ],
      "name": "Remove_Function",
      "outputs": [],
      "stateMutability": "nonpayable",
      "type": "function"
    },
    {
      "inputs": [
        {
          "internalType": "address",
          "name": "contract_address",
          "type": "address"
        }
      ],
      "name": "Remove_Contract",
      "outputs": [],
      "stateMutability": "nonpayable",
      "type": "function"
    },
    {
      "inputs": [
        {
          "internalType": "address",
          "name": "contract_address",
          "type": "address"
        },
        {
          "internalType": "bytes",
          "name": "data",
          "type": "bytes"
        }
      ],
      "name": "Execute_Function",
      "outputs": [],
      "stateMutability": "nonpayable",
      "type": "function"
    },
    {
      "inputs": [],
      "name": "Get_List_Contract",
      "outputs": [
        {
          "internalType": "bytes32[]",
          "name": "list_contracts",
          "type": "bytes32[]"
        }
      ],
      "stateMutability": "view",
      "type": "function"
    },
    {
      "inputs": [
        {
          "internalType": "address",
          "name": "contract_address",
          "type": "address"
        }
      ],
      "name": "Get_Contract_List_Functions",
      "outputs": [
        {
          "internalType": "bytes4[]",
          "name": "list_functions",
          "type": "bytes4[]"
        }
      ],
      "stateMutability": "view",
      "type": "function"
    },
    {
      "inputs": [
        {
          "internalType": "address",
          "name": "contract_address",
          "type": "address"
        },
        {
          "internalType": "bytes4",
          "name": "function_selector",
          "type": "bytes4"
        }
      ],
      "name": "Get_Functions_By_Selector",
      "outputs": [
        {
          "internalType": "uint256",
          "name": "index",
          "type": "uint256"
        },
        {
          "components": [
            {
              "internalType": "bool",
              "name": "Success",
              "type": "bool"
            },
            {
              "internalType": "bytes",
              "name": "Receipt",
              "type": "bytes"
            },
            {
              "internalType": "uint256",
              "name": "Timestamps",
              "type": "uint256"
            }
          ],
          "internalType": "struct API_Register.Receipt[]",
          "name": "receipts",
          "type": "tuple[]"
        }
      ],
      "stateMutability": "view",
      "type": "function"
    }
  ],
  "bytecode": "0x60806040523480156200001157600080fd5b5060405162002ab838038062002ab88339810160408190526200003491620001eb565b60016000819055825183918291620000529190602084019062000128565b5050600280546001600160a01b03191633178082556004925060ff60a01b1916600160a01b83021790555062000098816003620000a160201b62001a1e1790919060201c565b50505062000329565b6000620000b8836001600160a01b038416620000c1565b90505b92915050565b6000620000cf838362000110565b6200010757508154600181810184556000848152602080822090930184905584548482528286019093526040902091909155620000bb565b506000620000bb565b60009081526001919091016020526040902054151590565b8280546200013690620002d6565b90600052602060002090601f0160209004810192826200015a5760008555620001a5565b82601f106200017557805160ff1916838001178555620001a5565b82800160010185558215620001a5579182015b82811115620001a557825182559160200191906001019062000188565b50620001b3929150620001b7565b5090565b5b80821115620001b35760008155600101620001b8565b80516001600160a01b0381168114620001e657600080fd5b919050565b60008060408385031215620001fe578182fd5b82516001600160401b038082111562000215578384fd5b818501915085601f83011262000229578384fd5b8151818111156200023e576200023e62000313565b604051601f8201601f19908116603f0116810190838211818310171562000269576200026962000313565b8160405282815260209350888484870101111562000285578687fd5b8691505b82821015620002a8578482018401518183018501529083019062000289565b82821115620002b957868484830101525b9550620002cb915050858201620001ce565b925050509250929050565b600281046001821680620002eb57607f821691505b602082108114156200030d57634e487b7160e01b600052602260045260246000fd5b50919050565b634e487b7160e01b600052604160045260246000fd5b61277f80620003396000396000f3fe608060405234801561001057600080fd5b50600436106101365760003560e01c80638052474d116100b2578063b18d743b11610081578063d366340211610066578063d366340214610286578063e15d24f8146102a6578063eb101b23146102ae57610136565b8063b18d743b14610251578063bf9e4aef1461026457610136565b80638052474d1461020157806384e886e9146102165780638d546b761461022b5780639155e45b1461023e57610136565b80633c289ea8116101095780634dd344f7116100ee5780634dd344f7146101c85780634f3a2195146101db578063756a281c146101ee57610136565b80633c289ea8146101a257806340e5ea37146101b557610136565b806302d4cd281461013b5780631c316aed1461015957806324f3dc891461016e57806338df44b11461018f575b600080fd5b6101436102c3565b6040516101509190612137565b60405180910390f35b61016c610167366004611fb6565b6102df565b005b61018161017c366004611ede565b610741565b60405161015092919061255a565b61016c61019d366004611ec4565b6108a6565b61016c6101b0366004611ec4565b61097f565b61016c6101c3366004611ede565b610a8d565b61016c6101d6366004611ec4565b610e64565b61016c6101e9366004611ede565b6110a9565b61016c6101fc366004611f38565b6112ab565b6102096113ee565b60405161015091906122b5565b61021e61147c565b60405161015091906121a0565b61016c610239366004611f38565b6114d3565b61016c61024c366004612091565b611640565b61016c61025f366004611ec4565b6116cb565b610277610272366004611ec4565b6117b8565b6040516101509392919061223e565b610299610294366004611ec4565b6118ea565b60405161015091906121e4565b61021e6119a8565b6102b66119fd565b6040516101509190612274565b60025473ffffffffffffffffffffffffffffffffffffffff1681565b6102ea600333611a49565b610329576040517f08c379a00000000000000000000000000000000000000000000000000000000081526004016103209061247e565b60405180910390fd5b60026000541415610366576040517f08c379a000000000000000000000000000000000000000000000000000000000815260040161032090612523565b600260008190555060006018826003815181106103ac577f4e487b7100000000000000000000000000000000000000000000000000000000600052603260045260246000fd5b016020015183517fff0000000000000000000000000000000000000000000000000000000000000090911690911c9060109084906002908110610418577f4e487b7100000000000000000000000000000000000000000000000000000000600052603260045260246000fd5b016020015184517fff0000000000000000000000000000000000000000000000000000000000000090911690911c9060089085906001908110610484577f4e487b7100000000000000000000000000000000000000000000000000000000600052603260045260246000fd5b016020015185517fff0000000000000000000000000000000000000000000000000000000000000090911690911c9085906000906104eb577f4e487b7100000000000000000000000000000000000000000000000000000000600052603260045260246000fd5b6020910181015173ffffffffffffffffffffffffffffffffffffffff881660009081526005835260408082207fff000000000000000000000000000000000000000000000000000000000000009093169490941794909417949094177fffffffff0000000000000000000000000000000000000000000000000000000081168452600290940190529020549091506105af576040517f08c379a0000000000000000000000000000000000000000000000000000000008152600401610320906123db565b6000808473ffffffffffffffffffffffffffffffffffffffff16846040516105d7919061211b565b6000604051808303816000865af19150503d8060008114610614576040519150601f19603f3d011682016040523d82523d6000602084013e610619565b606091505b5073ffffffffffffffffffffffffffffffffffffffff871660009081526005602090815260408083207fffffffff0000000000000000000000000000000000000000000000000000000089168452600201825280832081516060810183528615158152808401868152429382019390935260019182018054808401825590865294849020815160039096020180547fffffffffffffffffffffffffffffffffffffffffffffffffffffffffffffff001695151595909517855591518051969850949650909492936106ef93918501920190611c57565b506040820151816002015550507fca8146244ed91173253ef3a752c40ff0f08edb8b12d6d73882ae2fe8908bf070858460405161072d929190612158565b60405180910390a150506001600055505050565b73ffffffffffffffffffffffffffffffffffffffff821660009081526005602090815260408083207fffffffff00000000000000000000000000000000000000000000000000000000851684526002018252808320805460019091018054835181860281018601909452808452919460609491929184015b82821015610899576000848152602090819020604080516060810190915260038502909101805460ff161515825260018101805492939192918401916107fe9061265e565b80601f016020809104026020016040519081016040528092919081815260200182805461082a9061265e565b80156108775780601f1061084c57610100808354040283529160200191610877565b820191906000526020600020905b81548152906001019060200180831161085a57829003601f168201915b50505050508152602001600282015481525050815260200190600101906107b9565b5050505090509250929050565b60025473ffffffffffffffffffffffffffffffffffffffff1633146108f7576040517f08c379a0000000000000000000000000000000000000000000000000000000008152600401610320906122ff565b610902600382611a49565b15610939576040517f08c379a0000000000000000000000000000000000000000000000000000000008152600401610320906124ec565b610944600382611a1e565b507f5211a48dd5dc810c959d67db85be9de1f52e475be92efb0f7c314b9bd361863d816040516109749190612137565b60405180910390a150565b60025473ffffffffffffffffffffffffffffffffffffffff1633146109d0576040517f08c379a0000000000000000000000000000000000000000000000000000000008152600401610320906122ff565b73ffffffffffffffffffffffffffffffffffffffff8116610a1d576040517f08c379a00000000000000000000000000000000000000000000000000000000081526004016103209061236d565b600280547fffffffffffffffffffffffff00000000000000000000000000000000000000001673ffffffffffffffffffffffffffffffffffffffff83161790556040517feaf9201ae5a091c46918bca9c5ced3b9aa103362b0a68a1f36b9f2858b0a4c1490610974908390612137565b610a98600333611a49565b610ace576040517f08c379a00000000000000000000000000000000000000000000000000000000081526004016103209061247e565b73ffffffffffffffffffffffffffffffffffffffff821660009081526005602090815260408083207fffffffff000000000000000000000000000000000000000000000000000000008516845260020190915290205480610b5b576040517f08c379a0000000000000000000000000000000000000000000000000000000008152600401610320906122c8565b6000610b68600183612617565b73ffffffffffffffffffffffffffffffffffffffff851660009081526005602052604081206003015491925090610ba190600190612617565b73ffffffffffffffffffffffffffffffffffffffff861660009081526005602052604081206003018054929350909183908110610c07577f4e487b7100000000000000000000000000000000000000000000000000000000600052603260045260246000fd5b90600052602060002090600891828204019190066004029054906101000a900460e01b905080600560008873ffffffffffffffffffffffffffffffffffffffff1673ffffffffffffffffffffffffffffffffffffffff1681526020019081526020016000206003018481548110610ca7577f4e487b7100000000000000000000000000000000000000000000000000000000600052603260045260246000fd5b600091825260208083206008830401805463ffffffff60079094166004026101000a938402191660e09590951c9290920293909317905573ffffffffffffffffffffffffffffffffffffffff8816808252600580845260408084207fffffffff0000000000000000000000000000000000000000000000000000000087168552600281018652908420899055919092529152600301805480610d72577f4e487b7100000000000000000000000000000000000000000000000000000000600052603160045260246000fd5b6000828152602080822060087fffffffffffffffffffffffffffffffffffffffffffffffffffffffffffffffff90940193840401805463ffffffff600460078716026101000a02191690559190925573ffffffffffffffffffffffffffffffffffffffff881682526005815260408083207fffffffff0000000000000000000000000000000000000000000000000000000089168452600201909152812081815590610e216001830182611cdb565b50507ff36b70bde0203d749440b1380fd3b491ee3465ee531053539ea5179acd8e54d88686604051610e54929190612158565b60405180910390a1505050505050565b610e6f600333611a49565b610ea5576040517f08c379a00000000000000000000000000000000000000000000000000000000081526004016103209061247e565b73ffffffffffffffffffffffffffffffffffffffff8116600090815260056020526040902060040154610f04576040517f08c379a0000000000000000000000000000000000000000000000000000000008152600401610320906124b5565b60005b73ffffffffffffffffffffffffffffffffffffffff82166000908152600560205260409020600301548110156110175773ffffffffffffffffffffffffffffffffffffffff821660009081526005602052604081206003810180546002909201929184908110610fa0577f4e487b7100000000000000000000000000000000000000000000000000000000600052603260045260246000fd5b6000918252602080832060088304015460079092166004026101000a90910460e01b7fffffffff000000000000000000000000000000000000000000000000000000001683528201929092526040018120818155906110026001830182611cdb565b5050808061100f906126b2565b915050610f07565b5073ffffffffffffffffffffffffffffffffffffffff81166000908152600560205260408120906110488282611cff565b611056600183016000611cff565b611064600383016000611d3b565b50600060049190910155611079600682611a6b565b507f8cb76b326dc7f8fadf750ebe480cb54a16fa786ace72d4226bcba5ea2103ad65816040516109749190612137565b6110b4600333611a49565b6110ea576040517f08c379a00000000000000000000000000000000000000000000000000000000081526004016103209061247e565b73ffffffffffffffffffffffffffffffffffffffff821660009081526005602090815260408083207fffffffff000000000000000000000000000000000000000000000000000000008516845260020190915290205415611177576040517f08c379a000000000000000000000000000000000000000000000000000000000815260040161032090612336565b73ffffffffffffffffffffffffffffffffffffffff82166000908152600560205260409020600401546111d6576040517f08c379a0000000000000000000000000000000000000000000000000000000008152600401610320906124b5565b73ffffffffffffffffffffffffffffffffffffffff821660009081526005602090815260408083206003810180546001810182558186528486206008820401805463ffffffff60079093166004026101000a928302191660e089901c92909202919091179055547fffffffff000000000000000000000000000000000000000000000000000000008616855260029091019092529182902055517f70bdc48351dcfa9fc7b1e5c163ca8bc039c9a97b31ca59b9e165c1e41b0038659061129f9084908490612158565b60405180910390a15050565b6112b6600333611a49565b6112ec576040517f08c379a00000000000000000000000000000000000000000000000000000000081526004016103209061247e565b73ffffffffffffffffffffffffffffffffffffffff851660009081526005602052604090206004015461134b576040517f08c379a0000000000000000000000000000000000000000000000000000000008152600401610320906124b5565b73ffffffffffffffffffffffffffffffffffffffff8516600090815260056020526040902061137b908585611d60565b5073ffffffffffffffffffffffffffffffffffffffff851660009081526005602052604090206113af906001018383611d60565b507fa050f2a3041f7bc67e74c8672f7e790ecd42a38a0ba94a5f2002014144c0877d856040516113df9190612137565b60405180910390a15050505050565b600180546113fb9061265e565b80601f01602080910402602001604051908101604052809291908181526020018280546114279061265e565b80156114745780601f1061144957610100808354040283529160200191611474565b820191906000526020600020905b81548152906001019060200180831161145757829003601f168201915b505050505081565b6003805460408051602080840282018101909252828152606093909290918301828280156114c957602002820191906000526020600020905b8154815260200190600101908083116114b5575b5050505050905090565b6114de600333611a49565b611514576040517f08c379a00000000000000000000000000000000000000000000000000000000081526004016103209061247e565b73ffffffffffffffffffffffffffffffffffffffff851660009081526005602052604090206004015415611574576040517f08c379a0000000000000000000000000000000000000000000000000000000008152600401610320906123a4565b73ffffffffffffffffffffffffffffffffffffffff851660009081526005602052604090206115a4908585611d60565b5073ffffffffffffffffffffffffffffffffffffffff851660009081526005602052604090206115d8906001018383611d60565b5073ffffffffffffffffffffffffffffffffffffffff8516600090815260056020526040902042600490910155611610600686611a1e565b507f21f2a196e0d2218d66ab7573f81b43de458bd3380cbf82daa8f9782845c04d3a856040516113df9190612137565b60025473ffffffffffffffffffffffffffffffffffffffff163314611691576040517f08c379a0000000000000000000000000000000000000000000000000000000008152600401610320906122ff565b61169d60018383611d60565b506040517f379308d0bb59c3a96480e25be5a540b7ed745d0ba7bc0d59819082fb1d8f5a0d90600090a15050565b3373ffffffffffffffffffffffffffffffffffffffff82161480611706575060025473ffffffffffffffffffffffffffffffffffffffff1633145b61173c576040517f08c379a000000000000000000000000000000000000000000000000000000000815260040161032090612412565b611747600382611a49565b61177d576040517f08c379a000000000000000000000000000000000000000000000000000000000815260040161032090612447565b611788600382611a6b565b507fb08d132e7857df60570932b8e15c9544f136a8f716c15b00f65a64814457875b816040516109749190612137565b6005602052600090815260409020805481906117d39061265e565b80601f01602080910402602001604051908101604052809291908181526020018280546117ff9061265e565b801561184c5780601f106118215761010080835404028352916020019161184c565b820191906000526020600020905b81548152906001019060200180831161182f57829003601f168201915b5050505050908060010180546118619061265e565b80601f016020809104026020016040519081016040528092919081815260200182805461188d9061265e565b80156118da5780601f106118af576101008083540402835291602001916118da565b820191906000526020600020905b8154815290600101906020018083116118bd57829003601f168201915b5050505050908060040154905083565b73ffffffffffffffffffffffffffffffffffffffff811660009081526005602090815260409182902060030180548351818402810184019094528084526060939283018282801561199c57602002820191906000526020600020906000905b82829054906101000a900460e01b7bffffffffffffffffffffffffffffffffffffffffffffffffffffffff1916815260200190600401906020826003010492830192600103820291508084116119495790505b50505050509050919050565b6006805460408051602080840282018101909252828152606093909290918301828280156114c957602002820191906000526020600020908154815260200190600101908083116114b5575050505050905090565b60025474010000000000000000000000000000000000000000900460ff1681565b6000611a408373ffffffffffffffffffffffffffffffffffffffff8416611a8d565b90505b92915050565b6000611a408373ffffffffffffffffffffffffffffffffffffffff8416611ad7565b6000611a408373ffffffffffffffffffffffffffffffffffffffff8416611aef565b6000611a998383611ad7565b611acf57508154600181810184556000848152602080822090930184905584548482528286019093526040902091909155611a43565b506000611a43565b60009081526001919091016020526040902054151590565b60008181526001830160205260408120548015611c4d576000611b13600183612617565b8554909150600090611b2790600190612617565b90506000866000018281548110611b67577f4e487b7100000000000000000000000000000000000000000000000000000000600052603260045260246000fd5b9060005260206000200154905080876000018481548110611bb1577f4e487b7100000000000000000000000000000000000000000000000000000000600052603260045260246000fd5b600091825260209091200155611bc88360016125ff565b60008281526001890160205260409020558654879080611c11577f4e487b7100000000000000000000000000000000000000000000000000000000600052603160045260246000fd5b60019003818190600052602060002001600090559055866001016000878152602001908152602001600020600090556001945050505050611a43565b6000915050611a43565b828054611c639061265e565b90600052602060002090601f016020900481019282611c855760008555611ccb565b82601f10611c9e57805160ff1916838001178555611ccb565b82800160010185558215611ccb579182015b82811115611ccb578251825591602001919060010190611cb0565b50611cd7929150611df2565b5090565b5080546000825560030290600052602060002090810190611cfc9190611e07565b50565b508054611d0b9061265e565b6000825580601f10611d1d5750611cfc565b601f016020900490600052602060002090810190611cfc9190611df2565b508054600082556007016008900490600052602060002090810190611cfc9190611df2565b828054611d6c9061265e565b90600052602060002090601f016020900481019282611d8e5760008555611ccb565b82601f10611dc5578280017fffffffffffffffffffffffffffffffffffffffffffffffffffffffffffffff00823516178555611ccb565b82800160010185558215611ccb579182015b82811115611ccb578235825591602001919060010190611dd7565b5b80821115611cd75760008155600101611df3565b80821115611cd75780547fffffffffffffffffffffffffffffffffffffffffffffffffffffffffffffff001681556000611e446001830182611cff565b5060006002820155600301611e07565b803573ffffffffffffffffffffffffffffffffffffffff81168114611e7857600080fd5b919050565b60008083601f840112611e8e578081fd5b50813567ffffffffffffffff811115611ea5578182fd5b602083019150836020828501011115611ebd57600080fd5b9250929050565b600060208284031215611ed5578081fd5b611a4082611e54565b60008060408385031215611ef0578081fd5b611ef983611e54565b915060208301357fffffffff0000000000000000000000000000000000000000000000000000000081168114611f2d578182fd5b809150509250929050565b600080600080600060608688031215611f4f578081fd5b611f5886611e54565b9450602086013567ffffffffffffffff80821115611f74578283fd5b611f8089838a01611e7d565b90965094506040880135915080821115611f98578283fd5b50611fa588828901611e7d565b969995985093965092949392505050565b60008060408385031215611fc8578182fd5b611fd183611e54565b9150602083013567ffffffffffffffff80821115611fed578283fd5b818501915085601f830112612000578283fd5b8135818111156120125761201261271a565b604051601f82017fffffffffffffffffffffffffffffffffffffffffffffffffffffffffffffffe0908116603f011681019083821181831017156120585761205861271a565b81604052828152886020848701011115612070578586fd5b82602086016020830137856020848301015280955050505050509250929050565b600080602083850312156120a3578182fd5b823567ffffffffffffffff8111156120b9578283fd5b6120c585828601611e7d565b90969095509350505050565b600081518084526120e981602086016020860161262e565b601f017fffffffffffffffffffffffffffffffffffffffffffffffffffffffffffffffe0169290920160200192915050565b6000825161212d81846020870161262e565b9190910192915050565b73ffffffffffffffffffffffffffffffffffffffff91909116815260200190565b73ffffffffffffffffffffffffffffffffffffffff9290921682527fffffffff0000000000000000000000000000000000000000000000000000000016602082015260400190565b6020808252825182820181905260009190848201906040850190845b818110156121d8578351835292840192918401916001016121bc565b50909695505050505050565b6020808252825182820181905260009190848201906040850190845b818110156121d85783517fffffffff000000000000000000000000000000000000000000000000000000001683529284019291840191600101612200565b60006060825261225160608301866120d1565b828103602084015261226381866120d1565b915050826040830152949350505050565b60208101600783106122af577f4e487b7100000000000000000000000000000000000000000000000000000000600052602160045260246000fd5b91905290565b600060208252611a4060208301846120d1565b60208082526017908201527f66756e6374696f6e206e6f742072656769737465726564000000000000000000604082015260600190565b60208082526011908201527f436f6e737469747574696f6e204f6e6c79000000000000000000000000000000604082015260600190565b6020808252601b908201527f66756e6374696f6e20616c726561647920726567697374657265640000000000604082015260600190565b60208082526009908201527f4164647265737320300000000000000000000000000000000000000000000000604082015260600190565b60208082526018908201527f416c7265616479206372656174656420636f6e74726163740000000000000000604082015260600190565b60208082526017908201527f46756e6374696f6e206e6f742072656769737465726564000000000000000000604082015260600190565b6020808252818101527f4e6f7420416c6c6f7765642052656d6f76696e6720417574686f726974696573604082015260600190565b6020808252601e908201527f4e6f74206578697374696e6720617574686f72697479206163636f756e740000604082015260600190565b60208082526010908201527f417574686f726974696573204f6e6c7900000000000000000000000000000000604082015260600190565b60208082526017908201527f4e6f74207265676973746572656420636f6e7472616374000000000000000000604082015260600190565b6020808252601a908201527f416c7265616479206578697374696e6720617574686f72697479000000000000604082015260600190565b6020808252601f908201527f5265656e7472616e637947756172643a207265656e7472616e742063616c6c00604082015260600190565b600060408083018584526020828186015281865180845260609350838701915083838202880101838901875b838110156125ef577fffffffffffffffffffffffffffffffffffffffffffffffffffffffffffffffa08a840301855281518051151584528681015188888601526125d2898601826120d1565b918a0151948a019490945294860194925090850190600101612586565b50909a9950505050505050505050565b60008219821115612612576126126126eb565b500190565b600082821015612629576126296126eb565b500390565b60005b83811015612649578181015183820152602001612631565b83811115612658576000848401525b50505050565b60028104600182168061267257607f821691505b602082108114156126ac577f4e487b7100000000000000000000000000000000000000000000000000000000600052602260045260246000fd5b50919050565b60007fffffffffffffffffffffffffffffffffffffffffffffffffffffffffffffffff8214156126e4576126e46126eb565b5060010190565b7f4e487b7100000000000000000000000000000000000000000000000000000000600052601160045260246000fd5b7f4e487b7100000000000000000000000000000000000000000000000000000000600052604160045260246000fdfea264697066735822122084561971b9f231d66874469fbf06b3a496fe2e31d7badf4902b9e3cd615b599d64736f6c63430008010033",
  "immutableReferences": {},
  "source": "// SPDX-License-Identifier: MIT\npragma solidity ^0.8.0;\n\nimport \"contracts/Register.sol\";\n//import \"Register.sol\";\n\n\n\n/**\n * @notice Contract registering an API of third party contract functions callable via Web3 Direct Democracy democratic process. \n * API functions can be edited (add, remove) and executed by address contained in {Register_Authorities} list (Defined in the \"Register\" inherited contract)\n * \n * */\n contract API_Register is Register{\n    using EnumerableSet for EnumerableSet.AddressSet;\n    using EnumerableSet for EnumerableSet.Bytes32Set;\n    \n    struct Receipt{\n        bool Success;\n        bytes Receipt;\n        uint Timestamps;\n    }\n    \n    struct Function{\n        uint Index;\n        Receipt[] FunctionCall_receipts;\n    }\n    \n    struct Smart_Contract{\n        bytes Name;\n        bytes Description;\n        mapping(bytes4=>Function) Callables_functions;\n        bytes4[] List_Functions;\n        uint Timestamps;\n    }\n    \n    event Contract_Created(address contract_address);\n    event Function_Added(address contract_address, bytes4 function_selector);\n    event Function_Removed(address contract_address, bytes4 function_selector);\n    event Contract_Removed(address contract_address);\n    event Contract_param_Changed(address contract_address);\n    event Function_Executed(address contract_address, bytes4 function_selector);\n    \n    mapping(address=>Smart_Contract) public Contracts;\n    EnumerableSet.AddressSet List_Contracts;\n    \n    \n    /**\n     * @dev Add the address of Agora Contract to {Register_Authorities}.\n     * \n     * @param agora Address of Agora contract\n     * */\n    constructor(string memory Name, address agora) Register(Name){\n        Type_Institution = Institution_Type.API;\n        Register_Authorities.add(agora);\n    }\n    \n    \n    /*Register API functions. Callable by Register_Authorities contracts*/\n    \n    /** \n     * @dev Add a third party smart contract to the API (it's address is added to {Contract} mapping and {List_Contracts} list)\n     * @param contract_address Address of the third party smart contract to add to the API\n     * @param name Name of the smart contract.\n     * @param description Text describing the smart contract and justifying it's add to the API. Can be a hash\n    */ \n    function Add_Contract(address contract_address, bytes calldata name, bytes calldata description)external Register_Authorities_Only{\n        //require(contract_address!=address(0), \"Contract address null\");\n        require(Contracts[contract_address].Timestamps==0, \"Already created contract\");\n        Contracts[contract_address].Name=name;\n        Contracts[contract_address].Description=description;\n        Contracts[contract_address].Timestamps=block.timestamp;\n        List_Contracts.add(contract_address);\n        \n        emit Contract_Created(contract_address);\n    }\n    \n     \n    /** \n     * @dev Add a third party smart contract's function to the list of functions callable via the API.\n     * @param contract_address Address of the third party smart contract.\n     * @param function_selector Function selector of the function\n    */\n    function Add_Function(address contract_address, bytes4 function_selector)external Register_Authorities_Only{\n        //require(function_selector!=bytes4(0), \"function selector null\");\n        require(Contracts[contract_address].Callables_functions[function_selector].Index==0, \"function already registered\");\n        require(Contracts[contract_address].Timestamps!=0, \"Not registered contract\");\n        Contracts[contract_address].List_Functions.push(function_selector);\n        Contracts[contract_address].Callables_functions[function_selector].Index=Contracts[contract_address].List_Functions.length;\n        \n        emit Function_Added(contract_address, function_selector);\n    }\n    \n     /** \n     * @dev Modify the name and description of third party contract registered in the API\n     * @param contract_address Address of the third party smart contract.\n     * @param name New name of the contract.\n     * @param description New description of the contract\n    */\n    function Set_Param(address contract_address, bytes calldata name, bytes calldata description)external Register_Authorities_Only{\n        require(Contracts[contract_address].Timestamps!=0, \"Not registered contract\");\n        Contracts[contract_address].Name=name;\n        Contracts[contract_address].Description=description;\n        \n        emit Contract_param_Changed(contract_address);\n    }\n    \n    /** \n     * @dev Remove a function from the list of third party smart contract's functions callable via the API\n     * @param contract_address Address of the third party smart contract.\n     * @param function_selector Function selector of the function to remove.\n    */\n    function Remove_Function(address contract_address, bytes4 function_selector)external Register_Authorities_Only{\n        uint valueIndex = Contracts[contract_address].Callables_functions[function_selector].Index;\n        require(valueIndex!=0, \"function not registered\");\n        \n        uint remove_index = valueIndex - 1;\n        uint lastIndex = Contracts[contract_address].List_Functions.length - 1;\n        \n        bytes4 lastvalue = Contracts[contract_address].List_Functions[lastIndex];\n\n        Contracts[contract_address].List_Functions[remove_index] = lastvalue;\n        Contracts[contract_address].Callables_functions[lastvalue].Index = valueIndex; // Replace lastvalue's index to valueIndex\n\n        Contracts[contract_address].List_Functions.pop();\n        delete Contracts[contract_address].Callables_functions[function_selector];\n        \n        emit Function_Removed(contract_address, function_selector);\n    }\n    \n    \n    /** \n     * @dev Remove a third party smart contract from the API\n     * @param contract_address Address of the third party smart contract to remove from the API\n    */\n    function Remove_Contract(address contract_address)external Register_Authorities_Only{\n        require(Contracts[contract_address].Timestamps!=0, \"Not registered contract\");\n        \n        /*for(uint i=Contracts[contract_address].List_Functions.length-1; i>=0; i--){\n            delete Contracts[contract_address].Callables_functions[Contracts[contract_address].List_Functions[i]];\n        }*/\n        \n        for(uint i=0; i<Contracts[contract_address].List_Functions.length; i++){\n            delete Contracts[contract_address].Callables_functions[Contracts[contract_address].List_Functions[i]];\n        }\n        \n        delete Contracts[contract_address];\n        List_Contracts.remove(contract_address);\n        \n        emit Contract_Removed(contract_address);\n    }\n    \n    /** \n     * @dev Make a call to a function of a third party smart contract belonging to the API\n     * @param contract_address Address of the third party smart contract \n     * @param data Data corresponding to the function call. It's a bytes composed by the function selector + encoded parameters. It correspond to the field {data} of a transaction.\n    */\n    function Execute_Function(address contract_address, bytes memory data)external Register_Authorities_Only nonReentrant{\n        bytes4 selector= (bytes4(data[0]) | bytes4(data[1]) >> 8 |\n            bytes4(data[2]) >> 16 | bytes4(data[3]) >> 24);//= bytes4(data);\n        /*assembly {\n            selector := mload(add(data, 0x04))\n        }*/\n        require(Contracts[contract_address].Callables_functions[selector].Index!=0, \"Function not registered\");\n        \n        (bool Success, bytes memory Data)=contract_address.call(data);\n        \n        Contracts[contract_address].Callables_functions[selector].FunctionCall_receipts.push(Receipt(Success, Data, block.timestamp));\n        \n        emit Function_Executed(contract_address, selector);\n    }\n    \n   /*GETTER*/\n    \n    /** \n     * @dev Get the list of all third party smart contract registered in the API.\n     * @return list_contracts\n    */\n    function Get_List_Contract() external view returns(bytes32[] memory list_contracts){\n        list_contracts = List_Contracts._inner._values;\n    }\n    \n     /** \n     * @dev Get the list of all function selector of a contract registered in the API.\n     * @param contract_address Address of the contract\n     * @return list_functions\n    */\n    function Get_Contract_List_Functions(address contract_address) external view returns(bytes4[] memory list_functions){\n        list_functions = Contracts[contract_address].List_Functions;\n    }\n    \n     /** \n     * @dev Get the receipts of all call to a function of a contract registered in the API. It also returns the index of the function selector in the contract structure's {List_Functions} array.\n     * @param contract_address Address of the contract\n     * @param function_selector Function selector of the function\n     * @return index\n     * @return receipts\n    */\n    function Get_Functions_By_Selector(address contract_address, bytes4 function_selector) external view returns(uint index, Receipt[] memory receipts){\n        index = Contracts[contract_address].Callables_functions[function_selector].Index;\n        receipts = Contracts[contract_address].Callables_functions[function_selector].FunctionCall_receipts;\n    }\n    \n }",
  "sourcePath": "/home/andrei/Alyra/Web3_Referendum/contracts/API_Register.sol",
  "compiler": {
    "name": "solc",
    "version": "0.8.1+commit.df193b15.Emscripten.clang"
  },
  "schemaVersion": "3.3.1",
  "updatedAt": "2021-04-28T21:24:22.269Z",
  "devdoc": {
    "kind": "dev",
    "methods": {
      "Add_Authority(address)": {
        "params": {
          "authority": "address to add to the {Register_Authorities} "
        }
      },
      "Add_Contract(address,bytes,bytes)": {
        "details": "Add a third party smart contract to the API (it's address is added to {Contract} mapping and {List_Contracts} list)",
        "params": {
          "contract_address": "Address of the third party smart contract to add to the API",
          "description": "Text describing the smart contract and justifying it's add to the API. Can be a hash",
          "name": "Name of the smart contract."
        }
      },
      "Add_Function(address,bytes4)": {
        "details": "Add a third party smart contract's function to the list of functions callable via the API.",
        "params": {
          "contract_address": "Address of the third party smart contract.",
          "function_selector": "Function selector of the function"
        }
      },
      "Execute_Function(address,bytes)": {
        "details": "Make a call to a function of a third party smart contract belonging to the API",
        "params": {
          "contract_address": "Address of the third party smart contract ",
          "data": "Data corresponding to the function call. It's a bytes composed by the function selector + encoded parameters. It correspond to the field {data} of a transaction."
        }
      },
      "Get_Authorities()": {
        "returns": {
          "_0": "return address registered in the {Register_Authorities}"
        }
      },
      "Get_Contract_List_Functions(address)": {
        "details": "Get the list of all function selector of a contract registered in the API.",
        "params": {
          "contract_address": "Address of the contract"
        },
        "returns": {
          "list_functions": "list_functions"
        }
      },
      "Get_Functions_By_Selector(address,bytes4)": {
        "details": "Get the receipts of all call to a function of a contract registered in the API. It also returns the index of the function selector in the contract structure's {List_Functions} array.",
        "params": {
          "contract_address": "Address of the contract",
          "function_selector": "Function selector of the function"
        },
        "returns": {
          "index": "index",
          "receipts": "receipts"
        }
      },
      "Get_List_Contract()": {
        "details": "Get the list of all third party smart contract registered in the API.",
        "returns": {
          "list_contracts": "list_contracts"
        }
      },
      "Remove_Authority(address)": {
        "params": {
          "authority": "address to remove from the {Register_Authorities} "
        }
      },
      "Remove_Contract(address)": {
        "details": "Remove a third party smart contract from the API",
        "params": {
          "contract_address": "Address of the third party smart contract to remove from the API"
        }
      },
      "Remove_Function(address,bytes4)": {
        "details": "Remove a function from the list of third party smart contract's functions callable via the API",
        "params": {
          "contract_address": "Address of the third party smart contract.",
          "function_selector": "Function selector of the function to remove."
        }
      },
      "Set_Constitution(address)": {
        "details": "The function Allows to change the Constitution contract the current Institution obey to. The function is only callable by the {Constitution_Address}",
        "params": {
          "new_constitution": "Address of the new Constitution contract."
        }
      },
      "Set_Param(address,bytes,bytes)": {
        "details": "Modify the name and description of third party contract registered in the API",
        "params": {
          "contract_address": "Address of the third party smart contract.",
          "description": "New description of the contract",
          "name": "New name of the contract."
        }
      },
      "constructor": {
        "details": "Add the address of Agora Contract to {Register_Authorities}. ",
        "params": {
          "agora": "Address of Agora contract "
        }
      }
    },
    "version": 1
  },
  "userdoc": {
    "kind": "user",
    "methods": {
      "Add_Authority(address)": {
        "notice": "Add an account address to {Register_Authorities}"
      },
      "Constitution_Address()": {
        "notice": "Address of the constitution of the DAO"
      },
      "Get_Authorities()": {
        "notice": "Getter for {Register_Authorities}"
      },
      "Name()": {
        "notice": "Name of the institution"
      },
      "Remove_Authority(address)": {
        "notice": "Removes an account address from the {Register_Authorities}"
      },
      "Type_Institution()": {
        "notice": "Type of the Institution"
      }
    },
    "notice": "Contract registering an API of third party contract functions callable via Web3 Direct Democracy democratic process.  API functions can be edited (add, remove) and executed by address contained in {Register_Authorities} list (Defined in the \"Register\" inherited contract)  ",
    "version": 1
  }
}