{
  "contractName": "API_Register",
  "abi": [
    {
      "inputs": [
        {
          "internalType": "string",
          "name": "Name",
          "type": "string"
        },
        {
          "internalType": "address",
          "name": "agora",
          "type": "address"
        }
      ],
      "stateMutability": "nonpayable",
      "type": "constructor"
    },
    {
      "anonymous": false,
      "inputs": [
        {
          "indexed": false,
          "internalType": "address",
          "name": "authority",
          "type": "address"
        }
      ],
      "name": "Authority_Added",
      "type": "event"
    },
    {
      "anonymous": false,
      "inputs": [
        {
          "indexed": false,
          "internalType": "address",
          "name": "authority",
          "type": "address"
        }
      ],
      "name": "Authority_Removed",
      "type": "event"
    },
    {
      "anonymous": false,
      "inputs": [
        {
          "indexed": false,
          "internalType": "address",
          "name": "new_constitution",
          "type": "address"
        }
      ],
      "name": "Constitution_Changed",
      "type": "event"
    },
    {
      "anonymous": false,
      "inputs": [
        {
          "indexed": false,
          "internalType": "address",
          "name": "contract_address",
          "type": "address"
        }
      ],
      "name": "Contract_Created",
      "type": "event"
    },
    {
      "anonymous": false,
      "inputs": [
        {
          "indexed": false,
          "internalType": "address",
          "name": "contract_address",
          "type": "address"
        }
      ],
      "name": "Contract_Removed",
      "type": "event"
    },
    {
      "anonymous": false,
      "inputs": [
        {
          "indexed": false,
          "internalType": "address",
          "name": "contract_address",
          "type": "address"
        }
      ],
      "name": "Contract_param_Changed",
      "type": "event"
    },
    {
      "anonymous": false,
      "inputs": [
        {
          "indexed": false,
          "internalType": "address",
          "name": "contract_address",
          "type": "address"
        },
        {
          "indexed": false,
          "internalType": "bytes4",
          "name": "function_selector",
          "type": "bytes4"
        }
      ],
      "name": "Function_Added",
      "type": "event"
    },
    {
      "anonymous": false,
      "inputs": [
        {
          "indexed": false,
          "internalType": "address",
          "name": "contract_address",
          "type": "address"
        },
        {
          "indexed": false,
          "internalType": "bytes4",
          "name": "function_selector",
          "type": "bytes4"
        }
      ],
      "name": "Function_Executed",
      "type": "event"
    },
    {
      "anonymous": false,
      "inputs": [
        {
          "indexed": false,
          "internalType": "address",
          "name": "contract_address",
          "type": "address"
        },
        {
          "indexed": false,
          "internalType": "bytes4",
          "name": "function_selector",
          "type": "bytes4"
        }
      ],
      "name": "Function_Removed",
      "type": "event"
    },
    {
      "anonymous": false,
      "inputs": [
        {
          "indexed": false,
          "internalType": "address",
          "name": "Address",
          "type": "address"
        },
        {
          "indexed": false,
          "internalType": "enum Institution.Institution_Type",
          "name": "Type",
          "type": "uint8"
        }
      ],
      "name": "Institution_Created",
      "type": "event"
    },
    {
      "inputs": [
        {
          "internalType": "address",
          "name": "authority",
          "type": "address"
        }
      ],
      "name": "Add_Authority",
      "outputs": [],
      "stateMutability": "nonpayable",
      "type": "function"
    },
    {
      "inputs": [],
      "name": "Constitution_Address",
      "outputs": [
        {
          "internalType": "address",
          "name": "",
          "type": "address"
        }
      ],
      "stateMutability": "view",
      "type": "function"
    },
    {
      "inputs": [
        {
          "internalType": "address",
          "name": "",
          "type": "address"
        }
      ],
      "name": "Contracts",
      "outputs": [
        {
          "internalType": "bytes",
          "name": "Name",
          "type": "bytes"
        },
        {
          "internalType": "bytes",
          "name": "Description",
          "type": "bytes"
        },
        {
          "internalType": "uint256",
          "name": "Timestamps",
          "type": "uint256"
        }
      ],
      "stateMutability": "view",
      "type": "function"
    },
    {
      "inputs": [],
      "name": "Get_Authorities",
      "outputs": [
        {
          "internalType": "bytes32[]",
          "name": "",
          "type": "bytes32[]"
        }
      ],
      "stateMutability": "view",
      "type": "function"
    },
    {
      "inputs": [],
      "name": "Name",
      "outputs": [
        {
          "internalType": "string",
          "name": "",
          "type": "string"
        }
      ],
      "stateMutability": "view",
      "type": "function"
    },
    {
      "inputs": [
        {
          "internalType": "address",
          "name": "authority",
          "type": "address"
        }
      ],
      "name": "Remove_Authority",
      "outputs": [],
      "stateMutability": "nonpayable",
      "type": "function"
    },
    {
      "inputs": [
        {
          "internalType": "address",
          "name": "new_constitution",
          "type": "address"
        }
      ],
      "name": "Set_Constitution",
      "outputs": [],
      "stateMutability": "nonpayable",
      "type": "function"
    },
    {
      "inputs": [],
      "name": "Type_Institution",
      "outputs": [
        {
          "internalType": "enum Institution.Institution_Type",
          "name": "",
          "type": "uint8"
        }
      ],
      "stateMutability": "view",
      "type": "function"
    },
    {
      "inputs": [
        {
          "internalType": "address",
          "name": "contract_address",
          "type": "address"
        },
        {
          "internalType": "bytes",
          "name": "name",
          "type": "bytes"
        },
        {
          "internalType": "bytes",
          "name": "description",
          "type": "bytes"
        }
      ],
      "name": "Add_Contract",
      "outputs": [],
      "stateMutability": "nonpayable",
      "type": "function"
    },
    {
      "inputs": [
        {
          "internalType": "address",
          "name": "contract_address",
          "type": "address"
        },
        {
          "internalType": "bytes4",
          "name": "function_selector",
          "type": "bytes4"
        }
      ],
      "name": "Add_Function",
      "outputs": [],
      "stateMutability": "nonpayable",
      "type": "function"
    },
    {
      "inputs": [
        {
          "internalType": "address",
          "name": "contract_address",
          "type": "address"
        },
        {
          "internalType": "bytes",
          "name": "name",
          "type": "bytes"
        },
        {
          "internalType": "bytes",
          "name": "description",
          "type": "bytes"
        }
      ],
      "name": "Set_Param",
      "outputs": [],
      "stateMutability": "nonpayable",
      "type": "function"
    },
    {
      "inputs": [
        {
          "internalType": "address",
          "name": "contract_address",
          "type": "address"
        },
        {
          "internalType": "bytes4",
          "name": "function_selector",
          "type": "bytes4"
        }
      ],
      "name": "Remove_Function",
      "outputs": [],
      "stateMutability": "nonpayable",
      "type": "function"
    },
    {
      "inputs": [
        {
          "internalType": "address",
          "name": "contract_address",
          "type": "address"
        }
      ],
      "name": "Remove_Contract",
      "outputs": [],
      "stateMutability": "nonpayable",
      "type": "function"
    },
    {
      "inputs": [
        {
          "internalType": "address",
          "name": "contract_address",
          "type": "address"
        },
        {
          "internalType": "bytes",
          "name": "data",
          "type": "bytes"
        }
      ],
      "name": "Execute_Function",
      "outputs": [],
      "stateMutability": "nonpayable",
      "type": "function"
    },
    {
      "inputs": [],
      "name": "Get_List_Contract",
      "outputs": [
        {
          "internalType": "bytes32[]",
          "name": "list_contracts",
          "type": "bytes32[]"
        }
      ],
      "stateMutability": "view",
      "type": "function"
    },
    {
      "inputs": [
        {
          "internalType": "address",
          "name": "contract_address",
          "type": "address"
        }
      ],
      "name": "Get_Contract_List_Functions",
      "outputs": [
        {
          "internalType": "bytes4[]",
          "name": "list_functions",
          "type": "bytes4[]"
        }
      ],
      "stateMutability": "view",
      "type": "function"
    },
    {
      "inputs": [
        {
          "internalType": "address",
          "name": "contract_address",
          "type": "address"
        },
        {
          "internalType": "bytes4",
          "name": "function_selector",
          "type": "bytes4"
        }
      ],
      "name": "Get_Functions_By_Selector",
      "outputs": [
        {
          "internalType": "uint256",
          "name": "index",
          "type": "uint256"
        },
        {
          "components": [
            {
              "internalType": "bool",
              "name": "Success",
              "type": "bool"
            },
            {
              "internalType": "bytes",
              "name": "Receipt",
              "type": "bytes"
            },
            {
              "internalType": "uint256",
              "name": "Timestamps",
              "type": "uint256"
            }
          ],
          "internalType": "struct API_Register.Receipt[]",
          "name": "receipts",
          "type": "tuple[]"
        }
      ],
      "stateMutability": "view",
      "type": "function"
    }
  ],
  "bytecode": "0x60806040523480156200001157600080fd5b50604051620029bf380380620029bf8339810160408190526200003491620001eb565b60016000819055825183918291620000529190602084019062000128565b5050600280546001600160a01b03191633178082556004925060ff60a01b1916600160a01b83021790555062000098816003620000a160201b620019651790919060201c565b50505062000329565b6000620000b8836001600160a01b038416620000c1565b90505b92915050565b6000620000cf838362000110565b6200010757508154600181810184556000848152602080822090930184905584548482528286019093526040902091909155620000bb565b506000620000bb565b60009081526001919091016020526040902054151590565b8280546200013690620002d6565b90600052602060002090601f0160209004810192826200015a5760008555620001a5565b82601f106200017557805160ff1916838001178555620001a5565b82800160010185558215620001a5579182015b82811115620001a557825182559160200191906001019062000188565b50620001b3929150620001b7565b5090565b5b80821115620001b35760008155600101620001b8565b80516001600160a01b0381168114620001e657600080fd5b919050565b60008060408385031215620001fe578182fd5b82516001600160401b038082111562000215578384fd5b818501915085601f83011262000229578384fd5b8151818111156200023e576200023e62000313565b604051601f8201601f19908116603f0116810190838211818310171562000269576200026962000313565b8160405282815260209350888484870101111562000285578687fd5b8691505b82821015620002a8578482018401518183018501529083019062000289565b82821115620002b957868484830101525b9550620002cb915050858201620001ce565b925050509250929050565b600281046001821680620002eb57607f821691505b602082108114156200030d57634e487b7160e01b600052602260045260246000fd5b50919050565b634e487b7160e01b600052604160045260246000fd5b61268680620003396000396000f3fe608060405234801561001057600080fd5b506004361061011b5760003560e01c8063756a281c116100b2578063b18d743b11610081578063d366340211610066578063d366340214610258578063e15d24f814610278578063eb101b23146102805761011b565b8063b18d743b14610223578063bf9e4aef146102365761011b565b8063756a281c146101d35780638052474d146101e657806384e886e9146101fb5780638d546b76146102105761011b565b80633c289ea8116100ee5780633c289ea81461018757806340e5ea371461019a5780634dd344f7146101ad5780634f3a2195146101c05761011b565b806302d4cd28146101205780631c316aed1461013e57806324f3dc891461015357806338df44b114610174575b600080fd5b610128610295565b604051610135919061203e565b60405180910390f35b61015161014c366004611efd565b6102b1565b005b610166610161366004611e25565b610713565b604051610135929190612461565b610151610182366004611e0b565b610878565b610151610195366004611e0b565b610951565b6101516101a8366004611e25565b610a5f565b6101516101bb366004611e0b565b610e36565b6101516101ce366004611e25565b61107b565b6101516101e1366004611e7f565b61127d565b6101ee6113c0565b60405161013591906121bc565b61020361144e565b60405161013591906120a7565b61015161021e366004611e7f565b6114a5565b610151610231366004611e0b565b611612565b610249610244366004611e0b565b6116ff565b60405161013593929190612145565b61026b610266366004611e0b565b611831565b60405161013591906120eb565b6102036118ef565b610288611944565b604051610135919061217b565b60025473ffffffffffffffffffffffffffffffffffffffff1681565b6102bc600333611990565b6102fb576040517f08c379a00000000000000000000000000000000000000000000000000000000081526004016102f290612385565b60405180910390fd5b60026000541415610338576040517f08c379a00000000000000000000000000000000000000000000000000000000081526004016102f29061242a565b6002600081905550600060188260038151811061037e577f4e487b7100000000000000000000000000000000000000000000000000000000600052603260045260246000fd5b016020015183517fff0000000000000000000000000000000000000000000000000000000000000090911690911c90601090849060029081106103ea577f4e487b7100000000000000000000000000000000000000000000000000000000600052603260045260246000fd5b016020015184517fff0000000000000000000000000000000000000000000000000000000000000090911690911c9060089085906001908110610456577f4e487b7100000000000000000000000000000000000000000000000000000000600052603260045260246000fd5b016020015185517fff0000000000000000000000000000000000000000000000000000000000000090911690911c9085906000906104bd577f4e487b7100000000000000000000000000000000000000000000000000000000600052603260045260246000fd5b6020910181015173ffffffffffffffffffffffffffffffffffffffff881660009081526005835260408082207fff000000000000000000000000000000000000000000000000000000000000009093169490941794909417949094177fffffffff000000000000000000000000000000000000000000000000000000008116845260029094019052902054909150610581576040517f08c379a00000000000000000000000000000000000000000000000000000000081526004016102f2906122e2565b6000808473ffffffffffffffffffffffffffffffffffffffff16846040516105a99190612022565b6000604051808303816000865af19150503d80600081146105e6576040519150601f19603f3d011682016040523d82523d6000602084013e6105eb565b606091505b5073ffffffffffffffffffffffffffffffffffffffff871660009081526005602090815260408083207fffffffff0000000000000000000000000000000000000000000000000000000089168452600201825280832081516060810183528615158152808401868152429382019390935260019182018054808401825590865294849020815160039096020180547fffffffffffffffffffffffffffffffffffffffffffffffffffffffffffffff001695151595909517855591518051969850949650909492936106c193918501920190611b9e565b506040820151816002015550507fca8146244ed91173253ef3a752c40ff0f08edb8b12d6d73882ae2fe8908bf07085846040516106ff92919061205f565b60405180910390a150506001600055505050565b73ffffffffffffffffffffffffffffffffffffffff821660009081526005602090815260408083207fffffffff00000000000000000000000000000000000000000000000000000000851684526002018252808320805460019091018054835181860281018601909452808452919460609491929184015b8282101561086b576000848152602090819020604080516060810190915260038502909101805460ff161515825260018101805492939192918401916107d090612565565b80601f01602080910402602001604051908101604052809291908181526020018280546107fc90612565565b80156108495780601f1061081e57610100808354040283529160200191610849565b820191906000526020600020905b81548152906001019060200180831161082c57829003601f168201915b505050505081526020016002820154815250508152602001906001019061078b565b5050505090509250929050565b60025473ffffffffffffffffffffffffffffffffffffffff1633146108c9576040517f08c379a00000000000000000000000000000000000000000000000000000000081526004016102f290612206565b6108d4600382611990565b1561090b576040517f08c379a00000000000000000000000000000000000000000000000000000000081526004016102f2906123f3565b610916600382611965565b507f5211a48dd5dc810c959d67db85be9de1f52e475be92efb0f7c314b9bd361863d81604051610946919061203e565b60405180910390a150565b60025473ffffffffffffffffffffffffffffffffffffffff1633146109a2576040517f08c379a00000000000000000000000000000000000000000000000000000000081526004016102f290612206565b73ffffffffffffffffffffffffffffffffffffffff81166109ef576040517f08c379a00000000000000000000000000000000000000000000000000000000081526004016102f290612274565b600280547fffffffffffffffffffffffff00000000000000000000000000000000000000001673ffffffffffffffffffffffffffffffffffffffff83161790556040517feaf9201ae5a091c46918bca9c5ced3b9aa103362b0a68a1f36b9f2858b0a4c149061094690839061203e565b610a6a600333611990565b610aa0576040517f08c379a00000000000000000000000000000000000000000000000000000000081526004016102f290612385565b73ffffffffffffffffffffffffffffffffffffffff821660009081526005602090815260408083207fffffffff000000000000000000000000000000000000000000000000000000008516845260020190915290205480610b2d576040517f08c379a00000000000000000000000000000000000000000000000000000000081526004016102f2906121cf565b6000610b3a60018361251e565b73ffffffffffffffffffffffffffffffffffffffff851660009081526005602052604081206003015491925090610b739060019061251e565b73ffffffffffffffffffffffffffffffffffffffff861660009081526005602052604081206003018054929350909183908110610bd9577f4e487b7100000000000000000000000000000000000000000000000000000000600052603260045260246000fd5b90600052602060002090600891828204019190066004029054906101000a900460e01b905080600560008873ffffffffffffffffffffffffffffffffffffffff1673ffffffffffffffffffffffffffffffffffffffff1681526020019081526020016000206003018481548110610c79577f4e487b7100000000000000000000000000000000000000000000000000000000600052603260045260246000fd5b600091825260208083206008830401805463ffffffff60079094166004026101000a938402191660e09590951c9290920293909317905573ffffffffffffffffffffffffffffffffffffffff8816808252600580845260408084207fffffffff0000000000000000000000000000000000000000000000000000000087168552600281018652908420899055919092529152600301805480610d44577f4e487b7100000000000000000000000000000000000000000000000000000000600052603160045260246000fd5b6000828152602080822060087fffffffffffffffffffffffffffffffffffffffffffffffffffffffffffffffff90940193840401805463ffffffff600460078716026101000a02191690559190925573ffffffffffffffffffffffffffffffffffffffff881682526005815260408083207fffffffff0000000000000000000000000000000000000000000000000000000089168452600201909152812081815590610df36001830182611c22565b50507ff36b70bde0203d749440b1380fd3b491ee3465ee531053539ea5179acd8e54d88686604051610e2692919061205f565b60405180910390a1505050505050565b610e41600333611990565b610e77576040517f08c379a00000000000000000000000000000000000000000000000000000000081526004016102f290612385565b73ffffffffffffffffffffffffffffffffffffffff8116600090815260056020526040902060040154610ed6576040517f08c379a00000000000000000000000000000000000000000000000000000000081526004016102f2906123bc565b60005b73ffffffffffffffffffffffffffffffffffffffff8216600090815260056020526040902060030154811015610fe95773ffffffffffffffffffffffffffffffffffffffff821660009081526005602052604081206003810180546002909201929184908110610f72577f4e487b7100000000000000000000000000000000000000000000000000000000600052603260045260246000fd5b6000918252602080832060088304015460079092166004026101000a90910460e01b7fffffffff00000000000000000000000000000000000000000000000000000000168352820192909252604001812081815590610fd46001830182611c22565b50508080610fe1906125b9565b915050610ed9565b5073ffffffffffffffffffffffffffffffffffffffff811660009081526005602052604081209061101a8282611c46565b611028600183016000611c46565b611036600383016000611c82565b5060006004919091015561104b6006826119b2565b507f8cb76b326dc7f8fadf750ebe480cb54a16fa786ace72d4226bcba5ea2103ad6581604051610946919061203e565b611086600333611990565b6110bc576040517f08c379a00000000000000000000000000000000000000000000000000000000081526004016102f290612385565b73ffffffffffffffffffffffffffffffffffffffff821660009081526005602090815260408083207fffffffff000000000000000000000000000000000000000000000000000000008516845260020190915290205415611149576040517f08c379a00000000000000000000000000000000000000000000000000000000081526004016102f29061223d565b73ffffffffffffffffffffffffffffffffffffffff82166000908152600560205260409020600401546111a8576040517f08c379a00000000000000000000000000000000000000000000000000000000081526004016102f2906123bc565b73ffffffffffffffffffffffffffffffffffffffff821660009081526005602090815260408083206003810180546001810182558186528486206008820401805463ffffffff60079093166004026101000a928302191660e089901c92909202919091179055547fffffffff000000000000000000000000000000000000000000000000000000008616855260029091019092529182902055517f70bdc48351dcfa9fc7b1e5c163ca8bc039c9a97b31ca59b9e165c1e41b00386590611271908490849061205f565b60405180910390a15050565b611288600333611990565b6112be576040517f08c379a00000000000000000000000000000000000000000000000000000000081526004016102f290612385565b73ffffffffffffffffffffffffffffffffffffffff851660009081526005602052604090206004015461131d576040517f08c379a00000000000000000000000000000000000000000000000000000000081526004016102f2906123bc565b73ffffffffffffffffffffffffffffffffffffffff8516600090815260056020526040902061134d908585611ca7565b5073ffffffffffffffffffffffffffffffffffffffff85166000908152600560205260409020611381906001018383611ca7565b507fa050f2a3041f7bc67e74c8672f7e790ecd42a38a0ba94a5f2002014144c0877d856040516113b1919061203e565b60405180910390a15050505050565b600180546113cd90612565565b80601f01602080910402602001604051908101604052809291908181526020018280546113f990612565565b80156114465780601f1061141b57610100808354040283529160200191611446565b820191906000526020600020905b81548152906001019060200180831161142957829003601f168201915b505050505081565b60038054604080516020808402820181019092528281526060939092909183018282801561149b57602002820191906000526020600020905b815481526020019060010190808311611487575b5050505050905090565b6114b0600333611990565b6114e6576040517f08c379a00000000000000000000000000000000000000000000000000000000081526004016102f290612385565b73ffffffffffffffffffffffffffffffffffffffff851660009081526005602052604090206004015415611546576040517f08c379a00000000000000000000000000000000000000000000000000000000081526004016102f2906122ab565b73ffffffffffffffffffffffffffffffffffffffff85166000908152600560205260409020611576908585611ca7565b5073ffffffffffffffffffffffffffffffffffffffff851660009081526005602052604090206115aa906001018383611ca7565b5073ffffffffffffffffffffffffffffffffffffffff85166000908152600560205260409020426004909101556115e2600686611965565b507f21f2a196e0d2218d66ab7573f81b43de458bd3380cbf82daa8f9782845c04d3a856040516113b1919061203e565b3373ffffffffffffffffffffffffffffffffffffffff8216148061164d575060025473ffffffffffffffffffffffffffffffffffffffff1633145b611683576040517f08c379a00000000000000000000000000000000000000000000000000000000081526004016102f290612319565b61168e600382611990565b6116c4576040517f08c379a00000000000000000000000000000000000000000000000000000000081526004016102f29061234e565b6116cf6003826119b2565b507fb08d132e7857df60570932b8e15c9544f136a8f716c15b00f65a64814457875b81604051610946919061203e565b60056020526000908152604090208054819061171a90612565565b80601f016020809104026020016040519081016040528092919081815260200182805461174690612565565b80156117935780601f1061176857610100808354040283529160200191611793565b820191906000526020600020905b81548152906001019060200180831161177657829003601f168201915b5050505050908060010180546117a890612565565b80601f01602080910402602001604051908101604052809291908181526020018280546117d490612565565b80156118215780601f106117f657610100808354040283529160200191611821565b820191906000526020600020905b81548152906001019060200180831161180457829003601f168201915b5050505050908060040154905083565b73ffffffffffffffffffffffffffffffffffffffff81166000908152600560209081526040918290206003018054835181840281018401909452808452606093928301828280156118e357602002820191906000526020600020906000905b82829054906101000a900460e01b7bffffffffffffffffffffffffffffffffffffffffffffffffffffffff1916815260200190600401906020826003010492830192600103820291508084116118905790505b50505050509050919050565b60068054604080516020808402820181019092528281526060939092909183018282801561149b5760200282019190600052602060002090815481526020019060010190808311611487575050505050905090565b60025474010000000000000000000000000000000000000000900460ff1681565b60006119878373ffffffffffffffffffffffffffffffffffffffff84166119d4565b90505b92915050565b60006119878373ffffffffffffffffffffffffffffffffffffffff8416611a1e565b60006119878373ffffffffffffffffffffffffffffffffffffffff8416611a36565b60006119e08383611a1e565b611a165750815460018181018455600084815260208082209093018490558454848252828601909352604090209190915561198a565b50600061198a565b60009081526001919091016020526040902054151590565b60008181526001830160205260408120548015611b94576000611a5a60018361251e565b8554909150600090611a6e9060019061251e565b90506000866000018281548110611aae577f4e487b7100000000000000000000000000000000000000000000000000000000600052603260045260246000fd5b9060005260206000200154905080876000018481548110611af8577f4e487b7100000000000000000000000000000000000000000000000000000000600052603260045260246000fd5b600091825260209091200155611b0f836001612506565b60008281526001890160205260409020558654879080611b58577f4e487b7100000000000000000000000000000000000000000000000000000000600052603160045260246000fd5b6001900381819060005260206000200160009055905586600101600087815260200190815260200160002060009055600194505050505061198a565b600091505061198a565b828054611baa90612565565b90600052602060002090601f016020900481019282611bcc5760008555611c12565b82601f10611be557805160ff1916838001178555611c12565b82800160010185558215611c12579182015b82811115611c12578251825591602001919060010190611bf7565b50611c1e929150611d39565b5090565b5080546000825560030290600052602060002090810190611c439190611d4e565b50565b508054611c5290612565565b6000825580601f10611c645750611c43565b601f016020900490600052602060002090810190611c439190611d39565b508054600082556007016008900490600052602060002090810190611c439190611d39565b828054611cb390612565565b90600052602060002090601f016020900481019282611cd55760008555611c12565b82601f10611d0c578280017fffffffffffffffffffffffffffffffffffffffffffffffffffffffffffffff00823516178555611c12565b82800160010185558215611c12579182015b82811115611c12578235825591602001919060010190611d1e565b5b80821115611c1e5760008155600101611d3a565b80821115611c1e5780547fffffffffffffffffffffffffffffffffffffffffffffffffffffffffffffff001681556000611d8b6001830182611c46565b5060006002820155600301611d4e565b803573ffffffffffffffffffffffffffffffffffffffff81168114611dbf57600080fd5b919050565b60008083601f840112611dd5578081fd5b50813567ffffffffffffffff811115611dec578182fd5b602083019150836020828501011115611e0457600080fd5b9250929050565b600060208284031215611e1c578081fd5b61198782611d9b565b60008060408385031215611e37578081fd5b611e4083611d9b565b915060208301357fffffffff0000000000000000000000000000000000000000000000000000000081168114611e74578182fd5b809150509250929050565b600080600080600060608688031215611e96578081fd5b611e9f86611d9b565b9450602086013567ffffffffffffffff80821115611ebb578283fd5b611ec789838a01611dc4565b90965094506040880135915080821115611edf578283fd5b50611eec88828901611dc4565b969995985093965092949392505050565b60008060408385031215611f0f578182fd5b611f1883611d9b565b9150602083013567ffffffffffffffff80821115611f34578283fd5b818501915085601f830112611f47578283fd5b813581811115611f5957611f59612621565b604051601f82017fffffffffffffffffffffffffffffffffffffffffffffffffffffffffffffffe0908116603f01168101908382118183101715611f9f57611f9f612621565b81604052828152886020848701011115611fb7578586fd5b82602086016020830137856020848301015280955050505050509250929050565b60008151808452611ff0816020860160208601612535565b601f017fffffffffffffffffffffffffffffffffffffffffffffffffffffffffffffffe0169290920160200192915050565b60008251612034818460208701612535565b9190910192915050565b73ffffffffffffffffffffffffffffffffffffffff91909116815260200190565b73ffffffffffffffffffffffffffffffffffffffff9290921682527fffffffff0000000000000000000000000000000000000000000000000000000016602082015260400190565b6020808252825182820181905260009190848201906040850190845b818110156120df578351835292840192918401916001016120c3565b50909695505050505050565b6020808252825182820181905260009190848201906040850190845b818110156120df5783517fffffffff000000000000000000000000000000000000000000000000000000001683529284019291840191600101612107565b6000606082526121586060830186611fd8565b828103602084015261216a8186611fd8565b915050826040830152949350505050565b60208101600783106121b6577f4e487b7100000000000000000000000000000000000000000000000000000000600052602160045260246000fd5b91905290565b6000602082526119876020830184611fd8565b60208082526017908201527f66756e6374696f6e206e6f742072656769737465726564000000000000000000604082015260600190565b60208082526011908201527f436f6e737469747574696f6e204f6e6c79000000000000000000000000000000604082015260600190565b6020808252601b908201527f66756e6374696f6e20616c726561647920726567697374657265640000000000604082015260600190565b60208082526009908201527f4164647265737320300000000000000000000000000000000000000000000000604082015260600190565b60208082526018908201527f416c7265616479206372656174656420636f6e74726163740000000000000000604082015260600190565b60208082526017908201527f46756e6374696f6e206e6f742072656769737465726564000000000000000000604082015260600190565b6020808252818101527f4e6f7420416c6c6f7765642052656d6f76696e6720417574686f726974696573604082015260600190565b6020808252601e908201527f4e6f74206578697374696e6720617574686f72697479206163636f756e740000604082015260600190565b60208082526010908201527f417574686f726974696573204f6e6c7900000000000000000000000000000000604082015260600190565b60208082526017908201527f4e6f74207265676973746572656420636f6e7472616374000000000000000000604082015260600190565b6020808252601a908201527f416c7265616479206578697374696e6720617574686f72697479000000000000604082015260600190565b6020808252601f908201527f5265656e7472616e637947756172643a207265656e7472616e742063616c6c00604082015260600190565b600060408083018584526020828186015281865180845260609350838701915083838202880101838901875b838110156124f6577fffffffffffffffffffffffffffffffffffffffffffffffffffffffffffffffa08a840301855281518051151584528681015188888601526124d989860182611fd8565b918a0151948a01949094529486019492509085019060010161248d565b50909a9950505050505050505050565b60008219821115612519576125196125f2565b500190565b600082821015612530576125306125f2565b500390565b60005b83811015612550578181015183820152602001612538565b8381111561255f576000848401525b50505050565b60028104600182168061257957607f821691505b602082108114156125b3577f4e487b7100000000000000000000000000000000000000000000000000000000600052602260045260246000fd5b50919050565b60007fffffffffffffffffffffffffffffffffffffffffffffffffffffffffffffffff8214156125eb576125eb6125f2565b5060010190565b7f4e487b7100000000000000000000000000000000000000000000000000000000600052601160045260246000fd5b7f4e487b7100000000000000000000000000000000000000000000000000000000600052604160045260246000fdfea26469706673582212200348b14af3ec2d8d615d3476b89d264fe008248d2670637c882e316292f6f0b964736f6c63430008010033",
  "immutableReferences": {},
  "source": "// SPDX-License-Identifier: MIT\npragma solidity ^0.8.0;\n\nimport \"contracts/Register.sol\";\n//import \"Register.sol\";\n\n\n\n/**\n * @notice Contract registering an API of third party contract functions callable via Web3 Direct Democracy democratic process. \n * @dev API functions can be edited (add, remove) and executed by address contained in {Register_Authorities} list (Defined in the \"Register\" inherited contract)\n * \n * */\n contract API_Register is Register{\n    using EnumerableSet for EnumerableSet.AddressSet;\n    using EnumerableSet for EnumerableSet.Bytes32Set;\n    \n    struct Receipt{\n        bool Success;\n        bytes Receipt;\n        uint Timestamps;\n    }\n    \n    struct Function{\n        uint Index;\n        Receipt[] FunctionCall_receipts;\n    }\n    \n    struct Smart_Contract{\n        bytes Name;\n        bytes Description;\n        mapping(bytes4=>Function) Callables_functions;\n        bytes4[] List_Functions;\n        uint Timestamps;\n    }\n    \n    event Contract_Created(address contract_address);\n    event Function_Added(address contract_address, bytes4 function_selector);\n    event Function_Removed(address contract_address, bytes4 function_selector);\n    event Contract_Removed(address contract_address);\n    event Contract_param_Changed(address contract_address);\n    event Function_Executed(address contract_address, bytes4 function_selector);\n    \n    mapping(address=>Smart_Contract) public Contracts;\n    EnumerableSet.AddressSet List_Contracts;\n    \n    \n    /**\n     * @dev Add the address of Agora Contract to {Register_Authorities}.\n     * \n     * @param agora Address of Agora contract\n     * */\n    constructor(string memory Name, address agora) Register(Name){\n        Type_Institution = Institution_Type.API;\n        Register_Authorities.add(agora);\n    }\n    \n    \n    /*Register API functions. Callable by Register_Authorities contracts*/\n    \n    function Add_Contract(address contract_address, bytes calldata name, bytes calldata description)external Register_Authorities_Only{\n        //require(contract_address!=address(0), \"Contract address null\");\n        require(Contracts[contract_address].Timestamps==0, \"Already created contract\");\n        Contracts[contract_address].Name=name;\n        Contracts[contract_address].Description=description;\n        Contracts[contract_address].Timestamps=block.timestamp;\n        List_Contracts.add(contract_address);\n        \n        emit Contract_Created(contract_address);\n    }\n    \n    function Add_Function(address contract_address, bytes4 function_selector)external Register_Authorities_Only{\n        //require(function_selector!=bytes4(0), \"function selector null\");\n        require(Contracts[contract_address].Callables_functions[function_selector].Index==0, \"function already registered\");\n        require(Contracts[contract_address].Timestamps!=0, \"Not registered contract\");\n        Contracts[contract_address].List_Functions.push(function_selector);\n        Contracts[contract_address].Callables_functions[function_selector].Index=Contracts[contract_address].List_Functions.length;\n        \n        emit Function_Added(contract_address, function_selector);\n    }\n    \n    function Set_Param(address contract_address, bytes calldata name, bytes calldata description)external Register_Authorities_Only{\n        require(Contracts[contract_address].Timestamps!=0, \"Not registered contract\");\n        Contracts[contract_address].Name=name;\n        Contracts[contract_address].Description=description;\n        \n        emit Contract_param_Changed(contract_address);\n    }\n    \n    function Remove_Function(address contract_address, bytes4 function_selector)external Register_Authorities_Only{\n        uint valueIndex = Contracts[contract_address].Callables_functions[function_selector].Index;\n        require(valueIndex!=0, \"function not registered\");\n        \n        uint remove_index = valueIndex - 1;\n        uint lastIndex = Contracts[contract_address].List_Functions.length - 1;\n        \n        bytes4 lastvalue = Contracts[contract_address].List_Functions[lastIndex];\n\n        Contracts[contract_address].List_Functions[remove_index] = lastvalue;\n        Contracts[contract_address].Callables_functions[lastvalue].Index = valueIndex; // Replace lastvalue's index to valueIndex\n\n        Contracts[contract_address].List_Functions.pop();\n        delete Contracts[contract_address].Callables_functions[function_selector];\n        \n        emit Function_Removed(contract_address, function_selector);\n    }\n    \n    \n    \n    function Remove_Contract(address contract_address)external Register_Authorities_Only{\n        require(Contracts[contract_address].Timestamps!=0, \"Not registered contract\");\n        \n        /*for(uint i=Contracts[contract_address].List_Functions.length-1; i>=0; i--){\n            delete Contracts[contract_address].Callables_functions[Contracts[contract_address].List_Functions[i]];\n        }*/\n        \n        for(uint i=0; i<Contracts[contract_address].List_Functions.length; i++){\n            delete Contracts[contract_address].Callables_functions[Contracts[contract_address].List_Functions[i]];\n        }\n        \n        delete Contracts[contract_address];\n        List_Contracts.remove(contract_address);\n        \n        emit Contract_Removed(contract_address);\n    }\n    \n    function Execute_Function(address contract_address, bytes memory data)external Register_Authorities_Only nonReentrant{\n        bytes4 selector= (bytes4(data[0]) | bytes4(data[1]) >> 8 |\n            bytes4(data[2]) >> 16 | bytes4(data[3]) >> 24);//= bytes4(data);\n        /*assembly {\n            selector := mload(add(data, 0x04))\n        }*/\n        require(Contracts[contract_address].Callables_functions[selector].Index!=0, \"Function not registered\");\n        \n        (bool Success, bytes memory Data)=contract_address.call(data);\n        \n        Contracts[contract_address].Callables_functions[selector].FunctionCall_receipts.push(Receipt(Success, Data, block.timestamp));\n        \n        emit Function_Executed(contract_address, selector);\n    }\n    \n    \n   /*GETTER*/\n    \n    function Get_List_Contract() external view returns(bytes32[] memory list_contracts){\n        list_contracts = List_Contracts._inner._values;\n    }\n    \n    \n    function Get_Contract_List_Functions(address contract_address) external view returns(bytes4[] memory list_functions){\n        list_functions = Contracts[contract_address].List_Functions;\n    }\n    \n    function Get_Functions_By_Selector(address contract_address, bytes4 function_selector) external view returns(uint index, Receipt[] memory receipts){\n        index = Contracts[contract_address].Callables_functions[function_selector].Index;\n        receipts = Contracts[contract_address].Callables_functions[function_selector].FunctionCall_receipts;\n    }\n    \n }",
  "sourcePath": "/home/andrei/Alyra/Web3_Referendum/contracts/API_Register.sol",
  "compiler": {
    "name": "solc",
    "version": "0.8.1+commit.df193b15.Emscripten.clang"
  },
  "schemaVersion": "3.3.1",
  "updatedAt": "2021-04-13T10:21:35.529Z",
  "devdoc": {
    "details": "API functions can be edited (add, remove) and executed by address contained in {Register_Authorities} list (Defined in the \"Register\" inherited contract)  ",
    "kind": "dev",
    "methods": {
      "Add_Authority(address)": {
        "params": {
          "authority": "address to add to the {Register_Authorities} "
        }
      },
      "Get_Authorities()": {
        "returns": {
          "_0": "return address registered in the {Register_Authorities}"
        }
      },
      "Remove_Authority(address)": {
        "params": {
          "authority": "address to remove from the {Register_Authorities} "
        }
      },
      "Set_Constitution(address)": {
        "details": "The function Allows to change the Constitution contract the current Institution obey to. The function is only callable by the {Constitution_Address}",
        "params": {
          "new_constitution": "Address of the new Constitution contract."
        }
      },
      "constructor": {
        "details": "Add the address of Agora Contract to {Register_Authorities}. ",
        "params": {
          "agora": "Address of Agora contract "
        }
      }
    },
    "version": 1
  },
  "userdoc": {
    "kind": "user",
    "methods": {
      "Add_Authority(address)": {
        "notice": "Add an account address to {Register_Authorities}"
      },
      "Constitution_Address()": {
        "notice": "Address of the constitution of the DAO"
      },
      "Get_Authorities()": {
        "notice": "Getter for {Register_Authorities}"
      },
      "Name()": {
        "notice": "Name of the institution"
      },
      "Remove_Authority(address)": {
        "notice": "Removes an account address from the {Register_Authorities}"
      },
      "Type_Institution()": {
        "notice": "Type of the Institution"
      }
    },
    "notice": "Contract registering an API of third party contract functions callable via Web3 Direct Democracy democratic process. ",
    "version": 1
  }
}