{
  "contractName": "Citizens_Register",
  "abi": [
    {
      "inputs": [
        {
          "internalType": "string",
          "name": "Name",
          "type": "string"
        },
        {
          "internalType": "address[]",
          "name": "Initial_Citizens",
          "type": "address[]"
        },
        {
          "internalType": "address",
          "name": "token_address",
          "type": "address"
        },
        {
          "internalType": "uint256",
          "name": "new_citizen_mint_amount",
          "type": "uint256"
        }
      ],
      "stateMutability": "nonpayable",
      "type": "constructor"
    },
    {
      "anonymous": false,
      "inputs": [
        {
          "indexed": false,
          "internalType": "address",
          "name": "authority",
          "type": "address"
        }
      ],
      "name": "Authority_Added",
      "type": "event"
    },
    {
      "anonymous": false,
      "inputs": [
        {
          "indexed": false,
          "internalType": "address",
          "name": "authority",
          "type": "address"
        }
      ],
      "name": "Authority_Removed",
      "type": "event"
    },
    {
      "anonymous": false,
      "inputs": [
        {
          "indexed": false,
          "internalType": "address",
          "name": "authority",
          "type": "address"
        }
      ],
      "name": "Banning_Authority_Added",
      "type": "event"
    },
    {
      "anonymous": false,
      "inputs": [
        {
          "indexed": false,
          "internalType": "address",
          "name": "authority",
          "type": "address"
        }
      ],
      "name": "Banning_Authority_Removed",
      "type": "event"
    },
    {
      "anonymous": false,
      "inputs": [
        {
          "indexed": false,
          "internalType": "address",
          "name": "citizen_address",
          "type": "address"
        }
      ],
      "name": "Citizen_Ban_Over",
      "type": "event"
    },
    {
      "anonymous": false,
      "inputs": [
        {
          "indexed": false,
          "internalType": "address",
          "name": "citizen_address",
          "type": "address"
        }
      ],
      "name": "Citizen_Banned",
      "type": "event"
    },
    {
      "anonymous": false,
      "inputs": [
        {
          "indexed": false,
          "internalType": "address",
          "name": "citizen_address",
          "type": "address"
        }
      ],
      "name": "Citizen_Data_Set",
      "type": "event"
    },
    {
      "anonymous": false,
      "inputs": [
        {
          "indexed": false,
          "internalType": "address",
          "name": "citizen_address",
          "type": "address"
        }
      ],
      "name": "Citizen_Permanently_Banned",
      "type": "event"
    },
    {
      "anonymous": false,
      "inputs": [
        {
          "indexed": false,
          "internalType": "address",
          "name": "new_constitution",
          "type": "address"
        }
      ],
      "name": "Constitution_Changed",
      "type": "event"
    },
    {
      "anonymous": false,
      "inputs": [
        {
          "indexed": false,
          "internalType": "address",
          "name": "Address",
          "type": "address"
        },
        {
          "indexed": false,
          "internalType": "enum Institution.Institution_Type",
          "name": "Type",
          "type": "uint8"
        }
      ],
      "name": "Institution_Created",
      "type": "event"
    },
    {
      "anonymous": false,
      "inputs": [],
      "name": "Name_Changed",
      "type": "event"
    },
    {
      "anonymous": false,
      "inputs": [
        {
          "indexed": false,
          "internalType": "address",
          "name": "citizen_address",
          "type": "address"
        }
      ],
      "name": "New_Citizen",
      "type": "event"
    },
    {
      "anonymous": false,
      "inputs": [
        {
          "indexed": false,
          "internalType": "address",
          "name": "authority",
          "type": "address"
        }
      ],
      "name": "Registering_Authority_Added",
      "type": "event"
    },
    {
      "anonymous": false,
      "inputs": [
        {
          "indexed": false,
          "internalType": "address",
          "name": "authority",
          "type": "address"
        }
      ],
      "name": "Registering_Authority_Removed",
      "type": "event"
    },
    {
      "anonymous": false,
      "inputs": [
        {
          "indexed": false,
          "internalType": "uint256",
          "name": "new_citizen_mint_amount",
          "type": "uint256"
        }
      ],
      "name": "new_citizen_mint_amount_Set",
      "type": "event"
    },
    {
      "inputs": [
        {
          "internalType": "address",
          "name": "authority",
          "type": "address"
        }
      ],
      "name": "Add_Authority",
      "outputs": [],
      "stateMutability": "nonpayable",
      "type": "function"
    },
    {
      "inputs": [
        {
          "internalType": "address",
          "name": "",
          "type": "address"
        }
      ],
      "name": "Citizens",
      "outputs": [
        {
          "internalType": "bool",
          "name": "Active",
          "type": "bool"
        },
        {
          "internalType": "uint256",
          "name": "Registration_Timestamps",
          "type": "uint256"
        },
        {
          "internalType": "uint256",
          "name": "End_Ban_Timestamp",
          "type": "uint256"
        },
        {
          "internalType": "bytes",
          "name": "Data",
          "type": "bytes"
        }
      ],
      "stateMutability": "view",
      "type": "function",
      "constant": true
    },
    {
      "inputs": [],
      "name": "Constitution_Address",
      "outputs": [
        {
          "internalType": "address",
          "name": "",
          "type": "address"
        }
      ],
      "stateMutability": "view",
      "type": "function",
      "constant": true
    },
    {
      "inputs": [],
      "name": "Contains_Function_Selector",
      "outputs": [
        {
          "internalType": "bytes4",
          "name": "",
          "type": "bytes4"
        }
      ],
      "stateMutability": "view",
      "type": "function",
      "constant": true
    },
    {
      "inputs": [],
      "name": "Get_Authorities",
      "outputs": [
        {
          "internalType": "bytes32[]",
          "name": "",
          "type": "bytes32[]"
        }
      ],
      "stateMutability": "view",
      "type": "function",
      "constant": true
    },
    {
      "inputs": [],
      "name": "Name",
      "outputs": [
        {
          "internalType": "string",
          "name": "",
          "type": "string"
        }
      ],
      "stateMutability": "view",
      "type": "function",
      "constant": true
    },
    {
      "inputs": [],
      "name": "New_Citizen_Mint_Amount",
      "outputs": [
        {
          "internalType": "uint256",
          "name": "",
          "type": "uint256"
        }
      ],
      "stateMutability": "view",
      "type": "function",
      "constant": true
    },
    {
      "inputs": [
        {
          "internalType": "address",
          "name": "new_constitution",
          "type": "address"
        }
      ],
      "name": "Set_Constitution",
      "outputs": [],
      "stateMutability": "nonpayable",
      "type": "function"
    },
    {
      "inputs": [
        {
          "internalType": "string",
          "name": "name",
          "type": "string"
        }
      ],
      "name": "Set_Name",
      "outputs": [],
      "stateMutability": "nonpayable",
      "type": "function"
    },
    {
      "inputs": [],
      "name": "Type_Institution",
      "outputs": [
        {
          "internalType": "enum Institution.Institution_Type",
          "name": "",
          "type": "uint8"
        }
      ],
      "stateMutability": "view",
      "type": "function",
      "constant": true
    },
    {
      "inputs": [
        {
          "internalType": "address",
          "name": "new_citizen",
          "type": "address"
        }
      ],
      "name": "Register_Citizen",
      "outputs": [],
      "stateMutability": "nonpayable",
      "type": "function"
    },
    {
      "inputs": [
        {
          "internalType": "address",
          "name": "citizen",
          "type": "address"
        },
        {
          "internalType": "bytes",
          "name": "data",
          "type": "bytes"
        }
      ],
      "name": "Set_Citizen_Data",
      "outputs": [],
      "stateMutability": "nonpayable",
      "type": "function"
    },
    {
      "inputs": [
        {
          "internalType": "address",
          "name": "citizen",
          "type": "address"
        },
        {
          "internalType": "uint256",
          "name": "duration",
          "type": "uint256"
        }
      ],
      "name": "Ban_Citizen",
      "outputs": [],
      "stateMutability": "nonpayable",
      "type": "function"
    },
    {
      "inputs": [
        {
          "internalType": "address",
          "name": "citizen",
          "type": "address"
        }
      ],
      "name": "Permanently_Ban_Citizen",
      "outputs": [],
      "stateMutability": "nonpayable",
      "type": "function"
    },
    {
      "inputs": [
        {
          "internalType": "address",
          "name": "citizen",
          "type": "address"
        }
      ],
      "name": "Grace_Citizen",
      "outputs": [],
      "stateMutability": "nonpayable",
      "type": "function"
    },
    {
      "inputs": [],
      "name": "Citizen_Finish_Ban",
      "outputs": [],
      "stateMutability": "nonpayable",
      "type": "function"
    },
    {
      "inputs": [
        {
          "internalType": "uint256",
          "name": "amount",
          "type": "uint256"
        }
      ],
      "name": "Set_Citizen_Mint_Amount",
      "outputs": [],
      "stateMutability": "nonpayable",
      "type": "function"
    },
    {
      "inputs": [
        {
          "internalType": "address",
          "name": "new_authority",
          "type": "address"
        }
      ],
      "name": "Add_Registering_Authority",
      "outputs": [],
      "stateMutability": "nonpayable",
      "type": "function"
    },
    {
      "inputs": [
        {
          "internalType": "address",
          "name": "new_authority",
          "type": "address"
        }
      ],
      "name": "Add_Banning_Authority",
      "outputs": [],
      "stateMutability": "nonpayable",
      "type": "function"
    },
    {
      "inputs": [
        {
          "internalType": "address",
          "name": "removed_authority",
          "type": "address"
        }
      ],
      "name": "Remove_Authority",
      "outputs": [],
      "stateMutability": "nonpayable",
      "type": "function"
    },
    {
      "inputs": [
        {
          "internalType": "address",
          "name": "citizen",
          "type": "address"
        }
      ],
      "name": "Contains",
      "outputs": [
        {
          "internalType": "bool",
          "name": "is_citizen",
          "type": "bool"
        }
      ],
      "stateMutability": "view",
      "type": "function",
      "constant": true
    },
    {
      "inputs": [],
      "name": "Get_Citizen_Number",
      "outputs": [
        {
          "internalType": "uint256",
          "name": "citizen_number",
          "type": "uint256"
        }
      ],
      "stateMutability": "view",
      "type": "function",
      "constant": true
    },
    {
      "inputs": [],
      "name": "Get_Citizens_List",
      "outputs": [
        {
          "internalType": "bytes32[]",
          "name": "citizen_list",
          "type": "bytes32[]"
        }
      ],
      "stateMutability": "view",
      "type": "function",
      "constant": true
    },
    {
      "inputs": [],
      "name": "Get_Permanently_Banned_Citizens",
      "outputs": [
        {
          "internalType": "address[]",
          "name": "blacklist",
          "type": "address[]"
        }
      ],
      "stateMutability": "view",
      "type": "function",
      "constant": true
    },
    {
      "inputs": [],
      "name": "Get_Registering_Authorities",
      "outputs": [
        {
          "internalType": "bytes32[]",
          "name": "registering_authorities",
          "type": "bytes32[]"
        }
      ],
      "stateMutability": "view",
      "type": "function",
      "constant": true
    },
    {
      "inputs": [],
      "name": "Get_Banning_Authorities",
      "outputs": [
        {
          "internalType": "bytes32[]",
          "name": "banning_authorities",
          "type": "bytes32[]"
        }
      ],
      "stateMutability": "view",
      "type": "function",
      "constant": true
    }
  ],
  "bytecode": "0x60806040523480156200001157600080fd5b5060405162002365380380620023658339810160408190526200003491620003a1565b6001600081905584518591829162000052919060208401906200024b565b5050600280546001600160a01b03199081163390811760ff60a01b1916600160a01b17821617909155600980549091166001600160a01b03851617905550825160005b81811015620001b557600160056000878481518110620000c557634e487b7160e01b600052603260045260246000fd5b60200260200101516001600160a01b03166001600160a01b0316815260200190815260200160002060000160006101000a81548160ff02191690831515021790555042600560008784815181106200012d57634e487b7160e01b600052603260045260246000fd5b60200260200101516001600160a01b03166001600160a01b03168152602001908152602001600020600101819055506200019f8582815181106200018157634e487b7160e01b600052603260045260246000fd5b60200260200101516006620001c460201b6200146d1790919060201c565b5080620001ac8162000509565b91505062000095565b5050600e555062000547915050565b6000620001db836001600160a01b038416620001e4565b90505b92915050565b6000620001f2838362000233565b6200022a57508154600181810184556000848152602080822090930184905584548482528286019093526040902091909155620001de565b506000620001de565b60009081526001919091016020526040902054151590565b8280546200025990620004cc565b90600052602060002090601f0160209004810192826200027d5760008555620002c8565b82601f106200029857805160ff1916838001178555620002c8565b82800160010185558215620002c8579182015b82811115620002c8578251825591602001919060010190620002ab565b50620002d6929150620002da565b5090565b5b80821115620002d65760008155600101620002db565b80516001600160a01b03811681146200030957600080fd5b919050565b600082601f8301126200031f578081fd5b815160206001600160401b038211156200033d576200033d62000531565b8082026200034d82820162000499565b83815282810190868401838801850189101562000368578687fd5b8693505b8584101562000395576200038081620002f1565b8352600193909301929184019184016200036c565b50979650505050505050565b60008060008060808587031215620003b7578384fd5b84516001600160401b0380821115620003ce578586fd5b818701915087601f830112620003e2578586fd5b815181811115620003f757620003f762000531565b60206200040d601f8301601f1916820162000499565b8281528a8284870101111562000421578889fd5b885b838110156200044057858101830151828201840152820162000423565b838111156200045157898385840101525b50908901519097509250508082111562000469578485fd5b5062000478878288016200030e565b9350506200048960408601620002f1565b6060959095015193969295505050565b604051601f8201601f191681016001600160401b0381118282101715620004c457620004c462000531565b604052919050565b600281046001821680620004e157607f821691505b602082108114156200050357634e487b7160e01b600052602260045260246000fd5b50919050565b60006000198214156200052a57634e487b7160e01b81526011600452602481fd5b5060010190565b634e487b7160e01b600052604160045260246000fd5b611e0e80620005576000396000f3fe608060405234801561001057600080fd5b50600436106101ae5760003560e01c80638052474d116100ee578063b9129aa211610097578063eb101b2311610071578063eb101b231461035d578063f77c794714610372578063fa91965f14610385578063fb252e2d1461038d576101ae565b8063b9129aa214610324578063d3a3e4a814610337578063d9cefdd11461034a576101ae565b80639155e45b116100c85780639155e45b146102eb57806392e37832146102fe578063b18d743b14610311576101ae565b80638052474d146102bb578063811a5c1f146102d057806384e886e9146102e3576101ae565b8063285b88221161015b57806338df44b11161013557806338df44b11461026d5780633c289ea81461028057806357f98d32146102935780635d511f26146102b3576101ae565b8063285b88221461023b5780632b7ea69014610250578063351425fb14610265576101ae565b80631426984b1161018c5780631426984b146101ee5780631b3dfe3114610203578063254cc80a14610218576101ae565b806302d4cd28146101b357806305ff1b36146101d1578063135f32f0146101e6575b600080fd5b6101bb6103a0565b6040516101c8919061192c565b60405180910390f35b6101e46101df3660046117d7565b6103bc565b005b6101e461049e565b6101f6610562565b6040516101c891906119cd565b61020b6105b9565b6040516101c89190611d1d565b61022b6102263660046117d7565b6105bf565b6040516101c89493929190611a10565b610243610676565b6040516101c89190611a41565b61025861069a565b6040516101c89190611973565b6101f6610708565b6101e461027b3660046117d7565b61075d565b6101e461028e3660046117d7565b61082b565b6102a66102a13660046117d7565b610939565b6040516101c89190611a05565b6101f6610968565b6102c36109bd565b6040516101c89190611aaf565b6101e46102de3660046118ab565b610a4b565b6101f6610ad1565b6101e46102f936600461186b565b610b26565b6101e461030c366004611842565b610bb1565b6101e461031f3660046117d7565b610cf3565b6101e46103323660046117d7565b610e3c565b6101e46103453660046117d7565b610f42565b6101e46103583660046117d7565b6110fe565b61036561127b565b6040516101c89190611a6e565b6101e46103803660046117f1565b61129c565b61020b61138e565b6101e461039b3660046117d7565b61139f565b60025473ffffffffffffffffffffffffffffffffffffffff1681565b60025473ffffffffffffffffffffffffffffffffffffffff163314610416576040517f08c379a000000000000000000000000000000000000000000000000000000000815260040161040d90611af9565b60405180910390fd5b610421600a82611498565b15610458576040517f08c379a000000000000000000000000000000000000000000000000000000000815260040161040d90611b9e565b610463600a8261146d565b507f3b3a3ffd0eaef20640de63ebb415ec7655d62a221ba213bd61c46083024d046981604051610493919061192c565b60405180910390a150565b3360009081526005602052604090206002015480158015906104c05750428111155b6104f6576040517f08c379a000000000000000000000000000000000000000000000000000000000815260040161040d90611c78565b3360008181526005602052604080822080547fffffffffffffffffffffffffffffffffffffffffffffffffffffffffffffff0016600117815560020191909155517f8590ee73b6cfa7443787cf93c61d6f74998e828acb25c3e0c6c2b7961d464889916104939161192c565b600a805460408051602080840282018101909252828152606093909290918301828280156105af57602002820191906000526020600020905b81548152602001906001019080831161059b575b5050505050905090565b600e5481565b600560205260009081526040902080546001820154600283015460038401805460ff9094169492939192916105f390611d55565b80601f016020809104026020016040519081016040528092919081815260200182805461061f90611d55565b801561066c5780601f106106415761010080835404028352916020019161066c565b820191906000526020600020905b81548152906001019060200180831161064f57829003601f168201915b5050505050905084565b7f57f98d320000000000000000000000000000000000000000000000000000000081565b606060088054806020026020016040519081016040528092919081815260200182805480156105af57602002820191906000526020600020905b815473ffffffffffffffffffffffffffffffffffffffff1681526001909101906020018083116106d4575050505050905090565b600c805460408051602080840282018101909252828152606093909290918301828280156105af576020028201919060005260206000209081548152602001906001019080831161059b575050505050905090565b60025473ffffffffffffffffffffffffffffffffffffffff1633146107ae576040517f08c379a000000000000000000000000000000000000000000000000000000000815260040161040d90611af9565b6107b9600382611498565b156107f0576040517f08c379a000000000000000000000000000000000000000000000000000000000815260040161040d90611ce6565b6107fb60038261146d565b507f5211a48dd5dc810c959d67db85be9de1f52e475be92efb0f7c314b9bd361863d81604051610493919061192c565b60025473ffffffffffffffffffffffffffffffffffffffff16331461087c576040517f08c379a000000000000000000000000000000000000000000000000000000000815260040161040d90611af9565b73ffffffffffffffffffffffffffffffffffffffff81166108c9576040517f08c379a000000000000000000000000000000000000000000000000000000000815260040161040d90611b67565b600280547fffffffffffffffffffffffff00000000000000000000000000000000000000001673ffffffffffffffffffffffffffffffffffffffff83161790556040517feaf9201ae5a091c46918bca9c5ced3b9aa103362b0a68a1f36b9f2858b0a4c149061049390839061192c565b73ffffffffffffffffffffffffffffffffffffffff811660009081526005602052604090205460ff165b919050565b6006805460408051602080840282018101909252828152606093909290918301828280156105af576020028201919060005260206000209081548152602001906001019080831161059b575050505050905090565b600180546109ca90611d55565b80601f01602080910402602001604051908101604052809291908181526020018280546109f690611d55565b8015610a435780601f10610a1857610100808354040283529160200191610a43565b820191906000526020600020905b815481529060010190602001808311610a2657829003601f168201915b505050505081565b60025473ffffffffffffffffffffffffffffffffffffffff163314610a9c576040517f08c379a000000000000000000000000000000000000000000000000000000000815260040161040d90611af9565b600e8190556040517f85c1721b92305f7fac531bd689924a9657d7cc1be6971fa440c9d936885a42ee90610493908390611d1d565b6003805460408051602080840282018101909252828152606093909290918301828280156105af576020028201919060005260206000209081548152602001906001019080831161059b575050505050905090565b60025473ffffffffffffffffffffffffffffffffffffffff163314610b77576040517f08c379a000000000000000000000000000000000000000000000000000000000815260040161040d90611af9565b610b83600183836116b5565b506040517f379308d0bb59c3a96480e25be5a540b7ed745d0ba7bc0d59819082fb1d8f5a0d90600090a15050565b610bbc600c33611498565b610bf2576040517f08c379a000000000000000000000000000000000000000000000000000000000815260040161040d90611ac2565b610bfd600683611498565b610c33576040517f08c379a000000000000000000000000000000000000000000000000000000000815260040161040d90611c41565b73ffffffffffffffffffffffffffffffffffffffff8216600090815260056020526040902080547fffffffffffffffffffffffffffffffffffffffffffffffffffffffffffffff001690558015610cb857610c8e4282611d26565b73ffffffffffffffffffffffffffffffffffffffff83166000908152600560205260409020600201555b7ff178fd2db5e7d9542a330073dab1ddf09afbae272bc48f60d9cf9b5ce431028182604051610ce7919061192c565b60405180910390a15050565b3373ffffffffffffffffffffffffffffffffffffffff82161480610d2e575060025473ffffffffffffffffffffffffffffffffffffffff1633145b610d64576040517f08c379a000000000000000000000000000000000000000000000000000000000815260040161040d90611bd5565b610d6f600a82611498565b15610dbc57610d7f600a826114ba565b507ff4ee9ba8dd68b19cc51b379977fd66307ecb2f08e9773e87fbbac747dd259bab81604051610daf919061192c565b60405180910390a1610e39565b610dc7600c82611498565b15610e0757610dd7600c826114ba565b507f49051cb44fa45f6fc1fa9f98da77ff75674d673a0c4de0e9859e3f754cf7615b81604051610daf919061192c565b6040517f08c379a000000000000000000000000000000000000000000000000000000000815260040161040d90611c0a565b50565b610e47600c33611498565b610e7d576040517f08c379a000000000000000000000000000000000000000000000000000000000815260040161040d90611ac2565b610e88600682611498565b610ebe576040517f08c379a000000000000000000000000000000000000000000000000000000000815260040161040d90611c41565b73ffffffffffffffffffffffffffffffffffffffff811660009081526005602052604080822080547fffffffffffffffffffffffffffffffffffffffffffffffffffffffffffffff0016600117815560020191909155517f8590ee73b6cfa7443787cf93c61d6f74998e828acb25c3e0c6c2b7961d4648899061049390839061192c565b610f4d600a33611498565b610f83576040517f08c379a000000000000000000000000000000000000000000000000000000000815260040161040d90611b30565b73ffffffffffffffffffffffffffffffffffffffff811660009081526005602052604090206001015415610fe3576040517f08c379a000000000000000000000000000000000000000000000000000000000815260040161040d90611caf565b73ffffffffffffffffffffffffffffffffffffffff8116600090815260056020526040902080547fffffffffffffffffffffffffffffffffffffffffffffffffffffffffffffff0016600190811782554291015561104260068261146d565b50600954600e546040517f0f6798a500000000000000000000000000000000000000000000000000000000815273ffffffffffffffffffffffffffffffffffffffff90921691630f6798a59161109d9185919060040161194d565b600060405180830381600087803b1580156110b757600080fd5b505af11580156110cb573d6000803e3d6000fd5b505050507f6dfe81d8062c9f735968fde00c9fff698e00bea5c1144c2099ddb3553c5a6fa381604051610493919061192c565b611109600c33611498565b61113f576040517f08c379a000000000000000000000000000000000000000000000000000000000815260040161040d90611ac2565b61114a600682611498565b611180576040517f08c379a000000000000000000000000000000000000000000000000000000000815260040161040d90611c41565b73ffffffffffffffffffffffffffffffffffffffff8116600090815260056020526040812080547fffffffffffffffffffffffffffffffffffffffffffffffffffffffffffffff00168155600201556111da6006826114ba565b50600880546001810182556000919091527ff3f7a9fe364faab93b216da50a3214154f22a0a2b415b23a84c8169e8b636ee30180547fffffffffffffffffffffffff00000000000000000000000000000000000000001673ffffffffffffffffffffffffffffffffffffffff83161790556040517f72515366405ed805b9053c4a3d658ac9b13770991df5d567f34d8404b227c90e9061049390839061192c565b60025474010000000000000000000000000000000000000000900460ff1681565b6112a7600a33611498565b6112dd576040517f08c379a000000000000000000000000000000000000000000000000000000000815260040161040d90611b30565b6112e8600684611498565b61131e576040517f08c379a000000000000000000000000000000000000000000000000000000000815260040161040d90611c41565b73ffffffffffffffffffffffffffffffffffffffff831660009081526005602052604090206113519060030183836116b5565b507fe7563b3daca8439b21ecef2841e2d4669a1dfbfff83d64b8cc8d9770f544dd3d83604051611381919061192c565b60405180910390a1505050565b600061139a60066114dc565b905090565b60025473ffffffffffffffffffffffffffffffffffffffff1633146113f0576040517f08c379a000000000000000000000000000000000000000000000000000000000815260040161040d90611af9565b6113fb600c82611498565b15611432576040517f08c379a000000000000000000000000000000000000000000000000000000000815260040161040d90611b9e565b61143d600c8261146d565b507fc50b4cd7fcee2d8c1334111c3265796780311e5e77b29dd52f38ae5f8f120a6181604051610493919061192c565b600061148f8373ffffffffffffffffffffffffffffffffffffffff84166114e7565b90505b92915050565b600061148f8373ffffffffffffffffffffffffffffffffffffffff8416611531565b600061148f8373ffffffffffffffffffffffffffffffffffffffff8416611549565b6000611492826116b1565b60006114f38383611531565b61152957508154600181810184556000848152602080822090930184905584548482528286019093526040902091909155611492565b506000611492565b60009081526001919091016020526040902054151590565b600081815260018301602052604081205480156116a757600061156d600183611d3e565b855490915060009061158190600190611d3e565b905060008660000182815481106115c1577f4e487b7100000000000000000000000000000000000000000000000000000000600052603260045260246000fd5b906000526020600020015490508087600001848154811061160b577f4e487b7100000000000000000000000000000000000000000000000000000000600052603260045260246000fd5b600091825260209091200155611622836001611d26565b6000828152600189016020526040902055865487908061166b577f4e487b7100000000000000000000000000000000000000000000000000000000600052603160045260246000fd5b60019003818190600052602060002001600090559055866001016000878152602001908152602001600020600090556001945050505050611492565b6000915050611492565b5490565b8280546116c190611d55565b90600052602060002090601f0160209004810192826116e35760008555611747565b82601f1061171a578280017fffffffffffffffffffffffffffffffffffffffffffffffffffffffffffffff00823516178555611747565b82800160010185558215611747579182015b8281111561174757823582559160200191906001019061172c565b50611753929150611757565b5090565b5b808211156117535760008155600101611758565b803573ffffffffffffffffffffffffffffffffffffffff8116811461096357600080fd5b60008083601f8401126117a1578182fd5b50813567ffffffffffffffff8111156117b8578182fd5b6020830191508360208285010111156117d057600080fd5b9250929050565b6000602082840312156117e8578081fd5b61148f8261176c565b600080600060408486031215611805578182fd5b61180e8461176c565b9250602084013567ffffffffffffffff811115611829578283fd5b61183586828701611790565b9497909650939450505050565b60008060408385031215611854578182fd5b61185d8361176c565b946020939093013593505050565b6000806020838503121561187d578182fd5b823567ffffffffffffffff811115611893578283fd5b61189f85828601611790565b90969095509350505050565b6000602082840312156118bc578081fd5b5035919050565b60008151808452815b818110156118e8576020818501810151868301820152016118cc565b818111156118f95782602083870101525b50601f017fffffffffffffffffffffffffffffffffffffffffffffffffffffffffffffffe0169290920160200192915050565b73ffffffffffffffffffffffffffffffffffffffff91909116815260200190565b73ffffffffffffffffffffffffffffffffffffffff929092168252602082015260400190565b6020808252825182820181905260009190848201906040850190845b818110156119c157835173ffffffffffffffffffffffffffffffffffffffff168352928401929184019160010161198f565b50909695505050505050565b6020808252825182820181905260009190848201906040850190845b818110156119c1578351835292840192918401916001016119e9565b901515815260200190565b6000851515825284602083015283604083015260806060830152611a3760808301846118c3565b9695505050505050565b7fffffffff0000000000000000000000000000000000000000000000000000000091909116815260200190565b6020810160078310611aa9577f4e487b7100000000000000000000000000000000000000000000000000000000600052602160045260246000fd5b91905290565b60006020825261148f60208301846118c3565b60208082526016908201527f42616e6e696e6720417574686f72697479204f6e6c7900000000000000000000604082015260600190565b60208082526011908201527f436f6e737469747574696f6e204f6e6c79000000000000000000000000000000604082015260600190565b6020808252601a908201527f5265676973746572696e6720417574686f72697479204f6e6c79000000000000604082015260600190565b60208082526009908201527f4164647265737320300000000000000000000000000000000000000000000000604082015260600190565b6020808252601a908201527f416c7265616479204578697374696e6720417574686f72697479000000000000604082015260600190565b6020808252818101527f4e6f7420416c6c6f7765642052656d6f76696e6720417574686f726974696573604082015260600190565b60208082526016908201527f4e6f74206578697374696e6720617574686f7269747900000000000000000000604082015260600190565b60208082526016908201527f4e6f74205265676973746572656420436974697a656e00000000000000000000604082015260600190565b6020808252601c908201527f42616e206e6f74206f76657220286f72206e6f742062616e6e65642900000000604082015260600190565b6020808252601e908201527f416c726561647920526567697374657265642f42616e20436974697a656e0000604082015260600190565b6020808252601a908201527f416c7265616479206578697374696e6720617574686f72697479000000000000604082015260600190565b90815260200190565b60008219821115611d3957611d39611da9565b500190565b600082821015611d5057611d50611da9565b500390565b600281046001821680611d6957607f821691505b60208210811415611da3577f4e487b7100000000000000000000000000000000000000000000000000000000600052602260045260246000fd5b50919050565b7f4e487b7100000000000000000000000000000000000000000000000000000000600052601160045260246000fdfea26469706673582212208f02c52654c02e5892c1d8441ba33e304115dc903b7521a075ac36af5000bef764736f6c63430008010033",
  "immutableReferences": {},
  "source": "// SPDX-License-Identifier: MIT\npragma solidity ^0.8.0;\n\n//import \"Register.sol\";\nimport \"contracts/Register.sol\";\n\n\n\n/** \n * @dev This contract inherit from abstract contract \"Register\". It register the whitelist of accounts allowed to take art in democratic activities of the DAO. This list of citizens is edited by two authorities:\n *  - Citizens_Registering_Authorities: List of address allowed to add citizens. We can have severals address but usually one single Delegation contract address is enough.\n *  - Citizens_Banning_Authorities: List of address allowed to remove citizens.  We can have severals address but usually one single Delegation contract address is enough.\n * \n * The contract should be given authority to mint token on DemoCoin token\n*/\n\ncontract Citizens_Register is Register{\n     using EnumerableSet for EnumerableSet.AddressSet;\n\n     struct Citizen{\n         bool Active;\n         uint Registration_Timestamps;\n         uint End_Ban_Timestamp;\n         bytes Data;\n     }\n     \n     event New_Citizen(address citizen_address);\n     event Citizen_Data_Set(address citizen_address);\n     event Citizen_Banned(address citizen_address);\n     event Citizen_Permanently_Banned(address citizen_address);\n     event Citizen_Ban_Over(address citizen_address);\n     event new_citizen_mint_amount_Set(uint new_citizen_mint_amount);\n     event Registering_Authority_Added(address authority);\n     event Banning_Authority_Added(address authority);\n     event Registering_Authority_Removed(address authority);\n     event Banning_Authority_Removed(address authority);\n     \n     ///@dev function selector of {Contains} function. It's the selector other contracts have to use if they want to check if an address is citizen of the DAO\n     bytes4 constant public Contains_Function_Selector = 0x57f98d32;\n     \n     ///@dev Mapping of all citizens of the DAO\n     mapping(address=>Citizen) public Citizens;\n     ///@dev list of all citizens of the DAO\n     EnumerableSet.AddressSet Citizens_List;\n     ///@dev List of accounts that have been Permanently banned and can not be added anymore (blacklist)\n     address[] Permanently_Banned_Citizens;\n     \n     DemoCoin Democoin;\n     \n    \n     EnumerableSet.AddressSet Citizens_Registering_Authorities;\n     EnumerableSet.AddressSet Citizens_Banning_Authorities;\n     \n     ///@dev Amount of token to transfer to a new registered citizen.\n     uint public New_Citizen_Mint_Amount; //Each new citizen get \"New_Citizen_Mint_Amount\" token that are mint.\n    \n    /** \n     * @param Name name of the Institution\n     * @param Initial_Citizens List of initial citizens \n     * @param token_address Address of DemoCoin token that will be used to transfert initial token amount to new registered citizens \n     * @param new_citizen_mint_amount Amount of token to mint for new registered accounts\n    */\n     constructor(string memory Name, address[] memory Initial_Citizens, address token_address, uint new_citizen_mint_amount) Register(Name){\n         Type_Institution = Institution_Type.CITIZENS_REGISTRATION;\n         Constitution_Address = msg.sender;\n         \n         Democoin = DemoCoin(token_address);\n         \n         uint citizens_number = Initial_Citizens.length;\n         \n         for(uint i =0; i<citizens_number; i++){\n             Citizens[Initial_Citizens[i]].Active = true;\n             Citizens[Initial_Citizens[i]].Registration_Timestamps = block.timestamp;\n             Citizens_List.add(Initial_Citizens[i]);\n             \n         }\n         \n         New_Citizen_Mint_Amount = new_citizen_mint_amount;\n     }\n     \n     \n     \n     \n     /*REGISTER FUNCTIONS*/\n     \n     /**\n      * @dev Add a new citizen to the whitelist of account allowed to take part in democratic activities of the DAO. Only accounts contained in {Citizens_Registering_Authorities} can call this function.\n      * @param new_citizen Account to be registered as citizen.\n      * */\n     function Register_Citizen(address new_citizen) external{\n         require(Citizens_Registering_Authorities.contains(msg.sender), \"Registering Authority Only\");\n         require(Citizens[new_citizen].Registration_Timestamps ==0, \"Already Registered/Ban Citizen\");\n         Citizens[new_citizen].Active = true;\n         Citizens[new_citizen].Registration_Timestamps = block.timestamp;\n         Citizens_List.add(new_citizen);\n         \n         Democoin.Mint(new_citizen, New_Citizen_Mint_Amount);\n         \n         emit New_Citizen(new_citizen);\n     }\n     \n   \n     \n     /**\n      * @dev Modify the Data field of a Citizen. Only callable by Registering authorities\n      * @param citizen Citizen account to be modified\n      * @param data New Data field\n      * */\n     function Set_Citizen_Data(address citizen, bytes calldata data)external{\n         require(Citizens_Registering_Authorities.contains(msg.sender), \"Registering Authority Only\");\n         require(Citizens_List.contains(citizen), \"Not Registered Citizen\");\n         Citizens[citizen].Data = data;\n         \n         Citizen_Data_Set(citizen);\n     }\n     \n      /**\n      * @dev Ban a citizen for a limited or unlimited amount of time. Only callable by Banning Auhorities\n      * @param citizen Citizen account to be banned\n      * @param duration Duration of the bannishment. If it's null, the citizen is banned for an unlimited amount of time.\n      * */\n     function Ban_Citizen(address citizen, uint duration)external{\n         require(Citizens_Banning_Authorities.contains(msg.sender), \"Banning Authority Only\");\n         require(Citizens_List.contains(citizen), \"Not Registered Citizen\");\n         Citizens[citizen].Active=false;\n         if(duration>0){\n             Citizens[citizen].End_Ban_Timestamp = duration+block.timestamp;\n         }\n         \n         emit Citizen_Banned(citizen);\n     }\n     \n      /**\n      * @dev Ban a citizen forever. The citizen is blacklisted.\n      * @param citizen Citizen account to be blacklisted\n      * */\n     function Permanently_Ban_Citizen(address citizen)external{\n         require(Citizens_Banning_Authorities.contains(msg.sender), \"Banning Authority Only\");\n         require(Citizens_List.contains(citizen), \"Not Registered Citizen\");\n         Citizens[citizen].Active=false;\n         Citizens[citizen].End_Ban_Timestamp=0;\n         Citizens_List.remove(citizen);\n         Permanently_Banned_Citizens.push(citizen);\n         \n         emit Citizen_Permanently_Banned(citizen);\n     }\n     \n       /**\n      * @dev Grant pardon to a banned citizen. If the citizen has been banned for an unlimited amount of time, this function is the only way to let him come back. This function is only callable by Banning Authorities.\n      * @param citizen Citizen account to be granted pardon\n      * */\n     function Grace_Citizen(address citizen)external{\n         require(Citizens_Banning_Authorities.contains(msg.sender), \"Banning Authority Only\");\n         require(Citizens_List.contains(citizen), \"Not Registered Citizen\");\n         \n         Citizens[citizen].Active=true;\n         Citizens[citizen].End_Ban_Timestamp=0;\n         \n         emit Citizen_Ban_Over(citizen);\n     }\n     \n      /**\n      * @dev Function callable by a banned citizen to end his bannishment when the sentence is finished (if his sentence is limited in time)\n      * */\n     function Citizen_Finish_Ban()external{\n         uint end_ban_timestamp = Citizens[msg.sender].End_Ban_Timestamp;\n         require(end_ban_timestamp>0 && end_ban_timestamp <= block.timestamp, \"Ban not over (or not banned)\");\n         Citizens[msg.sender].Active = true;\n         Citizens[msg.sender].End_Ban_Timestamp=0;\n         \n         emit Citizen_Ban_Over(msg.sender);\n     }\n     \n     \n     \n     \n     \n     /*CONSTITUTION ONLY FUNCTIONS*/\n     \n     /**\n      * @dev Setter for {New_Citizen_Mint_Amount} state variable\n      * @param amount New value of New_Citizen_Mint_Amount\n      * */\n     function Set_Citizen_Mint_Amount(uint amount)external Constitution_Only{\n         New_Citizen_Mint_Amount = amount;\n         emit new_citizen_mint_amount_Set(amount);\n     }\n     \n     /**\n      * @dev Add a Registering Authority address.\n      * @param new_authority New register authority address.\n      * */\n     function Add_Registering_Authority(address new_authority)external Constitution_Only{\n         require(!Citizens_Registering_Authorities.contains(new_authority), \"Already Existing Authority\");\n         Citizens_Registering_Authorities.add(new_authority);\n         emit Registering_Authority_Added(new_authority);\n     }\n     \n     /**\n      * @dev Add a Banning Authority address.\n      * @param new_authority New banning authority address.\n      * */\n     function Add_Banning_Authority(address new_authority)external Constitution_Only{\n         require(!Citizens_Banning_Authorities.contains(new_authority), \"Already Existing Authority\");\n         Citizens_Banning_Authorities.add(new_authority);\n         emit Banning_Authority_Added(new_authority);\n     }\n     \n    /**\n      * @dev Remove an address from {Citizens_Registering_Authorities} and/or {Citizens_Banning_Authorities}\n      * @param removed_authority Address to remove from Authorities lists.\n      * */\n    function Remove_Authority(address removed_authority) override external{\n         require(msg.sender == removed_authority || msg.sender == Constitution_Address, \"Not Allowed Removing Authorities\");\n         if(Citizens_Registering_Authorities.contains(removed_authority)){\n             Citizens_Registering_Authorities.remove(removed_authority);\n             emit Registering_Authority_Removed(removed_authority);\n         }else if(Citizens_Banning_Authorities.contains(removed_authority)){\n             Citizens_Banning_Authorities.remove(removed_authority);\n             emit Banning_Authority_Removed(removed_authority);\n         }else{\n            revert(\"Not existing authority\");\n         }\n     }\n    \n    /*GETTER*/\n    \n    /**\n      * @dev Check whether an account is citizen of the current Web3 Direct Democracy project.\n      * @param citizen Account to check.\n      * @return is_citizen \n      * \n      * \n      * */\n    function Contains(address citizen)external view returns(bool is_citizen){\n         return Citizens[citizen].Active;\n     }\n     \n    /**\n      * @dev Get the number of citizens in the DAO\n      * @return citizen_number \n      * */ \n    function Get_Citizen_Number()external view returns(uint citizen_number){\n        return Citizens_List.length();\n    }\n    \n    /**\n      * @dev Get the list of citizens\n      * @return citizen_list \n      * */ \n    function Get_Citizens_List() external view returns(bytes32[] memory citizen_list){\n        return Citizens_List._inner._values;\n    }\n    \n    /**\n      * @dev Get the list of blacklisted citizens (permanently banned citizens)\n      * @return blacklist \n      * */\n    function Get_Permanently_Banned_Citizens() external view returns(address[] memory blacklist){\n        return Permanently_Banned_Citizens;\n    }\n    \n    /**\n      * @dev Get the list of Registering authorities\n      * @return registering_authorities \n      * */\n    function Get_Registering_Authorities() external view returns(bytes32[] memory registering_authorities){\n        return Citizens_Registering_Authorities._inner._values;\n    }\n    \n    /**\n      * @dev Get the list of banning authorities\n      * @return banning_authorities \n      * */\n    function Get_Banning_Authorities() external view returns(bytes32[] memory banning_authorities){\n        return Citizens_Banning_Authorities._inner._values;\n    }\n     \n}",
  "sourcePath": "/home/andrei/Alyra/Web3_Referendum/contracts/Citizens_Register.sol",
  "compiler": {
    "name": "solc",
    "version": "0.8.1+commit.df193b15.Emscripten.clang"
  },
  "schemaVersion": "3.3.1",
  "updatedAt": "2021-05-01T13:15:08.913Z",
  "networkType": "ethereum",
  "devdoc": {
    "details": "This contract inherit from abstract contract \"Register\". It register the whitelist of accounts allowed to take art in democratic activities of the DAO. This list of citizens is edited by two authorities:  - Citizens_Registering_Authorities: List of address allowed to add citizens. We can have severals address but usually one single Delegation contract address is enough.  - Citizens_Banning_Authorities: List of address allowed to remove citizens.  We can have severals address but usually one single Delegation contract address is enough.  The contract should be given authority to mint token on DemoCoin token",
    "kind": "dev",
    "methods": {
      "Add_Authority(address)": {
        "params": {
          "authority": "address to add to the {Register_Authorities} "
        }
      },
      "Add_Banning_Authority(address)": {
        "details": "Add a Banning Authority address.",
        "params": {
          "new_authority": "New banning authority address. "
        }
      },
      "Add_Registering_Authority(address)": {
        "details": "Add a Registering Authority address.",
        "params": {
          "new_authority": "New register authority address. "
        }
      },
      "Ban_Citizen(address,uint256)": {
        "details": "Ban a citizen for a limited or unlimited amount of time. Only callable by Banning Auhorities",
        "params": {
          "citizen": "Citizen account to be banned",
          "duration": "Duration of the bannishment. If it's null, the citizen is banned for an unlimited amount of time. "
        }
      },
      "Citizen_Finish_Ban()": {
        "details": "Function callable by a banned citizen to end his bannishment when the sentence is finished (if his sentence is limited in time) "
      },
      "Contains(address)": {
        "details": "Check whether an account is citizen of the current Web3 Direct Democracy project.",
        "params": {
          "citizen": "Account to check."
        },
        "returns": {
          "is_citizen": "   "
        }
      },
      "Get_Authorities()": {
        "returns": {
          "_0": "return address registered in the {Register_Authorities}"
        }
      },
      "Get_Banning_Authorities()": {
        "details": "Get the list of banning authorities",
        "returns": {
          "banning_authorities": " "
        }
      },
      "Get_Citizen_Number()": {
        "details": "Get the number of citizens in the DAO",
        "returns": {
          "citizen_number": " "
        }
      },
      "Get_Citizens_List()": {
        "details": "Get the list of citizens",
        "returns": {
          "citizen_list": " "
        }
      },
      "Get_Permanently_Banned_Citizens()": {
        "details": "Get the list of blacklisted citizens (permanently banned citizens)",
        "returns": {
          "blacklist": " "
        }
      },
      "Get_Registering_Authorities()": {
        "details": "Get the list of Registering authorities",
        "returns": {
          "registering_authorities": " "
        }
      },
      "Grace_Citizen(address)": {
        "details": "Grant pardon to a banned citizen. If the citizen has been banned for an unlimited amount of time, this function is the only way to let him come back. This function is only callable by Banning Authorities.",
        "params": {
          "citizen": "Citizen account to be granted pardon "
        }
      },
      "Permanently_Ban_Citizen(address)": {
        "details": "Ban a citizen forever. The citizen is blacklisted.",
        "params": {
          "citizen": "Citizen account to be blacklisted "
        }
      },
      "Register_Citizen(address)": {
        "details": "Add a new citizen to the whitelist of account allowed to take part in democratic activities of the DAO. Only accounts contained in {Citizens_Registering_Authorities} can call this function.",
        "params": {
          "new_citizen": "Account to be registered as citizen. "
        }
      },
      "Remove_Authority(address)": {
        "details": "Remove an address from {Citizens_Registering_Authorities} and/or {Citizens_Banning_Authorities}",
        "params": {
          "removed_authority": "Address to remove from Authorities lists. "
        }
      },
      "Set_Citizen_Data(address,bytes)": {
        "details": "Modify the Data field of a Citizen. Only callable by Registering authorities",
        "params": {
          "citizen": "Citizen account to be modified",
          "data": "New Data field "
        }
      },
      "Set_Citizen_Mint_Amount(uint256)": {
        "details": "Setter for {New_Citizen_Mint_Amount} state variable",
        "params": {
          "amount": "New value of New_Citizen_Mint_Amount "
        }
      },
      "Set_Constitution(address)": {
        "details": "The function Allows to change the Constitution contract the current Institution obey to. The function is only callable by the {Constitution_Address}",
        "params": {
          "new_constitution": "Address of the new Constitution contract."
        }
      },
      "constructor": {
        "params": {
          "Initial_Citizens": "List of initial citizens ",
          "Name": "name of the Institution",
          "new_citizen_mint_amount": "Amount of token to mint for new registered accounts",
          "token_address": "Address of DemoCoin token that will be used to transfert initial token amount to new registered citizens "
        }
      }
    },
    "stateVariables": {
      "Citizens": {
        "details": "Mapping of all citizens of the DAO"
      },
      "Citizens_List": {
        "details": "list of all citizens of the DAO"
      },
      "Contains_Function_Selector": {
        "details": "function selector of {Contains} function. It's the selector other contracts have to use if they want to check if an address is citizen of the DAO"
      },
      "New_Citizen_Mint_Amount": {
        "details": "Amount of token to transfer to a new registered citizen."
      },
      "Permanently_Banned_Citizens": {
        "details": "List of accounts that have been Permanently banned and can not be added anymore (blacklist)"
      }
    },
    "version": 1
  },
  "userdoc": {
    "kind": "user",
    "methods": {
      "Add_Authority(address)": {
        "notice": "Add an account address to {Register_Authorities}"
      },
      "Constitution_Address()": {
        "notice": "Address of the constitution of the DAO"
      },
      "Get_Authorities()": {
        "notice": "Getter for {Register_Authorities}"
      },
      "Name()": {
        "notice": "Name of the institution"
      },
      "Type_Institution()": {
        "notice": "Type of the Institution"
      }
    },
    "version": 1
  }
}