{
  "contractName": "Citizens_Register",
  "abi": [
    {
      "inputs": [
        {
          "internalType": "string",
          "name": "Name",
          "type": "string"
        },
        {
          "internalType": "address[]",
          "name": "Initial_Citizens",
          "type": "address[]"
        },
        {
          "internalType": "address",
          "name": "token_address",
          "type": "address"
        },
        {
          "internalType": "uint256",
          "name": "new_citizen_mint_amount",
          "type": "uint256"
        }
      ],
      "stateMutability": "nonpayable",
      "type": "constructor"
    },
    {
      "anonymous": false,
      "inputs": [
        {
          "indexed": false,
          "internalType": "address",
          "name": "authority",
          "type": "address"
        }
      ],
      "name": "Authority_Added",
      "type": "event"
    },
    {
      "anonymous": false,
      "inputs": [
        {
          "indexed": false,
          "internalType": "address",
          "name": "authority",
          "type": "address"
        }
      ],
      "name": "Authority_Removed",
      "type": "event"
    },
    {
      "anonymous": false,
      "inputs": [
        {
          "indexed": false,
          "internalType": "address",
          "name": "authority",
          "type": "address"
        }
      ],
      "name": "Banning_Authority_Added",
      "type": "event"
    },
    {
      "anonymous": false,
      "inputs": [
        {
          "indexed": false,
          "internalType": "address",
          "name": "authority",
          "type": "address"
        }
      ],
      "name": "Banning_Authority_Removed",
      "type": "event"
    },
    {
      "anonymous": false,
      "inputs": [
        {
          "indexed": false,
          "internalType": "address",
          "name": "citizen_address",
          "type": "address"
        }
      ],
      "name": "Citizen_Ban_Over",
      "type": "event"
    },
    {
      "anonymous": false,
      "inputs": [
        {
          "indexed": false,
          "internalType": "address",
          "name": "citizen_address",
          "type": "address"
        }
      ],
      "name": "Citizen_Banned",
      "type": "event"
    },
    {
      "anonymous": false,
      "inputs": [
        {
          "indexed": false,
          "internalType": "address",
          "name": "citizen_address",
          "type": "address"
        }
      ],
      "name": "Citizen_Data_Set",
      "type": "event"
    },
    {
      "anonymous": false,
      "inputs": [
        {
          "indexed": false,
          "internalType": "address",
          "name": "citizen_address",
          "type": "address"
        }
      ],
      "name": "Citizen_Permanently_Banned",
      "type": "event"
    },
    {
      "anonymous": false,
      "inputs": [
        {
          "indexed": false,
          "internalType": "address",
          "name": "new_constitution",
          "type": "address"
        }
      ],
      "name": "Constitution_Changed",
      "type": "event"
    },
    {
      "anonymous": false,
      "inputs": [
        {
          "indexed": false,
          "internalType": "address",
          "name": "Address",
          "type": "address"
        },
        {
          "indexed": false,
          "internalType": "enum Institution.Institution_Type",
          "name": "Type",
          "type": "uint8"
        }
      ],
      "name": "Institution_Created",
      "type": "event"
    },
    {
      "anonymous": false,
      "inputs": [
        {
          "indexed": false,
          "internalType": "address",
          "name": "citizen_address",
          "type": "address"
        }
      ],
      "name": "New_Citizen",
      "type": "event"
    },
    {
      "anonymous": false,
      "inputs": [
        {
          "indexed": false,
          "internalType": "address",
          "name": "authority",
          "type": "address"
        }
      ],
      "name": "Registering_Authority_Added",
      "type": "event"
    },
    {
      "anonymous": false,
      "inputs": [
        {
          "indexed": false,
          "internalType": "address",
          "name": "authority",
          "type": "address"
        }
      ],
      "name": "Registering_Authority_Removed",
      "type": "event"
    },
    {
      "anonymous": false,
      "inputs": [
        {
          "indexed": false,
          "internalType": "uint256",
          "name": "new_citizen_mint_amount",
          "type": "uint256"
        }
      ],
      "name": "new_citizen_mint_amount_Set",
      "type": "event"
    },
    {
      "inputs": [
        {
          "internalType": "address",
          "name": "authority",
          "type": "address"
        }
      ],
      "name": "Add_Authority",
      "outputs": [],
      "stateMutability": "nonpayable",
      "type": "function"
    },
    {
      "inputs": [
        {
          "internalType": "address",
          "name": "",
          "type": "address"
        }
      ],
      "name": "Citizens",
      "outputs": [
        {
          "internalType": "bool",
          "name": "Active",
          "type": "bool"
        },
        {
          "internalType": "uint256",
          "name": "Registration_Timestamps",
          "type": "uint256"
        },
        {
          "internalType": "uint256",
          "name": "End_Ban_Timestamp",
          "type": "uint256"
        },
        {
          "internalType": "bytes",
          "name": "Data",
          "type": "bytes"
        }
      ],
      "stateMutability": "view",
      "type": "function",
      "constant": true
    },
    {
      "inputs": [],
      "name": "Constitution_Address",
      "outputs": [
        {
          "internalType": "address",
          "name": "",
          "type": "address"
        }
      ],
      "stateMutability": "view",
      "type": "function",
      "constant": true
    },
    {
      "inputs": [],
      "name": "Contains_Function_Selector",
      "outputs": [
        {
          "internalType": "bytes4",
          "name": "",
          "type": "bytes4"
        }
      ],
      "stateMutability": "view",
      "type": "function",
      "constant": true
    },
    {
      "inputs": [],
      "name": "Get_Authorities",
      "outputs": [
        {
          "internalType": "bytes32[]",
          "name": "",
          "type": "bytes32[]"
        }
      ],
      "stateMutability": "view",
      "type": "function",
      "constant": true
    },
    {
      "inputs": [],
      "name": "Name",
      "outputs": [
        {
          "internalType": "string",
          "name": "",
          "type": "string"
        }
      ],
      "stateMutability": "view",
      "type": "function",
      "constant": true
    },
    {
      "inputs": [],
      "name": "New_Citizen_Mint_Amount",
      "outputs": [
        {
          "internalType": "uint256",
          "name": "",
          "type": "uint256"
        }
      ],
      "stateMutability": "view",
      "type": "function",
      "constant": true
    },
    {
      "inputs": [
        {
          "internalType": "address",
          "name": "new_constitution",
          "type": "address"
        }
      ],
      "name": "Set_Constitution",
      "outputs": [],
      "stateMutability": "nonpayable",
      "type": "function"
    },
    {
      "inputs": [],
      "name": "Type_Institution",
      "outputs": [
        {
          "internalType": "enum Institution.Institution_Type",
          "name": "",
          "type": "uint8"
        }
      ],
      "stateMutability": "view",
      "type": "function",
      "constant": true
    },
    {
      "inputs": [
        {
          "internalType": "uint256",
          "name": "amount",
          "type": "uint256"
        }
      ],
      "name": "Set_Citizen_Mint_Amount",
      "outputs": [],
      "stateMutability": "nonpayable",
      "type": "function"
    },
    {
      "inputs": [
        {
          "internalType": "address",
          "name": "new_citizen",
          "type": "address"
        }
      ],
      "name": "Register_Citizen",
      "outputs": [],
      "stateMutability": "nonpayable",
      "type": "function"
    },
    {
      "inputs": [
        {
          "internalType": "address",
          "name": "citizen",
          "type": "address"
        },
        {
          "internalType": "bytes",
          "name": "data",
          "type": "bytes"
        }
      ],
      "name": "Set_Citizen_Data",
      "outputs": [],
      "stateMutability": "nonpayable",
      "type": "function"
    },
    {
      "inputs": [
        {
          "internalType": "address",
          "name": "citizen",
          "type": "address"
        },
        {
          "internalType": "uint256",
          "name": "duration",
          "type": "uint256"
        }
      ],
      "name": "Ban_Citizen",
      "outputs": [],
      "stateMutability": "nonpayable",
      "type": "function"
    },
    {
      "inputs": [
        {
          "internalType": "address",
          "name": "citizen",
          "type": "address"
        }
      ],
      "name": "Permanently_Ban_Citizen",
      "outputs": [],
      "stateMutability": "nonpayable",
      "type": "function"
    },
    {
      "inputs": [
        {
          "internalType": "address",
          "name": "citizen",
          "type": "address"
        }
      ],
      "name": "Grace_Citizen",
      "outputs": [],
      "stateMutability": "nonpayable",
      "type": "function"
    },
    {
      "inputs": [],
      "name": "Citizen_Finish_Ban",
      "outputs": [],
      "stateMutability": "nonpayable",
      "type": "function"
    },
    {
      "inputs": [
        {
          "internalType": "address",
          "name": "new_authority",
          "type": "address"
        }
      ],
      "name": "Add_Registering_Authority",
      "outputs": [],
      "stateMutability": "nonpayable",
      "type": "function"
    },
    {
      "inputs": [
        {
          "internalType": "address",
          "name": "new_authority",
          "type": "address"
        }
      ],
      "name": "Add_Banning_Authority",
      "outputs": [],
      "stateMutability": "nonpayable",
      "type": "function"
    },
    {
      "inputs": [
        {
          "internalType": "address",
          "name": "removed_authority",
          "type": "address"
        }
      ],
      "name": "Remove_Authority",
      "outputs": [],
      "stateMutability": "nonpayable",
      "type": "function"
    },
    {
      "inputs": [
        {
          "internalType": "address",
          "name": "citizen",
          "type": "address"
        }
      ],
      "name": "Contains",
      "outputs": [
        {
          "internalType": "bool",
          "name": "",
          "type": "bool"
        }
      ],
      "stateMutability": "view",
      "type": "function",
      "constant": true
    },
    {
      "inputs": [],
      "name": "Get_Citizen_Number",
      "outputs": [
        {
          "internalType": "uint256",
          "name": "",
          "type": "uint256"
        }
      ],
      "stateMutability": "view",
      "type": "function",
      "constant": true
    },
    {
      "inputs": [],
      "name": "Get_Citizens_List",
      "outputs": [
        {
          "internalType": "bytes32[]",
          "name": "",
          "type": "bytes32[]"
        }
      ],
      "stateMutability": "view",
      "type": "function",
      "constant": true
    },
    {
      "inputs": [],
      "name": "Get_Permanently_Banned_Citizens",
      "outputs": [
        {
          "internalType": "address[]",
          "name": "",
          "type": "address[]"
        }
      ],
      "stateMutability": "view",
      "type": "function",
      "constant": true
    },
    {
      "inputs": [],
      "name": "Get_Registering_Authorities",
      "outputs": [
        {
          "internalType": "bytes32[]",
          "name": "",
          "type": "bytes32[]"
        }
      ],
      "stateMutability": "view",
      "type": "function",
      "constant": true
    },
    {
      "inputs": [],
      "name": "Get_Banning_Authorities",
      "outputs": [
        {
          "internalType": "bytes32[]",
          "name": "",
          "type": "bytes32[]"
        }
      ],
      "stateMutability": "view",
      "type": "function",
      "constant": true
    }
  ],
  "bytecode": "0x60806040523480156200001157600080fd5b5060405162002262380380620022628339810160408190526200003491620003a1565b6001600081905584518591829162000052919060208401906200024b565b5050600280546001600160a01b03199081163390811760ff60a01b1916600160a01b17821617909155600980549091166001600160a01b03851617905550825160005b81811015620001b557600160056000878481518110620000c557634e487b7160e01b600052603260045260246000fd5b60200260200101516001600160a01b03166001600160a01b0316815260200190815260200160002060000160006101000a81548160ff02191690831515021790555042600560008784815181106200012d57634e487b7160e01b600052603260045260246000fd5b60200260200101516001600160a01b03166001600160a01b03168152602001908152602001600020600101819055506200019f8582815181106200018157634e487b7160e01b600052603260045260246000fd5b60200260200101516006620001c460201b620013c41790919060201c565b5080620001ac8162000509565b91505062000095565b5050600e555062000547915050565b6000620001db836001600160a01b038416620001e4565b90505b92915050565b6000620001f2838362000233565b6200022a57508154600181810184556000848152602080822090930184905584548482528286019093526040902091909155620001de565b506000620001de565b60009081526001919091016020526040902054151590565b8280546200025990620004cc565b90600052602060002090601f0160209004810192826200027d5760008555620002c8565b82601f106200029857805160ff1916838001178555620002c8565b82800160010185558215620002c8579182015b82811115620002c8578251825591602001919060010190620002ab565b50620002d6929150620002da565b5090565b5b80821115620002d65760008155600101620002db565b80516001600160a01b03811681146200030957600080fd5b919050565b600082601f8301126200031f578081fd5b815160206001600160401b038211156200033d576200033d62000531565b8082026200034d82820162000499565b83815282810190868401838801850189101562000368578687fd5b8693505b8584101562000395576200038081620002f1565b8352600193909301929184019184016200036c565b50979650505050505050565b60008060008060808587031215620003b7578384fd5b84516001600160401b0380821115620003ce578586fd5b818701915087601f830112620003e2578586fd5b815181811115620003f757620003f762000531565b60206200040d601f8301601f1916820162000499565b8281528a8284870101111562000421578889fd5b885b838110156200044057858101830151828201840152820162000423565b838111156200045157898385840101525b50908901519097509250508082111562000469578485fd5b5062000478878288016200030e565b9350506200048960408601620002f1565b6060959095015193969295505050565b604051601f8201601f191681016001600160401b0381118282101715620004c457620004c462000531565b604052919050565b600281046001821680620004e157607f821691505b602082108114156200050357634e487b7160e01b600052602260045260246000fd5b50919050565b60006000198214156200052a57634e487b7160e01b81526011600452602481fd5b5060010190565b634e487b7160e01b600052604160045260246000fd5b611d0b80620005576000396000f3fe608060405234801561001057600080fd5b50600436106101a35760003560e01c80635d511f26116100ee578063b9129aa211610097578063eb101b2311610071578063eb101b231461033f578063f77c794714610354578063fa91965f14610367578063fb252e2d1461036f576101a3565b8063b9129aa214610306578063d3a3e4a814610319578063d9cefdd11461032c576101a3565b806384e886e9116100c857806384e886e9146102d857806392e37832146102e0578063b18d743b146102f3576101a3565b80635d511f26146102a85780638052474d146102b0578063811a5c1f146102c5576101a3565b8063285b88221161015057806338df44b11161012a57806338df44b1146102625780633c289ea81461027557806357f98d3214610288576101a3565b8063285b8822146102305780632b7ea69014610245578063351425fb1461025a576101a3565b80631426984b116101815780631426984b146101e35780631b3dfe31146101f8578063254cc80a1461020d576101a3565b806302d4cd28146101a857806305ff1b36146101c6578063135f32f0146101db575b600080fd5b6101b0610382565b6040516101bd9190611829565b60405180910390f35b6101d96101d43660046116e7565b61039e565b005b6101d9610480565b6101eb610544565b6040516101bd91906118ca565b61020061059b565b6040516101bd9190611c1a565b61022061021b3660046116e7565b6105a1565b6040516101bd949392919061190d565b610238610658565b6040516101bd919061193e565b61024d61067c565b6040516101bd9190611870565b6101eb6106ea565b6101d96102703660046116e7565b61073f565b6101d96102833660046116e7565b61080d565b61029b6102963660046116e7565b61091b565b6040516101bd9190611902565b6101eb61094a565b6102b861099f565b6040516101bd91906119ac565b6101d96102d33660046117a8565b610a2d565b6101eb610ab3565b6101d96102ee36600461177f565b610b08565b6101d96103013660046116e7565b610c4a565b6101d96103143660046116e7565b610d93565b6101d96103273660046116e7565b610e99565b6101d961033a3660046116e7565b611055565b6103476111d2565b6040516101bd919061196b565b6101d9610362366004611701565b6111f3565b6102006112e5565b6101d961037d3660046116e7565b6112f6565b60025473ffffffffffffffffffffffffffffffffffffffff1681565b60025473ffffffffffffffffffffffffffffffffffffffff1633146103f8576040517f08c379a00000000000000000000000000000000000000000000000000000000081526004016103ef906119f6565b60405180910390fd5b610403600a826113ef565b1561043a576040517f08c379a00000000000000000000000000000000000000000000000000000000081526004016103ef90611a9b565b610445600a826113c4565b507f3b3a3ffd0eaef20640de63ebb415ec7655d62a221ba213bd61c46083024d0469816040516104759190611829565b60405180910390a150565b3360009081526005602052604090206002015480158015906104a25750428111155b6104d8576040517f08c379a00000000000000000000000000000000000000000000000000000000081526004016103ef90611b75565b3360008181526005602052604080822080547fffffffffffffffffffffffffffffffffffffffffffffffffffffffffffffff0016600117815560020191909155517f8590ee73b6cfa7443787cf93c61d6f74998e828acb25c3e0c6c2b7961d4648899161047591611829565b600a8054604080516020808402820181019092528281526060939092909183018282801561059157602002820191906000526020600020905b81548152602001906001019080831161057d575b5050505050905090565b600e5481565b600560205260009081526040902080546001820154600283015460038401805460ff9094169492939192916105d590611c52565b80601f016020809104026020016040519081016040528092919081815260200182805461060190611c52565b801561064e5780601f106106235761010080835404028352916020019161064e565b820191906000526020600020905b81548152906001019060200180831161063157829003601f168201915b5050505050905084565b7f57f98d320000000000000000000000000000000000000000000000000000000081565b6060600880548060200260200160405190810160405280929190818152602001828054801561059157602002820191906000526020600020905b815473ffffffffffffffffffffffffffffffffffffffff1681526001909101906020018083116106b6575050505050905090565b600c80546040805160208084028201810190925282815260609390929091830182828015610591576020028201919060005260206000209081548152602001906001019080831161057d575050505050905090565b60025473ffffffffffffffffffffffffffffffffffffffff163314610790576040517f08c379a00000000000000000000000000000000000000000000000000000000081526004016103ef906119f6565b61079b6003826113ef565b156107d2576040517f08c379a00000000000000000000000000000000000000000000000000000000081526004016103ef90611be3565b6107dd6003826113c4565b507f5211a48dd5dc810c959d67db85be9de1f52e475be92efb0f7c314b9bd361863d816040516104759190611829565b60025473ffffffffffffffffffffffffffffffffffffffff16331461085e576040517f08c379a00000000000000000000000000000000000000000000000000000000081526004016103ef906119f6565b73ffffffffffffffffffffffffffffffffffffffff81166108ab576040517f08c379a00000000000000000000000000000000000000000000000000000000081526004016103ef90611a64565b600280547fffffffffffffffffffffffff00000000000000000000000000000000000000001673ffffffffffffffffffffffffffffffffffffffff83161790556040517feaf9201ae5a091c46918bca9c5ced3b9aa103362b0a68a1f36b9f2858b0a4c1490610475908390611829565b73ffffffffffffffffffffffffffffffffffffffff811660009081526005602052604090205460ff165b919050565b600680546040805160208084028201810190925282815260609390929091830182828015610591576020028201919060005260206000209081548152602001906001019080831161057d575050505050905090565b600180546109ac90611c52565b80601f01602080910402602001604051908101604052809291908181526020018280546109d890611c52565b8015610a255780601f106109fa57610100808354040283529160200191610a25565b820191906000526020600020905b815481529060010190602001808311610a0857829003601f168201915b505050505081565b60025473ffffffffffffffffffffffffffffffffffffffff163314610a7e576040517f08c379a00000000000000000000000000000000000000000000000000000000081526004016103ef906119f6565b600e8190556040517f85c1721b92305f7fac531bd689924a9657d7cc1be6971fa440c9d936885a42ee90610475908390611c1a565b600380546040805160208084028201810190925282815260609390929091830182828015610591576020028201919060005260206000209081548152602001906001019080831161057d575050505050905090565b610b13600c336113ef565b610b49576040517f08c379a00000000000000000000000000000000000000000000000000000000081526004016103ef906119bf565b610b546006836113ef565b610b8a576040517f08c379a00000000000000000000000000000000000000000000000000000000081526004016103ef90611b3e565b73ffffffffffffffffffffffffffffffffffffffff8216600090815260056020526040902080547fffffffffffffffffffffffffffffffffffffffffffffffffffffffffffffff001690558015610c0f57610be54282611c23565b73ffffffffffffffffffffffffffffffffffffffff83166000908152600560205260409020600201555b7ff178fd2db5e7d9542a330073dab1ddf09afbae272bc48f60d9cf9b5ce431028182604051610c3e9190611829565b60405180910390a15050565b3373ffffffffffffffffffffffffffffffffffffffff82161480610c85575060025473ffffffffffffffffffffffffffffffffffffffff1633145b610cbb576040517f08c379a00000000000000000000000000000000000000000000000000000000081526004016103ef90611ad2565b610cc6600a826113ef565b15610d1357610cd6600a82611411565b507ff4ee9ba8dd68b19cc51b379977fd66307ecb2f08e9773e87fbbac747dd259bab81604051610d069190611829565b60405180910390a1610d90565b610d1e600c826113ef565b15610d5e57610d2e600c82611411565b507f49051cb44fa45f6fc1fa9f98da77ff75674d673a0c4de0e9859e3f754cf7615b81604051610d069190611829565b6040517f08c379a00000000000000000000000000000000000000000000000000000000081526004016103ef90611b07565b50565b610d9e600c336113ef565b610dd4576040517f08c379a00000000000000000000000000000000000000000000000000000000081526004016103ef906119bf565b610ddf6006826113ef565b610e15576040517f08c379a00000000000000000000000000000000000000000000000000000000081526004016103ef90611b3e565b73ffffffffffffffffffffffffffffffffffffffff811660009081526005602052604080822080547fffffffffffffffffffffffffffffffffffffffffffffffffffffffffffffff0016600117815560020191909155517f8590ee73b6cfa7443787cf93c61d6f74998e828acb25c3e0c6c2b7961d46488990610475908390611829565b610ea4600a336113ef565b610eda576040517f08c379a00000000000000000000000000000000000000000000000000000000081526004016103ef90611a2d565b73ffffffffffffffffffffffffffffffffffffffff811660009081526005602052604090206001015415610f3a576040517f08c379a00000000000000000000000000000000000000000000000000000000081526004016103ef90611bac565b73ffffffffffffffffffffffffffffffffffffffff8116600090815260056020526040902080547fffffffffffffffffffffffffffffffffffffffffffffffffffffffffffffff00166001908117825542910155610f996006826113c4565b50600954600e546040517f0f6798a500000000000000000000000000000000000000000000000000000000815273ffffffffffffffffffffffffffffffffffffffff90921691630f6798a591610ff49185919060040161184a565b600060405180830381600087803b15801561100e57600080fd5b505af1158015611022573d6000803e3d6000fd5b505050507f6dfe81d8062c9f735968fde00c9fff698e00bea5c1144c2099ddb3553c5a6fa3816040516104759190611829565b611060600c336113ef565b611096576040517f08c379a00000000000000000000000000000000000000000000000000000000081526004016103ef906119bf565b6110a16006826113ef565b6110d7576040517f08c379a00000000000000000000000000000000000000000000000000000000081526004016103ef90611b3e565b73ffffffffffffffffffffffffffffffffffffffff8116600090815260056020526040812080547fffffffffffffffffffffffffffffffffffffffffffffffffffffffffffffff0016815560020155611131600682611411565b50600880546001810182556000919091527ff3f7a9fe364faab93b216da50a3214154f22a0a2b415b23a84c8169e8b636ee30180547fffffffffffffffffffffffff00000000000000000000000000000000000000001673ffffffffffffffffffffffffffffffffffffffff83161790556040517f72515366405ed805b9053c4a3d658ac9b13770991df5d567f34d8404b227c90e90610475908390611829565b60025474010000000000000000000000000000000000000000900460ff1681565b6111fe600a336113ef565b611234576040517f08c379a00000000000000000000000000000000000000000000000000000000081526004016103ef90611a2d565b61123f6006846113ef565b611275576040517f08c379a00000000000000000000000000000000000000000000000000000000081526004016103ef90611b3e565b73ffffffffffffffffffffffffffffffffffffffff831660009081526005602052604090206112a890600301838361160c565b507fe7563b3daca8439b21ecef2841e2d4669a1dfbfff83d64b8cc8d9770f544dd3d836040516112d89190611829565b60405180910390a1505050565b60006112f16006611433565b905090565b60025473ffffffffffffffffffffffffffffffffffffffff163314611347576040517f08c379a00000000000000000000000000000000000000000000000000000000081526004016103ef906119f6565b611352600c826113ef565b15611389576040517f08c379a00000000000000000000000000000000000000000000000000000000081526004016103ef90611a9b565b611394600c826113c4565b507fc50b4cd7fcee2d8c1334111c3265796780311e5e77b29dd52f38ae5f8f120a61816040516104759190611829565b60006113e68373ffffffffffffffffffffffffffffffffffffffff841661143e565b90505b92915050565b60006113e68373ffffffffffffffffffffffffffffffffffffffff8416611488565b60006113e68373ffffffffffffffffffffffffffffffffffffffff84166114a0565b60006113e982611608565b600061144a8383611488565b611480575081546001818101845560008481526020808220909301849055845484825282860190935260409020919091556113e9565b5060006113e9565b60009081526001919091016020526040902054151590565b600081815260018301602052604081205480156115fe5760006114c4600183611c3b565b85549091506000906114d890600190611c3b565b90506000866000018281548110611518577f4e487b7100000000000000000000000000000000000000000000000000000000600052603260045260246000fd5b9060005260206000200154905080876000018481548110611562577f4e487b7100000000000000000000000000000000000000000000000000000000600052603260045260246000fd5b600091825260209091200155611579836001611c23565b600082815260018901602052604090205586548790806115c2577f4e487b7100000000000000000000000000000000000000000000000000000000600052603160045260246000fd5b600190038181906000526020600020016000905590558660010160008781526020019081526020016000206000905560019450505050506113e9565b60009150506113e9565b5490565b82805461161890611c52565b90600052602060002090601f01602090048101928261163a576000855561169e565b82601f10611671578280017fffffffffffffffffffffffffffffffffffffffffffffffffffffffffffffff0082351617855561169e565b8280016001018555821561169e579182015b8281111561169e578235825591602001919060010190611683565b506116aa9291506116ae565b5090565b5b808211156116aa57600081556001016116af565b803573ffffffffffffffffffffffffffffffffffffffff8116811461094557600080fd5b6000602082840312156116f8578081fd5b6113e6826116c3565b600080600060408486031215611715578182fd5b61171e846116c3565b9250602084013567ffffffffffffffff8082111561173a578384fd5b818601915086601f83011261174d578384fd5b81358181111561175b578485fd5b87602082850101111561176c578485fd5b6020830194508093505050509250925092565b60008060408385031215611791578182fd5b61179a836116c3565b946020939093013593505050565b6000602082840312156117b9578081fd5b5035919050565b60008151808452815b818110156117e5576020818501810151868301820152016117c9565b818111156117f65782602083870101525b50601f017fffffffffffffffffffffffffffffffffffffffffffffffffffffffffffffffe0169290920160200192915050565b73ffffffffffffffffffffffffffffffffffffffff91909116815260200190565b73ffffffffffffffffffffffffffffffffffffffff929092168252602082015260400190565b6020808252825182820181905260009190848201906040850190845b818110156118be57835173ffffffffffffffffffffffffffffffffffffffff168352928401929184019160010161188c565b50909695505050505050565b6020808252825182820181905260009190848201906040850190845b818110156118be578351835292840192918401916001016118e6565b901515815260200190565b600085151582528460208301528360408301526080606083015261193460808301846117c0565b9695505050505050565b7fffffffff0000000000000000000000000000000000000000000000000000000091909116815260200190565b60208101600783106119a6577f4e487b7100000000000000000000000000000000000000000000000000000000600052602160045260246000fd5b91905290565b6000602082526113e660208301846117c0565b60208082526016908201527f42616e6e696e6720417574686f72697479204f6e6c7900000000000000000000604082015260600190565b60208082526011908201527f436f6e737469747574696f6e204f6e6c79000000000000000000000000000000604082015260600190565b6020808252601a908201527f5265676973746572696e6720417574686f72697479204f6e6c79000000000000604082015260600190565b60208082526009908201527f4164647265737320300000000000000000000000000000000000000000000000604082015260600190565b6020808252601a908201527f416c7265616479204578697374696e6720417574686f72697479000000000000604082015260600190565b6020808252818101527f4e6f7420416c6c6f7765642052656d6f76696e6720417574686f726974696573604082015260600190565b60208082526016908201527f4e6f74206578697374696e6720617574686f7269747900000000000000000000604082015260600190565b60208082526016908201527f4e6f74205265676973746572656420436974697a656e00000000000000000000604082015260600190565b6020808252601c908201527f42616e206e6f74206f76657220286f72206e6f742062616e6e65642900000000604082015260600190565b6020808252601e908201527f416c726561647920526567697374657265642f42616e20436974697a656e0000604082015260600190565b6020808252601a908201527f416c7265616479206578697374696e6720617574686f72697479000000000000604082015260600190565b90815260200190565b60008219821115611c3657611c36611ca6565b500190565b600082821015611c4d57611c4d611ca6565b500390565b600281046001821680611c6657607f821691505b60208210811415611ca0577f4e487b7100000000000000000000000000000000000000000000000000000000600052602260045260246000fd5b50919050565b7f4e487b7100000000000000000000000000000000000000000000000000000000600052601160045260246000fdfea2646970667358221220c165850543757f2df4eac7fc26afaa39e96786b1311e8cc6228191b4601bc59464736f6c63430008010033",
  "immutableReferences": {},
  "source": "// SPDX-License-Identifier: MIT\npragma solidity ^0.8.0;\n\n//import \"Register.sol\";\nimport \"contracts/Register.sol\";\n\ncontract Citizens_Register is Register{\n     using EnumerableSet for EnumerableSet.AddressSet;\n     \n     struct Citizen{\n         bool Active;\n         uint Registration_Timestamps;\n         uint End_Ban_Timestamp;\n         bytes Data;\n     }\n     \n     event New_Citizen(address citizen_address);\n     event Citizen_Data_Set(address citizen_address);\n     event Citizen_Banned(address citizen_address);\n     event Citizen_Permanently_Banned(address citizen_address);\n     event Citizen_Ban_Over(address citizen_address);\n     event new_citizen_mint_amount_Set(uint new_citizen_mint_amount);\n     event Registering_Authority_Added(address authority);\n     event Banning_Authority_Added(address authority);\n     event Registering_Authority_Removed(address authority);\n     event Banning_Authority_Removed(address authority);\n     \n     bytes4 constant public Contains_Function_Selector = 0x57f98d32;\n     \n     mapping(address=>Citizen) public Citizens;\n     EnumerableSet.AddressSet Citizens_List;\n     address[] Permanently_Banned_Citizens;\n     \n     DemoCoin Democoin;\n     \n     EnumerableSet.AddressSet Citizens_Registering_Authorities;\n     EnumerableSet.AddressSet Citizens_Banning_Authorities;\n     \n     uint public New_Citizen_Mint_Amount; //Each new citizen get \"New_Citizen_Mint_Amount\" token that are mint.\n    \n     constructor(string memory Name, address[] memory Initial_Citizens, address token_address, uint new_citizen_mint_amount) Register(Name){\n         Type_Institution = Institution_Type.CITIZENS_REGISTRATION;\n         Constitution_Address = msg.sender;\n         \n         Democoin = DemoCoin(token_address);\n         \n         uint citizens_number = Initial_Citizens.length;\n         \n         for(uint i =0; i<citizens_number; i++){\n             Citizens[Initial_Citizens[i]].Active = true;\n             Citizens[Initial_Citizens[i]].Registration_Timestamps = block.timestamp;\n             Citizens_List.add(Initial_Citizens[i]);\n             \n         }\n         \n         New_Citizen_Mint_Amount = new_citizen_mint_amount;\n     }\n     \n     \n     function Set_Citizen_Mint_Amount(uint amount)external Constitution_Only{\n         New_Citizen_Mint_Amount = amount;\n         emit new_citizen_mint_amount_Set(amount);\n     }\n     \n     function Register_Citizen(address new_citizen) external{\n         require(Citizens_Registering_Authorities.contains(msg.sender), \"Registering Authority Only\");\n         require(Citizens[new_citizen].Registration_Timestamps ==0, \"Already Registered/Ban Citizen\");\n         Citizens[new_citizen].Active = true;\n         Citizens[new_citizen].Registration_Timestamps = block.timestamp;\n         Citizens_List.add(new_citizen);\n         \n         Democoin.Mint(new_citizen, New_Citizen_Mint_Amount);\n         \n         emit New_Citizen(new_citizen);\n     }\n     \n     /*function Register_Citizen(address new_citizen, bytes calldata data)external{\n         require(msg.sender ==  Citizens_Registering_Authority, \"Registering Authority Only\");\n         require(!Citizens_List.contains(new_citizen), \"Already Registered Citizen\");\n         Citizens[new_citizen].Active = true;\n         Citizens[new_citizen].Data = data;\n         Citizens_List.add(new_citizen);\n     }*/\n     \n     function Set_Citizen_Data(address citizen, bytes calldata data)external{\n         require(Citizens_Registering_Authorities.contains(msg.sender), \"Registering Authority Only\");\n         require(Citizens_List.contains(citizen), \"Not Registered Citizen\");\n         Citizens[citizen].Data = data;\n         \n         Citizen_Data_Set(citizen);\n     }\n     \n     function Ban_Citizen(address citizen, uint duration)external{\n         require(Citizens_Banning_Authorities.contains(msg.sender), \"Banning Authority Only\");\n         require(Citizens_List.contains(citizen), \"Not Registered Citizen\");\n         Citizens[citizen].Active=false;\n         if(duration>0){\n             Citizens[citizen].End_Ban_Timestamp = duration+block.timestamp;\n         }\n         \n         emit Citizen_Banned(citizen);\n     }\n     \n     function Permanently_Ban_Citizen(address citizen)external{\n         require(Citizens_Banning_Authorities.contains(msg.sender), \"Banning Authority Only\");\n         require(Citizens_List.contains(citizen), \"Not Registered Citizen\");\n         Citizens[citizen].Active=false;\n         Citizens[citizen].End_Ban_Timestamp=0;\n         Citizens_List.remove(citizen);\n         Permanently_Banned_Citizens.push(citizen);\n         \n         emit Citizen_Permanently_Banned(citizen);\n     }\n     \n     function Grace_Citizen(address citizen)external{\n         require(Citizens_Banning_Authorities.contains(msg.sender), \"Banning Authority Only\");\n         require(Citizens_List.contains(citizen), \"Not Registered Citizen\");\n         \n         Citizens[citizen].Active=true;\n         Citizens[citizen].End_Ban_Timestamp=0;\n         \n         emit Citizen_Ban_Over(citizen);\n     }\n     \n     function Citizen_Finish_Ban()external{\n         uint end_ban_timestamp = Citizens[msg.sender].End_Ban_Timestamp;\n         require(end_ban_timestamp>0 && end_ban_timestamp <= block.timestamp, \"Ban not over (or not banned)\");\n         Citizens[msg.sender].Active = true;\n         Citizens[msg.sender].End_Ban_Timestamp=0;\n         \n         emit Citizen_Ban_Over(msg.sender);\n     }\n     \n     \n     \n     \n     \n     /*Constitution Only functions*/\n     \n     function Add_Registering_Authority(address new_authority)external Constitution_Only{\n         require(!Citizens_Registering_Authorities.contains(new_authority), \"Already Existing Authority\");\n         Citizens_Registering_Authorities.add(new_authority);\n         emit Registering_Authority_Added(new_authority);\n     }\n     \n     /*function Remove_Registering_Authority(address removed_authority)external Constitution_Only{\n         require(Citizens_Registering_Authorities.contains(removed_authority), \"Not Existing Authority\");\n         Citizens_Registering_Authorities.remove(removed_authority);\n     }*/\n     \n     function Add_Banning_Authority(address new_authority)external Constitution_Only{\n         require(!Citizens_Banning_Authorities.contains(new_authority), \"Already Existing Authority\");\n         Citizens_Banning_Authorities.add(new_authority);\n         emit Banning_Authority_Added(new_authority);\n     }\n     \n     /*function Remove_Banning_Authority(address removed_authority)external Constitution_Only{\n         require(Citizens_Banning_Authorities.contains(removed_authority), \"Not Existing Authority\");\n         Citizens_Banning_Authorities.remove(removed_authority);\n     }*/\n    \n    function Remove_Authority(address removed_authority) override external{\n         require(msg.sender == removed_authority || msg.sender == Constitution_Address, \"Not Allowed Removing Authorities\");\n         if(Citizens_Registering_Authorities.contains(removed_authority)){\n             Citizens_Registering_Authorities.remove(removed_authority);\n             emit Registering_Authority_Removed(removed_authority);\n         }else if(Citizens_Banning_Authorities.contains(removed_authority)){\n             Citizens_Banning_Authorities.remove(removed_authority);\n             emit Banning_Authority_Removed(removed_authority);\n         }else{\n            revert(\"Not existing authority\");\n         }\n     }\n    \n    /*GETTER*/\n    \n    function Contains(address citizen)external view returns(bool){\n         return Citizens[citizen].Active;\n     }\n     \n    function Get_Citizen_Number()external view returns(uint){\n        return Citizens_List.length();\n    }\n    \n    function Get_Citizens_List() external view returns(bytes32[] memory){\n        return Citizens_List._inner._values;\n    }\n    \n    function Get_Permanently_Banned_Citizens() external view returns(address[] memory){\n        return Permanently_Banned_Citizens;\n    }\n    \n    function Get_Registering_Authorities() external view returns(bytes32[] memory){\n        return Citizens_Registering_Authorities._inner._values;\n    }\n    \n    function Get_Banning_Authorities() external view returns(bytes32[] memory){\n        return Citizens_Banning_Authorities._inner._values;\n    }\n     \n}",
  "sourcePath": "/home/andrei/Alyra/Web3_Referendum/contracts/Citizens_Register.sol",
  "compiler": {
    "name": "solc",
    "version": "0.8.1+commit.df193b15.Emscripten.clang"
  },
  "schemaVersion": "3.3.1",
  "updatedAt": "2021-04-26T09:39:51.256Z",
  "networkType": "ethereum",
  "devdoc": {
    "kind": "dev",
    "methods": {
      "Add_Authority(address)": {
        "params": {
          "authority": "address to add to the {Register_Authorities} "
        }
      },
      "Get_Authorities()": {
        "returns": {
          "_0": "return address registered in the {Register_Authorities}"
        }
      },
      "Set_Constitution(address)": {
        "details": "The function Allows to change the Constitution contract the current Institution obey to. The function is only callable by the {Constitution_Address}",
        "params": {
          "new_constitution": "Address of the new Constitution contract."
        }
      }
    },
    "version": 1
  },
  "userdoc": {
    "kind": "user",
    "methods": {
      "Add_Authority(address)": {
        "notice": "Add an account address to {Register_Authorities}"
      },
      "Constitution_Address()": {
        "notice": "Address of the constitution of the DAO"
      },
      "Get_Authorities()": {
        "notice": "Getter for {Register_Authorities}"
      },
      "Name()": {
        "notice": "Name of the institution"
      },
      "Type_Institution()": {
        "notice": "Type of the Institution"
      }
    },
    "version": 1
  }
}