{
  "contractName": "Constitution",
  "abi": [
    {
      "inputs": [
        {
          "internalType": "string",
          "name": "Constitution_Name",
          "type": "string"
        },
        {
          "internalType": "address",
          "name": "DemoCoin_Address",
          "type": "address"
        },
        {
          "internalType": "address",
          "name": "Citizen_Address",
          "type": "address"
        },
        {
          "internalType": "address",
          "name": "Agora_Address",
          "type": "address"
        },
        {
          "internalType": "address",
          "name": "transition_government",
          "type": "address"
        }
      ],
      "stateMutability": "nonpayable",
      "type": "constructor"
    },
    {
      "anonymous": false,
      "inputs": [
        {
          "indexed": false,
          "internalType": "address",
          "name": "authority",
          "type": "address"
        }
      ],
      "name": "Authority_Added",
      "type": "event"
    },
    {
      "anonymous": false,
      "inputs": [
        {
          "indexed": false,
          "internalType": "address",
          "name": "authority",
          "type": "address"
        }
      ],
      "name": "Authority_Removed",
      "type": "event"
    },
    {
      "anonymous": false,
      "inputs": [
        {
          "indexed": false,
          "internalType": "address",
          "name": "new_constitution",
          "type": "address"
        }
      ],
      "name": "Constitution_Changed",
      "type": "event"
    },
    {
      "anonymous": false,
      "inputs": [
        {
          "indexed": false,
          "internalType": "address",
          "name": "delegation",
          "type": "address"
        }
      ],
      "name": "Delegation_Created",
      "type": "event"
    },
    {
      "anonymous": false,
      "inputs": [
        {
          "indexed": false,
          "internalType": "address",
          "name": "Address",
          "type": "address"
        },
        {
          "indexed": false,
          "internalType": "enum Institution.Institution_Type",
          "name": "Type",
          "type": "uint8"
        }
      ],
      "name": "Institution_Created",
      "type": "event"
    },
    {
      "anonymous": false,
      "inputs": [],
      "name": "Name_Changed",
      "type": "event"
    },
    {
      "anonymous": false,
      "inputs": [
        {
          "indexed": false,
          "internalType": "address",
          "name": "register",
          "type": "address"
        }
      ],
      "name": "Register_Created",
      "type": "event"
    },
    {
      "anonymous": false,
      "inputs": [],
      "name": "Transitional_Government_Finised",
      "type": "event"
    },
    {
      "inputs": [
        {
          "internalType": "address",
          "name": "authority",
          "type": "address"
        }
      ],
      "name": "Add_Authority",
      "outputs": [],
      "stateMutability": "nonpayable",
      "type": "function"
    },
    {
      "inputs": [],
      "name": "Agora_Instance",
      "outputs": [
        {
          "internalType": "contract Agora",
          "name": "",
          "type": "address"
        }
      ],
      "stateMutability": "view",
      "type": "function",
      "constant": true
    },
    {
      "inputs": [],
      "name": "Citizen_Instance",
      "outputs": [
        {
          "internalType": "contract Citizens_Register",
          "name": "",
          "type": "address"
        }
      ],
      "stateMutability": "view",
      "type": "function",
      "constant": true
    },
    {
      "inputs": [],
      "name": "Constitution_Address",
      "outputs": [
        {
          "internalType": "address",
          "name": "",
          "type": "address"
        }
      ],
      "stateMutability": "view",
      "type": "function",
      "constant": true
    },
    {
      "inputs": [],
      "name": "Democoin_Instance",
      "outputs": [
        {
          "internalType": "contract DemoCoin",
          "name": "",
          "type": "address"
        }
      ],
      "stateMutability": "view",
      "type": "function",
      "constant": true
    },
    {
      "inputs": [],
      "name": "Get_Authorities",
      "outputs": [
        {
          "internalType": "bytes32[]",
          "name": "",
          "type": "bytes32[]"
        }
      ],
      "stateMutability": "view",
      "type": "function",
      "constant": true
    },
    {
      "inputs": [],
      "name": "Name",
      "outputs": [
        {
          "internalType": "string",
          "name": "",
          "type": "string"
        }
      ],
      "stateMutability": "view",
      "type": "function",
      "constant": true
    },
    {
      "inputs": [
        {
          "internalType": "address",
          "name": "authority",
          "type": "address"
        }
      ],
      "name": "Remove_Authority",
      "outputs": [],
      "stateMutability": "nonpayable",
      "type": "function"
    },
    {
      "inputs": [
        {
          "internalType": "address",
          "name": "new_constitution",
          "type": "address"
        }
      ],
      "name": "Set_Constitution",
      "outputs": [],
      "stateMutability": "nonpayable",
      "type": "function"
    },
    {
      "inputs": [
        {
          "internalType": "string",
          "name": "name",
          "type": "string"
        }
      ],
      "name": "Set_Name",
      "outputs": [],
      "stateMutability": "nonpayable",
      "type": "function"
    },
    {
      "inputs": [],
      "name": "Transitional_Government",
      "outputs": [
        {
          "internalType": "address",
          "name": "",
          "type": "address"
        }
      ],
      "stateMutability": "view",
      "type": "function",
      "constant": true
    },
    {
      "inputs": [],
      "name": "Type_Institution",
      "outputs": [
        {
          "internalType": "enum Institution.Institution_Type",
          "name": "",
          "type": "uint8"
        }
      ],
      "stateMutability": "view",
      "type": "function",
      "constant": true
    },
    {
      "inputs": [],
      "name": "End_Transition_Government",
      "outputs": [],
      "stateMutability": "nonpayable",
      "type": "function"
    },
    {
      "inputs": [
        {
          "internalType": "address",
          "name": "register",
          "type": "address"
        },
        {
          "internalType": "address",
          "name": "authority",
          "type": "address"
        }
      ],
      "name": "Add_Register_Authority",
      "outputs": [],
      "stateMutability": "nonpayable",
      "type": "function"
    },
    {
      "inputs": [
        {
          "internalType": "address",
          "name": "register",
          "type": "address"
        },
        {
          "internalType": "address",
          "name": "authority",
          "type": "address"
        }
      ],
      "name": "Remove_Register_Authority",
      "outputs": [],
      "stateMutability": "nonpayable",
      "type": "function"
    },
    {
      "inputs": [
        {
          "internalType": "address",
          "name": "instance_address",
          "type": "address"
        },
        {
          "internalType": "address",
          "name": "new_address",
          "type": "address"
        }
      ],
      "name": "Set_Instances_Constitution",
      "outputs": [],
      "stateMutability": "nonpayable",
      "type": "function"
    },
    {
      "inputs": [
        {
          "internalType": "address",
          "name": "instance_address",
          "type": "address"
        },
        {
          "internalType": "string",
          "name": "name",
          "type": "string"
        }
      ],
      "name": "Set_Institution_Name",
      "outputs": [],
      "stateMutability": "nonpayable",
      "type": "function"
    },
    {
      "inputs": [
        {
          "internalType": "address[]",
          "name": "Add_Minter",
          "type": "address[]"
        },
        {
          "internalType": "address[]",
          "name": "Remove_Minter",
          "type": "address[]"
        }
      ],
      "name": "Set_Minnter",
      "outputs": [],
      "stateMutability": "nonpayable",
      "type": "function"
    },
    {
      "inputs": [
        {
          "internalType": "address[]",
          "name": "Add_Burner",
          "type": "address[]"
        },
        {
          "internalType": "address[]",
          "name": "Remove_Burner",
          "type": "address[]"
        }
      ],
      "name": "Set_Burner",
      "outputs": [],
      "stateMutability": "nonpayable",
      "type": "function"
    },
    {
      "inputs": [
        {
          "internalType": "uint256",
          "name": "amount",
          "type": "uint256"
        }
      ],
      "name": "Set_Citizen_Mint_Amount",
      "outputs": [],
      "stateMutability": "nonpayable",
      "type": "function"
    },
    {
      "inputs": [
        {
          "internalType": "address",
          "name": "removed_authority",
          "type": "address"
        }
      ],
      "name": "Citizen_Register_Remove_Authority",
      "outputs": [],
      "stateMutability": "nonpayable",
      "type": "function"
    },
    {
      "inputs": [
        {
          "internalType": "address",
          "name": "new_authority",
          "type": "address"
        }
      ],
      "name": "Add_Registering_Authority",
      "outputs": [],
      "stateMutability": "nonpayable",
      "type": "function"
    },
    {
      "inputs": [
        {
          "internalType": "address",
          "name": "new_authority",
          "type": "address"
        }
      ],
      "name": "Add_Banning_Authority",
      "outputs": [],
      "stateMutability": "nonpayable",
      "type": "function"
    },
    {
      "inputs": [
        {
          "internalType": "string",
          "name": "Name",
          "type": "string"
        },
        {
          "internalType": "uint8",
          "name": "register_type",
          "type": "uint8"
        },
        {
          "internalType": "uint256",
          "name": "Petition_Duration",
          "type": "uint256"
        },
        {
          "internalType": "uint256",
          "name": "Vote_Duration",
          "type": "uint256"
        },
        {
          "internalType": "uint256",
          "name": "Vote_Checking_Duration",
          "type": "uint256"
        },
        {
          "internalType": "uint256",
          "name": "Law_Initialisation_Price",
          "type": "uint256"
        },
        {
          "internalType": "uint256",
          "name": "FunctionCall_Price",
          "type": "uint256"
        },
        {
          "internalType": "uint16",
          "name": "Required_Petition_Rate",
          "type": "uint16"
        },
        {
          "internalType": "address",
          "name": "Ivote_address",
          "type": "address"
        }
      ],
      "name": "Create_Register",
      "outputs": [],
      "stateMutability": "nonpayable",
      "type": "function"
    },
    {
      "inputs": [
        {
          "internalType": "address",
          "name": "register_address",
          "type": "address"
        },
        {
          "internalType": "uint256",
          "name": "Petition_Duration",
          "type": "uint256"
        },
        {
          "internalType": "uint256",
          "name": "Vote_Duration",
          "type": "uint256"
        },
        {
          "internalType": "uint256",
          "name": "Vote_Checking_Duration",
          "type": "uint256"
        },
        {
          "internalType": "uint256",
          "name": "Law_Initialisation_Price",
          "type": "uint256"
        },
        {
          "internalType": "uint256",
          "name": "FunctionCall_Price",
          "type": "uint256"
        },
        {
          "internalType": "uint16",
          "name": "Required_Petition_Rate",
          "type": "uint16"
        },
        {
          "internalType": "address",
          "name": "Ivote_address",
          "type": "address"
        }
      ],
      "name": "Set_Register_Param",
      "outputs": [],
      "stateMutability": "nonpayable",
      "type": "function"
    },
    {
      "inputs": [
        {
          "internalType": "string",
          "name": "Name",
          "type": "string"
        },
        {
          "internalType": "address",
          "name": "delegation_address",
          "type": "address"
        },
        {
          "internalType": "uint256[6]",
          "name": "Uint256_Legislatifs_Arg",
          "type": "uint256[6]"
        },
        {
          "internalType": "uint256[5]",
          "name": "Uint256_Governance_Arg",
          "type": "uint256[5]"
        },
        {
          "internalType": "uint16",
          "name": "Num_Max_Members",
          "type": "uint16"
        },
        {
          "internalType": "uint16",
          "name": "Revert_Proposition_Petition_Rate",
          "type": "uint16"
        },
        {
          "internalType": "uint16",
          "name": "Revert_Penalty_Rate",
          "type": "uint16"
        },
        {
          "internalType": "uint16",
          "name": "New_Election_Petition_Rate",
          "type": "uint16"
        },
        {
          "internalType": "address[]",
          "name": "Initial_members",
          "type": "address[]"
        },
        {
          "internalType": "address",
          "name": "Ivote_address_legislatif",
          "type": "address"
        },
        {
          "internalType": "address",
          "name": "Ivote_address_governance",
          "type": "address"
        }
      ],
      "name": "Create_Delegation",
      "outputs": [],
      "stateMutability": "nonpayable",
      "type": "function"
    },
    {
      "inputs": [
        {
          "internalType": "address",
          "name": "delegation_address",
          "type": "address"
        },
        {
          "internalType": "address",
          "name": "new_controled_register",
          "type": "address"
        }
      ],
      "name": "Add_Delegation_Controled_Register",
      "outputs": [],
      "stateMutability": "nonpayable",
      "type": "function"
    },
    {
      "inputs": [
        {
          "internalType": "address",
          "name": "delegation_address",
          "type": "address"
        },
        {
          "internalType": "address",
          "name": "removed_controled_register",
          "type": "address"
        }
      ],
      "name": "Remove_Delegation_Controled_Register",
      "outputs": [],
      "stateMutability": "nonpayable",
      "type": "function"
    },
    {
      "inputs": [
        {
          "internalType": "address",
          "name": "delegation_address",
          "type": "address"
        },
        {
          "internalType": "uint256[6]",
          "name": "Uint256_Legislatifs_Arg",
          "type": "uint256[6]"
        },
        {
          "internalType": "uint16",
          "name": "Revert_Proposition_Petition_Rate",
          "type": "uint16"
        },
        {
          "internalType": "uint16",
          "name": "Revert_Penalty_Rate",
          "type": "uint16"
        },
        {
          "internalType": "address",
          "name": "Ivote_address",
          "type": "address"
        }
      ],
      "name": "Set_Delegation_Legislatif_Process",
      "outputs": [],
      "stateMutability": "nonpayable",
      "type": "function"
    },
    {
      "inputs": [
        {
          "internalType": "address",
          "name": "delegation_address",
          "type": "address"
        },
        {
          "internalType": "uint256",
          "name": "Election_Duration",
          "type": "uint256"
        },
        {
          "internalType": "uint256",
          "name": "Validation_Duration",
          "type": "uint256"
        },
        {
          "internalType": "uint256",
          "name": "Mandate_Duration",
          "type": "uint256"
        },
        {
          "internalType": "uint256",
          "name": "Immunity_Duration",
          "type": "uint256"
        },
        {
          "internalType": "uint16",
          "name": "Num_Max_Members",
          "type": "uint16"
        },
        {
          "internalType": "uint16",
          "name": "New_Election_Petition_Rate",
          "type": "uint16"
        },
        {
          "internalType": "uint256",
          "name": "Mint_Token",
          "type": "uint256"
        },
        {
          "internalType": "address",
          "name": "Ivote_address",
          "type": "address"
        }
      ],
      "name": "Set_Delegation_Internal_Governance",
      "outputs": [],
      "stateMutability": "nonpayable",
      "type": "function"
    },
    {
      "inputs": [],
      "name": "Get_Register_List",
      "outputs": [
        {
          "internalType": "bytes32[]",
          "name": "",
          "type": "bytes32[]"
        }
      ],
      "stateMutability": "view",
      "type": "function",
      "constant": true
    },
    {
      "inputs": [],
      "name": "Get_Delegation_List",
      "outputs": [
        {
          "internalType": "bytes32[]",
          "name": "",
          "type": "bytes32[]"
        }
      ],
      "stateMutability": "view",
      "type": "function",
      "constant": true
    }
  ],
  "bytecode": "0x60806040523480156200001157600080fd5b50604051620039883803806200398883398101604081905262000034916200025c565b60016000819055855186918291620000529190602084019062000199565b5050600280546001600160a01b03191633179055506001600160a01b0381166200007b57600080fd5b60028054306001600160a01b0319918216179091556007805482166001600160a01b0387811691909117909155600680548316868316179055600580548316858316179055600880549092168382161791829055620000ea916003911662000112602090811b6200216e17901c565b50620001068260036200011260201b6200216e1790919060201c565b505050505050620003d2565b600062000129836001600160a01b03841662000132565b90505b92915050565b600062000140838362000181565b62000178575081546001818101845560008481526020808220909301849055845484825282860190935260409020919091556200012c565b5060006200012c565b60009081526001919091016020526040902054151590565b828054620001a7906200037f565b90600052602060002090601f016020900481019282620001cb576000855562000216565b82601f10620001e657805160ff191683800117855562000216565b8280016001018555821562000216579182015b8281111562000216578251825591602001919060010190620001f9565b506200022492915062000228565b5090565b5b8082111562000224576000815560010162000229565b80516001600160a01b03811681146200025757600080fd5b919050565b600080600080600060a0868803121562000274578081fd5b85516001600160401b03808211156200028b578283fd5b818801915088601f8301126200029f578283fd5b815181811115620002b457620002b4620003bc565b604051601f8201601f19908116603f01168101908382118183101715620002df57620002df620003bc565b81604052828152602093508b84848701011115620002fb578586fd5b8591505b828210156200031e5784820184015181830185015290830190620002ff565b828211156200032f57858484830101525b9850620003419150508882016200023f565b9550505062000353604087016200023f565b925062000363606087016200023f565b915062000373608087016200023f565b90509295509295909350565b6002810460018216806200039457607f821691505b60208210811415620003b657634e487b7160e01b600052602260045260246000fd5b50919050565b634e487b7160e01b600052604160045260246000fd5b6135a680620003e26000396000f3fe608060405234801561001057600080fd5b50600436106101f05760003560e01c80638830a4171161010f578063c1fa9838116100a2578063dfb9449411610071578063dfb94494146103d8578063ea1ef9dc146103eb578063eb101b23146103f3578063fb252e2d14610408576101f0565b8063c1fa983814610397578063ca1eb16a1461039f578063caf1f81f146103b2578063d963545d146103c5576101f0565b8063a895cba9116100de578063a895cba914610361578063adb3591114610369578063aeb53b6414610371578063b18d743b14610384576101f0565b80638830a4171461032b5780639155e45b1461033e57806396b2aa401461035157806398c8367e14610359576101f0565b806338df44b1116101875780635a014a14116101565780635a014a14146102db5780638052474d146102ee578063811a5c1f1461030357806384e886e914610316576101f0565b806338df44b11461028f5780633c289ea8146102a25780634b5c2734146102b5578063595207d5146102c8576101f0565b80631b5cb360116101c35780631b5cb36014610243578063228ab930146102565780632cef26ca146102695780632dff94ce1461027c576101f0565b806302d4cd28146101f557806305ff1b36146102135780631529356f1461022857806316bb97c21461023b575b600080fd5b6101fd61041b565b60405161020a9190612c81565b60405180910390f35b610226610221366004612743565b610437565b005b610226610236366004612b68565b6104f2565b6101fd61079a565b610226610251366004612743565b6107b6565b61022661026436600461287b565b610833565b610226610277366004612905565b610a1e565b61022661028a366004612782565b610a86565b61022661029d366004612743565b610b83565b6102266102b0366004612743565b610c28565b6102266102c3366004612782565b610d02565b6102266102d6366004612782565b610ddb565b6102266102e9366004612782565b610ea2565b6102f66110a6565b60405161020a9190612e5d565b610226610311366004612c00565b611134565b61031e6111b1565b60405161020a9190612d48565b6102266103393660046127ba565b611208565b61022661034c366004612a26565b611356565b61031e6113c7565b6101fd61141c565b61031e611438565b61022661148d565b61022661037f366004612828565b611515565b610226610392366004612743565b611614565b6101fd6116cd565b6102266103ad36600461297e565b6116e9565b6102266103c0366004612782565b6118c3565b6102266103d336600461297e565b611965565b6102266103e6366004612a66565b611b3f565b6101fd6120b4565b6103fb6120d0565b60405161020a9190612dcf565b610226610416366004612743565b6120f1565b60025473ffffffffffffffffffffffffffffffffffffffff1681565b610442600333612199565b6104675760405162461bcd60e51b815260040161045e9061319d565b60405180910390fd5b6006546040517f05ff1b3600000000000000000000000000000000000000000000000000000000815273ffffffffffffffffffffffffffffffffffffffff909116906305ff1b36906104bd908490600401612c81565b600060405180830381600087803b1580156104d757600080fd5b505af11580156104eb573d6000803e3d6000fd5b5050505050565b6104fd600333612199565b6105195760405162461bcd60e51b815260040161045e9061319d565b600060ff891661052a575030610689565b8860ff16600314156105f9576005546040517fe54a1ce800000000000000000000000000000000000000000000000000000000815273__Constitution_Register_________________9163e54a1ce8916105a2918e9173ffffffffffffffffffffffffffffffffffffffff90911690600401612e70565b60206040518083038186803b1580156105ba57600080fd5b505af41580156105ce573d6000803e3d6000fd5b505050506040513d601f19601f820116820180604052508101906105f29190612766565b9050610689565b8860ff1660041415610671576005546040517f06d5980200000000000000000000000000000000000000000000000000000000815273__Constitution_Register_________________916306d59802916105a2918e9173ffffffffffffffffffffffffffffffffffffffff90911690600401612e70565b60405162461bcd60e51b815260040161045e9061320b565b610694600982612199565b156106b15760405162461bcd60e51b815260040161045e9061308c565b6106bc60098261216e565b506005546040517fef37750700000000000000000000000000000000000000000000000000000000815273ffffffffffffffffffffffffffffffffffffffff9091169063ef377507906107159084908d90600401612d1f565b600060405180830381600087803b15801561072f57600080fd5b505af1158015610743573d6000803e3d6000fd5b5050505061075781898989898989896121bb565b7f980e949c55d5cbdd511ddc7d2609c25ac65b92c0ecf26be39b91cb5141b3843e816040516107869190612c81565b60405180910390a150505050505050505050565b60065473ffffffffffffffffffffffffffffffffffffffff1681565b6107c1600333612199565b6107dd5760405162461bcd60e51b815260040161045e9061319d565b6006546040517fb18d743b00000000000000000000000000000000000000000000000000000000815273ffffffffffffffffffffffffffffffffffffffff9091169063b18d743b906104bd908490600401612c81565b61083e600333612199565b61085a5760405162461bcd60e51b815260040161045e9061319d565b610865600b8a612199565b6108815760405162461bcd60e51b815260040161045e90613279565b87158061088c575085155b80610899575061ffff8416155b806108a6575061ffff8316155b806108b657506127108361ffff16115b806108d5575073ffffffffffffffffffffffffffffffffffffffff8116155b156108f25760405162461bcd60e51b815260040161045e90612f42565b8115610983576007546040517f0f6798a500000000000000000000000000000000000000000000000000000000815273ffffffffffffffffffffffffffffffffffffffff90911690630f6798a590610950908c908690600401612ca2565b600060405180830381600087803b15801561096a57600080fd5b505af115801561097e573d6000803e3d6000fd5b505050505b6040517fc503219c00000000000000000000000000000000000000000000000000000000815273ffffffffffffffffffffffffffffffffffffffff8a169063c503219c906109e1908b908b908b908b908b908b908a90600401613395565b600060405180830381600087803b1580156109fb57600080fd5b505af1158015610a0f573d6000803e3d6000fd5b50505050505050505050505050565b610a29600333612199565b610a455760405162461bcd60e51b815260040161045e9061319d565b610a50600989612199565b610a6c5760405162461bcd60e51b815260040161045e90612fb0565b610a7c88888888888888886121bb565b5050505050505050565b610a91600333612199565b610aad5760405162461bcd60e51b815260040161045e9061319d565b610ab8600b83612199565b610ad45760405162461bcd60e51b815260040161045e90613279565b610adf600982612199565b610afb5760405162461bcd60e51b815260040161045e90613355565b6040517f4a44fa2500000000000000000000000000000000000000000000000000000000815273ffffffffffffffffffffffffffffffffffffffff831690634a44fa2590610b4d908490600401612c81565b600060405180830381600087803b158015610b6757600080fd5b505af1158015610b7b573d6000803e3d6000fd5b505050505050565b60025473ffffffffffffffffffffffffffffffffffffffff163314610bba5760405162461bcd60e51b815260040161045e90612fe7565b610bc5600382612199565b15610be25760405162461bcd60e51b815260040161045e906132e7565b610bed60038261216e565b507f5211a48dd5dc810c959d67db85be9de1f52e475be92efb0f7c314b9bd361863d81604051610c1d9190612c81565b60405180910390a150565b60025473ffffffffffffffffffffffffffffffffffffffff163314610c5f5760405162461bcd60e51b815260040161045e90612fe7565b73ffffffffffffffffffffffffffffffffffffffff8116610c925760405162461bcd60e51b815260040161045e90613055565b600280547fffffffffffffffffffffffff00000000000000000000000000000000000000001673ffffffffffffffffffffffffffffffffffffffff83161790556040517feaf9201ae5a091c46918bca9c5ced3b9aa103362b0a68a1f36b9f2858b0a4c1490610c1d908390612c81565b610d0d600333612199565b610d295760405162461bcd60e51b815260040161045e9061319d565b610d34600983612199565b610d505760405162461bcd60e51b815260040161045e906130f8565b6040517f38df44b1000000000000000000000000000000000000000000000000000000008152829073ffffffffffffffffffffffffffffffffffffffff8216906338df44b190610da4908590600401612c81565b600060405180830381600087803b158015610dbe57600080fd5b505af1158015610dd2573d6000803e3d6000fd5b50505050505050565b610de6600333612199565b610e025760405162461bcd60e51b815260040161045e9061319d565b610e0d600b83612199565b610e295760405162461bcd60e51b815260040161045e90613279565b610e34600982612199565b610e505760405162461bcd60e51b815260040161045e90613355565b6040517ffd00029c00000000000000000000000000000000000000000000000000000000815273ffffffffffffffffffffffffffffffffffffffff83169063fd00029c90610b4d908490600401612c81565b610ead600333612199565b610ec95760405162461bcd60e51b815260040161045e9061319d565b610ed4600983612199565b80610ee55750610ee5600b83612199565b80610f0a575060065473ffffffffffffffffffffffffffffffffffffffff8381169116145b610f265760405162461bcd60e51b815260040161045e90612f79565b73ffffffffffffffffffffffffffffffffffffffff8116610f595760405162461bcd60e51b815260040161045e906131d4565b600082905060008173ffffffffffffffffffffffffffffffffffffffff1663eb101b236040518163ffffffff1660e01b815260040160206040518083038186803b158015610fa657600080fd5b505afa158015610fba573d6000803e3d6000fd5b505050506040513d601f19601f82011682018060405250810190610fde9190612a07565b9050600081600681111561101b577f4e487b7100000000000000000000000000000000000000000000000000000000600052602160045260246000fd5b141561102657600080fd5b6040517f3c289ea800000000000000000000000000000000000000000000000000000000815273ffffffffffffffffffffffffffffffffffffffff831690633c289ea890611078908690600401612c81565b600060405180830381600087803b15801561109257600080fd5b505af1158015610a7c573d6000803e3d6000fd5b600180546110b390613460565b80601f01602080910402602001604051908101604052809291908181526020018280546110df90613460565b801561112c5780601f106111015761010080835404028352916020019161112c565b820191906000526020600020905b81548152906001019060200180831161110f57829003601f168201915b505050505081565b61113f600333612199565b61115b5760405162461bcd60e51b815260040161045e9061319d565b6006546040517f811a5c1f00000000000000000000000000000000000000000000000000000000815273ffffffffffffffffffffffffffffffffffffffff9091169063811a5c1f906104bd90849060040161338c565b6003805460408051602080840282018101909252828152606093909290918301828280156111fe57602002820191906000526020600020905b8154815260200190600101908083116111ea575b5050505050905090565b611213600333612199565b61122f5760405162461bcd60e51b815260040161045e9061319d565b61123a600b86612199565b6112565760405162461bcd60e51b815260040161045e90613279565b6060840135158061126957506080840135155b8061127957506127108361ffff16115b8061128957506127108261ffff16115b806112a8575073ffffffffffffffffffffffffffffffffffffffff8116155b156112c55760405162461bcd60e51b815260040161045e9061331e565b6040517f3d9bdc2e00000000000000000000000000000000000000000000000000000000815273ffffffffffffffffffffffffffffffffffffffff861690633d9bdc2e9061131d908790879087908790600401612d8c565b600060405180830381600087803b15801561133757600080fd5b505af115801561134b573d6000803e3d6000fd5b505050505050505050565b60025473ffffffffffffffffffffffffffffffffffffffff16331461138d5760405162461bcd60e51b815260040161045e90612fe7565b611399600183836124ab565b506040517f379308d0bb59c3a96480e25be5a540b7ed745d0ba7bc0d59819082fb1d8f5a0d90600090a15050565b600b805460408051602080840282018101909252828152606093909290918301828280156111fe57602002820191906000526020600020908154815260200190600101908083116111ea575050505050905090565b60085473ffffffffffffffffffffffffffffffffffffffff1681565b6009805460408051602080840282018101909252828152606093909290918301828280156111fe57602002820191906000526020600020908154815260200190600101908083116111ea575050505050905090565b60085473ffffffffffffffffffffffffffffffffffffffff1633146114c45760405162461bcd60e51b815260040161045e906132b0565b6008546114e99060039073ffffffffffffffffffffffffffffffffffffffff166122bf565b506040517f2f2cb67b0f865feca7c1c5903533db551a0b342eb9a9a61775ef5f64db3a4c1d90600090a1565b611520600333612199565b61153c5760405162461bcd60e51b815260040161045e9061319d565b611547600984612199565b806115585750611558600b84612199565b8061157d575060065473ffffffffffffffffffffffffffffffffffffffff8481169116145b806115a2575060055473ffffffffffffffffffffffffffffffffffffffff8481169116145b6115be5760405162461bcd60e51b815260040161045e90612f79565b6040517f9155e45b000000000000000000000000000000000000000000000000000000008152839073ffffffffffffffffffffffffffffffffffffffff821690639155e45b906110789086908690600401612e10565b3373ffffffffffffffffffffffffffffffffffffffff8216148061164f575060025473ffffffffffffffffffffffffffffffffffffffff1633145b61166b5760405162461bcd60e51b815260040161045e906130c3565b611676600382612199565b6116925760405162461bcd60e51b815260040161045e9061312f565b61169d6003826122bf565b507fb08d132e7857df60570932b8e15c9544f136a8f716c15b00f65a64814457875b81604051610c1d9190612c81565b60075473ffffffffffffffffffffffffffffffffffffffff1681565b6116f4600333612199565b6117105760405162461bcd60e51b815260040161045e9061319d565b828160005b828110156117ea5760075473ffffffffffffffffffffffffffffffffffffffff1663d2a00912888884818110611774577f4e487b7100000000000000000000000000000000000000000000000000000000600052603260045260246000fd5b90506020020160208101906117899190612743565b6040518263ffffffff1660e01b81526004016117a59190612c81565b600060405180830381600087803b1580156117bf57600080fd5b505af11580156117d3573d6000803e3d6000fd5b5050505080806117e2906134b4565b915050611715565b5060005b81811015610dd25760075473ffffffffffffffffffffffffffffffffffffffff166384bf163386868481811061184d577f4e487b7100000000000000000000000000000000000000000000000000000000600052603260045260246000fd5b90506020020160208101906118629190612743565b6040518263ffffffff1660e01b815260040161187e9190612c81565b600060405180830381600087803b15801561189857600080fd5b505af11580156118ac573d6000803e3d6000fd5b5050505080806118bb906134b4565b9150506117ee565b6118ce600333612199565b6118ea5760405162461bcd60e51b815260040161045e9061319d565b6118f5600983612199565b6119115760405162461bcd60e51b815260040161045e906130f8565b6040517fb18d743b000000000000000000000000000000000000000000000000000000008152829073ffffffffffffffffffffffffffffffffffffffff82169063b18d743b90610da4908590600401612c81565b611970600333612199565b61198c5760405162461bcd60e51b815260040161045e9061319d565b828160005b82811015611a665760075473ffffffffffffffffffffffffffffffffffffffff1663a2777e0e8888848181106119f0577f4e487b7100000000000000000000000000000000000000000000000000000000600052603260045260246000fd5b9050602002016020810190611a059190612743565b6040518263ffffffff1660e01b8152600401611a219190612c81565b600060405180830381600087803b158015611a3b57600080fd5b505af1158015611a4f573d6000803e3d6000fd5b505050508080611a5e906134b4565b915050611991565b5060005b81811015610dd25760075473ffffffffffffffffffffffffffffffffffffffff166358c75ed1868684818110611ac9577f4e487b7100000000000000000000000000000000000000000000000000000000600052603260045260246000fd5b9050602002016020810190611ade9190612743565b6040518263ffffffff1660e01b8152600401611afa9190612c81565b600060405180830381600087803b158015611b1457600080fd5b505af1158015611b28573d6000803e3d6000fd5b505050508080611b37906134b4565b915050611a6a565b611b4a600333612199565b611b665760405162461bcd60e51b815260040161045e9061319d565b60608901351580611b7957506080890135155b80611b8957506127108661ffff16115b80611b9957506127108561ffff16115b80611bb8575073ffffffffffffffffffffffffffffffffffffffff8216155b15611bd55760405162461bcd60e51b815260040161045e9061331e565b87351580611be557506040880135155b80611bf2575061ffff8716155b80611bff575061ffff8416155b80611c0f57506127108461ffff16115b80611c1e57508661ffff168351115b80611c3d575073ffffffffffffffffffffffffffffffffffffffff8116155b15611c5a5760405162461bcd60e51b815260040161045e90612f42565b73ffffffffffffffffffffffffffffffffffffffff8a16611e7d5760005b8351811015611d8057600654845173ffffffffffffffffffffffffffffffffffffffff909116906357f98d3290869084908110611cde577f4e487b7100000000000000000000000000000000000000000000000000000000600052603260045260246000fd5b60200260200101516040518263ffffffff1660e01b8152600401611d029190612c81565b60206040518083038186803b158015611d1a57600080fd5b505afa158015611d2e573d6000803e3d6000fd5b505050506040513d601f19601f82011682018060405250810190611d5291906129e7565b611d6e5760405162461bcd60e51b815260040161045e9061301e565b80611d78816134b4565b915050611c78565b5073__Constitution_Delegation_______________63c8ff65278c85600760009054906101000a900473ffffffffffffffffffffffffffffffffffffffff16600660009054906101000a900473ffffffffffffffffffffffffffffffffffffffff16600560009054906101000a900473ffffffffffffffffffffffffffffffffffffffff166040518663ffffffff1660e01b8152600401611e26959493929190612ea8565b60206040518083038186803b158015611e3e57600080fd5b505af4158015611e52573d6000803e3d6000fd5b505050506040513d601f19601f82011682018060405250810190611e769190612766565b9950611ea5565b611e88600b8b612199565b15611ea55760405162461bcd60e51b815260040161045e90613166565b611eb0600b8b61216e565b507fd3be3eeeb5a3df7ae7f97fa6bd63af76a637922217dfa1c4abb9dda5266d1fad8a604051611ee09190612c81565b60405180910390a1608088013515611f81576007546040517f0f6798a500000000000000000000000000000000000000000000000000000000815273ffffffffffffffffffffffffffffffffffffffff90911690630f6798a590611f4e908d9060808d013590600401612ca2565b600060405180830381600087803b158015611f6857600080fd5b505af1158015611f7c573d6000803e3d6000fd5b505050505b6040517f3d9bdc2e00000000000000000000000000000000000000000000000000000000815273ffffffffffffffffffffffffffffffffffffffff8b1690633d9bdc2e90611fd9908c908a908a908890600401612d8c565b600060405180830381600087803b158015611ff357600080fd5b505af1158015612007573d6000803e3d6000fd5b5050604080517fc503219c00000000000000000000000000000000000000000000000000000000815273ffffffffffffffffffffffffffffffffffffffff8e16935063c503219c9250612075918c359160208e0135918e01359060608f0135908e908c908a90600401613395565b600060405180830381600087803b15801561208f57600080fd5b505af11580156120a3573d6000803e3d6000fd5b505050505050505050505050505050565b60055473ffffffffffffffffffffffffffffffffffffffff1681565b60025474010000000000000000000000000000000000000000900460ff1681565b6120fc600333612199565b6121185760405162461bcd60e51b815260040161045e9061319d565b6006546040517ffb252e2d00000000000000000000000000000000000000000000000000000000815273ffffffffffffffffffffffffffffffffffffffff9091169063fb252e2d906104bd908490600401612c81565b60006121908373ffffffffffffffffffffffffffffffffffffffff84166122e1565b90505b92915050565b60006121908373ffffffffffffffffffffffffffffffffffffffff841661232b565b8615806121c6575085155b806121d3575061ffff8216155b806121e357506127108261ffff16115b80612202575073ffffffffffffffffffffffffffffffffffffffff8116155b1561221f5760405162461bcd60e51b815260040161045e90613242565b6005546040517fbbfc76c100000000000000000000000000000000000000000000000000000000815273ffffffffffffffffffffffffffffffffffffffff9091169063bbfc76c190612283908b908b908b908b908b908b908b908b90600401612cc8565b600060405180830381600087803b15801561229d57600080fd5b505af11580156122b1573d6000803e3d6000fd5b505050505050505050505050565b60006121908373ffffffffffffffffffffffffffffffffffffffff8416612343565b60006122ed838361232b565b61232357508154600181810184556000848152602080822090930184905584548482528286019093526040902091909155612193565b506000612193565b60009081526001919091016020526040902054151590565b600081815260018301602052604081205480156124a1576000612367600183613449565b855490915060009061237b90600190613449565b905060008660000182815481106123bb577f4e487b7100000000000000000000000000000000000000000000000000000000600052603260045260246000fd5b9060005260206000200154905080876000018481548110612405577f4e487b7100000000000000000000000000000000000000000000000000000000600052603260045260246000fd5b60009182526020909120015561241c836001613431565b60008281526001890160205260409020558654879080612465577f4e487b7100000000000000000000000000000000000000000000000000000000600052603160045260246000fd5b60019003818190600052602060002001600090559055866001016000878152602001908152602001600020600090556001945050505050612193565b6000915050612193565b8280546124b790613460565b90600052602060002090601f0160209004810192826124d9576000855561253d565b82601f10612510578280017fffffffffffffffffffffffffffffffffffffffffffffffffffffffffffffff0082351617855561253d565b8280016001018555821561253d579182015b8281111561253d578235825591602001919060010190612522565b5061254992915061254d565b5090565b5b80821115612549576000815560010161254e565b803561256d8161354b565b919050565b60008083601f840112612583578182fd5b50813567ffffffffffffffff81111561259a578182fd5b60208301915083602080830285010111156125b457600080fd5b9250929050565b600082601f8301126125cb578081fd5b8135602067ffffffffffffffff8211156125e7576125e761351c565b8082026125f58282016133e2565b83815282810190868401838801850189101561260f578687fd5b8693505b8584101561263a5780356126268161354b565b835260019390930192918401918401612613565b50979650505050505050565b8060a0810183101561219357600080fd5b8060c0810183101561219357600080fd5b60008083601f840112612679578182fd5b50813567ffffffffffffffff811115612690578182fd5b6020830191508360208285010111156125b457600080fd5b600082601f8301126126b8578081fd5b813567ffffffffffffffff8111156126d2576126d261351c565b61270360207fffffffffffffffffffffffffffffffffffffffffffffffffffffffffffffffe0601f840116016133e2565b818152846020838601011115612717578283fd5b816020850160208301379081016020019190915292915050565b803561ffff8116811461256d57600080fd5b600060208284031215612754578081fd5b813561275f8161354b565b9392505050565b600060208284031215612777578081fd5b815161275f8161354b565b60008060408385031215612794578081fd5b823561279f8161354b565b915060208301356127af8161354b565b809150509250929050565b600080600080600061014086880312156127d2578081fd5b85356127dd8161354b565b94506127ec8760208801612657565b93506127fa60e08701612731565b92506128096101008701612731565b915061012086013561281a8161354b565b809150509295509295909350565b60008060006040848603121561283c578283fd5b83356128478161354b565b9250602084013567ffffffffffffffff811115612862578283fd5b61286e86828701612668565b9497909650939450505050565b60008060008060008060008060006101208a8c031215612899578384fd5b89356128a48161354b565b985060208a0135975060408a0135965060608a0135955060808a013594506128ce60a08b01612731565b93506128dc60c08b01612731565b925060e08a013591506101008a01356128f48161354b565b809150509295985092959850929598565b600080600080600080600080610100898b031215612921578384fd5b883561292c8161354b565b97506020890135965060408901359550606089013594506080890135935060a0890135925061295d60c08a01612731565b915060e089013561296d8161354b565b809150509295985092959890939650565b60008060008060408587031215612993578182fd5b843567ffffffffffffffff808211156129aa578384fd5b6129b688838901612572565b909650945060208701359150808211156129ce578384fd5b506129db87828801612572565b95989497509550505050565b6000602082840312156129f8578081fd5b8151801515811461275f578182fd5b600060208284031215612a18578081fd5b81516007811061275f578182fd5b60008060208385031215612a38578182fd5b823567ffffffffffffffff811115612a4e578283fd5b612a5a85828601612668565b90969095509350505050565b60008060008060008060008060008060006102808c8e031215612a87578485fd5b67ffffffffffffffff808d351115612a9d578586fd5b612aaa8e8e358f016126a8565b9b50612ab860208e01612562565b9a50612ac78e60408f01612657565b9950612ad78e6101008f01612646565b9850612ae66101a08e01612731565b9750612af56101c08e01612731565b9650612b046101e08e01612731565b9550612b136102008e01612731565b9450806102208e01351115612b26578283fd5b50612b388d6102208e01358e016125bb565b9250612b476102408d01612562565b9150612b566102608d01612562565b90509295989b509295989b9093969950565b60008060008060008060008060006101208a8c031215612b86578283fd5b893567ffffffffffffffff811115612b9c578384fd5b612ba88c828d016126a8565b99505060208a013560ff81168114612bbe578384fd5b975060408a0135965060608a0135955060808a0135945060a08a0135935060c08a01359250612bef60e08b01612731565b91506101008a01356128f48161354b565b600060208284031215612c11578081fd5b5035919050565b60008151808452815b81811015612c3d57602081850181015186830182015201612c21565b81811115612c4e5782602083870101525b50601f017fffffffffffffffffffffffffffffffffffffffffffffffffffffffffffffffe0169290920160200192915050565b73ffffffffffffffffffffffffffffffffffffffff91909116815260200190565b73ffffffffffffffffffffffffffffffffffffffff929092168252602082015260400190565b73ffffffffffffffffffffffffffffffffffffffff9889168152602081019790975260408701959095526060860193909352608085019190915260a084015261ffff1660c083015290911660e08201526101000190565b73ffffffffffffffffffffffffffffffffffffffff92909216825260ff16602082015260400190565b6020808252825182820181905260009190848201906040850190845b81811015612d8057835183529284019291840191600101612d64565b50909695505050505050565b610120810160c086833761ffff94851660c08301529290931660e084015273ffffffffffffffffffffffffffffffffffffffff1661010090920191909152919050565b6020810160078310612e0a577f4e487b7100000000000000000000000000000000000000000000000000000000600052602160045260246000fd5b91905290565b60006020825282602083015282846040840137818301604090810191909152601f9092017fffffffffffffffffffffffffffffffffffffffffffffffffffffffffffffffe0160101919050565b6000602082526121906020830184612c18565b600060408252612e836040830185612c18565b905073ffffffffffffffffffffffffffffffffffffffff831660208301529392505050565b600060a08252612ebb60a0830188612c18565b828103602084810191909152875180835288820192820190845b81811015612f0757845173ffffffffffffffffffffffffffffffffffffffff1683529383019391830191600101612ed5565b505073ffffffffffffffffffffffffffffffffffffffff97881660408601529587166060850152505050921660809092019190915292915050565b6020808252601e908201527f476f7665726e616e63653a2042616420417267756d656e742056616c75650000604082015260600190565b60208082526018908201527f696e7374616e6365206164647265737320756e6b6e6f776e0000000000000000604082015260600190565b60208082526016908201527f526567697374657220646f65736e277420657869737400000000000000000000604082015260600190565b60208082526011908201527f436f6e737469747574696f6e204f6e6c79000000000000000000000000000000604082015260600190565b60208082526015908201527f4d656d626572206973206e6f7420636974697a656e0000000000000000000000604082015260600190565b60208082526009908201527f4164647265737320300000000000000000000000000000000000000000000000604082015260600190565b60208082526019908201527f526567697374657220416c7265616479204578697374696e6700000000000000604082015260600190565b6020808252818101527f4e6f7420416c6c6f7765642052656d6f76696e6720417574686f726974696573604082015260600190565b60208082526010908201527f556e6b6e6f776e20526567697374657200000000000000000000000000000000604082015260600190565b6020808252601e908201527f4e6f74206578697374696e6720617574686f72697479206163636f756e740000604082015260600190565b6020808252601d908201527f44656c65676174696f6e20616c72656164792072656769737465726564000000604082015260600190565b60208082526010908201527f417574686f726974696573204f6e6c7900000000000000000000000000000000604082015260600190565b60208082526009908201527f6164647265737320300000000000000000000000000000000000000000000000604082015260600190565b60208082526011908201527f4e6f742052656769737465722054797065000000000000000000000000000000604082015260600190565b60208082526013908201527f42616420617267756d656e74732076616c756500000000000000000000000000604082015260600190565b60208082526017908201527f4e6f6e204578697374696e672044656c65676174696f6e000000000000000000604082015260600190565b6020808252601c908201527f5472616e736974696f6e616c5f476f7665726e6d656e74206f6e6c7900000000604082015260600190565b6020808252601a908201527f416c7265616479206578697374696e6720617574686f72697479000000000000604082015260600190565b6020808252601e908201527f4c656769736c617469663a2042616420417267756d656e742056616c75650000604082015260600190565b60208082526015908201527f4e6f6e204578697374696e672052656769737465720000000000000000000000604082015260600190565b90815260200190565b96875260208701959095526040860193909352606085019190915261ffff90811660808501521660a083015273ffffffffffffffffffffffffffffffffffffffff1660c082015260e00190565b604051601f82017fffffffffffffffffffffffffffffffffffffffffffffffffffffffffffffffe016810167ffffffffffffffff811182821017156134295761342961351c565b604052919050565b60008219821115613444576134446134ed565b500190565b60008282101561345b5761345b6134ed565b500390565b60028104600182168061347457607f821691505b602082108114156134ae577f4e487b7100000000000000000000000000000000000000000000000000000000600052602260045260246000fd5b50919050565b60007fffffffffffffffffffffffffffffffffffffffffffffffffffffffffffffffff8214156134e6576134e66134ed565b5060010190565b7f4e487b7100000000000000000000000000000000000000000000000000000000600052601160045260246000fd5b7f4e487b7100000000000000000000000000000000000000000000000000000000600052604160045260246000fd5b73ffffffffffffffffffffffffffffffffffffffff8116811461356d57600080fd5b5056fea2646970667358221220e79e3997edefcf0505c2fd416c14f5420c83cd0eaae302ba4200c0371a45e50464736f6c63430008010033",
  "immutableReferences": {},
  "source": "// SPDX-License-Identifier: MIT\npragma solidity ^0.8.0;\n\n/*import \"Register.sol\";\nimport \"Agora.sol\";\nimport \"Loi.sol\";\nimport \"API_Register.sol\";\nimport \"Delegation.sol\";\nimport \"IDelegation.sol\";\nimport \"Citizens_Register.sol\";\nimport \"IVote.sol\";*/\n\nimport \"contracts/Register.sol\";\nimport \"contracts/Agora.sol\";\nimport \"contracts/Loi.sol\";\nimport \"contracts/API_Register.sol\";\nimport \"contracts/Delegation.sol\";\nimport \"contracts/Citizens_Register.sol\";\nimport \"contracts/IVote.sol\";\n\nlibrary Constitution_Register{\n\n     \n    function Create_Loi(string memory Loi_Name, address agora)external returns(address){\n         Loi loi = new Loi(Loi_Name, agora);\n         //loi.Add_Authority(authority);\n         return address(loi);\n     }\n     \n     /*function Create_Citizens(string memory Citizen_Name, address[] calldata Initial_members, address token_address, uint new_citizen_mint_amount)external returns(address){\n         return address(new Citizens_Register(Citizen_Name,Initial_members, token_address, new_citizen_mint_amount));\n     }*/\n     \n     function Create_API(string memory Name, address agora) external returns(address){\n         return address(new API_Register(Name, agora));\n     }\n    \n}\n\n\nlibrary Constitution_Delegation{\n\n    function Create_Delegation(string memory Delegation_Name, address[] calldata Initial_members, address Token_Address, address citizen_address, address agora_address)external returns(address){\n         Delegation delegation = new Delegation(Delegation_Name, Initial_members, Token_Address, citizen_address, agora_address);\n         return address(delegation);\n    }\n    \n    \n}\n\n\n\n\n\n\n\n\n //contract Constitution is Register, IConstitution_Agora, IConstitution_Delegation{\ncontract Constitution is Register{\n     using EnumerableSet for EnumerableSet.AddressSet;\n     //using Constitution_Register for Constitution_Register.Register_Parameters;\n     //using Constitution_Delegation for Constitution_Delegation.Delegation_Parameters;\n     //using SafeMath for uint8;\n     \n    /* struct Register_Parameters{\n         //uint Index; // index in Registers_Address_List array\n         uint Actual_Version;\n         uint Petition_Duration;\n         uint Vote_Duration;\n         uint Vote_Checking_Duration;\n         uint Helper_Max_Duration;\n         uint Law_Initialisation_Price;\n         uint FunctionCall_Price;\n         uint Helper_Amount_Escrow;\n         uint16 Assembly_Max_Members;\n         uint16 Description_Max_Size;\n         uint8 FunctionCall_Max_Number;\n         uint8 Required_Petition_Rate;\n         uint8 Representatives_Rates;\n         uint8 Voters_Reward_Rate;\n         uint8 Helper_Reward_Rate;\n         uint8 Assembly_Voluteer_Reward_Rate;\n         uint8 OffChain_Delegation_Reward;\n         uint8 Vote_Type;\n         uint8 Register_Type;\n         address OffChain_Vote_Delegation;   // Delegation in charge of filling in on chain the result of the off-chain vote\n         address Assembly_Associated_Delegation;    // Delegation allowed to take part in the Agora Assembly in charge of voting for the good proposition\n     }*/\n     \n     /*struct Register_Parameters{\n         uint Index; // index in Registers_Address_List array\n         uint8 Register_Type;\n         mapping(uint=>Referendum_Parameters) Parameter_Versions;\n         uint Actual_Version;\n     }*/\n     \n     /*struct Delegation_Parameters{\n         //uint Index;\n         //uint Revert_Penalty_Limit;\n         uint Legislatif_Process_Version;\n         uint Internal_Governance_Version;\n         uint Member_Max_Token_Usage;\n         uint Law_Initialisation_Price;\n         uint FunctionCall_Price; \n         uint Proposition_Duration;\n         uint Vote_Duration;\n         uint Election_Duration;\n         uint Law_Revertable_Period_Duration;\n         uint Mandate_Duration;\n         uint Immunity_Duration;\n         uint16 Num_Max_Members;\n         uint8 Revert_Proposition_Petition_Rate;\n         uint8 New_Election_Petition_Rate;\n         uint8 Revert_Penalty_Rate;\n         EnumerableSet.AddressSet Controled_Register;\n     }*/\n     \n    // event Register_Parameters_Modified(address);\n     event Register_Created(address register);\n     event Delegation_Created(address delegation);\n     event Transitional_Government_Finised();\n     \n     Agora public Agora_Instance;\n     Citizens_Register public Citizen_Instance;\n     DemoCoin public Democoin_Instance;\n     //IVote public majority_judgment_ballot;\n     //address public Citizens_Address;\n     \n     address public Transitional_Government;\n     \n     //mapping(address=>Constitution_Register.Register_Parameters)  Registers;\n     EnumerableSet.AddressSet Registers_Address_List;\n     \n     //mapping(address=>Constitution_Delegation.Delegation_Parameters) Delegations;\n     EnumerableSet.AddressSet Delegation_Address_List;\n        \n     \n     \n     //uint8 public Account_Max_Token_Rate;  //Each account can't pocess more than \"Account_Max_Token_Rate\"% of the entire token supply.\n     \n     \n    // constructor(string memory Constitution_Name, string memory Citizen_Name, string memory Agora_Name,address transition_government, address[] memory initial_citizens, string memory Token_Name, string memory Token_Symbole, uint[] memory initial_citizens_token_amount, uint new_citizen_mint_amount) Register(Constitution_Name) {\n      constructor(string memory Constitution_Name, address DemoCoin_Address, address Citizen_Address, address Agora_Address, address transition_government) Register(Constitution_Name){   \n        require(transition_government !=address(0));\n         \n         Constitution_Address = address(this);\n         //Type_Institution = Institution_Type.CONSTITUTION;\n         /*Democoin = new DemoCoin(Token_Name, Token_Symbole, initial_citizens, initial_citizens_token_amount);\n         Citizen_Instance = new Citizens_Register(Citizen_Name, initial_citizens, address(Democoin), new_citizen_mint_amount);\n         Agora_Instance = new Agora(Agora_Name, address(Democoin), address(Citizen_Instance));*/\n         \n         Democoin_Instance = DemoCoin(DemoCoin_Address);\n         Citizen_Instance = Citizens_Register(Citizen_Address);\n         Agora_Instance = Agora(Agora_Address);\n         \n         //majority_judgment_ballot = new majority_judgment_ballot();\n         //Citizens_Address = Constitution_Register.Create_Citizens(initial_citizens);\n         \n         Transitional_Government = transition_government;\n         Register_Authorities.add(Transitional_Government);\n         Register_Authorities.add(Agora_Address);\n         \n     }\n     \n     \n     function End_Transition_Government()external{\n         require(msg.sender == Transitional_Government, \"Transitional_Government only\");\n         Register_Authorities.remove(Transitional_Government);\n         emit Transitional_Government_Finised();\n     }\n     \n     function Add_Register_Authority(address register, address authority) external Register_Authorities_Only{\n         require(Registers_Address_List.contains(register), \"Unknown Register\");\n         Register res = Register(register);\n         res.Add_Authority(authority);\n     }\n     \n     function Remove_Register_Authority(address register, address authority) external Register_Authorities_Only{\n         require(Registers_Address_List.contains(register), \"Unknown Register\");\n         Register res = Register(register);\n         res.Remove_Authority(authority);\n     }\n\n     \n     function Set_Instances_Constitution(address instance_address, address new_address)external Register_Authorities_Only{\n         require(Registers_Address_List.contains(instance_address) || Delegation_Address_List.contains(instance_address) || instance_address== address(Citizen_Instance), \"instance address unknown\"); // There is no interest to modify Agora's constitution.\n         require(new_address!=address(0),\"address 0\");\n         Institution Insti = Institution(instance_address);\n         Institution_Type type_insti = Insti.Type_Institution();\n         require(type_insti != Institution_Type.CONSTITUTION);\n         Insti.Set_Constitution(new_address);\n     }\n\n     function Set_Institution_Name(address instance_address, string calldata name)external Register_Authorities_Only{\n         require(Registers_Address_List.contains(instance_address) || Delegation_Address_List.contains(instance_address) || instance_address== address(Citizen_Instance) || instance_address== address(Agora_Instance), \"instance address unknown\");\n         Institution Insti = Institution(instance_address);\n         Insti.Set_Name(name);\n     }\n     \n     \n    /*FUNCTIONCALL API functions*/\n    \n    \n    /*DemoCoin functions*/\n    \n    function Set_Minnter(address[] calldata Add_Minter, address[] calldata Remove_Minter)external Register_Authorities_Only{\n        uint add_len=Add_Minter.length;\n        uint remove_len = Remove_Minter.length;\n        for(uint i =0; i<add_len;i++){\n            Democoin_Instance.Add_Minter(Add_Minter[i]);\n        }\n        for(uint j=0; j<remove_len; j++){\n            Democoin_Instance.Remove_Minter(Remove_Minter[j]);\n        }\n    }\n    \n    function Set_Burner(address[] calldata Add_Burner, address[] calldata Remove_Burner)external Register_Authorities_Only{\n        uint add_len=Add_Burner.length;\n        uint remove_len = Remove_Burner.length;\n        for(uint i =0; i<add_len;i++){\n            Democoin_Instance.Add_Burner(Add_Burner[i]);\n        }\n        for(uint j=0; j<remove_len; j++){\n            Democoin_Instance.Remove_Burner(Remove_Burner[j]);\n        }\n    }\n    \n    \n    /*Citizens_Register  Handling*/\n    \n    function Set_Citizen_Mint_Amount(uint amount) external Register_Authorities_Only{\n        Citizen_Instance.Set_Citizen_Mint_Amount(amount);\n    }\n    \n    function Citizen_Register_Remove_Authority(address removed_authority) external Register_Authorities_Only{\n        Citizen_Instance.Remove_Authority(removed_authority);\n    }\n    \n    function Add_Registering_Authority(address new_authority)external Register_Authorities_Only{\n        Citizen_Instance.Add_Registering_Authority(new_authority);\n     }\n     \n     /*function Remove_Registering_Authority(address removed_authority)external Register_Authorities_Only{\n         Citizen_Instance.Remove_Registering_Authority(removed_authority);\n     }*/\n     \n     function Add_Banning_Authority(address new_authority)external Register_Authorities_Only{\n         Citizen_Instance.Add_Banning_Authority(new_authority);\n     }\n     \n     /*function Remove_Banning_Authority(address removed_authority)external Register_Authorities_Only{\n         Citizen_Instance.Remove_Banning_Authority(removed_authority);\n     }*/\n    \n    \n    \n    /*Register/Agora Handling*/\n    function Create_Register(string memory Name, uint8 register_type, uint Petition_Duration, uint Vote_Duration, uint Vote_Checking_Duration, uint Law_Initialisation_Price, uint FunctionCall_Price, uint16 Required_Petition_Rate, address Ivote_address)\n    external Register_Authorities_Only{ //returns(bool, bytes memory){\n        \n        \n        address new_register_address;\n        \n        if(register_type == 0){ \n            new_register_address = address(this);\n        }else if(register_type == 3){\n            new_register_address = Constitution_Register.Create_Loi(Name, address(Agora_Instance));\n        }else if(register_type == 4){\n            new_register_address = Constitution_Register.Create_API(Name, address(Agora_Instance));\n        }else{\n            revert(\"Not Register Type\");\n        }\n        \n        require(!Registers_Address_List.contains(new_register_address), \"Register Already Existing\");\n        \n        /*if(Assembly_Associated_Delegation != address(0) && !Delegation_Address_List.contains(Assembly_Associated_Delegation)){\n            //return (false, bytes(\"Delegation doesn't exist\"));\n            revert(\"Delegation doesn't exist\");\n        }*/\n        \n        Registers_Address_List.add(new_register_address);\n     \n        Agora_Instance.Create_Register_Referendum(new_register_address, register_type);\n        _Set_Register_Param(new_register_address, Petition_Duration, Vote_Duration, Vote_Checking_Duration, Law_Initialisation_Price, FunctionCall_Price, Required_Petition_Rate, Ivote_address);\n         \n         \n         //Registers[new_register_address].Register_Type = register_type;\n         //Registers[new_register_address].Actual_Version = 1;\n         emit Register_Created(new_register_address);\n         \n        //return (true, bytes(\"\"));\n        //return Registers[new_register_address]._Set_Register_Param(new_register_address, Uint256_Arg, Uint16_Arg, Uint8_Arg, OffChain_Vote_Delegation, Assembly_Associated_Delegation);\n    }\n    \n    function Set_Register_Param(address register_address, uint Petition_Duration, uint Vote_Duration, uint Vote_Checking_Duration, uint Law_Initialisation_Price, uint FunctionCall_Price, uint16 Required_Petition_Rate, address Ivote_address) \n    external Register_Authorities_Only{ //returns(bool, bytes memory){\n        //uint version = Registers[register_address].Actual_Version;\n    \n        require(Registers_Address_List.contains(register_address), \"Register doesn't exist\");\n        \n        /*if( Delegations[Assembly_Associated_Delegation].Num_Max_Members ==0 && Assembly_Associated_Delegation != address(0)){\n            //return (false, bytes(\"Delegation doesn't exist\"));\n            revert(\"Delegation doesn't exist\");\n        }*/\n        \n      \n        _Set_Register_Param(register_address, Petition_Duration, Vote_Duration, Vote_Checking_Duration, Law_Initialisation_Price, FunctionCall_Price, Required_Petition_Rate, Ivote_address);\n         \n        //emit Register_Parameters_Modified(register_address);\n        //return (success, data);\n        //return Registers[register_address]._Set_Register_Param( Uint256_Arg, Assembly_Max_Members, Uint8_Arg, OffChain_Vote_Delegation, Assembly_Associated_Delegation);\n       \n    }\n    \n     function _Set_Register_Param(address register_address, uint Petition_Duration, uint Vote_Duration, uint Vote_Checking_Duration, uint Law_Initialisation_Price, uint FunctionCall_Price, uint16 Required_Petition_Rate, address Ivote_address) \n     internal {//returns(bool, bytes memory){\n        //uint version =register.Actual_Version;\n        \n        if(Petition_Duration ==0 || Vote_Duration ==0 || Required_Petition_Rate == 0 || Required_Petition_Rate >10000 || Ivote_address==address(0)){\n            revert(\"Bad arguments value\");\n        }\n        \n        /*if(Uint256_Arg[0] ==0 || Uint256_Arg[1] ==0 || Uint256_Arg[3]==0 || Uint8_Arg[0] == 0 || Uint8_Arg[0] >100 || Uint8_Arg[1]>100 || Ivote_address==address(0)){\n            //return (false, bytes(\"Bad arguments value\"));\n            revert(\"Bad arguments value\");\n        }\n        //uint temp = uint(Uint8_Arg[3]).add(uint(Uint8_Arg[4]).add(uint(Uint8_Arg[5]).add(uint(Uint8_Arg[6]))));\n        if(uint(Uint8_Arg[2]).add(uint(Uint8_Arg[3]).add(uint(Uint8_Arg[4]).add(uint(Uint8_Arg[5])))) != 100 || (Assembly_Max_Members ==0 && Uint8_Arg[4]>0) || Uint8_Arg[1]>100 || (Assembly_Associated_Delegation != address(0) && Uint8_Arg[1]==0)){\n            //return (false, bytes(\"Reward inconsistency\"));\n            revert(\"Reward inconsistency\");\n        }*/\n        \n        \n        Agora_Instance.Update_Register_Referendum_Parameters(register_address, Petition_Duration, Vote_Duration, Vote_Checking_Duration, Law_Initialisation_Price, FunctionCall_Price, Required_Petition_Rate, Ivote_address);\n        //Registers[register_param].Set_Register(Uint256_Arg,  Uint16_Arg, Uint8_Arg,  OffChain_Vote_Delegation,  Assembly_Associated_Delegation);\n       \n    }\n    \n    \n    \n    \n    \n     /*Delegations Handling*/\n     \n   function Create_Delegation(string memory Name, address delegation_address, uint[6] calldata Uint256_Legislatifs_Arg, uint[5] calldata Uint256_Governance_Arg, \n         uint16 Num_Max_Members, uint16 Revert_Proposition_Petition_Rate, uint16 Revert_Penalty_Rate, \n         uint16 New_Election_Petition_Rate, address[] memory Initial_members, address Ivote_address_legislatif, address Ivote_address_governance)\n         external Register_Authorities_Only {\n\n            if(Uint256_Legislatifs_Arg[3]==0 || Uint256_Legislatifs_Arg[4]==0 || Revert_Proposition_Petition_Rate>10000 || Revert_Penalty_Rate>10000 || Ivote_address_legislatif==address(0)){\n                 //return(false, bytes(\"Bad Argument Value\"));\n                 revert(\"Legislatif: Bad Argument Value\");\n             }\n             \n             if(Uint256_Governance_Arg[0]==0 || Uint256_Governance_Arg[2]==0 || Num_Max_Members==0 || New_Election_Petition_Rate ==0 || New_Election_Petition_Rate>10000 || Initial_members.length > Num_Max_Members || Ivote_address_governance==address(0)){\n                 //return(false, bytes(\"Bad Argument Value\"));\n                 revert(\"Governance: Bad Argument Value\");\n             }\n            \n            \n            if(delegation_address == address(0)){ //Create a new delegation\n                 /*Delegation Delegation_Instance = new Delegation(Initial_members, address(Democoin));\n                 delegation_address = address(Delegation_Instance);*/\n                 for(uint i =0; i<Initial_members.length; i++){\n                     require(Citizen_Instance.Contains(Initial_members[i]), \"Member is not citizen\");\n                 }\n                 delegation_address = Constitution_Delegation.Create_Delegation(Name, Initial_members, address(Democoin_Instance), address(Citizen_Instance), address(Agora_Instance));\n            }else{\n                require(!Delegation_Address_List.contains(delegation_address), \"Delegation already registered\");\n                //return(false,bytes(\"Delegation already registered\"));\n            }\n            \n\n            /*Delegation(delegation_address).Update_Legislatif_Process(Uint256_Legislatifs_Arg[0], Uint256_Legislatifs_Arg[1], Uint256_Legislatifs_Arg[2], Uint256_Legislatifs_Arg[3], Uint256_Legislatifs_Arg[4], Uint256_Legislatifs_Arg[5], Revert_Proposition_Petition_Rate, Revert_Penalty_Rate, Ivote_address_legislatif);\n            Delegation(delegation_address).Update_Internal_Governance(Uint256_Governance_Arg[0], Uint256_Governance_Arg[1], Uint256_Governance_Arg[2], Uint256_Governance_Arg[3], Num_Max_Members, New_Election_Petition_Rate, Ivote_address_governance);\n            */\n            //Delegations[delegation_address]._Set_Delegation_Legislatif_Process(Uint256_Legislatifs_Arg[0], Uint256_Legislatifs_Arg[1], Uint256_Legislatifs_Arg[2], Uint256_Legislatifs_Arg[3], Uint256_Legislatifs_Arg[4], Uint256_Legislatifs_Arg[5], Revert_Proposition_Petition_Rate, Revert_Penalty_Rate);\n            //Delegations[delegation_address]._Set_Delegation_Internal_Governance(Uint256_Governance_Arg[0], Uint256_Governance_Arg[1], Uint256_Governance_Arg[2], Num_Max_Members, New_Election_Petition_Rate);\n            \n            Delegation_Address_List.add(delegation_address);\n            \n            emit Delegation_Created(delegation_address);\n            \n            if(Uint256_Governance_Arg[4]>0){\n                Democoin_Instance.Mint(delegation_address, Uint256_Governance_Arg[4]);\n            }\n            \n            IDelegation(delegation_address).Update_Legislatif_Process(Uint256_Legislatifs_Arg, Revert_Proposition_Petition_Rate, Revert_Penalty_Rate, Ivote_address_legislatif);\n            IDelegation(delegation_address).Update_Internal_Governance(Uint256_Governance_Arg[0], Uint256_Governance_Arg[1], Uint256_Governance_Arg[2], Uint256_Governance_Arg[3], Num_Max_Members, New_Election_Petition_Rate, Ivote_address_governance);\n         }\n         \n         /* 0x0000000000000000000000000000000000000000, [15,5,1, 1000, 2000, 500], [1000, 10000,3000, 40] 20, 30, 20, 50*/\n\n         \n    function Add_Delegation_Controled_Register(address delegation_address, address new_controled_register) external Register_Authorities_Only{\n        require(Delegation_Address_List.contains(delegation_address), \"Non Existing Delegation\");\n        require(Registers_Address_List.contains(new_controled_register), \"Non Existing Register\");\n        //Register(new_controled_register).Add_Authority(delegation_address);  //Add the delegation address to the authority list of registers whose address is in \"add_controled_register\"\n        IDelegation(delegation_address).Add_Controled_Register( new_controled_register);    \n    \n    }\n    \n    \n    function Remove_Delegation_Controled_Register(address delegation_address, address removed_controled_register) external Register_Authorities_Only{\n        require(Delegation_Address_List.contains(delegation_address), \"Non Existing Delegation\");\n        require(Registers_Address_List.contains(removed_controled_register), \"Non Existing Register\");\n        IDelegation(delegation_address).Remove_Controled_Register( removed_controled_register);\n        //The removal of the delegation address from the authority list of registers whose address is in \"remove_controled_register\" is left to the delegation.\n    }\n     \n    \n    function Set_Delegation_Legislatif_Process(address delegation_address, uint[6] calldata Uint256_Legislatifs_Arg, uint16 Revert_Proposition_Petition_Rate, \n         uint16 Revert_Penalty_Rate, address Ivote_address) \n         external Register_Authorities_Only{ //returns(bool, bytes memory){\n             \n             require(Delegation_Address_List.contains(delegation_address), \"Non Existing Delegation\");\n             \n             if(Uint256_Legislatifs_Arg[3]==0 || Uint256_Legislatifs_Arg[4]==0 || Revert_Proposition_Petition_Rate>10000 || Revert_Penalty_Rate>10000 || Ivote_address==address(0) ){\n                 //return(false, bytes(\"Bad Argument Value\"));\n                 revert(\"Legislatif: Bad Argument Value\");\n             }\n             \n             /*if(Proposition_Duration==0 || Vote_Duration==0 || Revert_Proposition_Petition_Rate>100 || Revert_Penalty_Rate>100 ){\n                 //return(false, bytes(\"Bad Argument Value\"));\n                 revert(\"Bad Argument Value\");\n             }*/\n             \n             IDelegation(delegation_address).Update_Legislatif_Process(Uint256_Legislatifs_Arg, Revert_Proposition_Petition_Rate, Revert_Penalty_Rate, Ivote_address);\n             //Delegations[delegation_address]._Set_Delegation_Legislatif_Process(Member_Max_Token_Usage, Law_Initialisation_Price, FunctionCall_Price, Proposition_Duration, Vote_Duration, Law_Revertable_Period_Duration, Revert_Proposition_Petition_Rate, Revert_Penalty_Rate);\n         }\n         \n         \n         \n    function Set_Delegation_Internal_Governance(address delegation_address, uint Election_Duration,  uint Validation_Duration, uint Mandate_Duration, uint Immunity_Duration,\n        uint16 Num_Max_Members, uint16 New_Election_Petition_Rate, uint Mint_Token, address Ivote_address) external Register_Authorities_Only{\n            require(Delegation_Address_List.contains(delegation_address), \"Non Existing Delegation\");\n            \n            if(Election_Duration==0 || Mandate_Duration==0 || Num_Max_Members==0 || New_Election_Petition_Rate ==0 || New_Election_Petition_Rate>10000 || Ivote_address==address(0)){\n                 revert(\"Governance: Bad Argument Value\");\n             }\n            \n            if(Mint_Token>0){\n                 Democoin_Instance.Mint(delegation_address, Mint_Token);\n             }\n            \n            IDelegation(delegation_address).Update_Internal_Governance(Election_Duration, Validation_Duration, Mandate_Duration, Immunity_Duration, Num_Max_Members, New_Election_Petition_Rate, Ivote_address);\n         }\n         \n         \n         \n        \n        /*function _Set_Delegation_Legislatif_Process( uint Member_Max_Token_Usage, uint Law_Initialisation_Price, uint FunctionCall_Price, uint Proposition_Duration,\n         uint Vote_Duration, uint Law_Revertable_Period_Duration, uint8 Revert_Proposition_Petition_Rate, uint8 Revert_Penalty_Rate) external{ //returns(bool, bytes memory){\n             \n             if(Proposition_Duration==0 || Vote_Duration==0 || Revert_Proposition_Petition_Rate>100 || Revert_Penalty_Rate>100 ){\n                 //return(false, bytes(\"Bad Argument Value\"));\n                 revert(\"Bad Argument Value\");\n             }\n             \n             //if(Revert_Penalty_Rate>0 && Percentage(Revert_Penalty_Rate, FunctionCall_Price))\n             \n             delegation.Legislatif_Process_Version = delegation.Legislatif_Process_Version.add(1);\n             \n             delegation.Member_Max_Token_Usage = Member_Max_Token_Usage;\n             delegation.Law_Initialisation_Price = Law_Initialisation_Price;\n             delegation.FunctionCall_Price = FunctionCall_Price;\n             delegation.Proposition_Duration = Proposition_Duration;\n             delegation.Vote_Duration = Vote_Duration;\n             delegation.Law_Revertable_Period_Duration = Law_Revertable_Period_Duration;\n             \n             delegation.Revert_Proposition_Petition_Rate = Revert_Proposition_Petition_Rate;\n             delegation.Revert_Penalty_Rate = Revert_Penalty_Rate; \n            \n            //return (true,bytes(\"\"));\n         }\n         \n\n          function _Set_Delegation_Internal_Governance( uint Election_Duration, uint Mandate_Duration, uint Immunity_Duration,\n        uint16 Num_Max_Members, uint8 New_Election_Petition_Rate) external{ // returns(bool, bytes memory){\n             \n             if(Election_Duration==0 || Mandate_Duration==0 || Num_Max_Members==0 || New_Election_Petition_Rate ==0 || New_Election_Petition_Rate>100 ){\n                 //return(false, bytes(\"Bad Argument Value\"));\n                 revert(\"Bad Argument Value\");\n             }\n             \n             delegation.Internal_Governance_Version = delegation.Internal_Governance_Version.add(1);\n             \n             delegation.Election_Duration = Election_Duration;\n             delegation.Mandate_Duration = Mandate_Duration;\n             delegation.Immunity_Duration = Immunity_Duration;\n             delegation.Num_Max_Members = Num_Max_Members;\n             delegation.New_Election_Petition_Rate = New_Election_Petition_Rate;\n             \n            \n            //return (true,bytes(\"\"));\n         }*/\n    \n     \n     \n     \n     /*GETTERS*/\n     \n     function Get_Register_List() external view returns(bytes32[] memory){\n         return Registers_Address_List._inner._values;\n     }\n     \n     /*function Get_Register_Parameter(address register) external view override returns(uint,uint){\n         \n         return (Registers[register].Actual_Version, Registers[register].Register_Type);\n     }\n     \n     function Get_Register_Referendum_Parameters(address register) external view override returns(uint[7] memory Uint256_Arg, uint16 Assembly_Max_Members, uint8[7] memory Uint8_Arg, address OffChain_Vote_Delegation, address Assembly_Associated_Delegation){\n             \n             (Uint256_Arg, Assembly_Max_Members, Uint8_Arg, OffChain_Vote_Delegation, Assembly_Associated_Delegation)=Registers[register].Get_Register();\n             \n         }\n         \n         \n    function Get_Delegation_Legislatif_Process_Versions(address delegation_address) external view override returns(uint){\n        require(Delegations[delegation_address].Legislatif_Process_Version != 0, \"Non existing Delegation\");\n        return(Delegations[delegation_address].Legislatif_Process_Version);\n    }\n    \n    function Get_Delegation_Internal_Governance_Versions(address delegation_address) external view override returns(uint){\n        require(Delegations[delegation_address].Legislatif_Process_Version != 0, \"Non existing Delegation\");\n        return( Delegations[delegation_address].Internal_Governance_Version);\n    }\n    \n    function Get_Delegation_Legislation_Process(address delegation_address) external view override returns(uint[6] memory Uint256_Arg, uint8 Revert_Proposition_Petition_Rate, \n         uint8 Revert_Penalty_Rate){\n             require(Delegations[delegation_address].Legislatif_Process_Version != 0, \"Non existing Delegation\");\n             return Delegations[delegation_address]._Get_Delegation_Legislatif_Process();\n         }\n         \n    \n    \n    function Get_Delegation_Internal_Governance(address delegation_address) external view override returns(uint Election_Duration, uint Mandate_Duration, uint Immunity_Duration,\n        uint16 Num_Max_Members, uint8 New_Election_Petition_Rate){\n            require(Delegations[delegation_address].Legislatif_Process_Version != 0, \"Non existing Delegation\");\n            return Delegations[delegation_address]._Get_Delegation_Internal_Governance();\n        }\n     */\n     function Get_Delegation_List() external view returns(bytes32[] memory){\n         return Delegation_Address_List._inner._values;\n     }\n     \n    \n     \n     \n    \n }\n \n \n /*\n \n [777,333,123,33,12,77,40]\n 20\n [30,3,20,30,30,20,0]\n \n */\n \n \n \n/* contract Agora is Institution{\n    using EnumerableSet for EnumerableSet.AddressSet;\n    enum Status{\n        PETITIONS,\n        VOTE,\n        VOTE_CHECKING,\n        EXECUTED,\n        ABORTED\n    }\n    \n    \n    \n    struct Register_Referendum{\n        uint Last_Version;\n        Institution_Type Type;\n        bytes32[] Failed_Referendums;\n        EnumerableSet.Bytes32Set Pending_Referendums;\n        bytes32[] Achieved_Referendums;\n    }\n\n    \n    \n    struct Referendum{\n        mapping(address=>bool) Petition;\n        EnumerableSet.AddressSet Assembly_Volunteer;\n        uint Petition_Counter;\n        Status Referendum_Status;\n    }\n    \n\n    Constitution Constitution_Instance;\n    \n    mapping(address=>Register_Referendum) Registers_Referendums;\n    mapping(bytes32=>Referendum) Referendums;\n    \n    function Add_Law_Project(address register_address, bytes calldata Title, bytes calldata Description)external{\n        Constitution_Instance.Get_Register(register_address);\n        //Add_Law_Project(Title,  Description);\n    }\n    \n    \n    \n    \n    \n    /*Overite functions*/\n    /*function Before_Add_Law_Project(bytes calldata Title, bytes calldata Description) internal override returns(bytes32){\n        \n    }\n    \n    function Before_Add_Corpus_Proposal(bytes32 law_project, uint Parent, uint[] calldata Parent_Proposals_Reuse, bytes[] calldata New_Function_Call, bytes calldata Description) internal override{\n        \n    }\n    \n    function Before_Add_Item_Proposal(bytes32 law_project, uint Proposal, bytes[] calldata New_Items, uint[] calldata Indexs) internal override{\n        \n    }*/\n//}",
  "sourcePath": "/home/andrei/Alyra/Web3_Referendum/contracts/Constitution.sol",
  "compiler": {
    "name": "solc",
    "version": "0.8.1+commit.df193b15.Emscripten.clang"
  },
  "schemaVersion": "3.3.1",
  "updatedAt": "2021-04-26T09:39:51.045Z",
  "networkType": "ethereum",
  "devdoc": {
    "kind": "dev",
    "methods": {
      "Add_Authority(address)": {
        "params": {
          "authority": "address to add to the {Register_Authorities} "
        }
      },
      "Get_Authorities()": {
        "returns": {
          "_0": "return address registered in the {Register_Authorities}"
        }
      },
      "Remove_Authority(address)": {
        "params": {
          "authority": "address to remove from the {Register_Authorities} "
        }
      },
      "Set_Constitution(address)": {
        "details": "The function Allows to change the Constitution contract the current Institution obey to. The function is only callable by the {Constitution_Address}",
        "params": {
          "new_constitution": "Address of the new Constitution contract."
        }
      }
    },
    "version": 1
  },
  "userdoc": {
    "kind": "user",
    "methods": {
      "Add_Authority(address)": {
        "notice": "Add an account address to {Register_Authorities}"
      },
      "Constitution_Address()": {
        "notice": "Address of the constitution of the DAO"
      },
      "Get_Authorities()": {
        "notice": "Getter for {Register_Authorities}"
      },
      "Name()": {
        "notice": "Name of the institution"
      },
      "Remove_Authority(address)": {
        "notice": "Removes an account address from the {Register_Authorities}"
      },
      "Type_Institution()": {
        "notice": "Type of the Institution"
      }
    },
    "version": 1
  }
}