{
  "contractName": "Constitution",
  "abi": [
    {
      "inputs": [
        {
          "internalType": "string",
          "name": "Constitution_Name",
          "type": "string"
        },
        {
          "internalType": "address",
          "name": "DemoCoin_Address",
          "type": "address"
        },
        {
          "internalType": "address",
          "name": "Citizen_Address",
          "type": "address"
        },
        {
          "internalType": "address",
          "name": "Agora_Address",
          "type": "address"
        },
        {
          "internalType": "address",
          "name": "transition_government",
          "type": "address"
        }
      ],
      "stateMutability": "nonpayable",
      "type": "constructor"
    },
    {
      "anonymous": false,
      "inputs": [
        {
          "indexed": false,
          "internalType": "address",
          "name": "authority",
          "type": "address"
        }
      ],
      "name": "Authority_Added",
      "type": "event"
    },
    {
      "anonymous": false,
      "inputs": [
        {
          "indexed": false,
          "internalType": "address",
          "name": "authority",
          "type": "address"
        }
      ],
      "name": "Authority_Removed",
      "type": "event"
    },
    {
      "anonymous": false,
      "inputs": [
        {
          "indexed": false,
          "internalType": "address",
          "name": "new_constitution",
          "type": "address"
        }
      ],
      "name": "Constitution_Changed",
      "type": "event"
    },
    {
      "anonymous": false,
      "inputs": [
        {
          "indexed": false,
          "internalType": "address",
          "name": "delegation",
          "type": "address"
        }
      ],
      "name": "Delegation_Created",
      "type": "event"
    },
    {
      "anonymous": false,
      "inputs": [
        {
          "indexed": false,
          "internalType": "address",
          "name": "Address",
          "type": "address"
        },
        {
          "indexed": false,
          "internalType": "enum Institution.Institution_Type",
          "name": "Type",
          "type": "uint8"
        }
      ],
      "name": "Institution_Created",
      "type": "event"
    },
    {
      "anonymous": false,
      "inputs": [
        {
          "indexed": false,
          "internalType": "address",
          "name": "register",
          "type": "address"
        }
      ],
      "name": "Register_Created",
      "type": "event"
    },
    {
      "anonymous": false,
      "inputs": [],
      "name": "Transitional_Government_Finised",
      "type": "event"
    },
    {
      "inputs": [
        {
          "internalType": "address",
          "name": "authority",
          "type": "address"
        }
      ],
      "name": "Add_Authority",
      "outputs": [],
      "stateMutability": "nonpayable",
      "type": "function"
    },
    {
      "inputs": [],
      "name": "Agora_Instance",
      "outputs": [
        {
          "internalType": "contract Agora",
          "name": "",
          "type": "address"
        }
      ],
      "stateMutability": "view",
      "type": "function",
      "constant": true
    },
    {
      "inputs": [],
      "name": "Citizen_Instance",
      "outputs": [
        {
          "internalType": "contract Citizens_Register",
          "name": "",
          "type": "address"
        }
      ],
      "stateMutability": "view",
      "type": "function",
      "constant": true
    },
    {
      "inputs": [],
      "name": "Constitution_Address",
      "outputs": [
        {
          "internalType": "address",
          "name": "",
          "type": "address"
        }
      ],
      "stateMutability": "view",
      "type": "function",
      "constant": true
    },
    {
      "inputs": [],
      "name": "Democoin_Instance",
      "outputs": [
        {
          "internalType": "contract DemoCoin",
          "name": "",
          "type": "address"
        }
      ],
      "stateMutability": "view",
      "type": "function",
      "constant": true
    },
    {
      "inputs": [],
      "name": "Get_Authorities",
      "outputs": [
        {
          "internalType": "bytes32[]",
          "name": "",
          "type": "bytes32[]"
        }
      ],
      "stateMutability": "view",
      "type": "function",
      "constant": true
    },
    {
      "inputs": [],
      "name": "Name",
      "outputs": [
        {
          "internalType": "string",
          "name": "",
          "type": "string"
        }
      ],
      "stateMutability": "view",
      "type": "function",
      "constant": true
    },
    {
      "inputs": [
        {
          "internalType": "address",
          "name": "authority",
          "type": "address"
        }
      ],
      "name": "Remove_Authority",
      "outputs": [],
      "stateMutability": "nonpayable",
      "type": "function"
    },
    {
      "inputs": [
        {
          "internalType": "address",
          "name": "new_constitution",
          "type": "address"
        }
      ],
      "name": "Set_Constitution",
      "outputs": [],
      "stateMutability": "nonpayable",
      "type": "function"
    },
    {
      "inputs": [],
      "name": "Transitional_Government",
      "outputs": [
        {
          "internalType": "address",
          "name": "",
          "type": "address"
        }
      ],
      "stateMutability": "view",
      "type": "function",
      "constant": true
    },
    {
      "inputs": [],
      "name": "Type_Institution",
      "outputs": [
        {
          "internalType": "enum Institution.Institution_Type",
          "name": "",
          "type": "uint8"
        }
      ],
      "stateMutability": "view",
      "type": "function",
      "constant": true
    },
    {
      "inputs": [],
      "name": "End_Transition_Government",
      "outputs": [],
      "stateMutability": "nonpayable",
      "type": "function"
    },
    {
      "inputs": [
        {
          "internalType": "address",
          "name": "register",
          "type": "address"
        },
        {
          "internalType": "address",
          "name": "authority",
          "type": "address"
        }
      ],
      "name": "Add_Register_Authority",
      "outputs": [],
      "stateMutability": "nonpayable",
      "type": "function"
    },
    {
      "inputs": [
        {
          "internalType": "address",
          "name": "register",
          "type": "address"
        },
        {
          "internalType": "address",
          "name": "authority",
          "type": "address"
        }
      ],
      "name": "Remove_Register_Authority",
      "outputs": [],
      "stateMutability": "nonpayable",
      "type": "function"
    },
    {
      "inputs": [
        {
          "internalType": "address",
          "name": "instance_address",
          "type": "address"
        },
        {
          "internalType": "address",
          "name": "new_address",
          "type": "address"
        }
      ],
      "name": "Set_Instances_Constitution",
      "outputs": [],
      "stateMutability": "nonpayable",
      "type": "function"
    },
    {
      "inputs": [
        {
          "internalType": "address[]",
          "name": "Add_Minter",
          "type": "address[]"
        },
        {
          "internalType": "address[]",
          "name": "Remove_Minter",
          "type": "address[]"
        }
      ],
      "name": "Set_Minnter",
      "outputs": [],
      "stateMutability": "nonpayable",
      "type": "function"
    },
    {
      "inputs": [
        {
          "internalType": "address[]",
          "name": "Add_Burner",
          "type": "address[]"
        },
        {
          "internalType": "address[]",
          "name": "Remove_Burner",
          "type": "address[]"
        }
      ],
      "name": "Set_Burner",
      "outputs": [],
      "stateMutability": "nonpayable",
      "type": "function"
    },
    {
      "inputs": [
        {
          "internalType": "uint256",
          "name": "amount",
          "type": "uint256"
        }
      ],
      "name": "Set_Citizen_Mint_Amount",
      "outputs": [],
      "stateMutability": "nonpayable",
      "type": "function"
    },
    {
      "inputs": [
        {
          "internalType": "address",
          "name": "removed_authority",
          "type": "address"
        }
      ],
      "name": "Citizen_Register_Remove_Authority",
      "outputs": [],
      "stateMutability": "nonpayable",
      "type": "function"
    },
    {
      "inputs": [
        {
          "internalType": "address",
          "name": "new_authority",
          "type": "address"
        }
      ],
      "name": "Add_Registering_Authority",
      "outputs": [],
      "stateMutability": "nonpayable",
      "type": "function"
    },
    {
      "inputs": [
        {
          "internalType": "address",
          "name": "new_authority",
          "type": "address"
        }
      ],
      "name": "Add_Banning_Authority",
      "outputs": [],
      "stateMutability": "nonpayable",
      "type": "function"
    },
    {
      "inputs": [
        {
          "internalType": "string",
          "name": "Name",
          "type": "string"
        },
        {
          "internalType": "uint8",
          "name": "register_type",
          "type": "uint8"
        },
        {
          "internalType": "uint256",
          "name": "Petition_Duration",
          "type": "uint256"
        },
        {
          "internalType": "uint256",
          "name": "Vote_Duration",
          "type": "uint256"
        },
        {
          "internalType": "uint256",
          "name": "Vote_Checking_Duration",
          "type": "uint256"
        },
        {
          "internalType": "uint256",
          "name": "Law_Initialisation_Price",
          "type": "uint256"
        },
        {
          "internalType": "uint256",
          "name": "FunctionCall_Price",
          "type": "uint256"
        },
        {
          "internalType": "uint16",
          "name": "Required_Petition_Rate",
          "type": "uint16"
        },
        {
          "internalType": "address",
          "name": "Ivote_address",
          "type": "address"
        }
      ],
      "name": "Create_Register",
      "outputs": [],
      "stateMutability": "nonpayable",
      "type": "function"
    },
    {
      "inputs": [
        {
          "internalType": "address",
          "name": "register_address",
          "type": "address"
        },
        {
          "internalType": "uint256",
          "name": "Petition_Duration",
          "type": "uint256"
        },
        {
          "internalType": "uint256",
          "name": "Vote_Duration",
          "type": "uint256"
        },
        {
          "internalType": "uint256",
          "name": "Vote_Checking_Duration",
          "type": "uint256"
        },
        {
          "internalType": "uint256",
          "name": "Law_Initialisation_Price",
          "type": "uint256"
        },
        {
          "internalType": "uint256",
          "name": "FunctionCall_Price",
          "type": "uint256"
        },
        {
          "internalType": "uint16",
          "name": "Required_Petition_Rate",
          "type": "uint16"
        },
        {
          "internalType": "address",
          "name": "Ivote_address",
          "type": "address"
        }
      ],
      "name": "Set_Register_Param",
      "outputs": [],
      "stateMutability": "nonpayable",
      "type": "function"
    },
    {
      "inputs": [
        {
          "internalType": "string",
          "name": "Name",
          "type": "string"
        },
        {
          "internalType": "address",
          "name": "delegation_address",
          "type": "address"
        },
        {
          "internalType": "uint256[6]",
          "name": "Uint256_Legislatifs_Arg",
          "type": "uint256[6]"
        },
        {
          "internalType": "uint256[5]",
          "name": "Uint256_Governance_Arg",
          "type": "uint256[5]"
        },
        {
          "internalType": "uint16",
          "name": "Num_Max_Members",
          "type": "uint16"
        },
        {
          "internalType": "uint16",
          "name": "Revert_Proposition_Petition_Rate",
          "type": "uint16"
        },
        {
          "internalType": "uint16",
          "name": "Revert_Penalty_Rate",
          "type": "uint16"
        },
        {
          "internalType": "uint16",
          "name": "New_Election_Petition_Rate",
          "type": "uint16"
        },
        {
          "internalType": "address[]",
          "name": "Initial_members",
          "type": "address[]"
        },
        {
          "internalType": "address",
          "name": "Ivote_address_legislatif",
          "type": "address"
        },
        {
          "internalType": "address",
          "name": "Ivote_address_governance",
          "type": "address"
        }
      ],
      "name": "Create_Delegation",
      "outputs": [],
      "stateMutability": "nonpayable",
      "type": "function"
    },
    {
      "inputs": [
        {
          "internalType": "address",
          "name": "delegation_address",
          "type": "address"
        },
        {
          "internalType": "address",
          "name": "new_controled_register",
          "type": "address"
        }
      ],
      "name": "Add_Delegation_Controled_Register",
      "outputs": [],
      "stateMutability": "nonpayable",
      "type": "function"
    },
    {
      "inputs": [
        {
          "internalType": "address",
          "name": "delegation_address",
          "type": "address"
        },
        {
          "internalType": "address",
          "name": "removed_controled_register",
          "type": "address"
        }
      ],
      "name": "Remove_Delegation_Controled_Register",
      "outputs": [],
      "stateMutability": "nonpayable",
      "type": "function"
    },
    {
      "inputs": [
        {
          "internalType": "address",
          "name": "delegation_address",
          "type": "address"
        },
        {
          "internalType": "uint256[6]",
          "name": "Uint256_Legislatifs_Arg",
          "type": "uint256[6]"
        },
        {
          "internalType": "uint16",
          "name": "Revert_Proposition_Petition_Rate",
          "type": "uint16"
        },
        {
          "internalType": "uint16",
          "name": "Revert_Penalty_Rate",
          "type": "uint16"
        },
        {
          "internalType": "address",
          "name": "Ivote_address",
          "type": "address"
        }
      ],
      "name": "Set_Delegation_Legislatif_Process",
      "outputs": [],
      "stateMutability": "nonpayable",
      "type": "function"
    },
    {
      "inputs": [
        {
          "internalType": "address",
          "name": "delegation_address",
          "type": "address"
        },
        {
          "internalType": "uint256",
          "name": "Election_Duration",
          "type": "uint256"
        },
        {
          "internalType": "uint256",
          "name": "Validation_Duration",
          "type": "uint256"
        },
        {
          "internalType": "uint256",
          "name": "Mandate_Duration",
          "type": "uint256"
        },
        {
          "internalType": "uint256",
          "name": "Immunity_Duration",
          "type": "uint256"
        },
        {
          "internalType": "uint16",
          "name": "Num_Max_Members",
          "type": "uint16"
        },
        {
          "internalType": "uint16",
          "name": "New_Election_Petition_Rate",
          "type": "uint16"
        },
        {
          "internalType": "uint256",
          "name": "Mint_Token",
          "type": "uint256"
        },
        {
          "internalType": "address",
          "name": "Ivote_address",
          "type": "address"
        }
      ],
      "name": "Set_Delegation_Internal_Governance",
      "outputs": [],
      "stateMutability": "nonpayable",
      "type": "function"
    },
    {
      "inputs": [],
      "name": "Get_Register_List",
      "outputs": [
        {
          "internalType": "bytes32[]",
          "name": "",
          "type": "bytes32[]"
        }
      ],
      "stateMutability": "view",
      "type": "function",
      "constant": true
    },
    {
      "inputs": [],
      "name": "Get_Delegation_List",
      "outputs": [
        {
          "internalType": "bytes32[]",
          "name": "",
          "type": "bytes32[]"
        }
      ],
      "stateMutability": "view",
      "type": "function",
      "constant": true
    }
  ],
  "bytecode": "0x60806040523480156200001157600080fd5b50604051620034f6380380620034f683398101604081905262000034916200025c565b60016000819055855186918291620000529190602084019062000199565b5050600280546001600160a01b03191633179055506001600160a01b0381166200007b57600080fd5b60028054306001600160a01b0319918216179091556007805482166001600160a01b0387811691909117909155600680548316868316179055600580548316858316179055600880549092168382161791829055620000ea916003911662000112602090811b62001ed217901c565b50620001068260036200011260201b62001ed21790919060201c565b505050505050620003d2565b600062000129836001600160a01b03841662000132565b90505b92915050565b600062000140838362000181565b62000178575081546001818101845560008481526020808220909301849055845484825282860190935260409020919091556200012c565b5060006200012c565b60009081526001919091016020526040902054151590565b828054620001a7906200037f565b90600052602060002090601f016020900481019282620001cb576000855562000216565b82601f10620001e657805160ff191683800117855562000216565b8280016001018555821562000216579182015b8281111562000216578251825591602001919060010190620001f9565b506200022492915062000228565b5090565b5b8082111562000224576000815560010162000229565b80516001600160a01b03811681146200025757600080fd5b919050565b600080600080600060a0868803121562000274578081fd5b85516001600160401b03808211156200028b578283fd5b818801915088601f8301126200029f578283fd5b815181811115620002b457620002b4620003bc565b604051601f8201601f19908116603f01168101908382118183101715620002df57620002df620003bc565b81604052828152602093508b84848701011115620002fb578586fd5b8591505b828210156200031e5784820184015181830185015290830190620002ff565b828211156200032f57858484830101525b9850620003419150508882016200023f565b9550505062000353604087016200023f565b925062000363606087016200023f565b915062000373608087016200023f565b90509295509295909350565b6002810460018216806200039457607f821691505b60208210811415620003b657634e487b7160e01b600052602260045260246000fd5b50919050565b634e487b7160e01b600052604160045260246000fd5b61311480620003e26000396000f3fe608060405234801561001057600080fd5b50600436106101da5760003560e01c806384e886e911610104578063c1fa9838116100a2578063dfb9449411610071578063dfb944941461039c578063ea1ef9dc146103af578063eb101b23146103b7578063fb252e2d146103cc576101da565b8063c1fa98381461035b578063ca1eb16a14610363578063caf1f81f14610376578063d963545d14610389576101da565b806398c8367e116100de57806398c8367e14610330578063a895cba914610338578063adb3591114610340578063b18d743b14610348576101da565b806384e886e9146103005780638830a4171461031557806396b2aa4014610328576101da565b80632dff94ce1161017c578063595207d51161014b578063595207d5146102b25780635a014a14146102c55780638052474d146102d8578063811a5c1f146102ed576101da565b80632dff94ce1461026657806338df44b1146102795780633c289ea81461028c5780634b5c27341461029f576101da565b806316bb97c2116101b857806316bb97c2146102255780631b5cb3601461022d578063228ab930146102405780632cef26ca14610253576101da565b806302d4cd28146101df57806305ff1b36146101fd5780631529356f14610212575b600080fd5b6101e76103df565b6040516101f4919061283c565b60405180910390f35b61021061020b3660046123b0565b6103fb565b005b610210610220366004612723565b6104b6565b6101e761075e565b61021061023b3660046123b0565b61077a565b61021061024e366004612495565b6107f7565b61021061026136600461251f565b6109e2565b6102106102743660046123ef565b610a4a565b6102106102873660046123b0565b610b47565b61021061029a3660046123b0565b610bec565b6102106102ad3660046123ef565b610cc6565b6102106102c03660046123ef565b610d9f565b6102106102d33660046123ef565b610e66565b6102e0610f71565b6040516101f491906129cb565b6102106102fb3660046127bb565b610fff565b61030861107c565b6040516101f49190612903565b610210610323366004612427565b6110d3565b610308611221565b6101e7611276565b610308611292565b6102106112e7565b6102106103563660046123b0565b61136f565b6101e7611428565b610210610371366004612598565b611444565b6102106103843660046123ef565b61161e565b610210610397366004612598565b6116c0565b6102106103aa366004612621565b61189a565b6101e7611e18565b6103bf611e34565b6040516101f4919061298a565b6102106103da3660046123b0565b611e55565b60025473ffffffffffffffffffffffffffffffffffffffff1681565b610406600333611efd565b61042b5760405162461bcd60e51b815260040161042290612d0b565b60405180910390fd5b6006546040517f05ff1b3600000000000000000000000000000000000000000000000000000000815273ffffffffffffffffffffffffffffffffffffffff909116906305ff1b369061048190849060040161283c565b600060405180830381600087803b15801561049b57600080fd5b505af11580156104af573d6000803e3d6000fd5b5050505050565b6104c1600333611efd565b6104dd5760405162461bcd60e51b815260040161042290612d0b565b600060ff89166104ee57503061064d565b8860ff16600314156105bd576005546040517fe54a1ce800000000000000000000000000000000000000000000000000000000815273__Constitution_Register_________________9163e54a1ce891610566918e9173ffffffffffffffffffffffffffffffffffffffff909116906004016129de565b60206040518083038186803b15801561057e57600080fd5b505af4158015610592573d6000803e3d6000fd5b505050506040513d601f19601f820116820180604052508101906105b691906123d3565b905061064d565b8860ff1660041415610635576005546040517f06d5980200000000000000000000000000000000000000000000000000000000815273__Constitution_Register_________________916306d5980291610566918e9173ffffffffffffffffffffffffffffffffffffffff909116906004016129de565b60405162461bcd60e51b815260040161042290612d79565b610658600982611efd565b156106755760405162461bcd60e51b815260040161042290612bfa565b610680600982611ed2565b506005546040517fef37750700000000000000000000000000000000000000000000000000000000815273ffffffffffffffffffffffffffffffffffffffff9091169063ef377507906106d99084908d906004016128da565b600060405180830381600087803b1580156106f357600080fd5b505af1158015610707573d6000803e3d6000fd5b5050505061071b8189898989898989611f1f565b7f980e949c55d5cbdd511ddc7d2609c25ac65b92c0ecf26be39b91cb5141b3843e8160405161074a919061283c565b60405180910390a150505050505050505050565b60065473ffffffffffffffffffffffffffffffffffffffff1681565b610785600333611efd565b6107a15760405162461bcd60e51b815260040161042290612d0b565b6006546040517fb18d743b00000000000000000000000000000000000000000000000000000000815273ffffffffffffffffffffffffffffffffffffffff9091169063b18d743b9061048190849060040161283c565b610802600333611efd565b61081e5760405162461bcd60e51b815260040161042290612d0b565b610829600b8a611efd565b6108455760405162461bcd60e51b815260040161042290612de7565b871580610850575085155b8061085d575061ffff8416155b8061086a575061ffff8316155b8061087a57506127108361ffff16115b80610899575073ffffffffffffffffffffffffffffffffffffffff8116155b156108b65760405162461bcd60e51b815260040161042290612ab0565b8115610947576007546040517f0f6798a500000000000000000000000000000000000000000000000000000000815273ffffffffffffffffffffffffffffffffffffffff90911690630f6798a590610914908c90869060040161285d565b600060405180830381600087803b15801561092e57600080fd5b505af1158015610942573d6000803e3d6000fd5b505050505b6040517fc503219c00000000000000000000000000000000000000000000000000000000815273ffffffffffffffffffffffffffffffffffffffff8a169063c503219c906109a5908b908b908b908b908b908b908a90600401612f03565b600060405180830381600087803b1580156109bf57600080fd5b505af11580156109d3573d6000803e3d6000fd5b50505050505050505050505050565b6109ed600333611efd565b610a095760405162461bcd60e51b815260040161042290612d0b565b610a14600989611efd565b610a305760405162461bcd60e51b815260040161042290612b1e565b610a408888888888888888611f1f565b5050505050505050565b610a55600333611efd565b610a715760405162461bcd60e51b815260040161042290612d0b565b610a7c600b83611efd565b610a985760405162461bcd60e51b815260040161042290612de7565b610aa3600982611efd565b610abf5760405162461bcd60e51b815260040161042290612ec3565b6040517f4a44fa2500000000000000000000000000000000000000000000000000000000815273ffffffffffffffffffffffffffffffffffffffff831690634a44fa2590610b1190849060040161283c565b600060405180830381600087803b158015610b2b57600080fd5b505af1158015610b3f573d6000803e3d6000fd5b505050505050565b60025473ffffffffffffffffffffffffffffffffffffffff163314610b7e5760405162461bcd60e51b815260040161042290612b55565b610b89600382611efd565b15610ba65760405162461bcd60e51b815260040161042290612e55565b610bb1600382611ed2565b507f5211a48dd5dc810c959d67db85be9de1f52e475be92efb0f7c314b9bd361863d81604051610be1919061283c565b60405180910390a150565b60025473ffffffffffffffffffffffffffffffffffffffff163314610c235760405162461bcd60e51b815260040161042290612b55565b73ffffffffffffffffffffffffffffffffffffffff8116610c565760405162461bcd60e51b815260040161042290612bc3565b600280547fffffffffffffffffffffffff00000000000000000000000000000000000000001673ffffffffffffffffffffffffffffffffffffffff83161790556040517feaf9201ae5a091c46918bca9c5ced3b9aa103362b0a68a1f36b9f2858b0a4c1490610be190839061283c565b610cd1600333611efd565b610ced5760405162461bcd60e51b815260040161042290612d0b565b610cf8600983611efd565b610d145760405162461bcd60e51b815260040161042290612c66565b6040517f38df44b1000000000000000000000000000000000000000000000000000000008152829073ffffffffffffffffffffffffffffffffffffffff8216906338df44b190610d6890859060040161283c565b600060405180830381600087803b158015610d8257600080fd5b505af1158015610d96573d6000803e3d6000fd5b50505050505050565b610daa600333611efd565b610dc65760405162461bcd60e51b815260040161042290612d0b565b610dd1600b83611efd565b610ded5760405162461bcd60e51b815260040161042290612de7565b610df8600982611efd565b610e145760405162461bcd60e51b815260040161042290612ec3565b6040517ffd00029c00000000000000000000000000000000000000000000000000000000815273ffffffffffffffffffffffffffffffffffffffff83169063fd00029c90610b1190849060040161283c565b610e71600333611efd565b610e8d5760405162461bcd60e51b815260040161042290612d0b565b610e98600983611efd565b80610ea95750610ea9600b83611efd565b80610ece575060065473ffffffffffffffffffffffffffffffffffffffff8381169116145b610eea5760405162461bcd60e51b815260040161042290612ae7565b73ffffffffffffffffffffffffffffffffffffffff8116610f1d5760405162461bcd60e51b815260040161042290612d42565b6040517f3c289ea8000000000000000000000000000000000000000000000000000000008152829073ffffffffffffffffffffffffffffffffffffffff821690633c289ea890610d6890859060040161283c565b60018054610f7e90612fce565b80601f0160208091040260200160405190810160405280929190818152602001828054610faa90612fce565b8015610ff75780601f10610fcc57610100808354040283529160200191610ff7565b820191906000526020600020905b815481529060010190602001808311610fda57829003601f168201915b505050505081565b61100a600333611efd565b6110265760405162461bcd60e51b815260040161042290612d0b565b6006546040517f811a5c1f00000000000000000000000000000000000000000000000000000000815273ffffffffffffffffffffffffffffffffffffffff9091169063811a5c1f90610481908490600401612efa565b6003805460408051602080840282018101909252828152606093909290918301828280156110c957602002820191906000526020600020905b8154815260200190600101908083116110b5575b5050505050905090565b6110de600333611efd565b6110fa5760405162461bcd60e51b815260040161042290612d0b565b611105600b86611efd565b6111215760405162461bcd60e51b815260040161042290612de7565b6060840135158061113457506080840135155b8061114457506127108361ffff16115b8061115457506127108261ffff16115b80611173575073ffffffffffffffffffffffffffffffffffffffff8116155b156111905760405162461bcd60e51b815260040161042290612e8c565b6040517f3d9bdc2e00000000000000000000000000000000000000000000000000000000815273ffffffffffffffffffffffffffffffffffffffff861690633d9bdc2e906111e8908790879087908790600401612947565b600060405180830381600087803b15801561120257600080fd5b505af1158015611216573d6000803e3d6000fd5b505050505050505050565b600b805460408051602080840282018101909252828152606093909290918301828280156110c957602002820191906000526020600020908154815260200190600101908083116110b5575050505050905090565b60085473ffffffffffffffffffffffffffffffffffffffff1681565b6009805460408051602080840282018101909252828152606093909290918301828280156110c957602002820191906000526020600020908154815260200190600101908083116110b5575050505050905090565b60085473ffffffffffffffffffffffffffffffffffffffff16331461131e5760405162461bcd60e51b815260040161042290612e1e565b6008546113439060039073ffffffffffffffffffffffffffffffffffffffff16612023565b506040517f2f2cb67b0f865feca7c1c5903533db551a0b342eb9a9a61775ef5f64db3a4c1d90600090a1565b3373ffffffffffffffffffffffffffffffffffffffff821614806113aa575060025473ffffffffffffffffffffffffffffffffffffffff1633145b6113c65760405162461bcd60e51b815260040161042290612c31565b6113d1600382611efd565b6113ed5760405162461bcd60e51b815260040161042290612c9d565b6113f8600382612023565b507fb08d132e7857df60570932b8e15c9544f136a8f716c15b00f65a64814457875b81604051610be1919061283c565b60075473ffffffffffffffffffffffffffffffffffffffff1681565b61144f600333611efd565b61146b5760405162461bcd60e51b815260040161042290612d0b565b828160005b828110156115455760075473ffffffffffffffffffffffffffffffffffffffff1663d2a009128888848181106114cf577f4e487b7100000000000000000000000000000000000000000000000000000000600052603260045260246000fd5b90506020020160208101906114e491906123b0565b6040518263ffffffff1660e01b8152600401611500919061283c565b600060405180830381600087803b15801561151a57600080fd5b505af115801561152e573d6000803e3d6000fd5b50505050808061153d90613022565b915050611470565b5060005b81811015610d965760075473ffffffffffffffffffffffffffffffffffffffff166384bf16338686848181106115a8577f4e487b7100000000000000000000000000000000000000000000000000000000600052603260045260246000fd5b90506020020160208101906115bd91906123b0565b6040518263ffffffff1660e01b81526004016115d9919061283c565b600060405180830381600087803b1580156115f357600080fd5b505af1158015611607573d6000803e3d6000fd5b50505050808061161690613022565b915050611549565b611629600333611efd565b6116455760405162461bcd60e51b815260040161042290612d0b565b611650600983611efd565b61166c5760405162461bcd60e51b815260040161042290612c66565b6040517fb18d743b000000000000000000000000000000000000000000000000000000008152829073ffffffffffffffffffffffffffffffffffffffff82169063b18d743b90610d6890859060040161283c565b6116cb600333611efd565b6116e75760405162461bcd60e51b815260040161042290612d0b565b828160005b828110156117c15760075473ffffffffffffffffffffffffffffffffffffffff1663a2777e0e88888481811061174b577f4e487b7100000000000000000000000000000000000000000000000000000000600052603260045260246000fd5b905060200201602081019061176091906123b0565b6040518263ffffffff1660e01b815260040161177c919061283c565b600060405180830381600087803b15801561179657600080fd5b505af11580156117aa573d6000803e3d6000fd5b5050505080806117b990613022565b9150506116ec565b5060005b81811015610d965760075473ffffffffffffffffffffffffffffffffffffffff166358c75ed1868684818110611824577f4e487b7100000000000000000000000000000000000000000000000000000000600052603260045260246000fd5b905060200201602081019061183991906123b0565b6040518263ffffffff1660e01b8152600401611855919061283c565b600060405180830381600087803b15801561186f57600080fd5b505af1158015611883573d6000803e3d6000fd5b50505050808061189290613022565b9150506117c5565b6118a5600333611efd565b6118c15760405162461bcd60e51b815260040161042290612d0b565b606089013515806118d457506080890135155b806118e457506127108661ffff16115b806118f457506127108561ffff16115b80611913575073ffffffffffffffffffffffffffffffffffffffff8216155b156119305760405162461bcd60e51b815260040161042290612e8c565b8735158061194057506040880135155b8061194d575061ffff8716155b8061195a575061ffff8416155b8061196a57506127108461ffff16115b8061197957508661ffff168351115b80611998575073ffffffffffffffffffffffffffffffffffffffff8116155b156119b55760405162461bcd60e51b815260040161042290612ab0565b73ffffffffffffffffffffffffffffffffffffffff8a16611bd85760005b8351811015611adb57600654845173ffffffffffffffffffffffffffffffffffffffff909116906357f98d3290869084908110611a39577f4e487b7100000000000000000000000000000000000000000000000000000000600052603260045260246000fd5b60200260200101516040518263ffffffff1660e01b8152600401611a5d919061283c565b60206040518083038186803b158015611a7557600080fd5b505afa158015611a89573d6000803e3d6000fd5b505050506040513d601f19601f82011682018060405250810190611aad9190612601565b611ac95760405162461bcd60e51b815260040161042290612b8c565b80611ad381613022565b9150506119d3565b5073__Constitution_Delegation_______________63c8ff65278c85600760009054906101000a900473ffffffffffffffffffffffffffffffffffffffff16600660009054906101000a900473ffffffffffffffffffffffffffffffffffffffff16600560009054906101000a900473ffffffffffffffffffffffffffffffffffffffff166040518663ffffffff1660e01b8152600401611b81959493929190612a16565b60206040518083038186803b158015611b9957600080fd5b505af4158015611bad573d6000803e3d6000fd5b505050506040513d601f19601f82011682018060405250810190611bd191906123d3565b9950611c00565b611be3600b8b611efd565b15611c005760405162461bcd60e51b815260040161042290612cd4565b6040517f3d9bdc2e00000000000000000000000000000000000000000000000000000000815273ffffffffffffffffffffffffffffffffffffffff8b1690633d9bdc2e90611c58908c908a908a908890600401612947565b600060405180830381600087803b158015611c7257600080fd5b505af1158015611c86573d6000803e3d6000fd5b5050604080517fc503219c00000000000000000000000000000000000000000000000000000000815273ffffffffffffffffffffffffffffffffffffffff8e16935063c503219c9250611cf4918c359160208e0135918e01359060608f0135908e908c908a90600401612f03565b600060405180830381600087803b158015611d0e57600080fd5b505af1158015611d22573d6000803e3d6000fd5b50505050611d3a8a600b611ed290919063ffffffff16565b50608088013515611dd4576007546040517f0f6798a500000000000000000000000000000000000000000000000000000000815273ffffffffffffffffffffffffffffffffffffffff90911690630f6798a590611da1908d9060808d01359060040161285d565b600060405180830381600087803b158015611dbb57600080fd5b505af1158015611dcf573d6000803e3d6000fd5b505050505b7fd3be3eeeb5a3df7ae7f97fa6bd63af76a637922217dfa1c4abb9dda5266d1fad8a604051611e03919061283c565b60405180910390a15050505050505050505050565b60055473ffffffffffffffffffffffffffffffffffffffff1681565b60025474010000000000000000000000000000000000000000900460ff1681565b611e60600333611efd565b611e7c5760405162461bcd60e51b815260040161042290612d0b565b6006546040517ffb252e2d00000000000000000000000000000000000000000000000000000000815273ffffffffffffffffffffffffffffffffffffffff9091169063fb252e2d9061048190849060040161283c565b6000611ef48373ffffffffffffffffffffffffffffffffffffffff8416612045565b90505b92915050565b6000611ef48373ffffffffffffffffffffffffffffffffffffffff841661208f565b861580611f2a575085155b80611f37575061ffff8216155b80611f4757506127108261ffff16115b80611f66575073ffffffffffffffffffffffffffffffffffffffff8116155b15611f835760405162461bcd60e51b815260040161042290612db0565b6005546040517fbbfc76c100000000000000000000000000000000000000000000000000000000815273ffffffffffffffffffffffffffffffffffffffff9091169063bbfc76c190611fe7908b908b908b908b908b908b908b908b90600401612883565b600060405180830381600087803b15801561200157600080fd5b505af1158015612015573d6000803e3d6000fd5b505050505050505050505050565b6000611ef48373ffffffffffffffffffffffffffffffffffffffff84166120a7565b6000612051838361208f565b61208757508154600181810184556000848152602080822090930184905584548482528286019093526040902091909155611ef7565b506000611ef7565b60009081526001919091016020526040902054151590565b600081815260018301602052604081205480156122055760006120cb600183612fb7565b85549091506000906120df90600190612fb7565b9050600086600001828154811061211f577f4e487b7100000000000000000000000000000000000000000000000000000000600052603260045260246000fd5b9060005260206000200154905080876000018481548110612169577f4e487b7100000000000000000000000000000000000000000000000000000000600052603260045260246000fd5b600091825260209091200155612180836001612f9f565b600082815260018901602052604090205586548790806121c9577f4e487b7100000000000000000000000000000000000000000000000000000000600052603160045260246000fd5b60019003818190600052602060002001600090559055866001016000878152602001908152602001600020600090556001945050505050611ef7565b6000915050611ef7565b803561221a816130b9565b919050565b60008083601f840112612230578182fd5b50813567ffffffffffffffff811115612247578182fd5b602083019150836020808302850101111561226157600080fd5b9250929050565b600082601f830112612278578081fd5b8135602067ffffffffffffffff8211156122945761229461308a565b8082026122a2828201612f50565b8381528281019086840183880185018910156122bc578687fd5b8693505b858410156122e75780356122d3816130b9565b8352600193909301929184019184016122c0565b50979650505050505050565b8060a08101831015611ef757600080fd5b8060c08101831015611ef757600080fd5b600082601f830112612325578081fd5b813567ffffffffffffffff81111561233f5761233f61308a565b61237060207fffffffffffffffffffffffffffffffffffffffffffffffffffffffffffffffe0601f84011601612f50565b818152846020838601011115612384578283fd5b816020850160208301379081016020019190915292915050565b803561ffff8116811461221a57600080fd5b6000602082840312156123c1578081fd5b81356123cc816130b9565b9392505050565b6000602082840312156123e4578081fd5b81516123cc816130b9565b60008060408385031215612401578081fd5b823561240c816130b9565b9150602083013561241c816130b9565b809150509250929050565b6000806000806000610140868803121561243f578081fd5b853561244a816130b9565b94506124598760208801612304565b935061246760e0870161239e565b9250612476610100870161239e565b9150610120860135612487816130b9565b809150509295509295909350565b60008060008060008060008060006101208a8c0312156124b3578384fd5b89356124be816130b9565b985060208a0135975060408a0135965060608a0135955060808a013594506124e860a08b0161239e565b93506124f660c08b0161239e565b925060e08a013591506101008a013561250e816130b9565b809150509295985092959850929598565b600080600080600080600080610100898b03121561253b578384fd5b8835612546816130b9565b97506020890135965060408901359550606089013594506080890135935060a0890135925061257760c08a0161239e565b915060e0890135612587816130b9565b809150509295985092959890939650565b600080600080604085870312156125ad578384fd5b843567ffffffffffffffff808211156125c4578586fd5b6125d08883890161221f565b909650945060208701359150808211156125e8578384fd5b506125f58782880161221f565b95989497509550505050565b600060208284031215612612578081fd5b815180151581146123cc578182fd5b60008060008060008060008060008060006102808c8e031215612642578485fd5b67ffffffffffffffff808d351115612658578586fd5b6126658e8e358f01612315565b9b5061267360208e0161220f565b9a506126828e60408f01612304565b99506126928e6101008f016122f3565b98506126a16101a08e0161239e565b97506126b06101c08e0161239e565b96506126bf6101e08e0161239e565b95506126ce6102008e0161239e565b9450806102208e013511156126e1578283fd5b506126f38d6102208e01358e01612268565b92506127026102408d0161220f565b91506127116102608d0161220f565b90509295989b509295989b9093969950565b60008060008060008060008060006101208a8c031215612741578283fd5b893567ffffffffffffffff811115612757578384fd5b6127638c828d01612315565b99505060208a013560ff81168114612779578384fd5b975060408a0135965060608a0135955060808a0135945060a08a0135935060c08a013592506127aa60e08b0161239e565b91506101008a013561250e816130b9565b6000602082840312156127cc578081fd5b5035919050565b60008151808452815b818110156127f8576020818501810151868301820152016127dc565b818111156128095782602083870101525b50601f017fffffffffffffffffffffffffffffffffffffffffffffffffffffffffffffffe0169290920160200192915050565b73ffffffffffffffffffffffffffffffffffffffff91909116815260200190565b73ffffffffffffffffffffffffffffffffffffffff929092168252602082015260400190565b73ffffffffffffffffffffffffffffffffffffffff9889168152602081019790975260408701959095526060860193909352608085019190915260a084015261ffff1660c083015290911660e08201526101000190565b73ffffffffffffffffffffffffffffffffffffffff92909216825260ff16602082015260400190565b6020808252825182820181905260009190848201906040850190845b8181101561293b5783518352928401929184019160010161291f565b50909695505050505050565b610120810160c086833761ffff94851660c08301529290931660e084015273ffffffffffffffffffffffffffffffffffffffff1661010090920191909152919050565b60208101600783106129c5577f4e487b7100000000000000000000000000000000000000000000000000000000600052602160045260246000fd5b91905290565b600060208252611ef460208301846127d3565b6000604082526129f160408301856127d3565b905073ffffffffffffffffffffffffffffffffffffffff831660208301529392505050565b600060a08252612a2960a08301886127d3565b828103602084810191909152875180835288820192820190845b81811015612a7557845173ffffffffffffffffffffffffffffffffffffffff1683529383019391830191600101612a43565b505073ffffffffffffffffffffffffffffffffffffffff97881660408601529587166060850152505050921660809092019190915292915050565b6020808252601e908201527f476f7665726e616e63653a2042616420417267756d656e742056616c75650000604082015260600190565b60208082526018908201527f696e7374616e6365206164647265737320756e6b6e6f776e0000000000000000604082015260600190565b60208082526016908201527f526567697374657220646f65736e277420657869737400000000000000000000604082015260600190565b60208082526011908201527f436f6e737469747574696f6e204f6e6c79000000000000000000000000000000604082015260600190565b60208082526015908201527f4d656d626572206973206e6f7420636974697a656e0000000000000000000000604082015260600190565b60208082526009908201527f4164647265737320300000000000000000000000000000000000000000000000604082015260600190565b60208082526019908201527f526567697374657220416c7265616479204578697374696e6700000000000000604082015260600190565b6020808252818101527f4e6f7420416c6c6f7765642052656d6f76696e6720417574686f726974696573604082015260600190565b60208082526010908201527f556e6b6e6f776e20526567697374657200000000000000000000000000000000604082015260600190565b6020808252601e908201527f4e6f74206578697374696e6720617574686f72697479206163636f756e740000604082015260600190565b6020808252601d908201527f44656c65676174696f6e20616c72656164792072656769737465726564000000604082015260600190565b60208082526010908201527f417574686f726974696573204f6e6c7900000000000000000000000000000000604082015260600190565b60208082526009908201527f6164647265737320300000000000000000000000000000000000000000000000604082015260600190565b60208082526011908201527f4e6f742052656769737465722054797065000000000000000000000000000000604082015260600190565b60208082526013908201527f42616420617267756d656e74732076616c756500000000000000000000000000604082015260600190565b60208082526017908201527f4e6f6e204578697374696e672044656c65676174696f6e000000000000000000604082015260600190565b6020808252601c908201527f5472616e736974696f6e616c5f476f7665726e6d656e74206f6e6c7900000000604082015260600190565b6020808252601a908201527f416c7265616479206578697374696e6720617574686f72697479000000000000604082015260600190565b6020808252601e908201527f4c656769736c617469663a2042616420417267756d656e742056616c75650000604082015260600190565b60208082526015908201527f4e6f6e204578697374696e672052656769737465720000000000000000000000604082015260600190565b90815260200190565b96875260208701959095526040860193909352606085019190915261ffff90811660808501521660a083015273ffffffffffffffffffffffffffffffffffffffff1660c082015260e00190565b604051601f82017fffffffffffffffffffffffffffffffffffffffffffffffffffffffffffffffe016810167ffffffffffffffff81118282101715612f9757612f9761308a565b604052919050565b60008219821115612fb257612fb261305b565b500190565b600082821015612fc957612fc961305b565b500390565b600281046001821680612fe257607f821691505b6020821081141561301c577f4e487b7100000000000000000000000000000000000000000000000000000000600052602260045260246000fd5b50919050565b60007fffffffffffffffffffffffffffffffffffffffffffffffffffffffffffffffff8214156130545761305461305b565b5060010190565b7f4e487b7100000000000000000000000000000000000000000000000000000000600052601160045260246000fd5b7f4e487b7100000000000000000000000000000000000000000000000000000000600052604160045260246000fd5b73ffffffffffffffffffffffffffffffffffffffff811681146130db57600080fd5b5056fea2646970667358221220d8a89cc3a9abbcd9d47fdafd64fc0bb7cc1d7c5590b30a1e10b5ea6d6874940f64736f6c63430008010033",
  "immutableReferences": {},
  "source": "// SPDX-License-Identifier: MIT\npragma solidity ^0.8.0;\n\n/*import \"Register.sol\";\nimport \"Agora.sol\";\nimport \"Loi.sol\";\nimport \"API_Register.sol\";\nimport \"Delegation.sol\";\nimport \"IDelegation.sol\";\nimport \"Citizens_Register.sol\";\nimport \"IVote.sol\";*/\n\nimport \"contracts/Register.sol\";\nimport \"contracts/Agora.sol\";\nimport \"contracts/Loi.sol\";\nimport \"contracts/API_Register.sol\";\nimport \"contracts/Delegation.sol\";\nimport \"contracts/Citizens_Register.sol\";\nimport \"contracts/IVote.sol\";\n\nlibrary Constitution_Register{\n\n     \n    function Create_Loi(string memory Loi_Name, address agora)external returns(address){\n         Loi loi = new Loi(Loi_Name, agora);\n         //loi.Add_Authority(authority);\n         return address(loi);\n     }\n     \n     /*function Create_Citizens(string memory Citizen_Name, address[] calldata Initial_members, address token_address, uint new_citizen_mint_amount)external returns(address){\n         return address(new Citizens_Register(Citizen_Name,Initial_members, token_address, new_citizen_mint_amount));\n     }*/\n     \n     function Create_API(string memory Name, address agora) external returns(address){\n         return address(new API_Register(Name, agora));\n     }\n    \n}\n\n\nlibrary Constitution_Delegation{\n\n    function Create_Delegation(string memory Delegation_Name, address[] calldata Initial_members, address Token_Address, address citizen_address, address agora_address)external returns(address){\n         Delegation delegation = new Delegation(Delegation_Name, Initial_members, Token_Address, citizen_address, agora_address);\n         return address(delegation);\n    }\n    \n    \n}\n\n\n\n\n\n\n\n\n //contract Constitution is Register, IConstitution_Agora, IConstitution_Delegation{\ncontract Constitution is Register{\n     using EnumerableSet for EnumerableSet.AddressSet;\n     //using Constitution_Register for Constitution_Register.Register_Parameters;\n     //using Constitution_Delegation for Constitution_Delegation.Delegation_Parameters;\n     //using SafeMath for uint8;\n     \n    /* struct Register_Parameters{\n         //uint Index; // index in Registers_Address_List array\n         uint Actual_Version;\n         uint Petition_Duration;\n         uint Vote_Duration;\n         uint Vote_Checking_Duration;\n         uint Helper_Max_Duration;\n         uint Law_Initialisation_Price;\n         uint FunctionCall_Price;\n         uint Helper_Amount_Escrow;\n         uint16 Assembly_Max_Members;\n         uint16 Description_Max_Size;\n         uint8 FunctionCall_Max_Number;\n         uint8 Required_Petition_Rate;\n         uint8 Representatives_Rates;\n         uint8 Voters_Reward_Rate;\n         uint8 Helper_Reward_Rate;\n         uint8 Assembly_Voluteer_Reward_Rate;\n         uint8 OffChain_Delegation_Reward;\n         uint8 Vote_Type;\n         uint8 Register_Type;\n         address OffChain_Vote_Delegation;   // Delegation in charge of filling in on chain the result of the off-chain vote\n         address Assembly_Associated_Delegation;    // Delegation allowed to take part in the Agora Assembly in charge of voting for the good proposition\n     }*/\n     \n     /*struct Register_Parameters{\n         uint Index; // index in Registers_Address_List array\n         uint8 Register_Type;\n         mapping(uint=>Referendum_Parameters) Parameter_Versions;\n         uint Actual_Version;\n     }*/\n     \n     /*struct Delegation_Parameters{\n         //uint Index;\n         //uint Revert_Penalty_Limit;\n         uint Legislatif_Process_Version;\n         uint Internal_Governance_Version;\n         uint Member_Max_Token_Usage;\n         uint Law_Initialisation_Price;\n         uint FunctionCall_Price; \n         uint Proposition_Duration;\n         uint Vote_Duration;\n         uint Election_Duration;\n         uint Law_Revertable_Period_Duration;\n         uint Mandate_Duration;\n         uint Immunity_Duration;\n         uint16 Num_Max_Members;\n         uint8 Revert_Proposition_Petition_Rate;\n         uint8 New_Election_Petition_Rate;\n         uint8 Revert_Penalty_Rate;\n         EnumerableSet.AddressSet Controled_Register;\n     }*/\n     \n    // event Register_Parameters_Modified(address);\n     event Register_Created(address register);\n     event Delegation_Created(address delegation);\n     event Transitional_Government_Finised();\n     \n     Agora public Agora_Instance;\n     Citizens_Register public Citizen_Instance;\n     DemoCoin public Democoin_Instance;\n     //IVote public majority_judgment_ballot;\n     //address public Citizens_Address;\n     \n     address public Transitional_Government;\n     \n     //mapping(address=>Constitution_Register.Register_Parameters)  Registers;\n     EnumerableSet.AddressSet Registers_Address_List;\n     \n     //mapping(address=>Constitution_Delegation.Delegation_Parameters) Delegations;\n     EnumerableSet.AddressSet Delegation_Address_List;\n        \n     \n     \n     //uint8 public Account_Max_Token_Rate;  //Each account can't pocess more than \"Account_Max_Token_Rate\"% of the entire token supply.\n     \n     \n    // constructor(string memory Constitution_Name, string memory Citizen_Name, string memory Agora_Name,address transition_government, address[] memory initial_citizens, string memory Token_Name, string memory Token_Symbole, uint[] memory initial_citizens_token_amount, uint new_citizen_mint_amount) Register(Constitution_Name) {\n      constructor(string memory Constitution_Name, address DemoCoin_Address, address Citizen_Address, address Agora_Address, address transition_government) Register(Constitution_Name){   \n        require(transition_government !=address(0));\n         \n         Constitution_Address = address(this);\n         //Type_Institution = Institution_Type.CONSTITUTION;\n         /*Democoin = new DemoCoin(Token_Name, Token_Symbole, initial_citizens, initial_citizens_token_amount);\n         Citizen_Instance = new Citizens_Register(Citizen_Name, initial_citizens, address(Democoin), new_citizen_mint_amount);\n         Agora_Instance = new Agora(Agora_Name, address(Democoin), address(Citizen_Instance));*/\n         \n         Democoin_Instance = DemoCoin(DemoCoin_Address);\n         Citizen_Instance = Citizens_Register(Citizen_Address);\n         Agora_Instance = Agora(Agora_Address);\n         \n         //majority_judgment_ballot = new majority_judgment_ballot();\n         //Citizens_Address = Constitution_Register.Create_Citizens(initial_citizens);\n         \n         Transitional_Government = transition_government;\n         Register_Authorities.add(Transitional_Government);\n         Register_Authorities.add(Agora_Address);\n         \n     }\n     \n     \n     function End_Transition_Government()external{\n         require(msg.sender == Transitional_Government, \"Transitional_Government only\");\n         Register_Authorities.remove(Transitional_Government);\n         emit Transitional_Government_Finised();\n     }\n     \n     function Add_Register_Authority(address register, address authority) external Register_Authorities_Only{\n         require(Registers_Address_List.contains(register), \"Unknown Register\");\n         Register res = Register(register);\n         res.Add_Authority(authority);\n     }\n     \n     function Remove_Register_Authority(address register, address authority) external Register_Authorities_Only{\n         require(Registers_Address_List.contains(register), \"Unknown Register\");\n         Register res = Register(register);\n         res.Remove_Authority(authority);\n     }\n\n     \n     function Set_Instances_Constitution(address instance_address, address new_address)external Register_Authorities_Only{\n         require(Registers_Address_List.contains(instance_address) || Delegation_Address_List.contains(instance_address) || instance_address== address(Citizen_Instance), \"instance address unknown\"); // There is no interest to modify Agora's constitution.\n         require(new_address!=address(0),\"address 0\");\n         Institution Insti = Institution(instance_address);\n         Insti.Set_Constitution(new_address);\n     }\n     \n    /*FUNCTIONCALL API functions*/\n    \n    \n    /*DemoCoin functions*/\n    \n    function Set_Minnter(address[] calldata Add_Minter, address[] calldata Remove_Minter)external Register_Authorities_Only{\n        uint add_len=Add_Minter.length;\n        uint remove_len = Remove_Minter.length;\n        for(uint i =0; i<add_len;i++){\n            Democoin_Instance.Add_Minter(Add_Minter[i]);\n        }\n        for(uint j=0; j<remove_len; j++){\n            Democoin_Instance.Remove_Minter(Remove_Minter[j]);\n        }\n    }\n    \n    function Set_Burner(address[] calldata Add_Burner, address[] calldata Remove_Burner)external Register_Authorities_Only{\n        uint add_len=Add_Burner.length;\n        uint remove_len = Remove_Burner.length;\n        for(uint i =0; i<add_len;i++){\n            Democoin_Instance.Add_Burner(Add_Burner[i]);\n        }\n        for(uint j=0; j<remove_len; j++){\n            Democoin_Instance.Remove_Burner(Remove_Burner[j]);\n        }\n    }\n    \n    \n    /*Citizens_Register  Handling*/\n    \n    function Set_Citizen_Mint_Amount(uint amount) external Register_Authorities_Only{\n        Citizen_Instance.Set_Citizen_Mint_Amount(amount);\n    }\n    \n    function Citizen_Register_Remove_Authority(address removed_authority) external Register_Authorities_Only{\n        Citizen_Instance.Remove_Authority(removed_authority);\n    }\n    \n    function Add_Registering_Authority(address new_authority)external Register_Authorities_Only{\n        Citizen_Instance.Add_Registering_Authority(new_authority);\n     }\n     \n     /*function Remove_Registering_Authority(address removed_authority)external Register_Authorities_Only{\n         Citizen_Instance.Remove_Registering_Authority(removed_authority);\n     }*/\n     \n     function Add_Banning_Authority(address new_authority)external Register_Authorities_Only{\n         Citizen_Instance.Add_Banning_Authority(new_authority);\n     }\n     \n     /*function Remove_Banning_Authority(address removed_authority)external Register_Authorities_Only{\n         Citizen_Instance.Remove_Banning_Authority(removed_authority);\n     }*/\n    \n    \n    \n    /*Register/Agora Handling*/\n    function Create_Register(string memory Name, uint8 register_type, uint Petition_Duration, uint Vote_Duration, uint Vote_Checking_Duration, uint Law_Initialisation_Price, uint FunctionCall_Price, uint16 Required_Petition_Rate, address Ivote_address)\n    external Register_Authorities_Only{ //returns(bool, bytes memory){\n        \n        \n        address new_register_address;\n        \n        if(register_type == 0){ \n            new_register_address = address(this);\n        }else if(register_type == 3){\n            new_register_address = Constitution_Register.Create_Loi(Name, address(Agora_Instance));\n        }else if(register_type == 4){\n            new_register_address = Constitution_Register.Create_API(Name, address(Agora_Instance));\n        }else{\n            revert(\"Not Register Type\");\n        }\n        \n        require(!Registers_Address_List.contains(new_register_address), \"Register Already Existing\");\n        \n        /*if(Assembly_Associated_Delegation != address(0) && !Delegation_Address_List.contains(Assembly_Associated_Delegation)){\n            //return (false, bytes(\"Delegation doesn't exist\"));\n            revert(\"Delegation doesn't exist\");\n        }*/\n        \n        Registers_Address_List.add(new_register_address);\n     \n        Agora_Instance.Create_Register_Referendum(new_register_address, register_type);\n        _Set_Register_Param(new_register_address, Petition_Duration, Vote_Duration, Vote_Checking_Duration, Law_Initialisation_Price, FunctionCall_Price, Required_Petition_Rate, Ivote_address);\n         \n         \n         //Registers[new_register_address].Register_Type = register_type;\n         //Registers[new_register_address].Actual_Version = 1;\n         emit Register_Created(new_register_address);\n         \n        //return (true, bytes(\"\"));\n        //return Registers[new_register_address]._Set_Register_Param(new_register_address, Uint256_Arg, Uint16_Arg, Uint8_Arg, OffChain_Vote_Delegation, Assembly_Associated_Delegation);\n    }\n    \n    function Set_Register_Param(address register_address, uint Petition_Duration, uint Vote_Duration, uint Vote_Checking_Duration, uint Law_Initialisation_Price, uint FunctionCall_Price, uint16 Required_Petition_Rate, address Ivote_address) \n    external Register_Authorities_Only{ //returns(bool, bytes memory){\n        //uint version = Registers[register_address].Actual_Version;\n    \n        require(Registers_Address_List.contains(register_address), \"Register doesn't exist\");\n        \n        /*if( Delegations[Assembly_Associated_Delegation].Num_Max_Members ==0 && Assembly_Associated_Delegation != address(0)){\n            //return (false, bytes(\"Delegation doesn't exist\"));\n            revert(\"Delegation doesn't exist\");\n        }*/\n        \n      \n        _Set_Register_Param(register_address, Petition_Duration, Vote_Duration, Vote_Checking_Duration, Law_Initialisation_Price, FunctionCall_Price, Required_Petition_Rate, Ivote_address);\n         \n        //emit Register_Parameters_Modified(register_address);\n        //return (success, data);\n        //return Registers[register_address]._Set_Register_Param( Uint256_Arg, Assembly_Max_Members, Uint8_Arg, OffChain_Vote_Delegation, Assembly_Associated_Delegation);\n       \n    }\n    \n     function _Set_Register_Param(address register_address, uint Petition_Duration, uint Vote_Duration, uint Vote_Checking_Duration, uint Law_Initialisation_Price, uint FunctionCall_Price, uint16 Required_Petition_Rate, address Ivote_address) \n     internal {//returns(bool, bytes memory){\n        //uint version =register.Actual_Version;\n        \n        if(Petition_Duration ==0 || Vote_Duration ==0 || Required_Petition_Rate == 0 || Required_Petition_Rate >10000 || Ivote_address==address(0)){\n            revert(\"Bad arguments value\");\n        }\n        \n        /*if(Uint256_Arg[0] ==0 || Uint256_Arg[1] ==0 || Uint256_Arg[3]==0 || Uint8_Arg[0] == 0 || Uint8_Arg[0] >100 || Uint8_Arg[1]>100 || Ivote_address==address(0)){\n            //return (false, bytes(\"Bad arguments value\"));\n            revert(\"Bad arguments value\");\n        }\n        //uint temp = uint(Uint8_Arg[3]).add(uint(Uint8_Arg[4]).add(uint(Uint8_Arg[5]).add(uint(Uint8_Arg[6]))));\n        if(uint(Uint8_Arg[2]).add(uint(Uint8_Arg[3]).add(uint(Uint8_Arg[4]).add(uint(Uint8_Arg[5])))) != 100 || (Assembly_Max_Members ==0 && Uint8_Arg[4]>0) || Uint8_Arg[1]>100 || (Assembly_Associated_Delegation != address(0) && Uint8_Arg[1]==0)){\n            //return (false, bytes(\"Reward inconsistency\"));\n            revert(\"Reward inconsistency\");\n        }*/\n        \n        \n        Agora_Instance.Update_Register_Referendum_Parameters(register_address, Petition_Duration, Vote_Duration, Vote_Checking_Duration, Law_Initialisation_Price, FunctionCall_Price, Required_Petition_Rate, Ivote_address);\n        //Registers[register_param].Set_Register(Uint256_Arg,  Uint16_Arg, Uint8_Arg,  OffChain_Vote_Delegation,  Assembly_Associated_Delegation);\n       \n    }\n    \n    \n    \n    \n    \n     /*Delegations Handling*/\n     \n   function Create_Delegation(string memory Name, address delegation_address, uint[6] calldata Uint256_Legislatifs_Arg, uint[5] calldata Uint256_Governance_Arg, \n         uint16 Num_Max_Members, uint16 Revert_Proposition_Petition_Rate, uint16 Revert_Penalty_Rate, \n         uint16 New_Election_Petition_Rate, address[] memory Initial_members, address Ivote_address_legislatif, address Ivote_address_governance)\n         external Register_Authorities_Only {\n\n            if(Uint256_Legislatifs_Arg[3]==0 || Uint256_Legislatifs_Arg[4]==0 || Revert_Proposition_Petition_Rate>10000 || Revert_Penalty_Rate>10000 || Ivote_address_legislatif==address(0)){\n                 //return(false, bytes(\"Bad Argument Value\"));\n                 revert(\"Legislatif: Bad Argument Value\");\n             }\n             \n             if(Uint256_Governance_Arg[0]==0 || Uint256_Governance_Arg[2]==0 || Num_Max_Members==0 || New_Election_Petition_Rate ==0 || New_Election_Petition_Rate>10000 || Initial_members.length > Num_Max_Members || Ivote_address_governance==address(0)){\n                 //return(false, bytes(\"Bad Argument Value\"));\n                 revert(\"Governance: Bad Argument Value\");\n             }\n            \n            \n            if(delegation_address == address(0)){ //Create a new delegation\n                 /*Delegation Delegation_Instance = new Delegation(Initial_members, address(Democoin));\n                 delegation_address = address(Delegation_Instance);*/\n                 for(uint i =0; i<Initial_members.length; i++){\n                     require(Citizen_Instance.Contains(Initial_members[i]), \"Member is not citizen\");\n                 }\n                 delegation_address = Constitution_Delegation.Create_Delegation(Name, Initial_members, address(Democoin_Instance), address(Citizen_Instance), address(Agora_Instance));\n            }else{\n                require(!Delegation_Address_List.contains(delegation_address), \"Delegation already registered\");\n                //return(false,bytes(\"Delegation already registered\"));\n            }\n            \n            IDelegation(delegation_address).Update_Legislatif_Process(Uint256_Legislatifs_Arg, Revert_Proposition_Petition_Rate, Revert_Penalty_Rate, Ivote_address_legislatif);\n            IDelegation(delegation_address).Update_Internal_Governance(Uint256_Governance_Arg[0], Uint256_Governance_Arg[1], Uint256_Governance_Arg[2], Uint256_Governance_Arg[3], Num_Max_Members, New_Election_Petition_Rate, Ivote_address_governance);\n\n            /*Delegation(delegation_address).Update_Legislatif_Process(Uint256_Legislatifs_Arg[0], Uint256_Legislatifs_Arg[1], Uint256_Legislatifs_Arg[2], Uint256_Legislatifs_Arg[3], Uint256_Legislatifs_Arg[4], Uint256_Legislatifs_Arg[5], Revert_Proposition_Petition_Rate, Revert_Penalty_Rate, Ivote_address_legislatif);\n            Delegation(delegation_address).Update_Internal_Governance(Uint256_Governance_Arg[0], Uint256_Governance_Arg[1], Uint256_Governance_Arg[2], Uint256_Governance_Arg[3], Num_Max_Members, New_Election_Petition_Rate, Ivote_address_governance);\n            */\n            //Delegations[delegation_address]._Set_Delegation_Legislatif_Process(Uint256_Legislatifs_Arg[0], Uint256_Legislatifs_Arg[1], Uint256_Legislatifs_Arg[2], Uint256_Legislatifs_Arg[3], Uint256_Legislatifs_Arg[4], Uint256_Legislatifs_Arg[5], Revert_Proposition_Petition_Rate, Revert_Penalty_Rate);\n            //Delegations[delegation_address]._Set_Delegation_Internal_Governance(Uint256_Governance_Arg[0], Uint256_Governance_Arg[1], Uint256_Governance_Arg[2], Num_Max_Members, New_Election_Petition_Rate);\n            \n            Delegation_Address_List.add(delegation_address);\n            \n            if(Uint256_Governance_Arg[4]>0){\n                Democoin_Instance.Mint(delegation_address, Uint256_Governance_Arg[4]);\n            }\n            \n            emit Delegation_Created(delegation_address);\n         }\n         \n         /* 0x0000000000000000000000000000000000000000, [15,5,1, 1000, 2000, 500], [1000, 10000,3000, 40] 20, 30, 20, 50*/\n\n         \n    function Add_Delegation_Controled_Register(address delegation_address, address new_controled_register) external Register_Authorities_Only{\n        require(Delegation_Address_List.contains(delegation_address), \"Non Existing Delegation\");\n        require(Registers_Address_List.contains(new_controled_register), \"Non Existing Register\");\n        //Register(new_controled_register).Add_Authority(delegation_address);  //Add the delegation address to the authority list of registers whose address is in \"add_controled_register\"\n        IDelegation(delegation_address).Add_Controled_Register( new_controled_register);    \n    \n    }\n    \n    \n    function Remove_Delegation_Controled_Register(address delegation_address, address removed_controled_register) external Register_Authorities_Only{\n        require(Delegation_Address_List.contains(delegation_address), \"Non Existing Delegation\");\n        require(Registers_Address_List.contains(removed_controled_register), \"Non Existing Register\");\n        IDelegation(delegation_address).Remove_Controled_Register( removed_controled_register);\n        //The removal of the delegation address from the authority list of registers whose address is in \"remove_controled_register\" is left to the delegation.\n    }\n     \n    \n    function Set_Delegation_Legislatif_Process(address delegation_address, uint[6] calldata Uint256_Legislatifs_Arg, uint16 Revert_Proposition_Petition_Rate, \n         uint16 Revert_Penalty_Rate, address Ivote_address) \n         external Register_Authorities_Only{ //returns(bool, bytes memory){\n             \n             require(Delegation_Address_List.contains(delegation_address), \"Non Existing Delegation\");\n             \n             if(Uint256_Legislatifs_Arg[3]==0 || Uint256_Legislatifs_Arg[4]==0 || Revert_Proposition_Petition_Rate>10000 || Revert_Penalty_Rate>10000 || Ivote_address==address(0) ){\n                 //return(false, bytes(\"Bad Argument Value\"));\n                 revert(\"Legislatif: Bad Argument Value\");\n             }\n             \n             /*if(Proposition_Duration==0 || Vote_Duration==0 || Revert_Proposition_Petition_Rate>100 || Revert_Penalty_Rate>100 ){\n                 //return(false, bytes(\"Bad Argument Value\"));\n                 revert(\"Bad Argument Value\");\n             }*/\n             \n             IDelegation(delegation_address).Update_Legislatif_Process(Uint256_Legislatifs_Arg, Revert_Proposition_Petition_Rate, Revert_Penalty_Rate, Ivote_address);\n             //Delegations[delegation_address]._Set_Delegation_Legislatif_Process(Member_Max_Token_Usage, Law_Initialisation_Price, FunctionCall_Price, Proposition_Duration, Vote_Duration, Law_Revertable_Period_Duration, Revert_Proposition_Petition_Rate, Revert_Penalty_Rate);\n         }\n         \n         \n         \n    function Set_Delegation_Internal_Governance(address delegation_address, uint Election_Duration,  uint Validation_Duration, uint Mandate_Duration, uint Immunity_Duration,\n        uint16 Num_Max_Members, uint16 New_Election_Petition_Rate, uint Mint_Token, address Ivote_address) external Register_Authorities_Only{\n            require(Delegation_Address_List.contains(delegation_address), \"Non Existing Delegation\");\n            \n            if(Election_Duration==0 || Mandate_Duration==0 || Num_Max_Members==0 || New_Election_Petition_Rate ==0 || New_Election_Petition_Rate>10000 || Ivote_address==address(0)){\n                 revert(\"Governance: Bad Argument Value\");\n             }\n            \n            if(Mint_Token>0){\n                 Democoin_Instance.Mint(delegation_address, Mint_Token);\n             }\n            \n            IDelegation(delegation_address).Update_Internal_Governance(Election_Duration, Validation_Duration, Mandate_Duration, Immunity_Duration, Num_Max_Members, New_Election_Petition_Rate, Ivote_address);\n         }\n         \n         \n         \n        \n        /*function _Set_Delegation_Legislatif_Process( uint Member_Max_Token_Usage, uint Law_Initialisation_Price, uint FunctionCall_Price, uint Proposition_Duration,\n         uint Vote_Duration, uint Law_Revertable_Period_Duration, uint8 Revert_Proposition_Petition_Rate, uint8 Revert_Penalty_Rate) external{ //returns(bool, bytes memory){\n             \n             if(Proposition_Duration==0 || Vote_Duration==0 || Revert_Proposition_Petition_Rate>100 || Revert_Penalty_Rate>100 ){\n                 //return(false, bytes(\"Bad Argument Value\"));\n                 revert(\"Bad Argument Value\");\n             }\n             \n             //if(Revert_Penalty_Rate>0 && Percentage(Revert_Penalty_Rate, FunctionCall_Price))\n             \n             delegation.Legislatif_Process_Version = delegation.Legislatif_Process_Version.add(1);\n             \n             delegation.Member_Max_Token_Usage = Member_Max_Token_Usage;\n             delegation.Law_Initialisation_Price = Law_Initialisation_Price;\n             delegation.FunctionCall_Price = FunctionCall_Price;\n             delegation.Proposition_Duration = Proposition_Duration;\n             delegation.Vote_Duration = Vote_Duration;\n             delegation.Law_Revertable_Period_Duration = Law_Revertable_Period_Duration;\n             \n             delegation.Revert_Proposition_Petition_Rate = Revert_Proposition_Petition_Rate;\n             delegation.Revert_Penalty_Rate = Revert_Penalty_Rate; \n            \n            //return (true,bytes(\"\"));\n         }\n         \n\n          function _Set_Delegation_Internal_Governance( uint Election_Duration, uint Mandate_Duration, uint Immunity_Duration,\n        uint16 Num_Max_Members, uint8 New_Election_Petition_Rate) external{ // returns(bool, bytes memory){\n             \n             if(Election_Duration==0 || Mandate_Duration==0 || Num_Max_Members==0 || New_Election_Petition_Rate ==0 || New_Election_Petition_Rate>100 ){\n                 //return(false, bytes(\"Bad Argument Value\"));\n                 revert(\"Bad Argument Value\");\n             }\n             \n             delegation.Internal_Governance_Version = delegation.Internal_Governance_Version.add(1);\n             \n             delegation.Election_Duration = Election_Duration;\n             delegation.Mandate_Duration = Mandate_Duration;\n             delegation.Immunity_Duration = Immunity_Duration;\n             delegation.Num_Max_Members = Num_Max_Members;\n             delegation.New_Election_Petition_Rate = New_Election_Petition_Rate;\n             \n            \n            //return (true,bytes(\"\"));\n         }*/\n    \n     \n     \n     \n     /*GETTERS*/\n     \n     function Get_Register_List() external view returns(bytes32[] memory){\n         return Registers_Address_List._inner._values;\n     }\n     \n     /*function Get_Register_Parameter(address register) external view override returns(uint,uint){\n         \n         return (Registers[register].Actual_Version, Registers[register].Register_Type);\n     }\n     \n     function Get_Register_Referendum_Parameters(address register) external view override returns(uint[7] memory Uint256_Arg, uint16 Assembly_Max_Members, uint8[7] memory Uint8_Arg, address OffChain_Vote_Delegation, address Assembly_Associated_Delegation){\n             \n             (Uint256_Arg, Assembly_Max_Members, Uint8_Arg, OffChain_Vote_Delegation, Assembly_Associated_Delegation)=Registers[register].Get_Register();\n             \n         }\n         \n         \n    function Get_Delegation_Legislatif_Process_Versions(address delegation_address) external view override returns(uint){\n        require(Delegations[delegation_address].Legislatif_Process_Version != 0, \"Non existing Delegation\");\n        return(Delegations[delegation_address].Legislatif_Process_Version);\n    }\n    \n    function Get_Delegation_Internal_Governance_Versions(address delegation_address) external view override returns(uint){\n        require(Delegations[delegation_address].Legislatif_Process_Version != 0, \"Non existing Delegation\");\n        return( Delegations[delegation_address].Internal_Governance_Version);\n    }\n    \n    function Get_Delegation_Legislation_Process(address delegation_address) external view override returns(uint[6] memory Uint256_Arg, uint8 Revert_Proposition_Petition_Rate, \n         uint8 Revert_Penalty_Rate){\n             require(Delegations[delegation_address].Legislatif_Process_Version != 0, \"Non existing Delegation\");\n             return Delegations[delegation_address]._Get_Delegation_Legislatif_Process();\n         }\n         \n    \n    \n    function Get_Delegation_Internal_Governance(address delegation_address) external view override returns(uint Election_Duration, uint Mandate_Duration, uint Immunity_Duration,\n        uint16 Num_Max_Members, uint8 New_Election_Petition_Rate){\n            require(Delegations[delegation_address].Legislatif_Process_Version != 0, \"Non existing Delegation\");\n            return Delegations[delegation_address]._Get_Delegation_Internal_Governance();\n        }\n     */\n     function Get_Delegation_List() external view returns(bytes32[] memory){\n         return Delegation_Address_List._inner._values;\n     }\n     \n    \n     \n     \n    \n }\n \n \n /*\n \n [777,333,123,33,12,77,40]\n 20\n [30,3,20,30,30,20,0]\n \n */\n \n \n \n/* contract Agora is Institution{\n    using EnumerableSet for EnumerableSet.AddressSet;\n    enum Status{\n        PETITIONS,\n        VOTE,\n        VOTE_CHECKING,\n        EXECUTED,\n        ABORTED\n    }\n    \n    \n    \n    struct Register_Referendum{\n        uint Last_Version;\n        Institution_Type Type;\n        bytes32[] Failed_Referendums;\n        EnumerableSet.Bytes32Set Pending_Referendums;\n        bytes32[] Achieved_Referendums;\n    }\n\n    \n    \n    struct Referendum{\n        mapping(address=>bool) Petition;\n        EnumerableSet.AddressSet Assembly_Volunteer;\n        uint Petition_Counter;\n        Status Referendum_Status;\n    }\n    \n\n    Constitution Constitution_Instance;\n    \n    mapping(address=>Register_Referendum) Registers_Referendums;\n    mapping(bytes32=>Referendum) Referendums;\n    \n    function Add_Law_Project(address register_address, bytes calldata Title, bytes calldata Description)external{\n        Constitution_Instance.Get_Register(register_address);\n        //Add_Law_Project(Title,  Description);\n    }\n    \n    \n    \n    \n    \n    /*Overite functions*/\n    /*function Before_Add_Law_Project(bytes calldata Title, bytes calldata Description) internal override returns(bytes32){\n        \n    }\n    \n    function Before_Add_Corpus_Proposal(bytes32 law_project, uint Parent, uint[] calldata Parent_Proposals_Reuse, bytes[] calldata New_Function_Call, bytes calldata Description) internal override{\n        \n    }\n    \n    function Before_Add_Item_Proposal(bytes32 law_project, uint Proposal, bytes[] calldata New_Items, uint[] calldata Indexs) internal override{\n        \n    }*/\n//}",
  "sourcePath": "/home/andrei/Alyra/Web3_Referendum/contracts/Constitution.sol",
  "compiler": {
    "name": "solc",
    "version": "0.8.1+commit.df193b15.Emscripten.clang"
  },
  "schemaVersion": "3.3.1",
  "updatedAt": "2021-04-13T13:02:30.135Z",
  "networkType": "ethereum",
  "devdoc": {
    "kind": "dev",
    "methods": {
      "Add_Authority(address)": {
        "params": {
          "authority": "address to add to the {Register_Authorities} "
        }
      },
      "Get_Authorities()": {
        "returns": {
          "_0": "return address registered in the {Register_Authorities}"
        }
      },
      "Remove_Authority(address)": {
        "params": {
          "authority": "address to remove from the {Register_Authorities} "
        }
      },
      "Set_Constitution(address)": {
        "details": "The function Allows to change the Constitution contract the current Institution obey to. The function is only callable by the {Constitution_Address}",
        "params": {
          "new_constitution": "Address of the new Constitution contract."
        }
      }
    },
    "version": 1
  },
  "userdoc": {
    "kind": "user",
    "methods": {
      "Add_Authority(address)": {
        "notice": "Add an account address to {Register_Authorities}"
      },
      "Constitution_Address()": {
        "notice": "Address of the constitution of the DAO"
      },
      "Get_Authorities()": {
        "notice": "Getter for {Register_Authorities}"
      },
      "Name()": {
        "notice": "Name of the institution"
      },
      "Remove_Authority(address)": {
        "notice": "Removes an account address from the {Register_Authorities}"
      },
      "Type_Institution()": {
        "notice": "Type of the Institution"
      }
    },
    "version": 1
  }
}