{
  "contractName": "Delegation",
  "abi": [
    {
      "inputs": [
        {
          "internalType": "string",
          "name": "Name",
          "type": "string"
        },
        {
          "internalType": "address[]",
          "name": "Initial_members",
          "type": "address[]"
        },
        {
          "internalType": "address",
          "name": "token_address",
          "type": "address"
        },
        {
          "internalType": "address",
          "name": "citizen_address",
          "type": "address"
        },
        {
          "internalType": "address",
          "name": "agora_address",
          "type": "address"
        }
      ],
      "stateMutability": "nonpayable",
      "type": "constructor"
    },
    {
      "anonymous": false,
      "inputs": [
        {
          "indexed": false,
          "internalType": "address",
          "name": "new_constitution",
          "type": "address"
        }
      ],
      "name": "Constitution_Changed",
      "type": "event"
    },
    {
      "anonymous": false,
      "inputs": [
        {
          "indexed": false,
          "internalType": "address",
          "name": "register",
          "type": "address"
        }
      ],
      "name": "Controled_Register_Added",
      "type": "event"
    },
    {
      "anonymous": false,
      "inputs": [
        {
          "indexed": false,
          "internalType": "address",
          "name": "register",
          "type": "address"
        }
      ],
      "name": "Controled_Register_Canceled",
      "type": "event"
    },
    {
      "anonymous": false,
      "inputs": [
        {
          "indexed": false,
          "internalType": "address",
          "name": "register",
          "type": "address"
        }
      ],
      "name": "Controled_Register_Removed",
      "type": "event"
    },
    {
      "anonymous": false,
      "inputs": [],
      "name": "Governance_Parameters_Updated",
      "type": "event"
    },
    {
      "anonymous": false,
      "inputs": [
        {
          "indexed": false,
          "internalType": "address",
          "name": "Address",
          "type": "address"
        },
        {
          "indexed": false,
          "internalType": "enum Institution.Institution_Type",
          "name": "Type",
          "type": "uint8"
        }
      ],
      "name": "Institution_Created",
      "type": "event"
    },
    {
      "anonymous": false,
      "inputs": [
        {
          "indexed": false,
          "internalType": "bytes32",
          "name": "key",
          "type": "bytes32"
        }
      ],
      "name": "Law_Aborted",
      "type": "event"
    },
    {
      "anonymous": false,
      "inputs": [
        {
          "indexed": false,
          "internalType": "bytes32",
          "name": "key",
          "type": "bytes32"
        }
      ],
      "name": "Law_Adopted",
      "type": "event"
    },
    {
      "anonymous": false,
      "inputs": [
        {
          "indexed": false,
          "internalType": "bytes32",
          "name": "key",
          "type": "bytes32"
        }
      ],
      "name": "Law_executed",
      "type": "event"
    },
    {
      "anonymous": false,
      "inputs": [],
      "name": "Legislatif_Parameters_Updated",
      "type": "event"
    },
    {
      "anonymous": false,
      "inputs": [
        {
          "indexed": false,
          "internalType": "address",
          "name": "Candidat",
          "type": "address"
        }
      ],
      "name": "New_Candidat",
      "type": "event"
    },
    {
      "anonymous": false,
      "inputs": [
        {
          "indexed": false,
          "internalType": "bytes32",
          "name": "key",
          "type": "bytes32"
        }
      ],
      "name": "New_Law",
      "type": "event"
    },
    {
      "anonymous": false,
      "inputs": [],
      "name": "New_Mandate",
      "type": "event"
    },
    {
      "anonymous": false,
      "inputs": [
        {
          "indexed": false,
          "internalType": "bytes32",
          "name": "key",
          "type": "bytes32"
        },
        {
          "indexed": false,
          "internalType": "uint256",
          "name": "proposal_index",
          "type": "uint256"
        }
      ],
      "name": "New_Proposal",
      "type": "event"
    },
    {
      "anonymous": false,
      "inputs": [
        {
          "indexed": false,
          "internalType": "bytes32",
          "name": "Vote_key",
          "type": "bytes32"
        }
      ],
      "name": "New_election",
      "type": "event"
    },
    {
      "anonymous": false,
      "inputs": [
        {
          "indexed": false,
          "internalType": "bytes32",
          "name": "key",
          "type": "bytes32"
        },
        {
          "indexed": false,
          "internalType": "uint256",
          "name": "proposal_index",
          "type": "uint256"
        }
      ],
      "name": "Proposal_Modified",
      "type": "event"
    },
    {
      "anonymous": false,
      "inputs": [
        {
          "indexed": false,
          "internalType": "address",
          "name": "Candidat",
          "type": "address"
        }
      ],
      "name": "Remove_Candidat",
      "type": "event"
    },
    {
      "anonymous": false,
      "inputs": [],
      "name": "Sign",
      "type": "event"
    },
    {
      "anonymous": false,
      "inputs": [
        {
          "indexed": false,
          "internalType": "bytes32",
          "name": "key",
          "type": "bytes32"
        }
      ],
      "name": "Voting_Stage_Achieved",
      "type": "event"
    },
    {
      "anonymous": false,
      "inputs": [
        {
          "indexed": false,
          "internalType": "bytes32",
          "name": "law_project",
          "type": "bytes32"
        },
        {
          "indexed": false,
          "internalType": "bytes32",
          "name": "key",
          "type": "bytes32"
        }
      ],
      "name": "Voting_Stage_Started",
      "type": "event"
    },
    {
      "inputs": [],
      "name": "Constitution_Address",
      "outputs": [
        {
          "internalType": "address",
          "name": "",
          "type": "address"
        }
      ],
      "stateMutability": "view",
      "type": "function"
    },
    {
      "inputs": [
        {
          "internalType": "address",
          "name": "",
          "type": "address"
        }
      ],
      "name": "Controled_Registers",
      "outputs": [
        {
          "internalType": "bool",
          "name": "Active",
          "type": "bool"
        },
        {
          "internalType": "uint256",
          "name": "Law_Project_Counter",
          "type": "uint256"
        }
      ],
      "stateMutability": "view",
      "type": "function"
    },
    {
      "inputs": [
        {
          "internalType": "bytes32",
          "name": "",
          "type": "bytes32"
        }
      ],
      "name": "Delegation_Law_Projects",
      "outputs": [
        {
          "internalType": "address",
          "name": "Institution_Address",
          "type": "address"
        },
        {
          "internalType": "enum Delegation.Status",
          "name": "Law_Project_Status",
          "type": "uint8"
        },
        {
          "internalType": "uint256",
          "name": "Version",
          "type": "uint256"
        },
        {
          "internalType": "uint256",
          "name": "Creation_Timestamp",
          "type": "uint256"
        },
        {
          "internalType": "uint256",
          "name": "Start_Vote_Timestamps",
          "type": "uint256"
        },
        {
          "internalType": "uint256",
          "name": "Start_Censor_Law_Period_Timestamps",
          "type": "uint256"
        },
        {
          "internalType": "uint256",
          "name": "Law_Total_Potentialy_Lost",
          "type": "uint256"
        },
        {
          "internalType": "uint256",
          "name": "Censor_Law_Petition_Counter",
          "type": "uint256"
        }
      ],
      "stateMutability": "view",
      "type": "function"
    },
    {
      "inputs": [
        {
          "internalType": "uint256",
          "name": "",
          "type": "uint256"
        }
      ],
      "name": "Law_Parameters_Versions",
      "outputs": [
        {
          "internalType": "uint256",
          "name": "Member_Max_Token_Usage",
          "type": "uint256"
        },
        {
          "internalType": "uint256",
          "name": "Law_Initialisation_Price",
          "type": "uint256"
        },
        {
          "internalType": "uint256",
          "name": "FunctionCall_Price",
          "type": "uint256"
        },
        {
          "internalType": "uint256",
          "name": "Proposition_Duration",
          "type": "uint256"
        },
        {
          "internalType": "uint256",
          "name": "Vote_Duration",
          "type": "uint256"
        },
        {
          "internalType": "uint256",
          "name": "Law_Censor_Period_Duration",
          "type": "uint256"
        },
        {
          "internalType": "uint16",
          "name": "Censor_Proposition_Petition_Rate",
          "type": "uint16"
        },
        {
          "internalType": "uint16",
          "name": "Censor_Penalty_Rate",
          "type": "uint16"
        },
        {
          "internalType": "address",
          "name": "Ivote_address",
          "type": "address"
        }
      ],
      "stateMutability": "view",
      "type": "function"
    },
    {
      "inputs": [
        {
          "internalType": "bytes32",
          "name": "",
          "type": "bytes32"
        }
      ],
      "name": "List_Law_Project",
      "outputs": [
        {
          "internalType": "bytes",
          "name": "Title",
          "type": "bytes"
        },
        {
          "internalType": "bytes",
          "name": "Description",
          "type": "bytes"
        },
        {
          "internalType": "uint256",
          "name": "Proposal_Count",
          "type": "uint256"
        },
        {
          "internalType": "uint256",
          "name": "Winning_Proposal",
          "type": "uint256"
        }
      ],
      "stateMutability": "view",
      "type": "function"
    },
    {
      "inputs": [
        {
          "internalType": "uint256",
          "name": "",
          "type": "uint256"
        }
      ],
      "name": "Mandates_Versions",
      "outputs": [
        {
          "internalType": "uint256",
          "name": "Election_Duration",
          "type": "uint256"
        },
        {
          "internalType": "uint256",
          "name": "Validation_Duration",
          "type": "uint256"
        },
        {
          "internalType": "uint256",
          "name": "Mandate_Duration",
          "type": "uint256"
        },
        {
          "internalType": "uint256",
          "name": "Immunity_Duration",
          "type": "uint256"
        },
        {
          "internalType": "uint16",
          "name": "Next_Mandate_Max_Members",
          "type": "uint16"
        },
        {
          "internalType": "uint16",
          "name": "New_Election_Petition_Rate",
          "type": "uint16"
        },
        {
          "internalType": "address",
          "name": "Ivote_address",
          "type": "address"
        }
      ],
      "stateMutability": "view",
      "type": "function"
    },
    {
      "inputs": [],
      "name": "Name",
      "outputs": [
        {
          "internalType": "string",
          "name": "",
          "type": "string"
        }
      ],
      "stateMutability": "view",
      "type": "function"
    },
    {
      "inputs": [
        {
          "internalType": "address",
          "name": "new_constitution",
          "type": "address"
        }
      ],
      "name": "Set_Constitution",
      "outputs": [],
      "stateMutability": "nonpayable",
      "type": "function"
    },
    {
      "inputs": [],
      "name": "Type_Institution",
      "outputs": [
        {
          "internalType": "enum Institution.Institution_Type",
          "name": "",
          "type": "uint8"
        }
      ],
      "stateMutability": "view",
      "type": "function"
    },
    {
      "inputs": [],
      "name": "Candidate_Election",
      "outputs": [],
      "stateMutability": "nonpayable",
      "type": "function"
    },
    {
      "inputs": [],
      "name": "Remove_Candidature",
      "outputs": [],
      "stateMutability": "nonpayable",
      "type": "function"
    },
    {
      "inputs": [],
      "name": "New_Election",
      "outputs": [],
      "stateMutability": "nonpayable",
      "type": "function"
    },
    {
      "inputs": [],
      "name": "Sign_New_Election_Petition",
      "outputs": [],
      "stateMutability": "nonpayable",
      "type": "function"
    },
    {
      "inputs": [],
      "name": "End_Election",
      "outputs": [],
      "stateMutability": "nonpayable",
      "type": "function"
    },
    {
      "inputs": [
        {
          "internalType": "address",
          "name": "register_address",
          "type": "address"
        },
        {
          "internalType": "bytes",
          "name": "Title",
          "type": "bytes"
        },
        {
          "internalType": "bytes",
          "name": "Description",
          "type": "bytes"
        }
      ],
      "name": "Add_Law_Project",
      "outputs": [],
      "stateMutability": "nonpayable",
      "type": "function"
    },
    {
      "inputs": [
        {
          "internalType": "bytes32",
          "name": "law_project",
          "type": "bytes32"
        },
        {
          "internalType": "uint256",
          "name": "Parent",
          "type": "uint256"
        },
        {
          "internalType": "uint256[]",
          "name": "Parent_Proposals_Reuse",
          "type": "uint256[]"
        },
        {
          "internalType": "bytes[]",
          "name": "New_Function_Call",
          "type": "bytes[]"
        },
        {
          "internalType": "bytes",
          "name": "Description",
          "type": "bytes"
        }
      ],
      "name": "Add_Proposal",
      "outputs": [],
      "stateMutability": "nonpayable",
      "type": "function"
    },
    {
      "inputs": [
        {
          "internalType": "bytes32",
          "name": "law_project",
          "type": "bytes32"
        },
        {
          "internalType": "uint256",
          "name": "Proposal",
          "type": "uint256"
        },
        {
          "internalType": "bytes[]",
          "name": "New_Items",
          "type": "bytes[]"
        },
        {
          "internalType": "uint256[]",
          "name": "Indexs",
          "type": "uint256[]"
        }
      ],
      "name": "Add_Item",
      "outputs": [],
      "stateMutability": "nonpayable",
      "type": "function"
    },
    {
      "inputs": [
        {
          "internalType": "bytes32",
          "name": "law_project",
          "type": "bytes32"
        }
      ],
      "name": "Start_Vote",
      "outputs": [],
      "stateMutability": "nonpayable",
      "type": "function"
    },
    {
      "inputs": [
        {
          "internalType": "bytes32",
          "name": "law_project",
          "type": "bytes32"
        }
      ],
      "name": "Achiev_Vote",
      "outputs": [],
      "stateMutability": "nonpayable",
      "type": "function"
    },
    {
      "inputs": [
        {
          "internalType": "bytes32",
          "name": "law_project",
          "type": "bytes32"
        }
      ],
      "name": "Censor_Law",
      "outputs": [],
      "stateMutability": "nonpayable",
      "type": "function"
    },
    {
      "inputs": [
        {
          "internalType": "bytes32",
          "name": "law_project",
          "type": "bytes32"
        }
      ],
      "name": "Adopt_Law",
      "outputs": [],
      "stateMutability": "nonpayable",
      "type": "function"
    },
    {
      "inputs": [
        {
          "internalType": "bytes32",
          "name": "law_project",
          "type": "bytes32"
        },
        {
          "internalType": "uint256",
          "name": "num_function_call_ToExecute",
          "type": "uint256"
        }
      ],
      "name": "Execute_Law",
      "outputs": [],
      "stateMutability": "nonpayable",
      "type": "function"
    },
    {
      "inputs": [
        {
          "internalType": "uint256[6]",
          "name": "Uint256_Legislatifs_Arg",
          "type": "uint256[6]"
        },
        {
          "internalType": "uint16",
          "name": "Censor_Proposition_Petition_Rate",
          "type": "uint16"
        },
        {
          "internalType": "uint16",
          "name": "Censor_Penalty_Rate",
          "type": "uint16"
        },
        {
          "internalType": "address",
          "name": "Ivote_address",
          "type": "address"
        }
      ],
      "name": "Update_Legislatif_Process",
      "outputs": [],
      "stateMutability": "nonpayable",
      "type": "function"
    },
    {
      "inputs": [
        {
          "internalType": "uint256",
          "name": "Election_Duration",
          "type": "uint256"
        },
        {
          "internalType": "uint256",
          "name": "Validation_Duration",
          "type": "uint256"
        },
        {
          "internalType": "uint256",
          "name": "Mandate_Duration",
          "type": "uint256"
        },
        {
          "internalType": "uint256",
          "name": "Immunity_Duration",
          "type": "uint256"
        },
        {
          "internalType": "uint16",
          "name": "Num_Max_Members",
          "type": "uint16"
        },
        {
          "internalType": "uint16",
          "name": "New_Election_Petition_Rate",
          "type": "uint16"
        },
        {
          "internalType": "address",
          "name": "Ivote_address",
          "type": "address"
        }
      ],
      "name": "Update_Internal_Governance",
      "outputs": [],
      "stateMutability": "nonpayable",
      "type": "function"
    },
    {
      "inputs": [
        {
          "internalType": "address",
          "name": "register_address",
          "type": "address"
        }
      ],
      "name": "Add_Controled_Register",
      "outputs": [],
      "stateMutability": "nonpayable",
      "type": "function"
    },
    {
      "inputs": [
        {
          "internalType": "address",
          "name": "register_address",
          "type": "address"
        }
      ],
      "name": "Remove_Controled_Register",
      "outputs": [],
      "stateMutability": "nonpayable",
      "type": "function"
    },
    {
      "inputs": [
        {
          "internalType": "address",
          "name": "member_address",
          "type": "address"
        }
      ],
      "name": "Contains",
      "outputs": [
        {
          "internalType": "bool",
          "name": "contain",
          "type": "bool"
        }
      ],
      "stateMutability": "view",
      "type": "function"
    },
    {
      "inputs": [],
      "name": "Get_List_Law_Register",
      "outputs": [
        {
          "internalType": "bytes32[]",
          "name": "Law_Project_List",
          "type": "bytes32[]"
        },
        {
          "internalType": "bytes32[]",
          "name": "Controled_Register",
          "type": "bytes32[]"
        }
      ],
      "stateMutability": "view",
      "type": "function"
    },
    {
      "inputs": [
        {
          "internalType": "uint256",
          "name": "Id",
          "type": "uint256"
        }
      ],
      "name": "Get_Mandate",
      "outputs": [
        {
          "internalType": "uint256",
          "name": "version",
          "type": "uint256"
        },
        {
          "internalType": "uint256",
          "name": "Inauguration_Timestamps",
          "type": "uint256"
        },
        {
          "internalType": "uint256",
          "name": "Election_Timestamps",
          "type": "uint256"
        },
        {
          "internalType": "uint256",
          "name": "New_Election_Petition_Number",
          "type": "uint256"
        },
        {
          "internalType": "bytes32[]",
          "name": "Members",
          "type": "bytes32[]"
        },
        {
          "internalType": "bytes32[]",
          "name": "Candidats",
          "type": "bytes32[]"
        }
      ],
      "stateMutability": "view",
      "type": "function"
    },
    {
      "inputs": [
        {
          "internalType": "bytes32",
          "name": "key",
          "type": "bytes32"
        },
        {
          "internalType": "address",
          "name": "member",
          "type": "address"
        }
      ],
      "name": "Get_Member_Amount_Consumed",
      "outputs": [
        {
          "internalType": "uint256",
          "name": "amount",
          "type": "uint256"
        }
      ],
      "stateMutability": "view",
      "type": "function"
    },
    {
      "inputs": [],
      "name": "Get_Delegation_Infos",
      "outputs": [
        {
          "internalType": "uint256",
          "name": "legislatif_process_version",
          "type": "uint256"
        },
        {
          "internalType": "uint256",
          "name": "internal_governance_version",
          "type": "uint256"
        },
        {
          "internalType": "uint256",
          "name": "actual_mandate",
          "type": "uint256"
        },
        {
          "internalType": "uint256",
          "name": "potentialy_lost_amount",
          "type": "uint256"
        },
        {
          "internalType": "bool",
          "name": "in_election_stage",
          "type": "bool"
        }
      ],
      "stateMutability": "view",
      "type": "function"
    },
    {
      "inputs": [
        {
          "internalType": "bytes32",
          "name": "key",
          "type": "bytes32"
        },
        {
          "internalType": "uint256",
          "name": "id",
          "type": "uint256"
        }
      ],
      "name": "Get_Proposal",
      "outputs": [
        {
          "internalType": "bytes",
          "name": "description",
          "type": "bytes"
        },
        {
          "internalType": "uint256[]",
          "name": "childrens",
          "type": "uint256[]"
        },
        {
          "internalType": "bytes[]",
          "name": "function_calls",
          "type": "bytes[]"
        },
        {
          "internalType": "uint256",
          "name": "func_call_counter",
          "type": "uint256"
        },
        {
          "internalType": "uint256",
          "name": "parent",
          "type": "uint256"
        },
        {
          "internalType": "address",
          "name": "author",
          "type": "address"
        }
      ],
      "stateMutability": "view",
      "type": "function"
    },
    {
      "inputs": [
        {
          "internalType": "bytes32",
          "name": "key",
          "type": "bytes32"
        }
      ],
      "name": "Get_Law_Results",
      "outputs": [
        {
          "internalType": "uint256",
          "name": "Winning_Proposal",
          "type": "uint256"
        },
        {
          "components": [
            {
              "internalType": "bool",
              "name": "Success",
              "type": "bool"
            },
            {
              "internalType": "bytes",
              "name": "Receipt",
              "type": "bytes"
            }
          ],
          "internalType": "struct Initiative_Legislative_Lib.Function_Call_Result[]",
          "name": "Receipts",
          "type": "tuple[]"
        }
      ],
      "stateMutability": "view",
      "type": "function"
    }
  ],
  "bytecode": "0x60806040523480156200001157600080fd5b506040516200519c3803806200519c83398101604081905262000034916200029d565b60016000819055855186916200004f91602084019062000147565b505060028054600560a01b60ff60a01b19336001600160a01b03199384161716179091556003805482166001600160a01b0386811691909117909155600480548316858316178155600580549093169184169190911790915560008052600e6020526040516334d6213360e21b815273__Delegation_Uils_______________________9163d35884cc916200010a917fe710864318d4a32f37d6ce54cb3fadbef648dd12d8dbdf53973564d56b7f881c91899101620003b3565b60006040518083038186803b1580156200012357600080fd5b505af415801562000138573d6000803e3d6000fd5b50505050505050505062000491565b82805462000155906200043e565b90600052602060002090601f016020900481019282620001795760008555620001c4565b82601f106200019457805160ff1916838001178555620001c4565b82800160010185558215620001c4579182015b82811115620001c4578251825591602001919060010190620001a7565b50620001d2929150620001d6565b5090565b5b80821115620001d25760008155600101620001d7565b80516001600160a01b03811681146200020557600080fd5b919050565b600082601f8301126200021b578081fd5b815160206001600160401b038211156200023957620002396200047b565b808202620002498282016200040b565b83815282810190868401838801850189101562000264578687fd5b8693505b8584101562000291576200027c81620001ed565b83526001939093019291840191840162000268565b50979650505050505050565b600080600080600060a08688031215620002b5578081fd5b85516001600160401b0380821115620002cc578283fd5b818801915088601f830112620002e0578283fd5b815181811115620002f557620002f56200047b565b60206200030b601f8301601f191682016200040b565b8281528b828487010111156200031f578586fd5b855b838110156200033e57858101830151828201840152820162000321565b838111156200034f57868385840101525b50908a01519098509250508082111562000367578283fd5b5062000376888289016200020a565b9450506200038760408701620001ed565b92506200039760608701620001ed565b9150620003a760808701620001ed565b90509295509295909350565b60006040820184835260206040818501528185518084526060860191508287019350845b81811015620003fe5784516001600160a01b031683529383019391830191600101620003d7565b5090979650505050505050565b604051601f8201601f191681016001600160401b03811182821017156200043657620004366200047b565b604052919050565b6002810460018216806200045357607f821691505b602082108114156200047557634e487b7160e01b600052602260045260246000fd5b50919050565b634e487b7160e01b600052604160045260246000fd5b614cfb80620004a16000396000f3fe608060405234801561001057600080fd5b506004361061020b5760003560e01c806357f98d321161012a578063acee9b18116100bd578063da8348041161008c578063eb101b2311610071578063eb101b23146104d1578063fa070640146104e6578063fd00029c146104f95761020b565b8063da83480414610488578063e61fe0cc146104ab5761020b565b8063acee9b1814610447578063bde9859e1461045a578063c503219c1461046d578063cfea7ee0146104805761020b565b80638798500c116100f95780638798500c146103e3578063885e422c1461040857806393c6ddb1146104215780639bd145f5146104345761020b565b806357f98d32146103935780635e55276d146103b35780637cdbe301146103bb5780638052474d146103ce5761020b565b8063319f9894116101a25780633d9bdc2e116101715780633d9bdc2e146103525780634a44fa25146103655780634b71bcb7146103785780635416d4a21461038b5761020b565b8063319f98941461030357806331ab3f0a14610316578063368884ff1461031e5780633c289ea81461033f5761020b565b80631422f09e116101de5780631422f09e1461028c57806315a42475146102b357806319fc5335146102d4578063255d498e146102f95761020b565b806302d4cd281461021057806307c0aaec1461022e57806307f63da91461024e5780630b11416414610264575b600080fd5b61021861050c565b6040516102259190613e6c565b60405180910390f35b61024161023c366004613972565b610528565b6040516102259190613f5f565b610256610562565b604051610225929190613f16565b61027761027236600461395a565b61061b565b604051610225999897969594939291906149e9565b61029f61029a36600461395a565b610687565b604051610225989796959493929190613e8d565b6102c66102c136600461395a565b6106ef565b604051610225929190614893565b6102e76102e23660046139a1565b61080e565b60405161022596959493929190614002565b6103016109d2565b005b61030161031136600461395a565b610b72565b610301610ddf565b61033161032c3660046137b3565b61108f565b604051610225929190613f4f565b61030161034d3660046137b3565b6110ae565b6103016103603660046138dd565b611193565b6103016103733660046137b3565b6112a8565b61030161038636600461395a565b61146e565b6103016115f7565b6103a66103a13660046137b3565b6117a7565b6040516102259190613f44565b6103016117ca565b6103016103c93660046139a1565b6118ae565b6103d6611b35565b604051610225919061418f565b6103f66103f136600461395a565b611bc3565b6040516102259695949392919061492d565b610410611cc0565b604051610225959493929190614977565b61030161042f36600461395a565b611cd9565b6103016104423660046139c2565b611fb4565b61030161045536600461395a565b61219e565b610301610468366004613a42565b6125d8565b61030161047b366004613be0565b612824565b610301612942565b61049b61049636600461395a565b612a93565b60405161022594939291906140da565b6104be6104b936600461395a565b612bcb565b604051610225979695949392919061499c565b6104d9612c29565b6040516102259190614113565b6103016104f43660046137cf565b612c4a565b6103016105073660046137b3565b612e98565b60025473ffffffffffffffffffffffffffffffffffffffff1681565b6000828152600b6020908152604080832073ffffffffffffffffffffffffffffffffffffffff851684526008019091529020545b92915050565b606080600c6009600001600001818054806020026020016040519081016040528092919081815260200182805480156105ba57602002820191906000526020600020905b8154815260200190600101908083116105a6575b505050505091508080548060200260200160405190810160405280929190818152602001828054801561060c57602002820191906000526020600020905b8154815260200190600101908083116105f8575b50505050509050915091509091565b600d602052600090815260409020805460018201546002830154600384015460048501546005860154600690960154949593949293919290919061ffff8082169162010000810490911690640100000000900473ffffffffffffffffffffffffffffffffffffffff1689565b600b60205260009081526040902080546001820154600283015460038401546004850154600586015460069096015473ffffffffffffffffffffffffffffffffffffffff8616967401000000000000000000000000000000000000000090960460ff16959088565b600081815260076020908152604080832060058101546006909101805483518186028101860190945280845260609492939192839190879084015b828210156107ff5760008481526020908190206040805180820190915260028502909101805460ff1615158252600181018054929391929184019161076e90614b89565b80601f016020809104026020016040519081016040528092919081815260200182805461079a90614b89565b80156107e75780601f106107bc576101008083540402835291602001916107e7565b820191906000526020600020905b8154815290600101906020018083116107ca57829003601f168201915b5050505050815250508152602001906001019061072a565b50505050905091509150915091565b60008281526007602052604080822090517fbebe81d2000000000000000000000000000000000000000000000000000000008152606092839283928291829173__Initiative_Legislative_Lib____________9163bebe81d29161087891908b90600401613e5e565b60006040518083038186803b15801561089057600080fd5b505af41580156108a4573d6000803e3d6000fd5b505050506040513d6000823e601f3d9081017fffffffffffffffffffffffffffffffffffffffffffffffffffffffffffffffe01682016040526108ea919081019061384f565b6000898152600760205260409081902090517f2c64627600000000000000000000000000000000000000000000000000000000815291955073__Initiative_Legislative_Lib____________91632c6462769161094c918b90600401613e5e565b60006040518083038186803b15801561096457600080fd5b505af4158015610978573d6000803e3d6000fd5b505050506040513d6000823e601f3d9081017fffffffffffffffffffffffffffffffffffffffffffffffffffffffffffffffe01682016040526109be9190810190613aeb565b939c929b5096995097509495509392505050565b600480546040517f57f98d3200000000000000000000000000000000000000000000000000000000815273ffffffffffffffffffffffffffffffffffffffff909116916357f98d3291610a2791339101613e6c565b60206040518083038186803b158015610a3f57600080fd5b505afa158015610a53573d6000803e3d6000fd5b505050506040513d601f19601f82011682018060405250810190610a77919061393a565b610a9c5760405162461bcd60e51b8152600401610a93906145dd565b60405180910390fd5b6012546000818152600e6020908152604080832060088101548452600f909252918290206003015491517f3a6775a200000000000000000000000000000000000000000000000000000000815273__Delegation_Uils_______________________92633a6775a292610b169290919033906004016146f0565b60006040518083038186803b158015610b2e57600080fd5b505af4158015610b42573d6000803e3d6000fd5b50506040517fb5d7df977b4f74f869574c745283e386368bf2ed9efa20e7fabe28f84eb308e3925060009150a150565b6012546000908152600e60205260409020610b8d9033612f9e565b610ba95760405162461bcd60e51b8152600401610a9390614538565b6000818152600b6020818152604080842060018101548552600d83528185206006015486865293835260030154905164010000000090930473ffffffffffffffffffffffffffffffffffffffff169392610c069286929101613e5e565b60405160208183030381529060405280519060200120905060008273ffffffffffffffffffffffffffffffffffffffff1663ce584e128360006040518363ffffffff1660e01b8152600401610c5c929190613e5e565b60206040518083038186803b158015610c7457600080fd5b505afa158015610c88573d6000803e3d6000fd5b505050506040513d601f19601f82011682018060405250810190610cac9190613bc8565b6000858152600760205260409020600501819055905080610d4f576000848152600b60205260409081902080547fffffffffffffffffffffff00ffffffffffffffffffffffffffffffffffffffff1674050000000000000000000000000000000000000000179055517fce51aefaea5062b86ae2fe5432aa52e50af7ff15c4e192c06e053c713ac2659590610d42908690613f5f565b60405180910390a1610dd9565b6000848152600b60205260409081902042600482015580547fffffffffffffffffffffff00ffffffffffffffffffffffffffffffffffffffff1674020000000000000000000000000000000000000000179055517f82ad636559e818e9291ef38cfad52a652648b3a5e3eebd615aa11660018dfa7a90610dd0908690613f5f565b60405180910390a15b50505050565b600480546040517f57f98d3200000000000000000000000000000000000000000000000000000000815273ffffffffffffffffffffffffffffffffffffffff909116916357f98d3291610e3491339101613e6c565b60206040518083038186803b158015610e4c57600080fd5b505afa158015610e60573d6000803e3d6000fd5b505050506040513d601f19601f82011682018060405250810190610e84919061393a565b610ea05760405162461bcd60e51b8152600401610a93906145dd565b60135460ff1615610ec35760405162461bcd60e51b8152600401610a939061427e565b6012546000818152600e60208181526040808420600801548452600f909152918290206004805493517f83d9881300000000000000000000000000000000000000000000000000000000815273__Delegation_Uils_______________________946383d9881394610f529490939092889273ffffffffffffffffffffffffffffffffffffffff16910161415e565b60206040518083038186803b158015610f6a57600080fd5b505af4158015610f7e573d6000803e3d6000fd5b505050506040513d601f19601f82011682018060405250810190610fa2919061393a565b1561103757601380547fffffffffffffffffffffffffffffffffffffffffffffffffffffffffffffff001660011790556040517ff9f11023b6e7b0d9b9b7062bc92c7ff1c55bff7c12b71924faca2b82bd01938e906110079030904290602001613e29565b6040516020818303038152906040528051906020012060405161102a9190613f5f565b60405180910390a161108c565b6000611044826001614ab8565b60128190556011546000828152600e60205260408082206008019290925590519192507ffbd77822dd2c0056a69b7b038c4ac5db05fda79e438536e8fc9c1ab38f2c1eda91a1505b50565b6008602052600090815260409020805460019091015460ff9091169082565b60025473ffffffffffffffffffffffffffffffffffffffff1633146110e55760405162461bcd60e51b8152600401610a93906141d9565b73ffffffffffffffffffffffffffffffffffffffff81166111185760405162461bcd60e51b8152600401610a939061435a565b600280547fffffffffffffffffffffffff00000000000000000000000000000000000000001673ffffffffffffffffffffffffffffffffffffffff83161790556040517feaf9201ae5a091c46918bca9c5ced3b9aa103362b0a68a1f36b9f2858b0a4c1490611188908390613e6c565b60405180910390a150565b60025473ffffffffffffffffffffffffffffffffffffffff1633146111ca5760405162461bcd60e51b8152600401610a93906141d9565b6010546000906111db906001612fc7565b6000818152600d60205260409081902090517fdf19fd1e00000000000000000000000000000000000000000000000000000000815291925073__Delegation_Uils_______________________9163df19fd1e916112439189908990899089906004016147d1565b60006040518083038186803b15801561125b57600080fd5b505af415801561126f573d6000803e3d6000fd5b5050506010829055506040517f2d9f15a1c08a3e686dd80d83ac6da073366d23a596e8cc1b0dfe99391a447b7c90600090a15050505050565b60025473ffffffffffffffffffffffffffffffffffffffff1633146112df5760405162461bcd60e51b8152600401610a93906141d9565b73ffffffffffffffffffffffffffffffffffffffff811660009081526008602052604090205460ff166113245760405162461bcd60e51b8152600401610a939061464b565b73ffffffffffffffffffffffffffffffffffffffff8116600090815260086020526040902080547fffffffffffffffffffffffffffffffffffffffffffffffffffffffffffffff001681556001015461143f576040517fb18d743b00000000000000000000000000000000000000000000000000000000815273ffffffffffffffffffffffffffffffffffffffff82169063b18d743b906113c9903090600401613e6c565b600060405180830381600087803b1580156113e357600080fd5b505af11580156113f7573d6000803e3d6000fd5b5050505061140f816009612ff690919063ffffffff16565b507f1c1fef83c6bb43d7c6d1990253b3ff42fcd5b3e0dedbb87345933260143f28a68160405161102a9190613e6c565b7f47a385847762a03fe60622fb224ddc0b39958ab75b995cecb9ad3fe4adf19a1e816040516111889190613e6c565b6012546000908152600e602052604090206114899033612f9e565b6114a55760405162461bcd60e51b8152600401610a9390614538565b60026000828152600b602052604090205474010000000000000000000000000000000000000000900460ff166005811115611509577f4e487b7100000000000000000000000000000000000000000000000000000000600052602160045260246000fd5b146115265760405162461bcd60e51b8152600401610a9390614247565b6000818152600b6020818152604080842060018101548552600d835290842060050154938590529190526004015461155f904290613018565b1161157c5760405162461bcd60e51b8152600401610a939061456f565b6000818152600b60205260409081902080547fffffffffffffffffffffff00ffffffffffffffffffffffffffffffffffffffff1674030000000000000000000000000000000000000000179055517f352de6b8b51f60c6dff7fc3207934314a2635960d53b9719ba70c2e30c9ea90190611188908390613f5f565b600480546040517f57f98d3200000000000000000000000000000000000000000000000000000000815273ffffffffffffffffffffffffffffffffffffffff909116916357f98d329161164c91339101613e6c565b60206040518083038186803b15801561166457600080fd5b505afa158015611678573d6000803e3d6000fd5b505050506040513d601f19601f8201168201806040525081019061169c919061393a565b6116b85760405162461bcd60e51b8152600401610a93906145dd565b60135460ff16156116db5760405162461bcd60e51b8152600401610a93906142ec565b6012546000908152600e60205260409081902090517f8238dc7600000000000000000000000000000000000000000000000000000000815273__Delegation_Uils_______________________91638238dc769161173e9190339060040161481c565b60006040518083038186803b15801561175657600080fd5b505af415801561176a573d6000803e3d6000fd5b505050507fdc98bdf69864c410a2b55e602454c9f67a9cc2655bfaf749570a0a56ce0df2833360405161179d9190613e6c565b60405180910390a1565b6012546000908152600e602052604081206117c29083612f9e565b90505b919050565b60135460ff16156117ed5760405162461bcd60e51b8152600401610a93906142ec565b6012546000908152600e60205260409081902090517ff0dc4da400000000000000000000000000000000000000000000000000000000815273__Delegation_Uils_______________________9163f0dc4da4916118509190339060040161481c565b60006040518083038186803b15801561186857600080fd5b505af415801561187c573d6000803e3d6000fd5b505050507ed207a2901e23683391f855702b0271f2d1aa36b3b90f9cb00ea868d3d38e4c3360405161179d9190613e6c565b6012546000908152600e602052604090206118c99033612f9e565b6118e55760405162461bcd60e51b8152600401610a9390614538565b600260005414156119085760405162461bcd60e51b8152600401610a93906146b9565b600260005560036000838152600b602052604090205474010000000000000000000000000000000000000000900460ff166005811115611971577f4e487b7100000000000000000000000000000000000000000000000000000000600052602160045260246000fd5b1461198e5760405162461bcd60e51b8152600401610a93906144a4565b6000828152600760209081526040808320600b909252918290205491517f8a73792500000000000000000000000000000000000000000000000000000000815273__Initiative_Legislative_Lib____________92638a73792592611a13929091869173ffffffffffffffffffffffffffffffffffffffff909116906004016146f0565b60206040518083038186803b158015611a2b57600080fd5b505af4158015611a3f573d6000803e3d6000fd5b505050506040513d601f19601f82011682018060405250810190611a63919061393a565b15611b2c576000828152600b6020526040902080547fffffffffffffffffffffff00ffffffffffffffffffffffffffffffffffffffff167404000000000000000000000000000000000000000017815560050154600654611ac391613018565b6006556000828152600b6020526040902054611af49073ffffffffffffffffffffffffffffffffffffffff16613044565b7f7ad719f164b05af00a15d6feb3d5aa24e2cb0481e37e9bd2fb84590c36ed5f0582604051611b239190613f5f565b60405180910390a15b50506001600055565b60018054611b4290614b89565b80601f0160208091040260200160405190810160405280929190818152602001828054611b6e90614b89565b8015611bbb5780601f10611b9057610100808354040283529160200191611bbb565b820191906000526020600020905b815481529060010190602001808311611b9e57829003601f168201915b505050505081565b6000818152600e60205260408120600881015460068201546007830154919390926060908190611bf590600201613179565b6000888152600e60209081526040918290208054835181840281018401909452808452939650919290830182828015611c4d57602002820191906000526020600020905b815481526020019060010190808311611c39575b50505060008a8152600e602090815260409182902060040180548351818402810184019094528084529597509194919350909150830182828015611cb057602002820191906000526020600020905b815481526020019060010190808311611c9c575b5050505050905091939550919395565b60105460115460125460065460135460ff169091929394565b6012546000908152600e60205260409020611cf49033612f9e565b611d105760405162461bcd60e51b8152600401610a9390614538565b6000818152600b602052604090206001015480611d3f5760405162461bcd60e51b8152600401610a93906143c8565b600080838152600b602052604090205474010000000000000000000000000000000000000000900460ff166005811115611da2577f4e487b7100000000000000000000000000000000000000000000000000000000600052602160045260246000fd5b14611dbf5760405162461bcd60e51b8152600401610a9390614436565b6000818152600d6020908152604080832060030154858452600b90925290912060020154611dee904290613018565b11611e0b5760405162461bcd60e51b8152600401610a93906143ff565b60008242604051602001611e20929190613e5e565b604080518083037fffffffffffffffffffffffffffffffffffffffffffffffffffffffffffffffe001815282825280516020918201206000868152600d835283812060068101546004918201548a845260079095529482208101547fe134535800000000000000000000000000000000000000000000000000000000875292965064010000000090940473ffffffffffffffffffffffffffffffffffffffff1694859463e134535894611eff94899430947f57f98d32000000000000000000000000000000000000000000000000000000009491929160019101613f68565b600060405180830381600087803b158015611f1957600080fd5b505af1158015611f2d573d6000803e3d6000fd5b5050506000858152600b60205260409081902042600382015580547fffffffffffffffffffffff00ffffffffffffffffffffffffffffffffffffffff1674010000000000000000000000000000000000000000179055517f30958bd750a3538628d246435fe2875ad4c29a883c59b7f43bc3e5b2ed8a6def9150610dd09086908590613e5e565b6012546000908152600e60205260409020611fcf9033612f9e565b611feb5760405162461bcd60e51b8152600401610a9390614538565b600080878152600b602052604090205474010000000000000000000000000000000000000000900460ff16600581111561204e577f4e487b7100000000000000000000000000000000000000000000000000000000600052602160045260246000fd5b1461206b5760405162461bcd60e51b8152600401610a9390614436565b6000868152600b60205260409020600101548061209a5760405162461bcd60e51b8152600401610a93906143c8565b6000818152600d60205260409020600201546120c29033906120bc9087613184565b896131c9565b6000878152600760205260409081902090517fea02218200000000000000000000000000000000000000000000000000000000815273__Initiative_Legislative_Lib____________9163ea0221829161212c91908a908a908a908a908a90339060040161471c565b60006040518083038186803b15801561214457600080fd5b505af4158015612158573d6000803e3d6000fd5b505050507f5e46f2ef5cfdaaf8f1a78f7efcce8ca4a75d39f5097b532d44f4ac212226ca4e878760405161218d929190613e5e565b60405180910390a150505050505050565b600480546040517f57f98d3200000000000000000000000000000000000000000000000000000000815273ffffffffffffffffffffffffffffffffffffffff909116916357f98d32916121f391339101613e6c565b60206040518083038186803b15801561220b57600080fd5b505afa15801561221f573d6000803e3d6000fd5b505050506040513d601f19601f82011682018060405250810190612243919061393a565b61225f5760405162461bcd60e51b8152600401610a93906145dd565b60026000828152600b602052604090205474010000000000000000000000000000000000000000900460ff1660058111156122c3577f4e487b7100000000000000000000000000000000000000000000000000000000600052602160045260246000fd5b146122e05760405162461bcd60e51b8152600401610a9390614247565b6000818152600b6020908152604080832033845260070190915290205460ff161561231d5760405162461bcd60e51b8152600401610a9390614614565b6000818152600b602052604081206006015461233a906001612fc7565b6000838152600b6020908152604080832033845260078101835281842080547fffffffffffffffffffffffffffffffffffffffffffffffffffffffffffffff0016600190811790915501548352600d825291829020600601546004805484517ffa91965f00000000000000000000000000000000000000000000000000000000815294519596506124469561ffff9093169473ffffffffffffffffffffffffffffffffffffffff919091169363fa91965f93828401939192909190829003018186803b15801561240957600080fd5b505afa15801561241d573d6000803e3d6000fd5b505050506040513d601f19601f820116820180604052508101906124419190613bc8565b6133c1565b81106125c3576000828152600b60205260409020600581015481547fffffffffffffffffffffff00ffffffffffffffffffffffffffffffffffffffff1674050000000000000000000000000000000000000000179091556006546124aa9082613018565b6006556000838152600b60205260409020546124db9073ffffffffffffffffffffffffffffffffffffffff16613044565b6003546005546040517fa9059cbb00000000000000000000000000000000000000000000000000000000815273ffffffffffffffffffffffffffffffffffffffff9283169263a9059cbb92612537929116908590600401613ef0565b602060405180830381600087803b15801561255157600080fd5b505af1158015612565573d6000803e3d6000fd5b505050506040513d601f19601f82011682018060405250810190612589919061393a565b507fce51aefaea5062b86ae2fe5432aa52e50af7ff15c4e192c06e053c713ac26595836040516125b99190613f5f565b60405180910390a1505b6000918252600b602052604090912060060155565b6012546000908152600e602052604090206125f39033612f9e565b61260f5760405162461bcd60e51b8152600401610a9390614538565b600080898152600b602052604090205474010000000000000000000000000000000000000000900460ff166005811115612672577f4e487b7100000000000000000000000000000000000000000000000000000000600052602160045260246000fd5b1461268f5760405162461bcd60e51b8152600401610a93906145a6565b6000888152600b6020526040902060010154806126be5760405162461bcd60e51b8152600401610a93906143c8565b6000818152600d60205260409020600201546126e69033906126e09087613184565b8b6131c9565b600089815260076020526040812060040154612703906001612fc7565b60008b815260076020818152604080842085855260038101835281852060050180547fffffffffffffffffffffffff00000000000000000000000000000000000000001633179055938f9052919052517f902f807f00000000000000000000000000000000000000000000000000000000815291925073__Initiative_Legislative_Lib____________9163902f807f916127af918d908d908d908d908d908d908d9060040161477a565b60006040518083038186803b1580156127c757600080fd5b505af41580156127db573d6000803e3d6000fd5b505050507f8ab63059298b5fa878faa964524f7d8cde2fae972ce6ae3d8bffe31b63803ede8a82604051612810929190613e5e565b60405180910390a150505050505050505050565b60025473ffffffffffffffffffffffffffffffffffffffff16331461285b5760405162461bcd60e51b8152600401610a93906141d9565b60115460009061286c906001612fc7565b6000818152600f60205260409081902090517f6daaae3c00000000000000000000000000000000000000000000000000000000815291925073__Delegation_Uils_______________________91636daaae3c916128da918c908c908c908c908c908c908c90600401614840565b60006040518083038186803b1580156128f257600080fd5b505af4158015612906573d6000803e3d6000fd5b5050506011829055506040517f53d99a6ad2b984cced94e1902b72add5478755d40dfde51e8ca7a1d2495ed83e90600090a15050505050505050565b60135460ff166129645760405162461bcd60e51b8152600401610a93906141a2565b6012546000818152600e60208181526040808420600801548452600f9091529182902060049081015460115493517f195c5c3e00000000000000000000000000000000000000000000000000000000815273__Delegation_Uils_______________________9463195c5c3e946129ff949093640100000000900473ffffffffffffffffffffffffffffffffffffffff16928892910161412d565b60006040518083038186803b158015612a1757600080fd5b505af4158015612a2b573d6000803e3d6000fd5b50505050806001612a3c9190614ab8565b601255601380547fffffffffffffffffffffffffffffffffffffffffffffffffffffffffffffff001690556040517ffbd77822dd2c0056a69b7b038c4ac5db05fda79e438536e8fc9c1ab38f2c1eda90600090a150565b600760205260009081526040902080548190612aae90614b89565b80601f0160208091040260200160405190810160405280929190818152602001828054612ada90614b89565b8015612b275780601f10612afc57610100808354040283529160200191612b27565b820191906000526020600020905b815481529060010190602001808311612b0a57829003601f168201915b505050505090806001018054612b3c90614b89565b80601f0160208091040260200160405190810160405280929190818152602001828054612b6890614b89565b8015612bb55780601f10612b8a57610100808354040283529160200191612bb5565b820191906000526020600020905b815481529060010190602001808311612b9857829003601f168201915b5050505050908060040154908060050154905084565b600f60205260009081526040902080546001820154600283015460038401546004909401549293919290919061ffff8082169162010000810490911690640100000000900473ffffffffffffffffffffffffffffffffffffffff1687565b60025474010000000000000000000000000000000000000000900460ff1681565b6012546000908152600e60205260409020612c659033612f9e565b612c815760405162461bcd60e51b8152600401610a9390614538565b73ffffffffffffffffffffffffffffffffffffffff851660009081526008602052604090205460ff16612cc65760405162461bcd60e51b8152600401610a939061464b565b600084848484604051602001612cdf9493929190613fd0565b604080517fffffffffffffffffffffffffffffffffffffffffffffffffffffffffffffffe081840301815291815281516020928301206000818152600b90935291206001015490915015612d455760405162461bcd60e51b8152600401610a9390614323565b6010546000828152600b602090815260408083206001908101859055848452600d9092529091200154612d7a903390846131c9565b6000828152600b6020908152604080832080547fffffffffffffffffffffffff00000000000000000000000000000000000000001673ffffffffffffffffffffffffffffffffffffffff8c1617815542600290910155600c8054600181019091557fdf6966c971051c3d54ec59162606531493a51404a002842f56009d7e5cf4a8c70185905560079091529020612e129087876135ce565b506000828152600760205260409020612e2f9060010185856135ce565b5073ffffffffffffffffffffffffffffffffffffffff87166000908152600860205260408120600101805491612e6483614bdd565b91905055507fb67ed5b18454d803ae273d4b720b9c50d1983a2b09b8cd948b92df465ba544f28260405161218d9190613f5f565b60025473ffffffffffffffffffffffffffffffffffffffff163314612ecf5760405162461bcd60e51b8152600401610a93906141d9565b73ffffffffffffffffffffffffffffffffffffffff811660009081526008602052604090205460ff1615612f155760405162461bcd60e51b8152600401610a9390614682565b73ffffffffffffffffffffffffffffffffffffffff8116600090815260086020526040902080547fffffffffffffffffffffffffffffffffffffffffffffffffffffffffffffff00166001179055612f6e6009826133de565b507ff95e5bc30f654744875db132f80d133be3bfae89add835289906a21c367c51ca816040516111889190613e6c565b6000612fc08373ffffffffffffffffffffffffffffffffffffffff8416613400565b9392505050565b600080612fd48385614ab8565b905083811015612fc05760405162461bcd60e51b8152600401610a93906142b5565b6000612fc08373ffffffffffffffffffffffffffffffffffffffff8416613418565b60008282111561303a5760405162461bcd60e51b8152600401610a9390614391565b612fc08284614b46565b73ffffffffffffffffffffffffffffffffffffffff8116600090815260086020526040812060019081015461307891613018565b9050801580156130ae575073ffffffffffffffffffffffffffffffffffffffff821660009081526008602052604090205460ff16155b1561314d576040517fb18d743b00000000000000000000000000000000000000000000000000000000815273ffffffffffffffffffffffffffffffffffffffff83169063b18d743b90613105903090600401613e6c565b600060405180830381600087803b15801561311f57600080fd5b505af1158015613133573d6000803e3d6000fd5b5050505061314b826009612ff690919063ffffffff16565b505b73ffffffffffffffffffffffffffffffffffffffff909116600090815260086020526040902060010155565b60006117c282613580565b6000826131935750600061055c565b600061319f8385614b09565b9050826131ac8583614ad0565b14612fc05760405162461bcd60e51b8152600401610a93906144db565b6000818152600b602090815260408083206001810154808552600d84528285205473ffffffffffffffffffffffffffffffffffffffff89168652600890920190935292205490919061321c908590614ab8565b111561323a5760405162461bcd60e51b8152600401610a9390614210565b6000818152600d60205260408120600601546132609062010000900461ffff16856133c1565b9050600061327982600654612fc790919063ffffffff16565b6003546040517f70a0823100000000000000000000000000000000000000000000000000000000815291925073ffffffffffffffffffffffffffffffffffffffff16906370a08231906132d0903090600401613e6c565b60206040518083038186803b1580156132e857600080fd5b505afa1580156132fc573d6000803e3d6000fd5b505050506040513d601f19601f820116820180604052508101906133209190613bc8565b81111561333f5760405162461bcd60e51b8152600401610a939061446d565b6000848152600b6020908152604080832073ffffffffffffffffffffffffffffffffffffffff8a16845260080190915281208054879290613381908490614ab8565b90915550506000848152600b60205260409020600501546133a29083612fc7565b6000948552600b60205260409094206005019390935550506006555050565b60006127106133d48361ffff8616614b09565b612fc09190614ad0565b6000612fc08373ffffffffffffffffffffffffffffffffffffffff8416613584565b60009081526001919091016020526040902054151590565b6000818152600183016020526040812054801561357657600061343c600183614b46565b855490915060009061345090600190614b46565b90506000866000018281548110613490577f4e487b7100000000000000000000000000000000000000000000000000000000600052603260045260246000fd5b90600052602060002001549050808760000184815481106134da577f4e487b7100000000000000000000000000000000000000000000000000000000600052603260045260246000fd5b6000918252602090912001556134f1836001614ab8565b6000828152600189016020526040902055865487908061353a577f4e487b7100000000000000000000000000000000000000000000000000000000600052603160045260246000fd5b6001900381819060005260206000200160009055905586600101600087815260200190815260200160002060009055600194505050505061055c565b600091505061055c565b5490565b60006135908383613400565b6135c65750815460018181018455600084815260208082209093018490558454848252828601909352604090209190915561055c565b50600061055c565b8280546135da90614b89565b90600052602060002090601f0160209004810192826135fc5760008555613660565b82601f10613633578280017fffffffffffffffffffffffffffffffffffffffffffffffffffffffffffffff00823516178555613660565b82800160010185558215613660579182015b82811115613660578235825591602001919060010190613645565b5061366c929150613670565b5090565b5b8082111561366c5760008155600101613671565b80516117c581614ca3565b60008083601f8401126136a1578182fd5b50813567ffffffffffffffff8111156136b8578182fd5b60208301915083602080830285010111156136d257600080fd5b9250929050565b60008083601f8401126136ea578182fd5b50813567ffffffffffffffff811115613701578182fd5b6020830191508360208285010111156136d257600080fd5b600082601f830112613729578081fd5b815167ffffffffffffffff81111561374357613743614c74565b61377460207fffffffffffffffffffffffffffffffffffffffffffffffffffffffffffffffe0601f84011601614a45565b818152846020838601011115613788578283fd5b613799826020830160208701614b5d565b949350505050565b803561ffff811681146117c557600080fd5b6000602082840312156137c4578081fd5b8135612fc081614ca3565b6000806000806000606086880312156137e6578081fd5b85356137f181614ca3565b9450602086013567ffffffffffffffff8082111561380d578283fd5b61381989838a016136d9565b90965094506040880135915080821115613831578283fd5b5061383e888289016136d9565b969995985093965092949392505050565b60006020808385031215613861578182fd5b825167ffffffffffffffff811115613877578283fd5b8301601f81018513613887578283fd5b805161389a61389582614a94565b614a45565b81815283810190838501865b848110156138cf576138bd8a888451890101613719565b845292860192908601906001016138a6565b509098975050505050505050565b60008060008061012085870312156138f3578384fd5b60c0850186811115613903578485fd5b85945061390f816137a1565b93505061391e60e086016137a1565b915061010085013561392f81614ca3565b939692955090935050565b60006020828403121561394b578081fd5b81518015158114612fc0578182fd5b60006020828403121561396b578081fd5b5035919050565b60008060408385031215613984578182fd5b82359150602083013561399681614ca3565b809150509250929050565b600080604083850312156139b3578182fd5b50508035926020909101359150565b600080600080600080608087890312156139da578384fd5b8635955060208701359450604087013567ffffffffffffffff808211156139ff578586fd5b613a0b8a838b01613690565b90965094506060890135915080821115613a23578283fd5b50613a3089828a01613690565b979a9699509497509295939492505050565b60008060008060008060008060a0898b031215613a5d578586fd5b8835975060208901359650604089013567ffffffffffffffff80821115613a82578788fd5b613a8e8c838d01613690565b909850965060608b0135915080821115613aa6578384fd5b613ab28c838d01613690565b909650945060808b0135915080821115613aca578384fd5b50613ad78b828c016136d9565b999c989b5096995094979396929594505050565b600080600080600060a08688031215613b02578283fd5b855167ffffffffffffffff80821115613b19578485fd5b613b2589838a01613719565b9650602091508188015181811115613b3b578586fd5b88019050601f81018913613b4d578485fd5b8051613b5b61389582614a94565b81815283810190838501858402850186018d1015613b77578889fd5b8894505b83851015613b99578051835260019490940193918501918501613b7b565b5080985050505050506040860151925060608601519150613bbc60808701613685565b90509295509295909350565b600060208284031215613bd9578081fd5b5051919050565b600080600080600080600060e0888a031215613bfa578081fd5b87359650602088013595506040880135945060608801359350613c1f608089016137a1565b9250613c2d60a089016137a1565b915060c0880135613c3d81614ca3565b8091505092959891949750929550565b73ffffffffffffffffffffffffffffffffffffffff169052565b6000815180845260208085019450808401835b83811015613c9657815187529582019590820190600101613c7a565b509495945050505050565b818352602080840193600091908185020181018584845b87811015613d3d57828403895281357fffffffffffffffffffffffffffffffffffffffffffffffffffffffffffffffe1883603018112613cf6578687fd5b8701803567ffffffffffffffff811115613d0e578788fd5b803603891315613d1c578788fd5b613d298682898501613d97565b9a87019a9550505090840190600101613cb8565b5091979650505050505050565b60008284527f07ffffffffffffffffffffffffffffffffffffffffffffffffffffffffffffff831115613d7b578081fd5b6020830280836020870137939093016020019283525090919050565b600082845282826020860137806020848601015260207fffffffffffffffffffffffffffffffffffffffffffffffffffffffffffffffe0601f85011685010190509392505050565b60008151808452613df7816020860160208601614b5d565b601f017fffffffffffffffffffffffffffffffffffffffffffffffffffffffffffffffe0169290920160200192915050565b60609290921b7fffffffffffffffffffffffffffffffffffffffff000000000000000000000000168252601482015260340190565b918252602082015260400190565b73ffffffffffffffffffffffffffffffffffffffff91909116815260200190565b73ffffffffffffffffffffffffffffffffffffffff89168152610100810160068910613ebb57613ebb614c45565b602082019890985260408101969096526060860194909452608085019290925260a084015260c083015260e090910152919050565b73ffffffffffffffffffffffffffffffffffffffff929092168252602082015260400190565b600060408252613f296040830185613c67565b8281036020840152613f3b8185613c67565b95945050505050565b901515815260200190565b9115158252602082015260400190565b90815260200190565b96875273ffffffffffffffffffffffffffffffffffffffff9590951660208701527fffffffff000000000000000000000000000000000000000000000000000000009390931660408601526060850191909152608084015260a083015260c082015260e00190565b600060408252613fe4604083018688613d97565b8281036020840152613ff7818587613d97565b979650505050505050565b600060c0825261401560c0830189613ddf565b828103602084810191909152885180835289820192820190845b8181101561404b5784518352938301939183019160010161402f565b505084810360408601528851808252828201935082810282018301838b01865b838110156140b7577fffffffffffffffffffffffffffffffffffffffffffffffffffffffffffffffe08584030187526140a5838351613ddf565b9686019692509085019060010161406b565b50508095505050505050846060830152836080830152613ff760a0830184613c4d565b6000608082526140ed6080830187613ddf565b82810360208401526140ff8187613ddf565b604084019590955250506060015292915050565b602081016007831061412757614127614c45565b91905290565b93845273ffffffffffffffffffffffffffffffffffffffff9290921660208401526040830152606082015260800190565b9384526020840192909252604083015273ffffffffffffffffffffffffffffffffffffffff16606082015260800190565b600060208252612fc06020830184613ddf565b60208082526014908201527f4e6f7420696e20456c656374696f6e2074696d65000000000000000000000000604082015260600190565b60208082526011908201527f436f6e737469747574696f6e204f6e6c79000000000000000000000000000000604082015260600190565b6020808252601b908201527f4d656d62657220636f6e73756d7074696f6e2065786365656465640000000000604082015260600190565b6020808252601c908201527f4c6177204e6f742061742043454e534f52204c41572073746174757300000000604082015260600190565b60208082526016908201527f416e20456c656374696f6e2069732050656e64696e6700000000000000000000604082015260600190565b6020808252601b908201527f536166654d6174683a206164646974696f6e206f766572666c6f770000000000604082015260600190565b6020808252600d908201527f456c656374696f6e2054696d6500000000000000000000000000000000000000604082015260600190565b6020808252601b908201527f4c61772070726f6a65637420616c726561647920637265617465640000000000604082015260600190565b60208082526009908201527f4164647265737320300000000000000000000000000000000000000000000000604082015260600190565b6020808252601e908201527f536166654d6174683a207375627472616374696f6e206f766572666c6f770000604082015260600190565b60208082526017908201527f4e6f206578697374696e67204c61772050726f6a656374000000000000000000604082015260600190565b6020808252601e908201527f50524f504f534954494f4e207374616765206e6f742066696e69736865640000604082015260600190565b6020808252601d908201527f4c6177204e6f742061742050524f504f534954494f4e20737461747573000000604082015260600190565b6020808252601a908201527f4e6f20656e6f75676820636f6c61746572616c732066756e6473000000000000604082015260600190565b6020808252600f908201527f4c6177204e6f742041444f505445440000000000000000000000000000000000604082015260600190565b60208082526021908201527f536166654d6174683a206d756c7469706c69636174696f6e206f766572666c6f60408201527f7700000000000000000000000000000000000000000000000000000000000000606082015260800190565b6020808252600f908201527f44656c65676174696f6e204f6e6c790000000000000000000000000000000000604082015260600190565b6020808252601a908201527f43454e534f52204c415720504552494f44206e6f74206f766572000000000000604082015260600190565b60208082526019908201527f4e6f742061742050524f504f534954494f4e2073746174757300000000000000604082015260600190565b6020808252600c908201527f436974697a656e204f6e6c790000000000000000000000000000000000000000604082015260600190565b6020808252600e908201527f416c7265616479205369676e6564000000000000000000000000000000000000604082015260600190565b60208082526016908201527f5265676973746572204e6f7420436f6e74726f6c656400000000000000000000604082015260600190565b6020808252601a908201527f526567697374657220616c726561647920436f6e74726f6c6564000000000000604082015260600190565b6020808252601f908201527f5265656e7472616e637947756172643a207265656e7472616e742063616c6c00604082015260600190565b928352602083019190915273ffffffffffffffffffffffffffffffffffffffff16604082015260600190565b600088825287602083015260a0604083015261473c60a083018789613ca1565b828103606084015261474f818688613d4a565b91505073ffffffffffffffffffffffffffffffffffffffff8316608083015298975050505050505050565b600089825288602083015260a0604083015261479a60a08301888a613d4a565b82810360608401526147ad818789613ca1565b905082810360808401526147c2818587613d97565b9b9a5050505050505050505050565b858152610140810160c086602084013761ffff94851660e08301529290931661010084015273ffffffffffffffffffffffffffffffffffffffff166101209092019190915292915050565b91825273ffffffffffffffffffffffffffffffffffffffff16602082015260400190565b978852602088019690965260408701949094526060860192909252608085015261ffff90811660a08501521660c083015273ffffffffffffffffffffffffffffffffffffffff1660e08201526101000190565b600060408083018584526020828186015281865180845260608701915060608382028801019350828801865b8281101561491e578886037fffffffffffffffffffffffffffffffffffffffffffffffffffffffffffffffa0018452815180511515875285015185870188905261490b88880182613ddf565b96505092840192908401906001016148bf565b50939998505050505050505050565b600087825286602083015285604083015284606083015260c0608083015261495860c0830185613c67565b82810360a084015261496a8185613c67565b9998505050505050505050565b9485526020850193909352604084019190915260608301521515608082015260a00190565b96875260208701959095526040860193909352606085019190915261ffff90811660808501521660a083015273ffffffffffffffffffffffffffffffffffffffff1660c082015260e00190565b988952602089019790975260408801959095526060870193909352608086019190915260a085015261ffff90811660c08501521660e083015273ffffffffffffffffffffffffffffffffffffffff166101008201526101200190565b604051601f82017fffffffffffffffffffffffffffffffffffffffffffffffffffffffffffffffe016810167ffffffffffffffff81118282101715614a8c57614a8c614c74565b604052919050565b600067ffffffffffffffff821115614aae57614aae614c74565b5060209081020190565b60008219821115614acb57614acb614c16565b500190565b600082614b04577f4e487b710000000000000000000000000000000000000000000000000000000081526012600452602481fd5b500490565b6000817fffffffffffffffffffffffffffffffffffffffffffffffffffffffffffffffff0483118215151615614b4157614b41614c16565b500290565b600082821015614b5857614b58614c16565b500390565b60005b83811015614b78578181015183820152602001614b60565b83811115610dd95750506000910152565b600281046001821680614b9d57607f821691505b60208210811415614bd7577f4e487b7100000000000000000000000000000000000000000000000000000000600052602260045260246000fd5b50919050565b60007fffffffffffffffffffffffffffffffffffffffffffffffffffffffffffffffff821415614c0f57614c0f614c16565b5060010190565b7f4e487b7100000000000000000000000000000000000000000000000000000000600052601160045260246000fd5b7f4e487b7100000000000000000000000000000000000000000000000000000000600052602160045260246000fd5b7f4e487b7100000000000000000000000000000000000000000000000000000000600052604160045260246000fd5b73ffffffffffffffffffffffffffffffffffffffff8116811461108c57600080fdfea2646970667358221220289d29a6717fe6fee0928d3334d2f8a5c78a72e80f73d69bcc0117ff511f9e3564736f6c63430008010033",
  "immutableReferences": {},
  "source": "// SPDX-License-Identifier: MIT\npragma solidity ^0.8.0;\n\n//import \"Initiative_Legislative.sol\";\n//import \"IDelegation.sol\";\n//import \"Agora.sol\";\n/*import \"Initiative_Legislative_lib.sol\";\nimport \"Register.sol\";\nimport \"Citizens_Register.sol\";\nimport \"IVote.sol\";\nimport \"IDelegation.sol\";*/\n\n\nimport \"contracts/Initiative_Legislative_lib.sol\";\nimport \"contracts/Register.sol\";\nimport \"contracts/Citizens_Register.sol\";\nimport \"contracts/IVote.sol\";\nimport \"contracts/IDelegation.sol\";\n\n\n\n/** \n * @dev Delegation_Uils library is used to reduce the size of Delegation contract in order to avoid to exceed contract limit size. It contains heavy functions and data structures.\n*/\n\nlibrary Delegation_Uils{\n    using EnumerableSet for EnumerableSet.AddressSet;\n    \n    \n    /**\n     * @dev Parameters related to the democratic process of registers governance.\n     *          - Member_Max_Token_Usage: The maximum amount of token a member is allowed to use for a law project elaboration\n     *          - Law_Initialisation_Price: The price in token for creating a law project\n     *          - FunctionCall_Price: The price in token for one FunctionCall.\n     *          - Proposition_Duration: The duration of the stage in which members are allowed to submit propositions\n     *          - Vote_Duration: The duration of the stage in which members are allowed to vote for the proposition they want\n     *          - Law_Censor_Period_Duration: The duration of the stage in which all citizens are allowed to sign a etition against the law project proposed by the Delegation\n     *          - Censor_Proposition_Petition_Rate The minimum ratio of citizens required to cancel a law project\n     *          - Censor_Penalty_Rate The amount of token the delegation will lost if their law project is rejected by citizens\n     *          - Ivote_address Address of the IVote contract that will be used during voting stage\n    */\n    struct Law_Project_Parameters{\n        //uint Revert_Penalty_Limit;\n        uint Member_Max_Token_Usage;\n        uint Law_Initialisation_Price;\n        uint FunctionCall_Price; \n        uint Proposition_Duration;\n        uint Vote_Duration;\n        uint Law_Censor_Period_Duration;\n        uint16 Censor_Proposition_Petition_Rate;\n        uint16 Censor_Penalty_Rate;\n        address Ivote_address;\n        //EnumerableSet.AddressSet Associated_Institutions;\n    }\n    \n   \n     \n    /**\n     * @dev Structure reresenting parameters related to the democratic process of registers governance.\n     *          - Election_Duration Duration of the stage in which citizens are allowed to vote for Candidats they prefer\n     *          - Validation_Duration Duration of the stage in which citizens can validate their hased vote by revealing their choice and the salt that has been used for hasing \n     *          - Mandate_Duration Duration of a delegation mandate\n     *          - Immunity_Duration Amount of time after the beginning of a new mandate during which delegation's members can't be revoked\n     *          - Num_Max_Members Maximum number of members in the delegation.\n     *          - New_Election_Petition_Rate The minimum ratio of citizens required to revoke the current delegation's members and start a new election\n     *          - Ivote_address Address of the IVote contract that will be used during election stage\n    */\n    struct Mandate_Parameter{\n        uint Election_Duration;\n        uint Validation_Duration;\n        uint Mandate_Duration;\n        uint Immunity_Duration;\n        uint16 Next_Mandate_Max_Members;\n        uint16 New_Election_Petition_Rate;\n        address Ivote_address;\n    }\n    \n    /**\n     * @dev Structure representing a mandate.\n     *          - Members Duration : List of members of the delegation\n     *          - New_Election_Petitions: List of citizens who have signed petition for revoking the current delegation's members.\n     *          - Next_Mandate_Candidats: List of accounts that are candidates for the next election\n     *          - Inauguration_Timestamps: Beginning of current mandate\n     *          - Election_Timestamps: Beginning of election\n     *          - Version: Version of parameters (Id of {Mandate_Parameter} object) used by this mandate\n    */\n    struct Mandate{\n        EnumerableSet.AddressSet Members;\n        EnumerableSet.AddressSet New_Election_Petitions;\n        EnumerableSet.AddressSet Next_Mandate_Candidats;\n        uint Inauguration_Timestamps;\n        uint Election_Timestamps;\n        uint Version;\n    }\n    \n    \n    event Governance_Parameters_Updated();\n    event Legislatif_Parameters_Updated();\n    event New_Candidat(address Candidat);\n    event Remove_Candidat(address Candidat);\n    event Sign();\n    event New_election(bytes32 Vote_key);\n    event New_Mandate();\n    \n    ///@dev Function used for updating parameters related to the democratic process of rmembers election. See {Update_Internal_Governance] function of {Delegation} or {IDelegation} contract\n    function Update_Mandate_Parameter(Mandate_Parameter storage mandate_param, uint Election_Duration, uint Validation_Duration, uint Mandate_Duration, uint Immunity_Duration,\n        uint16 Next_Mandate_Max_Members, uint16 New_Election_Petition_Rate, address Ivote_address) external {\n            mandate_param.Election_Duration = Election_Duration;\n            mandate_param.Validation_Duration = Validation_Duration;\n            mandate_param.Mandate_Duration = Mandate_Duration;\n            mandate_param.Immunity_Duration = Immunity_Duration;\n            mandate_param.Next_Mandate_Max_Members = Next_Mandate_Max_Members;\n            mandate_param.New_Election_Petition_Rate = New_Election_Petition_Rate;\n            mandate_param.Ivote_address = Ivote_address;\n            \n            emit Governance_Parameters_Updated();\n        }\n        \n        ///@dev Function used for updating parameters related to the democratic process of registers governance. See {Update_Legislatif_Process] function of {Delegation} or {IDelegation} contract\n        function Update_Law_Parameters(Law_Project_Parameters storage projet_param, uint[6] calldata Uint256_Legislatifs_Arg, uint16 Censor_Proposition_Petition_Rate, \n         uint16 Censor_Penalty_Rate, address Ivote_address) external {\n             projet_param.Member_Max_Token_Usage = Uint256_Legislatifs_Arg[0];\n             projet_param.Law_Initialisation_Price = Uint256_Legislatifs_Arg[1];\n             projet_param.FunctionCall_Price = Uint256_Legislatifs_Arg[2];\n             projet_param.Proposition_Duration = Uint256_Legislatifs_Arg[3];\n             projet_param.Vote_Duration = Uint256_Legislatifs_Arg[4];\n             projet_param.Law_Censor_Period_Duration = Uint256_Legislatifs_Arg[5];\n             projet_param.Censor_Proposition_Petition_Rate = Censor_Proposition_Petition_Rate;\n             projet_param.Censor_Penalty_Rate = Censor_Penalty_Rate;\n             projet_param.Ivote_address = Ivote_address;\n             \n             emit Legislatif_Parameters_Updated();\n        }\n    \n    \n        /**\n         * @dev Function called by {End_Election} function of {Delegation} Contract to end the current contract and start a new one.\n         * @param Mandates mapping of Mandate structure idexed by uint corresponding to their order of apparition\n         * @param ivote_address Address of IVote contract used by citizens to vote during election.\n         * @param last_mandate_num Index in {Mandates} mapping of the last mandate\n         * @param Internal_Governance_Version Version of Parameters ({Mandate_Parameter} structur) u.sed by the current mandate\n         * */\n    function Transition_Mandate(mapping (uint=>Mandate) storage Mandates, address ivote_address, uint last_mandate_num, uint Internal_Governance_Version) external{\n        uint new_mandate_num=last_mandate_num+1;\n        uint[] memory results;\n        IVote Vote_Instance = IVote(ivote_address);\n        results = Vote_Instance.Get_Winning_Propositions(keccak256(abi.encodePacked(address(this),Mandates[last_mandate_num].Election_Timestamps)));\n        \n        if(results[0]==0){\n            uint actual_member_length = Mandates[last_mandate_num].Members.length();\n            for(uint i =0; i<actual_member_length; i++){\n                Mandates[new_mandate_num].Members.add(Mandates[last_mandate_num].Members.at(i));\n            }\n        }else{\n            for(uint i =0; i<results.length; i++){\n                Mandates[new_mandate_num].Members.add(Mandates[last_mandate_num].Next_Mandate_Candidats.at(results[i]-1));\n            }\n        }\n        \n        Mandates[new_mandate_num].Inauguration_Timestamps = block.timestamp;\n        Mandates[new_mandate_num].Version = Internal_Governance_Version;\n        emit New_Mandate();\n    }\n    \n    /**\n     * @dev Function called by {Candidate_Election} function of {Delegation} contract to add a new account to the list of candidats for next election\n     * @param mandate Current Mandate object\n     * @param new_candidat Account to add to the list of candidats\n    */\n    function Add_Candidats(Mandate storage mandate, address new_candidat)external{\n        require(!mandate.Next_Mandate_Candidats.contains(new_candidat), \"Already Candidate\");\n        mandate.Next_Mandate_Candidats.add(new_candidat);\n        emit New_Candidat(new_candidat);\n    \n    }\n    \n    /**\n     * @dev Function called by {Remove_Candidature} function of {Delegation} contract to remove an account from the list of candidats for next election\n     * @param mandate Current Mandate object\n     * @param remove_candidat Account to remove from the list of candidats\n    */\n    function Remove_Candidats(Mandate storage mandate, address remove_candidat)external{\n        require(mandate.Next_Mandate_Candidats.contains(remove_candidat), \"Not Candidate\");\n        mandate.Next_Mandate_Candidats.remove(remove_candidat);\n        emit Remove_Candidat(remove_candidat);\n    }\n    \n    /**\n     * @dev Function called by {Sign_New_Election_Petition} function of {Delegation} contract to add an account to list petition for revoking current delegation members\n     * @param mandate Current Mandate object\n     * @param Immunity_Duration Amount of time after the beginning of a new mandate during which delegation's members can't be revoked\n     * @param signer Address of account who want to sign the petition\n    */\n    function Sign_Petition(Mandate storage mandate, uint Immunity_Duration, address signer)external{\n        require(block.timestamp - mandate.Inauguration_Timestamps > Immunity_Duration, \"Immunity Period\");\n        require(!mandate.New_Election_Petitions.contains(signer), \"Already signed petition\");\n        mandate.New_Election_Petitions.add(signer);\n        emit Sign();\n    }\n    \n    /**\n     * @dev Function called by {New_Election} function of {Delegation} contract to start a new election\n     * @param Mandates mapping of Mandate structure idexed by uint corresponding to their order of apparition\n     * @param mandate_version Mandate_Parameter object corresponding to parameters that are used by current mandate\n     * @param num_mandate Index of the current mandate in the {Mandates} mapping\n     * @param citizen_register_address Address of {Citizens_Register} contract used in the current project to handle citizens registration \n    */\n    function New_Election(mapping(uint=>Mandate) storage Mandates, Mandate_Parameter storage mandate_version, uint num_mandate, address citizen_register_address)external returns(bool new_election){\n        uint candidats_number = Mandates[num_mandate].Next_Mandate_Candidats.length();\n        Citizens_Register citizen = Citizens_Register(citizen_register_address);\n        require(candidats_number>0, \"No Candidats\");\n        require(Mandates[num_mandate].New_Election_Petitions.length() >= Percentage(mandate_version.New_Election_Petition_Rate, citizen.Get_Citizen_Number()) || (block.timestamp - Mandates[num_mandate].Inauguration_Timestamps) > mandate_version.Mandate_Duration, \"New election impossible for now\");\n        if(candidats_number <= mandate_version.Next_Mandate_Max_Members){\n            uint new_mandate_num = num_mandate+1;\n            for(uint i =0; i<candidats_number; i++){\n                Mandates[new_mandate_num].Members.add(Mandates[num_mandate].Next_Mandate_Candidats.at(i));\n            }\n            Mandates[new_mandate_num].Inauguration_Timestamps = block.timestamp;\n            \n            emit New_Mandate();\n            return false;\n        }else{\n            Mandates[num_mandate].Election_Timestamps = block.timestamp;\n            IVote Vote_Instance = IVote(mandate_version.Ivote_address);\n            bytes32 key = keccak256(abi.encodePacked(address(this),block.timestamp));\n            Vote_Instance.Create_Ballot(key, citizen_register_address, Citizens_Register(citizen_register_address).Contains_Function_Selector(), mandate_version.Election_Duration, mandate_version.Validation_Duration, candidats_number, mandate_version.Next_Mandate_Max_Members);\n            emit New_election(key);\n            return true;\n        }\n        \n    }\n    \n    /**\n     * @dev Function called by the constructor function of {Delegation} contract to start the first mandate.\n     * @param mandate Current Mandate object \n     * @param Initial_members Members of the first Delegation\n    */\n    function Set_First_Mandate(Mandate storage mandate, address[] memory Initial_members)external{\n        mandate.Inauguration_Timestamps = block.timestamp;\n        for(uint i=0; i<Initial_members.length; i++){\n            mandate.Members.add(Initial_members[i]);\n        }\n        mandate.Version= 1;\n    }\n    \n    /*function Set_Legislatif_Process_Param(uint[6] calldata Uint256_Legislatifs_Arg, uint16 Censor_Proposition_Petition_Rate, uint16 Censor_Penalty_Rate, address Ivote_address, uint version)external{\n        this.Law_Parameters_Versions[version].Member_Max_Token_Usage = Uint256_Legislatifs_Arg[0];\n        this.Law_Parameters_Versions[version].Law_Initialisation_Price = Uint256_Legislatifs_Arg[1];\n        this.Law_Parameters_Versions[version].FunctionCall_Price = Uint256_Legislatifs_Arg[2];\n        this.Law_Parameters_Versions[version].Proposition_Duration = Uint256_Legislatifs_Arg[3];\n        this.Law_Parameters_Versions[version].Vote_Duration = Uint256_Legislatifs_Arg[4];\n        this.Law_Parameters_Versions[version].Law_Censor_Period_Duration = Uint256_Legislatifs_Arg[5];\n        this.Law_Parameters_Versions[version].Censor_Proposition_Petition_Rate = Censor_Proposition_Petition_Rate;\n        this.Law_Parameters_Versions[version].Censor_Penalty_Rate = Censor_Penalty_Rate;\n        this.Law_Parameters_Versions[version].Ivote_address = Ivote_address;\n    }*/\n    \n    \n    /** \n     * @dev Utility function for computing Percentage.\n     * @param ratio The ratio is represented with 2 decimals\n     * @param base The base's number of decimal is arbitrary\n     * @return Return the {ratio}% of {base}. The result is represented with the number of decimals of {base} \n    */\n    function Percentage(uint16 ratio, uint base) internal pure returns(uint){\n        return (ratio*base)/10000 ;// ((ratio*base)/100) * 10^(-ratio_decimals)\n    }\n}\n\n\n\n\n/**\n * @dev Delegation contract is an implementation of IDelegation and thus aims at implementing a governance system in which a group of elected accounts is allowed to rule one or more controled registers contract. \n*/\n\n contract Delegation is Institution, IDelegation{// Initiative_Legislative{\n    using EnumerableSet for EnumerableSet.AddressSet;\n    using SafeMath for uint;\n    using Initiative_Legislative_Lib for Initiative_Legislative_Lib.Law_Project;\n    using Delegation_Uils for Delegation_Uils.Mandate_Parameter;\n    using Delegation_Uils for Delegation_Uils.Mandate;\n    using Delegation_Uils for Delegation_Uils.Law_Project_Parameters;\n    /*using Delegation_Uils for Delegation_Uils.Controlable_Register;\n    using Delegation_Uils for Delegation_Uils.Delegation_Law_Project;\n    using Delegation_Uils for Delegation_Uils.Status;*/\n    \n    /**\n     * @dev status of a law project\n     */\n    enum Status{\n        PROPOSITION,\n        VOTE,\n        CENSOR_LAW_PERIOD,\n        ADOPTED,\n        EXECUTED,\n        ABORTED\n    }\n    \n    /**\n     * @dev Structure representing parameters related to the democratic process of registers governance. \n     * \n     * - Member_Max_Token_Usage: The maximum amount of token a member is allowed to use for a law project elaboration\n     * - Law_Initialisation_Price: The price in token for creating a law project\n     * - FunctionCall_Price: The price in token for one FunctionCall.\n     * - Proposition_Duration: The duration of the stage in which members are allowed to submit propositions\n     * - Vote_Duration: The duration of the stage in which members are allowed to vote for the proposition they want\n     * - Law_Censor_Period_Duration: The duration of the stage in which all citizens are allowed to sign a etition against the law project proposed by the Delegation\n     * - Censor_Proposition_Petition_Rate The minimum ratio of citizens required to cancel a law project\n     * - Censor_Penalty_Rate Ratio of total amount of token belonged by the delegation that will be lost if a law project is rejected by citizens\n     * - Ivote_address Address of the IVote contract that will be used during voting stage\n     */\n    struct Law_Project_Parameters{\n        //uint Revert_Penalty_Limit;\n        uint Member_Max_Token_Usage;\n        uint Law_Initialisation_Price;\n        uint FunctionCall_Price; \n        uint Proposition_Duration;\n        uint Vote_Duration;\n        uint Law_Censor_Period_Duration;\n        uint16 Censor_Proposition_Petition_Rate;\n        uint16 Censor_Penalty_Rate;\n        address Ivote_address;\n        //EnumerableSet.AddressSet Associated_Institutions;\n    }\n    \n    /**\n     * @dev Structure representing {Register} contract that are controled by the Delegation\n     *  - Active: Whether the register is still under the actual Delegation control in the Constitution.\n     *  - Law_Project_Counter: Number of pending law project related to this register\n     * The Register can't be removed from delegation's control if there are pending law project related to it. However if {Active} field is false, then we can't start a new law project whose controled register is the current one.\n    */\n    struct Controlable_Register{\n        bool Active;                \n        uint Law_Project_Counter;\n    }\n    \n     /**\n     * @dev Structure representing a law project\n     *  - Institution_Address: Address of register being concerned by this law project\n     *  - Law_Project_Status: Status ({Status} structure) of the law project \n     *  - Version: Version of Parameters ({Law_Project_Parameters} structure) used by the current law project\n     *  - Creation_Timestamp: Beginning of current law project\n     *  - Start_Vote_Timestamps: Beginning of voting stage \n     *  - Start_Censor_Law_Period_Timestamps: Beginning of law project censorable stage\n     *  - Law_Total_Potentialy_Lost: Amount of token that could be lost in penalty fee if all pending law project were to be censored by citizens petition\n     *  - Censor_Law_Petition_Counter: Number of citizens that have signed the petition to censor the current law project\n     *  - Censor_Law_Petitions: List of citizens that have signed the petition to censor the current law project\n     *  - Members_Token_Consumption: Mapping of the amount of token consummed by each member of the delegation\n    */\n    struct Delegation_Law_Project{\n        address Institution_Address;\n        Status Law_Project_Status;\n        uint Version;\n        uint Creation_Timestamp;\n        uint Start_Vote_Timestamps;\n        uint Start_Censor_Law_Period_Timestamps;\n        uint Law_Total_Potentialy_Lost;\n        uint Censor_Law_Petition_Counter;\n        mapping(address=>bool) Censor_Law_Petitions;\n        mapping(address=>uint) Members_Token_Consumption;\n    }\n    \n    \n    modifier Citizen_Only{\n        require(Citizens.Contains(msg.sender),\"Citizen Only\");\n        _;\n    }\n    \n    modifier Delegation_Only{\n        require(Mandates[Actual_Mandate].Members.contains(msg.sender), \"Delegation Only\");\n        _;\n    }\n    \n    event Governance_Parameters_Updated();\n    event Legislatif_Parameters_Updated();\n    event New_Candidat(address Candidat);\n    event Remove_Candidat(address Candidat);\n    event Sign();\n    event New_election(bytes32 Vote_key);\n    event New_Mandate();\n    \n    event Controled_Register_Added(address register);\n    event Controled_Register_Canceled(address register);\n    event Controled_Register_Removed(address register);\n    event New_Law(bytes32 key);\n    event New_Proposal(bytes32 key, uint proposal_index);\n    event Proposal_Modified(bytes32 key, uint proposal_index);\n    event Voting_Stage_Started(bytes32 law_project, bytes32 key);\n    event Voting_Stage_Achieved(bytes32 key);\n    event Law_Aborted(bytes32 key);\n    event Law_Adopted(bytes32 key);\n    event Law_executed(bytes32 key);\n    \n    \n    \n    //event New_Proposal(bytes32 key, uint num);\n    \n    /// @dev function selector of {Contains} function used to check Whether an account is member of the delegation\n    bytes4 constant Contains_Function_Selector = 0x57f98d32;\n    \n    ///@dev Instance of the {DemoCoin} token used by the Project\n    DemoCoin Democoin;\n    \n    ///@dev Instance of the {Citizens_Register} contract used by the Project\n    Citizens_Register Citizens;\n    \n    //dev Address of the {Agora} contract used by the Project\n    address Agora_address;\n    \n    ///@dev Total amount of token potentially lost via penalty fee. \n    uint Potentialy_Lost_Amount;\n    \n    /*Legislatif Process*/\n    \n    ///@dev Mapping of {Law_Project} structure ({Initiative_Legislative_Lib} library)\n    mapping(bytes32 => Initiative_Legislative_Lib.Law_Project) public List_Law_Project;\n    \n    ///@dev Mapping of Registers ({Controlable_Register} structure) that can receive orders from the actual Delegation\n    mapping(address=>Controlable_Register) public Controled_Registers;\n    /// @dev List of Controled Registers\n    EnumerableSet.AddressSet List_Controled_Registers;\n    \n    ///@dev Mapping of {Delegation_Law_Project} structure corresponding to law project of delegation (pending and passed)\n    mapping(bytes32=>Delegation_Law_Project) public Delegation_Law_Projects;\n    ///@dev List of law projects\n    bytes32[] List_Delegation_Law_Projects;\n    ///@dev Mapping of versions of Parameters ({Law_Project_Parameters} of {Delegation_Uils} library) used for law project process\n    mapping(uint=>Delegation_Uils.Law_Project_Parameters) public Law_Parameters_Versions;\n    \n    \n    \n    /*Internal Governance*/\n    ///@dev Mapping of {Mandate} structure ({Delegation_Uils} library) corresponding to mandates of delegation (pending and passed)\n    mapping(uint=>Delegation_Uils.Mandate) Mandates;\n    ///@dev Mapping of versions of Parameters ({Mandate_Parameter} of {Delegation_Uils} library) used for delegation internal governance.\n    mapping(uint=>Delegation_Uils.Mandate_Parameter) public Mandates_Versions;\n    \n    \n    ///@dev Current version of parameters related to law project process \n    uint Legislatif_Process_Version;\n    ///@dev Current version of parameters related to delegation internal governance\n    uint Internal_Governance_Version;\n    /// @dev Id in {Mandate} mapping  of the current mandate \n    uint Actual_Mandate;\n    /// @dev Boolean set whether we are in election stage or not.\n    bool In_election_stage;\n    \n    \n    constructor(string memory Name, address[] memory Initial_members, address token_address, address citizen_address, address agora_address) Institution(Name) {\n        Type_Institution = Institution_Type.DELEGATION;\n        Democoin = DemoCoin(token_address);\n        Citizens = Citizens_Register(citizen_address);\n        Agora_address = agora_address;\n        \n        Mandates[0].Set_First_Mandate( Initial_members);\n        /*Mandates[1].Inauguration_Timestamps = block.timestamp;\n        for(uint i=0; i<Initial_members.length; i++){\n            Mandates[1].Members.add(Initial_members[i]);\n        }\n        Mandates[1].Version= 0;*/\n        //Actual_Mandate = 1;\n    }\n    \n    \n    /*Members Election related functions*/\n    \n    /** \n     * @dev Function called by a citizen who wish to candidate to next mandate's elections.\n    */\n    function Candidate_Election() external Citizen_Only{\n        require(!In_election_stage, \"Election Time\");\n        Mandates[Actual_Mandate].Add_Candidats(msg.sender);\n        emit New_Candidat(msg.sender);\n        /*uint num_mandate = Actual_Mandate;\n        require(!Mandates[num_mandate].Next_Mandate_Candidats.contains(msg.sender), \"Already Candidate\");\n        Mandates[num_mandate].Next_Mandate_Candidats.add(msg.sender);*/\n    }\n    \n     /** \n     * @dev Function called by a citizen who wish to remove his candidature from next mandate's elections.\n    */\n    function Remove_Candidature()external{\n        require(!In_election_stage, \"Election Time\");\n        Mandates[Actual_Mandate].Remove_Candidats(msg.sender);\n        emit Remove_Candidat(msg.sender);\n        /*uint num_mandate = Actual_Mandate;\n        require(Mandates[num_mandate].Next_Mandate_Candidats.contains(msg.sender), \"Not Candidate\");\n        require(!In_election_stage, \"Election Time\");\n        Mandates[num_mandate].Next_Mandate_Candidats.remove(msg.sender);*/\n    }\n    \n    /** \n     * @dev When the current mandate duration is over or if the {New_Election_Petition_Rate} (see {Mandate} struct of {Delegation_Uils} library) is reached, any citizen can call this function to start a new election\n    */\n    function New_Election() external Citizen_Only {\n        require(!In_election_stage, \"An Election is Pending\");\n        uint num_mandate = Actual_Mandate;\n        if(Delegation_Uils.New_Election(Mandates,Mandates_Versions[Mandates[num_mandate].Version], num_mandate, address(Citizens))){\n            In_election_stage= true;\n            emit New_election(keccak256(abi.encodePacked(address(this),block.timestamp)));\n        }else{\n            uint new_mandate_num = num_mandate+1;\n            Actual_Mandate = new_mandate_num;\n            Mandates[new_mandate_num].Version = Internal_Governance_Version;\n            emit New_Mandate();\n        }\n        \n        //Mandates[num_mandate].New_Election(Mandates_Versions[Mandates[num_mandate].Version], Citizens.Get_Citizen_Number(), num_mandate, Contains_Function_Selector);\n        //In_election_stage=true;\n        /*uint num_mandate = Actual_Mandate;\n        uint version = Mandates[num_mandate].Version;\n    \n        require(Mandates[num_mandate].New_Election_Petitions.length() >= Percentage(Mandates_Versions[version].New_Election_Petition_Rate, Citizens.Get_Citizen_Number()) || block.timestamp.sub(Mandates[num_mandate].Inauguration_Timestamps) > Mandates_Versions[version].Mandate_Duration, \"New election impossible for now\");\n            \n        IVote Vote_Instance = IVote(Law_Parameters_Versions[version].Ivote_address);\n        Vote_Instance.Create_Ballot(keccak256(abi.encodePacked(address(this),num_mandate)), address(this), Contains_Function_Selector, Mandates_Versions[version].Election_Duration, Mandates_Versions[version].Validation_Duration, Mandates[num_mandate].Next_Mandate_Candidats.length(), Mandates_Versions[version].Num_Max_Members);\n        In_election_stage=true;*/\n    }\n    \n    \n    /** \n     * @dev Function can be called by a citizen to sign petition for a new election\n    */\n    function Sign_New_Election_Petition() external Citizen_Only{\n        uint num_mandate = Actual_Mandate;\n        Mandates[num_mandate].Sign_Petition(Mandates_Versions[Mandates[num_mandate].Version].Immunity_Duration, msg.sender);\n        emit Sign();\n        /*require(block.timestamp.sub(Mandates[num_mandate].Inauguration_Timestamps) > Mandates_Versions[Mandates[num_mandate].Version].Immunity_Duration);\n        require(!Mandates[num_mandate].New_Election_Petitions.contains(msg.sender), \"Already signed petition\");\n        Mandates[num_mandate].New_Election_Petitions.add(msg.sender);*/\n    }\n    \n    /*function End_Election()external{\n        uint num_mandate = Actual_Mandate;\n        uint new_num_mandate = num_mandate.add(1);\n        uint[] memory results;\n        IVote Vote_Instance = IVote(Law_Parameters_Versions[Mandates[num_mandate].Version].Ivote_address);\n        results = Vote_Instance.Get_Winning_Propositions(keccak256(abi.encodePacked(address(this),num_mandate)));\n        for(uint i =0; i<results.length; i++){\n            Mandates[new_num_mandate].Members.add(Mandates[num_mandate].Next_Mandate_Candidats.at(results[i]));\n        }\n        Mandates[new_num_mandate].Inauguration_Timestamps = block.timestamp;\n        Mandates[num_mandate].Version=Internal_Governance_Version;\n        Actual_Mandate = new_num_mandate;\n        In_election_stage=false;\n    }*/\n    \n    /** \n     * @dev When voting stage is over, any citizen can call this function to end the election and start a new mandate.\n    */\n    function End_Election()external{\n    \n        require(In_election_stage, \"Not in Election time\");\n        uint num_mandate = Actual_Mandate;\n        //uint new_num_mandate = num_mandate.add(1);\n        Delegation_Uils.Transition_Mandate(Mandates, Mandates_Versions[Mandates[num_mandate].Version].Ivote_address, num_mandate, Internal_Governance_Version);\n        Actual_Mandate = num_mandate + 1;\n        In_election_stage=false;\n        emit New_Mandate();\n    }\n    \n    \n    \n    \n    /*Legislatif Process related functions*/\n    \n    /** \n     * @dev Function can be called by a delegation member to submit a new law project. Caller must approve {Law_Initialisation_Price} (see {Law_Project_Parameters} struct of {Delegation_Uils library}) token for Delegation contract.\n     * @param register_address Address of the register contract the laww project is about. Must be contained in Controled_Registers mapping.\n     * @param Title Title of the law project. Can be an hash.\n     * @param Description Text explaining the spirit and generals goals of the law project. Can be an hash.\n    */\n    function Add_Law_Project(address register_address, bytes calldata Title, bytes calldata Description)external Delegation_Only{\n        //_Update_Law_Project();\n        require(Controled_Registers[register_address].Active, \"Register Not Controled\");\n        \n        bytes32 key = keccak256(abi.encode(Title,Description));\n        require(Delegation_Law_Projects[key].Version==0,\"Law project already created\");\n        \n        uint version =Legislatif_Process_Version;\n        Delegation_Law_Projects[key].Version = version;\n        Token_Consumption_Handler(msg.sender, Law_Parameters_Versions[version].Law_Initialisation_Price, key);\n        \n        \n        Delegation_Law_Projects[key].Institution_Address = register_address;\n        Delegation_Law_Projects[key].Creation_Timestamp = block.timestamp;\n        \n        List_Delegation_Law_Projects.push(key);\n        \n        List_Law_Project[key].Title = Title;\n        List_Law_Project[key].Description = Description;\n        \n        Controled_Registers[register_address].Law_Project_Counter++;\n        \n        emit New_Law(key);\n        //List_Law_Project[key].Add_Law_Project(Title, Description);\n        //Add_Law_Project(Title,  Description, key);\n    }\n    \n     /** \n     * @dev Function can be called by a delegation member to submit a corpus of function calls propositions to an existing pending law project. Caller must approve {FunctionCall_Price} (see {Law_Project_Parameters} struct of {Delegation_Uils library}) \n     * multiplied by the number of function call contained in the proposition, token for Delegation contract.\n     * @param law_project Id of the law project hte caller wants to add a proposition to. The Id is obtained by hashing the Title with the Description of the law project.\n     * @param Parent Proposition Id the caller wants to attach his proposition to. It's the parent proposition in the proposal tree. If there isn't any proposition in the tree we want to attach the new proposition to, we set Parent to 0\n     * @param Parent_Proposals_Reuse List of Parent's function calls index we want to reuse in the new proposition. Function calls are ordered in the order we want them to be executed. 0 elements correspond to new function calls that have to be added by the caller in {New_Function_Call} argument.\n     * @param New_Function_Call List of new function calls added by the caller. For each element of the New_Function_Call array, caller must set a 0 element in {Parent_Proposals_Reuse} array at the index he want the custom function call to be positioned \n     * @param Description Text to justify the new proposal. Can be an hash.\n    */\n    function Add_Proposal(bytes32 law_project, uint Parent, uint[] calldata Parent_Proposals_Reuse, bytes[] calldata New_Function_Call, bytes calldata Description) external Delegation_Only{\n        require(Delegation_Law_Projects[law_project].Law_Project_Status == Status.PROPOSITION, \"Not at PROPOSITION status\");\n        uint version = Delegation_Law_Projects[law_project].Version;\n        require( version != 0, \"No existing Law Project\");\n        \n        Token_Consumption_Handler(msg.sender, Law_Parameters_Versions[version].FunctionCall_Price.mul(New_Function_Call.length), law_project);\n        uint proposal_index = List_Law_Project[law_project].Proposal_Count.add(1);\n        List_Law_Project[law_project].Proposals_Tree[proposal_index].Author = msg.sender;\n       // Add_Corpus_Proposal( law_project, Parent, Parent_Proposals_Reuse, New_Function_Call, Description) ;\n       List_Law_Project[law_project].Add_Corpus_Proposal(Parent, Parent_Proposals_Reuse, New_Function_Call, Description);\n       emit New_Proposal( law_project, proposal_index);\n    }\n    \n    /** \n     * @dev Function can be called by a delegation member to modify a proposition that he has already created (He have to be the author of the proposition). \n     * Caller must approve {FunctionCall_Price} (see {Law_Project_Parameters} struct of {Delegation_Uils library}) \n     * multiplied by the number of function call he wants to add to the proposition, token for Delegation contract.\n     * @param law_project Id of the law project the caller wants to add a proposition to. The Id is obtained by hashing the Title with the Description of the law project.\n     * @param Proposal Proposition Id to modify.\n     * @param New_Items Array of new function calls to add to the Proposition.\n     * @param Indexs array of Proposition's function call list indexs to inser new function call (contained in {New_Items}) to. {New_Items} and {Indexs} have the same length.\n    */\n    function Add_Item(bytes32 law_project, uint Proposal, bytes[] calldata New_Items, uint[] calldata Indexs) external Delegation_Only{\n        require(Delegation_Law_Projects[law_project].Law_Project_Status == Status.PROPOSITION, \"Law Not at PROPOSITION status\");\n        uint version = Delegation_Law_Projects[law_project].Version;\n        require( version != 0, \"No existing Law Project\");\n        \n        Token_Consumption_Handler(msg.sender, Law_Parameters_Versions[version].FunctionCall_Price.mul(New_Items.length), law_project);\n        \n        //Add_Item_Proposal(law_project, Proposal, New_Items, Indexs, msg.sender);\n        List_Law_Project[law_project].Add_Item_Proposal( Proposal, New_Items, Indexs, msg.sender);\n        emit Proposal_Modified(law_project, Proposal);\n    }\n    \n    /**\n     * @dev When the period of proposition submiting is over, any citizen can call this function to start the voting stage. The Id of the ballot corresponding to current law project the IVote contract is computed by hashing {law_project} Id with current block timestamps.\n     * @param law_project Id of the law project the caller wants to add a proposition to. The Id is obtained by hashing the Title with the Description of the law project.\n     */\n    function Start_Vote(bytes32 law_project)external Delegation_Only{\n        uint version = Delegation_Law_Projects[law_project].Version;\n        require( version != 0, \"No existing Law Project\");\n        require(Delegation_Law_Projects[law_project].Law_Project_Status == Status.PROPOSITION, \"Law Not at PROPOSITION status\");\n        require(block.timestamp.sub(Delegation_Law_Projects[law_project].Creation_Timestamp) > Law_Parameters_Versions[version].Proposition_Duration, \"PROPOSITION stage not finished\");\n        \n        bytes32 key=keccak256(abi.encodePacked(law_project,block.timestamp));\n        IVote Vote_Instance = IVote(Law_Parameters_Versions[version].Ivote_address);\n        Vote_Instance.Create_Ballot(key, address(this), Contains_Function_Selector, Law_Parameters_Versions[version].Vote_Duration,0, List_Law_Project[law_project].Proposal_Count, 1);\n        \n        Delegation_Law_Projects[law_project].Start_Vote_Timestamps = block.timestamp;\n        Delegation_Law_Projects[law_project].Law_Project_Status = Status.VOTE;\n        \n        emit Voting_Stage_Started(law_project, key);\n    }\n    \n    function Achiev_Vote(bytes32 law_project) external Delegation_Only{\n        //require( version != 0, \"No existing Law Project\");\n        //require(Delegation_Law_Projects[law_project].Law_Project_Status == Status.VOTE, \"Law Not at VOTE status\");\n        //require(block.timestamp.sub(Delegation_Law_Projects[law_project].Start_Vote_Timestamps) > Law_Parameters_Versions[version].Vote_Duration, \"VOTE stage not finished\");\n        \n        IVote Vote_Instance = IVote(Law_Parameters_Versions[Delegation_Law_Projects[law_project].Version].Ivote_address);\n        bytes32 key = keccak256(abi.encodePacked(law_project,Delegation_Law_Projects[law_project].Start_Vote_Timestamps));\n        uint winning_proposal= Vote_Instance.Get_Winning_Proposition_byId(key,0);\n        List_Law_Project[law_project].Winning_Proposal = winning_proposal;\n        \n        if(winning_proposal==0){\n            Delegation_Law_Projects[law_project].Law_Project_Status = Status.ABORTED;\n            emit Law_Aborted(law_project);\n        }else{\n            Delegation_Law_Projects[law_project].Start_Censor_Law_Period_Timestamps = block.timestamp;\n            Delegation_Law_Projects[law_project].Law_Project_Status = Status.CENSOR_LAW_PERIOD;\n            emit Voting_Stage_Achieved(law_project);\n        }\n    }\n    \n    function Censor_Law(bytes32 law_project)external Citizen_Only{\n\n        require(Delegation_Law_Projects[law_project].Law_Project_Status == Status.CENSOR_LAW_PERIOD, \"Law Not at CENSOR LAW status\");\n        require(!Delegation_Law_Projects[law_project].Censor_Law_Petitions[msg.sender], \"Already Signed\");\n        \n        uint counter =Delegation_Law_Projects[law_project].Censor_Law_Petition_Counter.add(1);\n        Delegation_Law_Projects[law_project].Censor_Law_Petitions[msg.sender]=true;\n        \n        if(counter>= Percentage(Law_Parameters_Versions[Delegation_Law_Projects[law_project].Version].Censor_Proposition_Petition_Rate,  Citizens.Get_Citizen_Number())){ //If the number of censure petitions signatures reach the minimum ratio.\n            uint law_total_potentialy_lost = Delegation_Law_Projects[law_project].Law_Total_Potentialy_Lost;\n            \n            Delegation_Law_Projects[law_project].Law_Project_Status = Status.ABORTED;\n            Potentialy_Lost_Amount = Potentialy_Lost_Amount.sub(law_total_potentialy_lost);\n            Update_Controled_Registers(Delegation_Law_Projects[law_project].Institution_Address);\n            Democoin.transfer(Agora_address,law_total_potentialy_lost);\n            emit Law_Aborted(law_project);\n        }\n        \n        Delegation_Law_Projects[law_project].Censor_Law_Petition_Counter = counter;\n    }\n    \n    function Adopt_Law(bytes32 law_project)external Delegation_Only{\n        require(Delegation_Law_Projects[law_project].Law_Project_Status == Status.CENSOR_LAW_PERIOD, \"Law Not at CENSOR LAW status\");\n        require(block.timestamp.sub(Delegation_Law_Projects[law_project].Start_Censor_Law_Period_Timestamps) > Law_Parameters_Versions[Delegation_Law_Projects[law_project].Version].Law_Censor_Period_Duration, \"CENSOR LAW PERIOD not over\");\n        \n        Delegation_Law_Projects[law_project].Law_Project_Status = Status.ADOPTED;\n        emit Law_Adopted(law_project);\n    }\n    \n    function Execute_Law(bytes32 law_project, uint num_function_call_ToExecute)external Delegation_Only nonReentrant{\n        require(Delegation_Law_Projects[law_project].Law_Project_Status == Status.ADOPTED, \"Law Not ADOPTED\");\n        //if(Execute_Winning_Proposal(law_project, num_function_call_ToExecute, Delegation_Law_Projects[law_project].Institution_Address)){\n        if(List_Law_Project[law_project].Execute_Winning_Proposal(num_function_call_ToExecute, Delegation_Law_Projects[law_project].Institution_Address)){\n            Delegation_Law_Projects[law_project].Law_Project_Status = Status.EXECUTED;\n            Potentialy_Lost_Amount = Potentialy_Lost_Amount.sub(Delegation_Law_Projects[law_project].Law_Total_Potentialy_Lost);\n            Update_Controled_Registers(Delegation_Law_Projects[law_project].Institution_Address);\n            emit Law_executed(law_project);\n        }\n    }\n    \n    \n    \n    \n    /*Constitution_Only Delegation paramters initialisation*/\n    \n    /*function Update_Legislatif_Process(uint Member_Max_Token_Usage, uint Law_Initialisation_Price, uint FunctionCall_Price, uint Proposition_Duration,\n         uint Vote_Duration, uint Law_Censor_Period_Duration, uint16 Censor_Proposition_Petition_Rate, \n         uint16 Censor_Penalty_Rate, address Ivote_address)external Constitution_Only{\n             \n             uint version = Legislatif_Process_Version.add(1);\n             \n             Law_Parameters_Versions[version].Member_Max_Token_Usage = Member_Max_Token_Usage;\n             Law_Parameters_Versions[version].Law_Initialisation_Price = Law_Initialisation_Price;\n             Law_Parameters_Versions[version].FunctionCall_Price = FunctionCall_Price;\n             Law_Parameters_Versions[version].Proposition_Duration = Proposition_Duration;\n             Law_Parameters_Versions[version].Vote_Duration = Vote_Duration;\n             Law_Parameters_Versions[version].Law_Censor_Period_Duration = Law_Censor_Period_Duration;\n             Law_Parameters_Versions[version].Censor_Proposition_Petition_Rate = Censor_Proposition_Petition_Rate;\n             Law_Parameters_Versions[version].Censor_Penalty_Rate = Censor_Penalty_Rate;\n             Law_Parameters_Versions[version].Ivote_address = Ivote_address;\n             \n             Legislatif_Process_Version = version;\n             \n    }*/\n         \n    function Update_Legislatif_Process(uint[6] calldata Uint256_Legislatifs_Arg, uint16 Censor_Proposition_Petition_Rate, \n         uint16 Censor_Penalty_Rate, address Ivote_address)external override Constitution_Only{\n             \n             uint version = Legislatif_Process_Version.add(1);\n             Law_Parameters_Versions[version].Update_Law_Parameters(Uint256_Legislatifs_Arg, Censor_Proposition_Petition_Rate, \n            Censor_Penalty_Rate, Ivote_address);\n             \n             /*Law_Parameters_Versions[version].Member_Max_Token_Usage = Uint256_Legislatifs_Arg[0];\n             Law_Parameters_Versions[version].Law_Initialisation_Price = Uint256_Legislatifs_Arg[1];\n             Law_Parameters_Versions[version].FunctionCall_Price = Uint256_Legislatifs_Arg[2];\n             Law_Parameters_Versions[version].Proposition_Duration = Uint256_Legislatifs_Arg[3];\n             Law_Parameters_Versions[version].Vote_Duration = Uint256_Legislatifs_Arg[4];\n             Law_Parameters_Versions[version].Law_Censor_Period_Duration = Uint256_Legislatifs_Arg[5];\n             Law_Parameters_Versions[version].Censor_Proposition_Petition_Rate = Censor_Proposition_Petition_Rate;\n             Law_Parameters_Versions[version].Censor_Penalty_Rate = Censor_Penalty_Rate;\n             Law_Parameters_Versions[version].Ivote_address = Ivote_address;*/\n             \n             Legislatif_Process_Version = version;\n             \n            emit Legislatif_Parameters_Updated();\n    }  \n         \n    function Update_Internal_Governance( uint Election_Duration, uint Validation_Duration, uint Mandate_Duration, uint Immunity_Duration,\n        uint16 Num_Max_Members, uint16 New_Election_Petition_Rate, address Ivote_address)external override Constitution_Only{\n            \n            \n            uint version = Internal_Governance_Version.add(1);\n            Mandates_Versions[version].Update_Mandate_Parameter(Election_Duration, Validation_Duration, Mandate_Duration, Immunity_Duration,\n            Num_Max_Members, New_Election_Petition_Rate, Ivote_address);\n         \n            /*Mandates_Versions[version].Election_Duration = Election_Duration;\n            Mandates_Versions[version].Validation_Duration = Validation_Duration;\n            Mandates_Versions[version].Mandate_Duration = Mandate_Duration;\n            Mandates_Versions[version].Immunity_Duration = Immunity_Duration;\n            Mandates_Versions[version].Num_Max_Members = Num_Max_Members;\n            Mandates_Versions[version].New_Election_Petition_Rate = New_Election_Petition_Rate;\n            Mandates_Versions[version].Ivote_address = Ivote_address;*/\n            \n            Internal_Governance_Version = version;\n            emit Governance_Parameters_Updated();\n    }\n         \n         \n    \n    /**\n     * @notice Add a register that can be ruled by the delegation\n     * @dev This function is called by the Constitution\n     * */\n    function Add_Controled_Register(address register_address) external override Constitution_Only {\n        require(!Controled_Registers[register_address].Active, \"Register already Controled\");\n        Controled_Registers[register_address].Active = true;\n        List_Controled_Registers.add(register_address);\n        emit Controled_Register_Added(register_address);\n    \n    }\n    \n    /**\n     * @notice Remove a register from the list of conductor that can be ruled by the delegation\n     * @dev This function is called by the Constitution. If there are pending law that depend on this register, the delegation would not be immeditely removed from register's Authorithies list. \n     * */\n    function Remove_Controled_Register(address register_address) external override Constitution_Only {\n        require(Controled_Registers[register_address].Active, \"Register Not Controled\");\n        Controled_Registers[register_address].Active = false;\n        \n        if(Controled_Registers[register_address].Law_Project_Counter ==0){\n            Register(register_address).Remove_Authority(address(this));\n            List_Controled_Registers.remove(register_address);\n            emit Controled_Register_Removed(register_address);\n        }else{\n            emit Controled_Register_Canceled(register_address);\n        }\n    }\n    \n    \n    \n    /*Utils*/\n\n    /*function _Update_Law_Project() internal{\n        IConstitution_Delegation constitution = IConstitution_Delegation(Constitution_Address);\n        uint new_version = constitution.Get_Delegation_Legislatif_Process_Versions(address(this));\n        uint[6] memory Temp;\n        if(new_version>Legislatif_Process_Version){\n            \n            (Temp, Law_Parameters_Versions[new_version].Censor_Proposition_Petition_Rate, Law_Parameters_Versions[new_version].Censor_Penalty_Rate) = constitution.Get_Delegation_Legislation_Process(address(this));\n            \n            Law_Parameters_Versions[new_version].Member_Max_Token_Usage = Temp[0];\n            Law_Parameters_Versions[new_version].Law_Initialisation_Price = Temp[1];\n            Law_Parameters_Versions[new_version].FunctionCall_Price = Temp[2];\n            Law_Parameters_Versions[new_version].Proposition_Duration = Temp[3];\n            Law_Parameters_Versions[new_version].Vote_Duration = Temp[4];\n            Law_Parameters_Versions[new_version].Law_Censor_Period_Duration = Temp[5];\n        }\n        Legislatif_Process_Version = new_version;\n    }*/\n    \n\n    /**\n     * @notice Handle token consumption in the context of law project elaboration\n     * @dev The function: check that:\n     *              - check that the member's max token consumption limit for the current law project isn't exceeded by the sender\n     *              - check that the Delegation has enough funds to afford penalties if current pending were to be reverted by citizens.\n     *              - Update the value of the amount of token consumed by the sender for the law project identified by \"key\".\n     *              - Update the \"Law_Total_Potentialy_Lost\" field of the corresponding \"Delegation_Law_Project\" struct.\n     *              - Update the \"Potentialy_Lost_Amount\" state variable\n     * */\n    function Token_Consumption_Handler(address sender, uint amount, bytes32 key) internal{\n        \n        uint version = Delegation_Law_Projects[key].Version;\n        require(Delegation_Law_Projects[key].Members_Token_Consumption[sender] +amount <= Law_Parameters_Versions[version].Member_Max_Token_Usage, \"Member consumption exceeded\");\n        \n        \n        uint amount_potentialy_lost = Percentage(Law_Parameters_Versions[version].Censor_Penalty_Rate, amount);\n        uint new_potentialy_lost_amount = Potentialy_Lost_Amount.add(amount_potentialy_lost);\n        require(new_potentialy_lost_amount <= Democoin.balanceOf(address(this)), \"No enough colaterals funds\");\n\n        Delegation_Law_Projects[key].Members_Token_Consumption[sender] += amount;\n        Delegation_Law_Projects[key].Law_Total_Potentialy_Lost = Delegation_Law_Projects[key].Law_Total_Potentialy_Lost.add(amount_potentialy_lost);\n        Potentialy_Lost_Amount = new_potentialy_lost_amount;\n    }\n    \n    /**\n     * @dev Decrease the counter (\"Law_Project_Counter\" field of Controlable_Register struct) of pending law project related to the register of address \"institution_address\". If the counter become null and the \"Actual\" field of Controlable_Registers struct is false,\n     * then the corresponding register is removed from List_Controled_Registers and the delegation removes it self from the register's Authorithies list (\"Register_Authorities\" state variable)\n    */\n    function Update_Controled_Registers(address institution_address) internal{\n        //address institution_address = Law_Projects[law_project].Institution_Address;\n        uint counter = Controled_Registers[institution_address].Law_Project_Counter.sub(1);\n        if(counter==0 && !Controled_Registers[institution_address].Active){\n            Register(institution_address).Remove_Authority(address(this));\n            List_Controled_Registers.remove(institution_address);\n        }\n        Controled_Registers[institution_address].Law_Project_Counter = counter;\n    }\n    \n   \n    \n    /*Getters*/\n    \n    function Contains(address member_address) external view override returns(bool contain){\n      return Mandates[Actual_Mandate].Members.contains(member_address);\n    }\n    \n    function Get_List_Law_Register()external view returns(bytes32[] memory Law_Project_List, bytes32[] memory Controled_Register ){\n        return (List_Delegation_Law_Projects, List_Controled_Registers._inner._values);\n    }\n    \n        \n    function Get_Mandate(uint Id)external view returns(uint version, uint Inauguration_Timestamps, uint Election_Timestamps, uint New_Election_Petition_Number, bytes32[] memory Members, bytes32[] memory Candidats){\n        version = Mandates[Id].Version;\n        Inauguration_Timestamps = Mandates[Id].Inauguration_Timestamps;\n        Election_Timestamps= Mandates[Id].Election_Timestamps;\n        New_Election_Petition_Number=Mandates[Id].New_Election_Petitions.length();\n        Members = Mandates[Id].Members._inner._values;\n        Candidats = Mandates[Id].Next_Mandate_Candidats._inner._values;\n    }\n    \n    function Get_Member_Amount_Consumed(bytes32 key, address member)external view returns(uint amount){\n        return Delegation_Law_Projects[key].Members_Token_Consumption[member];\n    }\n \n    function Get_Delegation_Infos()external view returns (uint legislatif_process_version, uint internal_governance_version, uint actual_mandate, uint potentialy_lost_amount, bool in_election_stage){\n        return (Legislatif_Process_Version, Internal_Governance_Version, Actual_Mandate, Potentialy_Lost_Amount, In_election_stage);\n    }\n    \n    \n    function Get_Proposal(bytes32 key, uint id)external view returns(bytes memory description, uint[] memory childrens, bytes[] memory function_calls, uint func_call_counter, uint parent, address author){\n        function_calls = List_Law_Project[key].Get_Proposal_FunctionCall_List(id);\n        (description, childrens,func_call_counter, parent, author) = List_Law_Project[key].Get_Proposal_Infos(id);\n    }\n    \n    function Get_Law_Results(bytes32 key)external view returns(uint Winning_Proposal, Initiative_Legislative_Lib.Function_Call_Result[] memory Receipts){\n        return(List_Law_Project[key].Winning_Proposal, List_Law_Project[key].Function_Call_Receipts);\n    }\n    /*Overite functions*/\n    /*function Before_Add_Law_Project(bytes calldata Title, bytes calldata Description) internal override returns(bytes32){\n        \n    }\n    \n    function Before_Add_Corpus_Proposal(bytes32 law_project, uint Parent, uint[] calldata Parent_Proposals_Reuse, bytes[] calldata New_Function_Call, bytes calldata Description) internal override{\n        \n    }\n    \n    function Before_Add_Item_Proposal(bytes32 law_project, uint Proposal, bytes[] calldata New_Items, uint[] calldata Indexs) internal override{\n        \n    }*/\n}\n",
  "sourcePath": "/home/andrei/Alyra/Web3_Referendum/contracts/Delegation.sol",
  "compiler": {
    "name": "solc",
    "version": "0.8.1+commit.df193b15.Emscripten.clang"
  },
  "schemaVersion": "3.3.1",
  "updatedAt": "2021-04-13T13:02:29.951Z",
  "networkType": "ethereum",
  "devdoc": {
    "details": "Delegation contract is an implementation of IDelegation and thus aims at implementing a governance system in which a group of elected accounts is allowed to rule one or more controled registers contract. ",
    "kind": "dev",
    "methods": {
      "Add_Controled_Register(address)": {
        "details": "This function is called by the Constitution "
      },
      "Add_Item(bytes32,uint256,bytes[],uint256[])": {
        "details": "Function can be called by a delegation member to modify a proposition that he has already created (He have to be the author of the proposition).  Caller must approve {FunctionCall_Price} (see {Law_Project_Parameters} struct of {Delegation_Uils library})  multiplied by the number of function call he wants to add to the proposition, token for Delegation contract.",
        "params": {
          "Indexs": "array of Proposition's function call list indexs to inser new function call (contained in {New_Items}) to. {New_Items} and {Indexs} have the same length.",
          "New_Items": "Array of new function calls to add to the Proposition.",
          "Proposal": "Proposition Id to modify.",
          "law_project": "Id of the law project the caller wants to add a proposition to. The Id is obtained by hashing the Title with the Description of the law project."
        }
      },
      "Add_Law_Project(address,bytes,bytes)": {
        "details": "Function can be called by a delegation member to submit a new law project. Caller must approve {Law_Initialisation_Price} (see {Law_Project_Parameters} struct of {Delegation_Uils library}) token for Delegation contract.",
        "params": {
          "Description": "Text explaining the spirit and generals goals of the law project. Can be an hash.",
          "Title": "Title of the law project. Can be an hash.",
          "register_address": "Address of the register contract the laww project is about. Must be contained in Controled_Registers mapping."
        }
      },
      "Add_Proposal(bytes32,uint256,uint256[],bytes[],bytes)": {
        "details": "Function can be called by a delegation member to submit a corpus of function calls propositions to an existing pending law project. Caller must approve {FunctionCall_Price} (see {Law_Project_Parameters} struct of {Delegation_Uils library})  multiplied by the number of function call contained in the proposition, token for Delegation contract.",
        "params": {
          "Description": "Text to justify the new proposal. Can be an hash.",
          "New_Function_Call": "List of new function calls added by the caller. For each element of the New_Function_Call array, caller must set a 0 element in {Parent_Proposals_Reuse} array at the index he want the custom function call to be positioned ",
          "Parent": "Proposition Id the caller wants to attach his proposition to. It's the parent proposition in the proposal tree. If there isn't any proposition in the tree we want to attach the new proposition to, we set Parent to 0",
          "Parent_Proposals_Reuse": "List of Parent's function calls index we want to reuse in the new proposition. Function calls are ordered in the order we want them to be executed. 0 elements correspond to new function calls that have to be added by the caller in {New_Function_Call} argument.",
          "law_project": "Id of the law project hte caller wants to add a proposition to. The Id is obtained by hashing the Title with the Description of the law project."
        }
      },
      "Candidate_Election()": {
        "details": "Function called by a citizen who wish to candidate to next mandate's elections."
      },
      "End_Election()": {
        "details": "When voting stage is over, any citizen can call this function to end the election and start a new mandate."
      },
      "New_Election()": {
        "details": "When the current mandate duration is over or if the {New_Election_Petition_Rate} (see {Mandate} struct of {Delegation_Uils} library) is reached, any citizen can call this function to start a new election"
      },
      "Remove_Candidature()": {
        "details": "Function called by a citizen who wish to remove his candidature from next mandate's elections."
      },
      "Remove_Controled_Register(address)": {
        "details": "This function is called by the Constitution. If there are pending law that depend on this register, the delegation would not be immeditely removed from register's Authorithies list.  "
      },
      "Set_Constitution(address)": {
        "details": "The function Allows to change the Constitution contract the current Institution obey to. The function is only callable by the {Constitution_Address}",
        "params": {
          "new_constitution": "Address of the new Constitution contract."
        }
      },
      "Sign_New_Election_Petition()": {
        "details": "Function can be called by a citizen to sign petition for a new election"
      },
      "Start_Vote(bytes32)": {
        "details": "When the period of proposition submiting is over, any citizen can call this function to start the voting stage. The Id of the ballot corresponding to current law project the IVote contract is computed by hashing {law_project} Id with current block timestamps.",
        "params": {
          "law_project": "Id of the law project the caller wants to add a proposition to. The Id is obtained by hashing the Title with the Description of the law project."
        }
      }
    },
    "stateVariables": {
      "Actual_Mandate": {
        "details": "Id in {Mandate} mapping  of the current mandate "
      },
      "Citizens": {
        "details": "Instance of the {Citizens_Register} contract used by the Project"
      },
      "Contains_Function_Selector": {
        "details": "function selector of {Contains} function used to check Whether an account is member of the delegation"
      },
      "Controled_Registers": {
        "details": "Mapping of Registers ({Controlable_Register} structure) that can receive orders from the actual Delegation"
      },
      "Delegation_Law_Projects": {
        "details": "Mapping of {Delegation_Law_Project} structure corresponding to law project of delegation (pending and passed)"
      },
      "Democoin": {
        "details": "Instance of the {DemoCoin} token used by the Project"
      },
      "In_election_stage": {
        "details": "Boolean set whether we are in election stage or not."
      },
      "Internal_Governance_Version": {
        "details": "Current version of parameters related to delegation internal governance"
      },
      "Law_Parameters_Versions": {
        "details": "Mapping of versions of Parameters ({Law_Project_Parameters} of {Delegation_Uils} library) used for law project process"
      },
      "Legislatif_Process_Version": {
        "details": "Current version of parameters related to law project process "
      },
      "List_Controled_Registers": {
        "details": "List of Controled Registers"
      },
      "List_Delegation_Law_Projects": {
        "details": "List of law projects"
      },
      "List_Law_Project": {
        "details": "Mapping of {Law_Project} structure ({Initiative_Legislative_Lib} library)"
      },
      "Mandates": {
        "details": "Mapping of {Mandate} structure ({Delegation_Uils} library) corresponding to mandates of delegation (pending and passed)"
      },
      "Mandates_Versions": {
        "details": "Mapping of versions of Parameters ({Mandate_Parameter} of {Delegation_Uils} library) used for delegation internal governance."
      },
      "Potentialy_Lost_Amount": {
        "details": "Total amount of token potentially lost via penalty fee. "
      }
    },
    "version": 1
  },
  "userdoc": {
    "kind": "user",
    "methods": {
      "Add_Controled_Register(address)": {
        "notice": "Add a register that can be ruled by the delegation"
      },
      "Constitution_Address()": {
        "notice": "Address of the constitution of the DAO"
      },
      "Name()": {
        "notice": "Name of the institution"
      },
      "Remove_Controled_Register(address)": {
        "notice": "Remove a register from the list of conductor that can be ruled by the delegation"
      },
      "Type_Institution()": {
        "notice": "Type of the Institution"
      }
    },
    "version": 1
  }
}