{
  "contractName": "Delegation",
  "abi": [
    {
      "inputs": [
        {
          "internalType": "string",
          "name": "Name",
          "type": "string"
        },
        {
          "internalType": "address[]",
          "name": "Initial_members",
          "type": "address[]"
        },
        {
          "internalType": "address",
          "name": "token_address",
          "type": "address"
        },
        {
          "internalType": "address",
          "name": "citizen_address",
          "type": "address"
        },
        {
          "internalType": "address",
          "name": "agora_address",
          "type": "address"
        }
      ],
      "stateMutability": "nonpayable",
      "type": "constructor"
    },
    {
      "anonymous": false,
      "inputs": [
        {
          "indexed": false,
          "internalType": "address",
          "name": "new_constitution",
          "type": "address"
        }
      ],
      "name": "Constitution_Changed",
      "type": "event"
    },
    {
      "anonymous": false,
      "inputs": [
        {
          "indexed": false,
          "internalType": "address",
          "name": "register",
          "type": "address"
        }
      ],
      "name": "Controled_Register_Added",
      "type": "event"
    },
    {
      "anonymous": false,
      "inputs": [
        {
          "indexed": false,
          "internalType": "address",
          "name": "register",
          "type": "address"
        }
      ],
      "name": "Controled_Register_Canceled",
      "type": "event"
    },
    {
      "anonymous": false,
      "inputs": [
        {
          "indexed": false,
          "internalType": "address",
          "name": "register",
          "type": "address"
        }
      ],
      "name": "Controled_Register_Removed",
      "type": "event"
    },
    {
      "anonymous": false,
      "inputs": [
        {
          "indexed": false,
          "internalType": "bytes32",
          "name": "key",
          "type": "bytes32"
        },
        {
          "indexed": false,
          "internalType": "uint256",
          "name": "num_function_call_ToExecute",
          "type": "uint256"
        }
      ],
      "name": "Function_Call_Executed",
      "type": "event"
    },
    {
      "anonymous": false,
      "inputs": [],
      "name": "Governance_Parameters_Updated",
      "type": "event"
    },
    {
      "anonymous": false,
      "inputs": [
        {
          "indexed": false,
          "internalType": "address",
          "name": "Address",
          "type": "address"
        },
        {
          "indexed": false,
          "internalType": "enum Institution.Institution_Type",
          "name": "Type",
          "type": "uint8"
        }
      ],
      "name": "Institution_Created",
      "type": "event"
    },
    {
      "anonymous": false,
      "inputs": [
        {
          "indexed": false,
          "internalType": "bytes32",
          "name": "key",
          "type": "bytes32"
        }
      ],
      "name": "Law_Aborted",
      "type": "event"
    },
    {
      "anonymous": false,
      "inputs": [
        {
          "indexed": false,
          "internalType": "bytes32",
          "name": "key",
          "type": "bytes32"
        }
      ],
      "name": "Law_Adopted",
      "type": "event"
    },
    {
      "anonymous": false,
      "inputs": [
        {
          "indexed": false,
          "internalType": "bytes32",
          "name": "key",
          "type": "bytes32"
        }
      ],
      "name": "Law_executed",
      "type": "event"
    },
    {
      "anonymous": false,
      "inputs": [],
      "name": "Legislatif_Parameters_Updated",
      "type": "event"
    },
    {
      "anonymous": false,
      "inputs": [],
      "name": "Name_Changed",
      "type": "event"
    },
    {
      "anonymous": false,
      "inputs": [
        {
          "indexed": false,
          "internalType": "address",
          "name": "Candidat",
          "type": "address"
        }
      ],
      "name": "New_Candidat",
      "type": "event"
    },
    {
      "anonymous": false,
      "inputs": [
        {
          "indexed": false,
          "internalType": "bytes32",
          "name": "key",
          "type": "bytes32"
        }
      ],
      "name": "New_Law",
      "type": "event"
    },
    {
      "anonymous": false,
      "inputs": [],
      "name": "New_Mandate",
      "type": "event"
    },
    {
      "anonymous": false,
      "inputs": [
        {
          "indexed": false,
          "internalType": "bytes32",
          "name": "key",
          "type": "bytes32"
        },
        {
          "indexed": false,
          "internalType": "uint256",
          "name": "proposal_index",
          "type": "uint256"
        }
      ],
      "name": "New_Proposal",
      "type": "event"
    },
    {
      "anonymous": false,
      "inputs": [
        {
          "indexed": false,
          "internalType": "bytes32",
          "name": "Vote_key",
          "type": "bytes32"
        }
      ],
      "name": "New_election",
      "type": "event"
    },
    {
      "anonymous": false,
      "inputs": [
        {
          "indexed": false,
          "internalType": "bytes32",
          "name": "key",
          "type": "bytes32"
        },
        {
          "indexed": false,
          "internalType": "uint256",
          "name": "proposal_index",
          "type": "uint256"
        }
      ],
      "name": "Proposal_Modified",
      "type": "event"
    },
    {
      "anonymous": false,
      "inputs": [
        {
          "indexed": false,
          "internalType": "address",
          "name": "Candidat",
          "type": "address"
        }
      ],
      "name": "Remove_Candidat",
      "type": "event"
    },
    {
      "anonymous": false,
      "inputs": [],
      "name": "Sign",
      "type": "event"
    },
    {
      "anonymous": false,
      "inputs": [
        {
          "indexed": false,
          "internalType": "bytes32",
          "name": "key",
          "type": "bytes32"
        }
      ],
      "name": "Voting_Stage_Achieved",
      "type": "event"
    },
    {
      "anonymous": false,
      "inputs": [
        {
          "indexed": false,
          "internalType": "bytes32",
          "name": "law_project",
          "type": "bytes32"
        },
        {
          "indexed": false,
          "internalType": "bytes32",
          "name": "key",
          "type": "bytes32"
        }
      ],
      "name": "Voting_Stage_Started",
      "type": "event"
    },
    {
      "inputs": [],
      "name": "Constitution_Address",
      "outputs": [
        {
          "internalType": "address",
          "name": "",
          "type": "address"
        }
      ],
      "stateMutability": "view",
      "type": "function"
    },
    {
      "inputs": [
        {
          "internalType": "address",
          "name": "",
          "type": "address"
        }
      ],
      "name": "Controled_Registers",
      "outputs": [
        {
          "internalType": "bool",
          "name": "Active",
          "type": "bool"
        },
        {
          "internalType": "uint256",
          "name": "Law_Project_Counter",
          "type": "uint256"
        }
      ],
      "stateMutability": "view",
      "type": "function"
    },
    {
      "inputs": [
        {
          "internalType": "bytes32",
          "name": "",
          "type": "bytes32"
        }
      ],
      "name": "Delegation_Law_Projects",
      "outputs": [
        {
          "internalType": "address",
          "name": "Institution_Address",
          "type": "address"
        },
        {
          "internalType": "enum Delegation.Status",
          "name": "Law_Project_Status",
          "type": "uint8"
        },
        {
          "internalType": "uint256",
          "name": "Version",
          "type": "uint256"
        },
        {
          "internalType": "uint256",
          "name": "Creation_Timestamp",
          "type": "uint256"
        },
        {
          "internalType": "uint256",
          "name": "Start_Vote_Timestamps",
          "type": "uint256"
        },
        {
          "internalType": "uint256",
          "name": "Start_Censor_Law_Period_Timestamps",
          "type": "uint256"
        },
        {
          "internalType": "uint256",
          "name": "Law_Total_Potentialy_Lost",
          "type": "uint256"
        },
        {
          "internalType": "uint256",
          "name": "Censor_Law_Petition_Counter",
          "type": "uint256"
        }
      ],
      "stateMutability": "view",
      "type": "function"
    },
    {
      "inputs": [
        {
          "internalType": "uint256",
          "name": "",
          "type": "uint256"
        }
      ],
      "name": "Law_Parameters_Versions",
      "outputs": [
        {
          "internalType": "uint256",
          "name": "Member_Max_Token_Usage",
          "type": "uint256"
        },
        {
          "internalType": "uint256",
          "name": "Law_Initialisation_Price",
          "type": "uint256"
        },
        {
          "internalType": "uint256",
          "name": "FunctionCall_Price",
          "type": "uint256"
        },
        {
          "internalType": "uint256",
          "name": "Proposition_Duration",
          "type": "uint256"
        },
        {
          "internalType": "uint256",
          "name": "Vote_Duration",
          "type": "uint256"
        },
        {
          "internalType": "uint256",
          "name": "Law_Censor_Period_Duration",
          "type": "uint256"
        },
        {
          "internalType": "uint16",
          "name": "Censor_Proposition_Petition_Rate",
          "type": "uint16"
        },
        {
          "internalType": "uint16",
          "name": "Censor_Penalty_Rate",
          "type": "uint16"
        },
        {
          "internalType": "address",
          "name": "Ivote_address",
          "type": "address"
        }
      ],
      "stateMutability": "view",
      "type": "function"
    },
    {
      "inputs": [
        {
          "internalType": "bytes32",
          "name": "",
          "type": "bytes32"
        }
      ],
      "name": "List_Law_Project",
      "outputs": [
        {
          "internalType": "bytes",
          "name": "Title",
          "type": "bytes"
        },
        {
          "internalType": "bytes",
          "name": "Description",
          "type": "bytes"
        },
        {
          "internalType": "uint256",
          "name": "Proposal_Count",
          "type": "uint256"
        },
        {
          "internalType": "uint256",
          "name": "Winning_Proposal",
          "type": "uint256"
        }
      ],
      "stateMutability": "view",
      "type": "function"
    },
    {
      "inputs": [
        {
          "internalType": "uint256",
          "name": "",
          "type": "uint256"
        }
      ],
      "name": "Mandates_Versions",
      "outputs": [
        {
          "internalType": "uint256",
          "name": "Election_Duration",
          "type": "uint256"
        },
        {
          "internalType": "uint256",
          "name": "Validation_Duration",
          "type": "uint256"
        },
        {
          "internalType": "uint256",
          "name": "Mandate_Duration",
          "type": "uint256"
        },
        {
          "internalType": "uint256",
          "name": "Immunity_Duration",
          "type": "uint256"
        },
        {
          "internalType": "uint16",
          "name": "Next_Mandate_Max_Members",
          "type": "uint16"
        },
        {
          "internalType": "uint16",
          "name": "New_Election_Petition_Rate",
          "type": "uint16"
        },
        {
          "internalType": "address",
          "name": "Ivote_address",
          "type": "address"
        }
      ],
      "stateMutability": "view",
      "type": "function"
    },
    {
      "inputs": [],
      "name": "Name",
      "outputs": [
        {
          "internalType": "string",
          "name": "",
          "type": "string"
        }
      ],
      "stateMutability": "view",
      "type": "function"
    },
    {
      "inputs": [
        {
          "internalType": "address",
          "name": "new_constitution",
          "type": "address"
        }
      ],
      "name": "Set_Constitution",
      "outputs": [],
      "stateMutability": "nonpayable",
      "type": "function"
    },
    {
      "inputs": [
        {
          "internalType": "string",
          "name": "name",
          "type": "string"
        }
      ],
      "name": "Set_Name",
      "outputs": [],
      "stateMutability": "nonpayable",
      "type": "function"
    },
    {
      "inputs": [],
      "name": "Type_Institution",
      "outputs": [
        {
          "internalType": "enum Institution.Institution_Type",
          "name": "",
          "type": "uint8"
        }
      ],
      "stateMutability": "view",
      "type": "function"
    },
    {
      "inputs": [],
      "name": "Candidate_Election",
      "outputs": [],
      "stateMutability": "nonpayable",
      "type": "function"
    },
    {
      "inputs": [],
      "name": "Remove_Candidature",
      "outputs": [],
      "stateMutability": "nonpayable",
      "type": "function"
    },
    {
      "inputs": [],
      "name": "New_Election",
      "outputs": [],
      "stateMutability": "nonpayable",
      "type": "function"
    },
    {
      "inputs": [],
      "name": "Sign_New_Election_Petition",
      "outputs": [],
      "stateMutability": "nonpayable",
      "type": "function"
    },
    {
      "inputs": [],
      "name": "End_Election",
      "outputs": [],
      "stateMutability": "nonpayable",
      "type": "function"
    },
    {
      "inputs": [
        {
          "internalType": "address",
          "name": "register_address",
          "type": "address"
        },
        {
          "internalType": "bytes",
          "name": "Title",
          "type": "bytes"
        },
        {
          "internalType": "bytes",
          "name": "Description",
          "type": "bytes"
        }
      ],
      "name": "Add_Law_Project",
      "outputs": [],
      "stateMutability": "nonpayable",
      "type": "function"
    },
    {
      "inputs": [
        {
          "internalType": "bytes32",
          "name": "law_project",
          "type": "bytes32"
        },
        {
          "internalType": "uint256",
          "name": "Parent",
          "type": "uint256"
        },
        {
          "internalType": "uint256[]",
          "name": "Parent_Proposals_Reuse",
          "type": "uint256[]"
        },
        {
          "internalType": "bytes[]",
          "name": "New_Function_Call",
          "type": "bytes[]"
        },
        {
          "internalType": "bytes",
          "name": "Description",
          "type": "bytes"
        }
      ],
      "name": "Add_Proposal",
      "outputs": [],
      "stateMutability": "nonpayable",
      "type": "function"
    },
    {
      "inputs": [
        {
          "internalType": "bytes32",
          "name": "law_project",
          "type": "bytes32"
        },
        {
          "internalType": "uint256",
          "name": "Proposal",
          "type": "uint256"
        },
        {
          "internalType": "bytes[]",
          "name": "New_Items",
          "type": "bytes[]"
        },
        {
          "internalType": "uint256[]",
          "name": "Indexs",
          "type": "uint256[]"
        }
      ],
      "name": "Add_Item",
      "outputs": [],
      "stateMutability": "nonpayable",
      "type": "function"
    },
    {
      "inputs": [
        {
          "internalType": "bytes32",
          "name": "law_project",
          "type": "bytes32"
        }
      ],
      "name": "Start_Vote",
      "outputs": [],
      "stateMutability": "nonpayable",
      "type": "function"
    },
    {
      "inputs": [
        {
          "internalType": "bytes32",
          "name": "law_project",
          "type": "bytes32"
        }
      ],
      "name": "Achiev_Vote",
      "outputs": [],
      "stateMutability": "nonpayable",
      "type": "function"
    },
    {
      "inputs": [
        {
          "internalType": "bytes32",
          "name": "law_project",
          "type": "bytes32"
        }
      ],
      "name": "Censor_Law",
      "outputs": [],
      "stateMutability": "nonpayable",
      "type": "function"
    },
    {
      "inputs": [
        {
          "internalType": "bytes32",
          "name": "law_project",
          "type": "bytes32"
        }
      ],
      "name": "Adopt_Law",
      "outputs": [],
      "stateMutability": "nonpayable",
      "type": "function"
    },
    {
      "inputs": [
        {
          "internalType": "bytes32",
          "name": "law_project",
          "type": "bytes32"
        },
        {
          "internalType": "uint256",
          "name": "num_function_call_ToExecute",
          "type": "uint256"
        }
      ],
      "name": "Execute_Law",
      "outputs": [],
      "stateMutability": "nonpayable",
      "type": "function"
    },
    {
      "inputs": [
        {
          "internalType": "uint256[6]",
          "name": "Uint256_Legislatifs_Arg",
          "type": "uint256[6]"
        },
        {
          "internalType": "uint16",
          "name": "Censor_Proposition_Petition_Rate",
          "type": "uint16"
        },
        {
          "internalType": "uint16",
          "name": "Censor_Penalty_Rate",
          "type": "uint16"
        },
        {
          "internalType": "address",
          "name": "Ivote_address",
          "type": "address"
        }
      ],
      "name": "Update_Legislatif_Process",
      "outputs": [],
      "stateMutability": "nonpayable",
      "type": "function"
    },
    {
      "inputs": [
        {
          "internalType": "uint256",
          "name": "Election_Duration",
          "type": "uint256"
        },
        {
          "internalType": "uint256",
          "name": "Validation_Duration",
          "type": "uint256"
        },
        {
          "internalType": "uint256",
          "name": "Mandate_Duration",
          "type": "uint256"
        },
        {
          "internalType": "uint256",
          "name": "Immunity_Duration",
          "type": "uint256"
        },
        {
          "internalType": "uint16",
          "name": "Num_Max_Members",
          "type": "uint16"
        },
        {
          "internalType": "uint16",
          "name": "New_Election_Petition_Rate",
          "type": "uint16"
        },
        {
          "internalType": "address",
          "name": "Ivote_address",
          "type": "address"
        }
      ],
      "name": "Update_Internal_Governance",
      "outputs": [],
      "stateMutability": "nonpayable",
      "type": "function"
    },
    {
      "inputs": [
        {
          "internalType": "address",
          "name": "register_address",
          "type": "address"
        }
      ],
      "name": "Add_Controled_Register",
      "outputs": [],
      "stateMutability": "nonpayable",
      "type": "function"
    },
    {
      "inputs": [
        {
          "internalType": "address",
          "name": "register_address",
          "type": "address"
        }
      ],
      "name": "Remove_Controled_Register",
      "outputs": [],
      "stateMutability": "nonpayable",
      "type": "function"
    },
    {
      "inputs": [
        {
          "internalType": "address",
          "name": "member_address",
          "type": "address"
        }
      ],
      "name": "Contains",
      "outputs": [
        {
          "internalType": "bool",
          "name": "contain",
          "type": "bool"
        }
      ],
      "stateMutability": "view",
      "type": "function"
    },
    {
      "inputs": [],
      "name": "Get_List_Law_Register",
      "outputs": [
        {
          "internalType": "bytes32[]",
          "name": "Law_Project_List",
          "type": "bytes32[]"
        },
        {
          "internalType": "bytes32[]",
          "name": "Controled_Register",
          "type": "bytes32[]"
        }
      ],
      "stateMutability": "view",
      "type": "function"
    },
    {
      "inputs": [
        {
          "internalType": "uint256",
          "name": "Id",
          "type": "uint256"
        }
      ],
      "name": "Get_Mandate",
      "outputs": [
        {
          "internalType": "uint256",
          "name": "version",
          "type": "uint256"
        },
        {
          "internalType": "uint256",
          "name": "Inauguration_Timestamps",
          "type": "uint256"
        },
        {
          "internalType": "uint256",
          "name": "Election_Timestamps",
          "type": "uint256"
        },
        {
          "internalType": "uint256",
          "name": "New_Election_Petition_Number",
          "type": "uint256"
        },
        {
          "internalType": "bytes32[]",
          "name": "Members",
          "type": "bytes32[]"
        },
        {
          "internalType": "bytes32[]",
          "name": "Candidats",
          "type": "bytes32[]"
        }
      ],
      "stateMutability": "view",
      "type": "function"
    },
    {
      "inputs": [
        {
          "internalType": "bytes32",
          "name": "key",
          "type": "bytes32"
        },
        {
          "internalType": "address",
          "name": "member",
          "type": "address"
        }
      ],
      "name": "Get_Member_Amount_Consumed",
      "outputs": [
        {
          "internalType": "uint256",
          "name": "amount",
          "type": "uint256"
        }
      ],
      "stateMutability": "view",
      "type": "function"
    },
    {
      "inputs": [],
      "name": "Get_Delegation_Infos",
      "outputs": [
        {
          "internalType": "uint256",
          "name": "legislatif_process_version",
          "type": "uint256"
        },
        {
          "internalType": "uint256",
          "name": "internal_governance_version",
          "type": "uint256"
        },
        {
          "internalType": "uint256",
          "name": "actual_mandate",
          "type": "uint256"
        },
        {
          "internalType": "uint256",
          "name": "potentialy_lost_amount",
          "type": "uint256"
        },
        {
          "internalType": "bool",
          "name": "in_election_stage",
          "type": "bool"
        }
      ],
      "stateMutability": "view",
      "type": "function"
    },
    {
      "inputs": [
        {
          "internalType": "bytes32",
          "name": "key",
          "type": "bytes32"
        },
        {
          "internalType": "uint256",
          "name": "id",
          "type": "uint256"
        }
      ],
      "name": "Get_Proposal",
      "outputs": [
        {
          "internalType": "bytes",
          "name": "description",
          "type": "bytes"
        },
        {
          "internalType": "uint256[]",
          "name": "childrens",
          "type": "uint256[]"
        },
        {
          "internalType": "bytes[]",
          "name": "function_calls",
          "type": "bytes[]"
        },
        {
          "internalType": "uint256",
          "name": "func_call_counter",
          "type": "uint256"
        },
        {
          "internalType": "uint256",
          "name": "parent",
          "type": "uint256"
        },
        {
          "internalType": "address",
          "name": "author",
          "type": "address"
        }
      ],
      "stateMutability": "view",
      "type": "function"
    },
    {
      "inputs": [
        {
          "internalType": "bytes32",
          "name": "key",
          "type": "bytes32"
        }
      ],
      "name": "Get_Law_Results",
      "outputs": [
        {
          "internalType": "uint256",
          "name": "Winning_Proposal",
          "type": "uint256"
        },
        {
          "components": [
            {
              "internalType": "bool",
              "name": "Success",
              "type": "bool"
            },
            {
              "internalType": "bytes",
              "name": "Receipt",
              "type": "bytes"
            }
          ],
          "internalType": "struct Initiative_Legislative_Lib.Function_Call_Result[]",
          "name": "Receipts",
          "type": "tuple[]"
        }
      ],
      "stateMutability": "view",
      "type": "function"
    }
  ],
  "bytecode": "0x60806040523480156200001157600080fd5b50604051620052c7380380620052c783398101604081905262000034916200029d565b60016000819055855186916200004f91602084019062000147565b505060028054600560a01b60ff60a01b19336001600160a01b03199384161716179091556003805482166001600160a01b0386811691909117909155600480548316858316178155600580549093169184169190911790915560008052600e6020526040516334d6213360e21b815273__Delegation_Uils_______________________9163d35884cc916200010a917fe710864318d4a32f37d6ce54cb3fadbef648dd12d8dbdf53973564d56b7f881c91899101620003b3565b60006040518083038186803b1580156200012357600080fd5b505af415801562000138573d6000803e3d6000fd5b50505050505050505062000491565b82805462000155906200043e565b90600052602060002090601f016020900481019282620001795760008555620001c4565b82601f106200019457805160ff1916838001178555620001c4565b82800160010185558215620001c4579182015b82811115620001c4578251825591602001919060010190620001a7565b50620001d2929150620001d6565b5090565b5b80821115620001d25760008155600101620001d7565b80516001600160a01b03811681146200020557600080fd5b919050565b600082601f8301126200021b578081fd5b815160206001600160401b038211156200023957620002396200047b565b808202620002498282016200040b565b83815282810190868401838801850189101562000264578687fd5b8693505b8584101562000291576200027c81620001ed565b83526001939093019291840191840162000268565b50979650505050505050565b600080600080600060a08688031215620002b5578081fd5b85516001600160401b0380821115620002cc578283fd5b818801915088601f830112620002e0578283fd5b815181811115620002f557620002f56200047b565b60206200030b601f8301601f191682016200040b565b8281528b828487010111156200031f578586fd5b855b838110156200033e57858101830151828201840152820162000321565b838111156200034f57868385840101525b50908a01519098509250508082111562000367578283fd5b5062000376888289016200020a565b9450506200038760408701620001ed565b92506200039760608701620001ed565b9150620003a760808701620001ed565b90509295509295909350565b60006040820184835260206040818501528185518084526060860191508287019350845b81811015620003fe5784516001600160a01b031683529383019391830191600101620003d7565b5090979650505050505050565b604051601f8201601f191681016001600160401b03811182821017156200043657620004366200047b565b604052919050565b6002810460018216806200045357607f821691505b602082108114156200047557634e487b7160e01b600052602260045260246000fd5b50919050565b634e487b7160e01b600052604160045260246000fd5b614e2680620004a16000396000f3fe608060405234801561001057600080fd5b50600436106102265760003560e01c80635e55276d1161012a578063acee9b18116100bd578063da8348041161008c578063eb101b2311610071578063eb101b23146104ff578063fa07064014610514578063fd00029c1461052757610226565b8063da834804146104b6578063e61fe0cc146104d957610226565b8063acee9b1814610475578063bde9859e14610488578063c503219c1461049b578063cfea7ee0146104ae57610226565b8063885e422c116100f9578063885e422c146104235780639155e45b1461043c57806393c6ddb11461044f5780639bd145f51461046257610226565b80635e55276d146103ce5780637cdbe301146103d65780638052474d146103e95780638798500c146103fe57610226565b8063319f9894116101bd5780633d9bdc2e1161018c5780634b71bcb7116101715780634b71bcb7146103935780635416d4a2146103a657806357f98d32146103ae57610226565b80633d9bdc2e1461036d5780634a44fa251461038057610226565b8063319f98941461031e57806331ab3f0a14610331578063368884ff146103395780633c289ea81461035a57610226565b80631422f09e116101f95780631422f09e146102a757806315a42475146102ce57806319fc5335146102ef578063255d498e1461031457610226565b806302d4cd281461022b57806307c0aaec1461024957806307f63da9146102695780630b1141641461027f575b600080fd5b61023361053a565b6040516102409190613f97565b60405180910390f35b61025c610257366004613a5d565b610556565b604051610240919061408a565b610271610590565b604051610240929190614041565b61029261028d366004613a45565b610649565b60405161024099989796959493929190614b14565b6102ba6102b5366004613a45565b6106b5565b604051610240989796959493929190613fb8565b6102e16102dc366004613a45565b61071d565b6040516102409291906149be565b6103026102fd366004613a8c565b61083c565b6040516102409695949392919061412d565b61031c610a00565b005b61031c61032c366004613a45565b610ba0565b61031c610e0d565b61034c61034736600461389e565b6110bd565b60405161024092919061407a565b61031c61036836600461389e565b6110dc565b61031c61037b3660046139c8565b6111c1565b61031c61038e36600461389e565b6112d6565b61031c6103a1366004613a45565b61149c565b61031c611625565b6103c16103bc36600461389e565b6117d5565b604051610240919061406f565b61031c6117f8565b61031c6103e4366004613a8c565b6118dc565b6103f1611b9c565b60405161024091906142ba565b61041161040c366004613a45565b611c2a565b60405161024096959493929190614a58565b61042b611d27565b604051610240959493929190614aa2565b61031c61044a366004613cb3565b611d40565b61031c61045d366004613a45565b611db1565b61031c610470366004613aad565b61209e565b61031c610483366004613a45565b612288565b61031c610496366004613b2d565b6126c2565b61031c6104a9366004613d0b565b61290e565b61031c612a2c565b6104c96104c4366004613a45565b612b7b565b6040516102409493929190614205565b6104ec6104e7366004613a45565b612cb3565b6040516102409796959493929190614ac7565b610507612d11565b604051610240919061423e565b61031c6105223660046138ba565b612d32565b61031c61053536600461389e565b612f80565b60025473ffffffffffffffffffffffffffffffffffffffff1681565b6000828152600b6020908152604080832073ffffffffffffffffffffffffffffffffffffffff851684526008019091529020545b92915050565b606080600c6009600001600001818054806020026020016040519081016040528092919081815260200182805480156105e857602002820191906000526020600020905b8154815260200190600101908083116105d4575b505050505091508080548060200260200160405190810160405280929190818152602001828054801561063a57602002820191906000526020600020905b815481526020019060010190808311610626575b50505050509050915091509091565b600d602052600090815260409020805460018201546002830154600384015460048501546005860154600690960154949593949293919290919061ffff8082169162010000810490911690640100000000900473ffffffffffffffffffffffffffffffffffffffff1689565b600b60205260009081526040902080546001820154600283015460038401546004850154600586015460069096015473ffffffffffffffffffffffffffffffffffffffff8616967401000000000000000000000000000000000000000090960460ff16959088565b600081815260076020908152604080832060058101546006909101805483518186028101860190945280845260609492939192839190879084015b8282101561082d5760008481526020908190206040805180820190915260028502909101805460ff1615158252600181018054929391929184019161079c90614cb4565b80601f01602080910402602001604051908101604052809291908181526020018280546107c890614cb4565b80156108155780601f106107ea57610100808354040283529160200191610815565b820191906000526020600020905b8154815290600101906020018083116107f857829003601f168201915b50505050508152505081526020019060010190610758565b50505050905091509150915091565b60008281526007602052604080822090517fbebe81d2000000000000000000000000000000000000000000000000000000008152606092839283928291829173__Initiative_Legislative_Lib____________9163bebe81d2916108a691908b90600401613f89565b60006040518083038186803b1580156108be57600080fd5b505af41580156108d2573d6000803e3d6000fd5b505050506040513d6000823e601f3d9081017fffffffffffffffffffffffffffffffffffffffffffffffffffffffffffffffe0168201604052610918919081019061393a565b6000898152600760205260409081902090517f2c64627600000000000000000000000000000000000000000000000000000000815291955073__Initiative_Legislative_Lib____________91632c6462769161097a918b90600401613f89565b60006040518083038186803b15801561099257600080fd5b505af41580156109a6573d6000803e3d6000fd5b505050506040513d6000823e601f3d9081017fffffffffffffffffffffffffffffffffffffffffffffffffffffffffffffffe01682016040526109ec9190810190613bd6565b939c929b5096995097509495509392505050565b600480546040517f57f98d3200000000000000000000000000000000000000000000000000000000815273ffffffffffffffffffffffffffffffffffffffff909116916357f98d3291610a5591339101613f97565b60206040518083038186803b158015610a6d57600080fd5b505afa158015610a81573d6000803e3d6000fd5b505050506040513d601f19601f82011682018060405250810190610aa59190613a25565b610aca5760405162461bcd60e51b8152600401610ac190614708565b60405180910390fd5b6012546000818152600e6020908152604080832060088101548452600f909252918290206003015491517f3a6775a200000000000000000000000000000000000000000000000000000000815273__Delegation_Uils_______________________92633a6775a292610b4492909190339060040161481b565b60006040518083038186803b158015610b5c57600080fd5b505af4158015610b70573d6000803e3d6000fd5b50506040517fb5d7df977b4f74f869574c745283e386368bf2ed9efa20e7fabe28f84eb308e3925060009150a150565b6012546000908152600e60205260409020610bbb9033613086565b610bd75760405162461bcd60e51b8152600401610ac190614663565b6000818152600b6020818152604080842060018101548552600d83528185206006015486865293835260030154905164010000000090930473ffffffffffffffffffffffffffffffffffffffff169392610c349286929101613f89565b60405160208183030381529060405280519060200120905060008273ffffffffffffffffffffffffffffffffffffffff1663ce584e128360006040518363ffffffff1660e01b8152600401610c8a929190613f89565b60206040518083038186803b158015610ca257600080fd5b505afa158015610cb6573d6000803e3d6000fd5b505050506040513d601f19601f82011682018060405250810190610cda9190613cf3565b6000858152600760205260409020600501819055905080610d7d576000848152600b60205260409081902080547fffffffffffffffffffffff00ffffffffffffffffffffffffffffffffffffffff1674050000000000000000000000000000000000000000179055517fce51aefaea5062b86ae2fe5432aa52e50af7ff15c4e192c06e053c713ac2659590610d7090869061408a565b60405180910390a1610e07565b6000848152600b60205260409081902042600482015580547fffffffffffffffffffffff00ffffffffffffffffffffffffffffffffffffffff1674020000000000000000000000000000000000000000179055517f82ad636559e818e9291ef38cfad52a652648b3a5e3eebd615aa11660018dfa7a90610dfe90869061408a565b60405180910390a15b50505050565b600480546040517f57f98d3200000000000000000000000000000000000000000000000000000000815273ffffffffffffffffffffffffffffffffffffffff909116916357f98d3291610e6291339101613f97565b60206040518083038186803b158015610e7a57600080fd5b505afa158015610e8e573d6000803e3d6000fd5b505050506040513d601f19601f82011682018060405250810190610eb29190613a25565b610ece5760405162461bcd60e51b8152600401610ac190614708565b60135460ff1615610ef15760405162461bcd60e51b8152600401610ac1906143a9565b6012546000818152600e60208181526040808420600801548452600f909152918290206004805493517f83d9881300000000000000000000000000000000000000000000000000000000815273__Delegation_Uils_______________________946383d9881394610f809490939092889273ffffffffffffffffffffffffffffffffffffffff169101614289565b60206040518083038186803b158015610f9857600080fd5b505af4158015610fac573d6000803e3d6000fd5b505050506040513d601f19601f82011682018060405250810190610fd09190613a25565b1561106557601380547fffffffffffffffffffffffffffffffffffffffffffffffffffffffffffffff001660011790556040517ff9f11023b6e7b0d9b9b7062bc92c7ff1c55bff7c12b71924faca2b82bd01938e906110359030904290602001613f54565b60405160208183030381529060405280519060200120604051611058919061408a565b60405180910390a16110ba565b6000611072826001614be3565b60128190556011546000828152600e60205260408082206008019290925590519192507ffbd77822dd2c0056a69b7b038c4ac5db05fda79e438536e8fc9c1ab38f2c1eda91a1505b50565b6008602052600090815260409020805460019091015460ff9091169082565b60025473ffffffffffffffffffffffffffffffffffffffff1633146111135760405162461bcd60e51b8152600401610ac190614304565b73ffffffffffffffffffffffffffffffffffffffff81166111465760405162461bcd60e51b8152600401610ac190614485565b600280547fffffffffffffffffffffffff00000000000000000000000000000000000000001673ffffffffffffffffffffffffffffffffffffffff83161790556040517feaf9201ae5a091c46918bca9c5ced3b9aa103362b0a68a1f36b9f2858b0a4c14906111b6908390613f97565b60405180910390a150565b60025473ffffffffffffffffffffffffffffffffffffffff1633146111f85760405162461bcd60e51b8152600401610ac190614304565b6010546000906112099060016130af565b6000818152600d60205260409081902090517fdf19fd1e00000000000000000000000000000000000000000000000000000000815291925073__Delegation_Uils_______________________9163df19fd1e916112719189908990899089906004016148fc565b60006040518083038186803b15801561128957600080fd5b505af415801561129d573d6000803e3d6000fd5b5050506010829055506040517f2d9f15a1c08a3e686dd80d83ac6da073366d23a596e8cc1b0dfe99391a447b7c90600090a15050505050565b60025473ffffffffffffffffffffffffffffffffffffffff16331461130d5760405162461bcd60e51b8152600401610ac190614304565b73ffffffffffffffffffffffffffffffffffffffff811660009081526008602052604090205460ff166113525760405162461bcd60e51b8152600401610ac190614776565b73ffffffffffffffffffffffffffffffffffffffff8116600090815260086020526040902080547fffffffffffffffffffffffffffffffffffffffffffffffffffffffffffffff001681556001015461146d576040517fb18d743b00000000000000000000000000000000000000000000000000000000815273ffffffffffffffffffffffffffffffffffffffff82169063b18d743b906113f7903090600401613f97565b600060405180830381600087803b15801561141157600080fd5b505af1158015611425573d6000803e3d6000fd5b5050505061143d8160096130de90919063ffffffff16565b507f1c1fef83c6bb43d7c6d1990253b3ff42fcd5b3e0dedbb87345933260143f28a6816040516110589190613f97565b7f47a385847762a03fe60622fb224ddc0b39958ab75b995cecb9ad3fe4adf19a1e816040516111b69190613f97565b6012546000908152600e602052604090206114b79033613086565b6114d35760405162461bcd60e51b8152600401610ac190614663565b60026000828152600b602052604090205474010000000000000000000000000000000000000000900460ff166005811115611537577f4e487b7100000000000000000000000000000000000000000000000000000000600052602160045260246000fd5b146115545760405162461bcd60e51b8152600401610ac190614372565b6000818152600b6020818152604080842060018101548552600d835290842060050154938590529190526004015461158d904290613100565b116115aa5760405162461bcd60e51b8152600401610ac19061469a565b6000818152600b60205260409081902080547fffffffffffffffffffffff00ffffffffffffffffffffffffffffffffffffffff1674030000000000000000000000000000000000000000179055517f352de6b8b51f60c6dff7fc3207934314a2635960d53b9719ba70c2e30c9ea901906111b690839061408a565b600480546040517f57f98d3200000000000000000000000000000000000000000000000000000000815273ffffffffffffffffffffffffffffffffffffffff909116916357f98d329161167a91339101613f97565b60206040518083038186803b15801561169257600080fd5b505afa1580156116a6573d6000803e3d6000fd5b505050506040513d601f19601f820116820180604052508101906116ca9190613a25565b6116e65760405162461bcd60e51b8152600401610ac190614708565b60135460ff16156117095760405162461bcd60e51b8152600401610ac190614417565b6012546000908152600e60205260409081902090517f8238dc7600000000000000000000000000000000000000000000000000000000815273__Delegation_Uils_______________________91638238dc769161176c91903390600401614947565b60006040518083038186803b15801561178457600080fd5b505af4158015611798573d6000803e3d6000fd5b505050507fdc98bdf69864c410a2b55e602454c9f67a9cc2655bfaf749570a0a56ce0df283336040516117cb9190613f97565b60405180910390a1565b6012546000908152600e602052604081206117f09083613086565b90505b919050565b60135460ff161561181b5760405162461bcd60e51b8152600401610ac190614417565b6012546000908152600e60205260409081902090517ff0dc4da400000000000000000000000000000000000000000000000000000000815273__Delegation_Uils_______________________9163f0dc4da49161187e91903390600401614947565b60006040518083038186803b15801561189657600080fd5b505af41580156118aa573d6000803e3d6000fd5b505050507ed207a2901e23683391f855702b0271f2d1aa36b3b90f9cb00ea868d3d38e4c336040516117cb9190613f97565b6012546000908152600e602052604090206118f79033613086565b6119135760405162461bcd60e51b8152600401610ac190614663565b600260005414156119365760405162461bcd60e51b8152600401610ac1906147e4565b600260005560036000838152600b602052604090205474010000000000000000000000000000000000000000900460ff16600581111561199f577f4e487b7100000000000000000000000000000000000000000000000000000000600052602160045260246000fd5b146119bc5760405162461bcd60e51b8152600401610ac1906145cf565b7f1f9877c44f9ef0baeda6e1438ea3859203c61a172d1992e78bdd604c2b2e750b82826040516119ed929190613f89565b60405180910390a16000828152600760209081526040808320600b909252918290205491517f8a73792500000000000000000000000000000000000000000000000000000000815273__Initiative_Legislative_Lib____________92638a73792592611a7a929091869173ffffffffffffffffffffffffffffffffffffffff9091169060040161481b565b60206040518083038186803b158015611a9257600080fd5b505af4158015611aa6573d6000803e3d6000fd5b505050506040513d601f19601f82011682018060405250810190611aca9190613a25565b15611b93576000828152600b6020526040902080547fffffffffffffffffffffff00ffffffffffffffffffffffffffffffffffffffff167404000000000000000000000000000000000000000017815560050154600654611b2a91613100565b6006556000828152600b6020526040902054611b5b9073ffffffffffffffffffffffffffffffffffffffff1661312c565b7f7ad719f164b05af00a15d6feb3d5aa24e2cb0481e37e9bd2fb84590c36ed5f0582604051611b8a919061408a565b60405180910390a15b50506001600055565b60018054611ba990614cb4565b80601f0160208091040260200160405190810160405280929190818152602001828054611bd590614cb4565b8015611c225780601f10611bf757610100808354040283529160200191611c22565b820191906000526020600020905b815481529060010190602001808311611c0557829003601f168201915b505050505081565b6000818152600e60205260408120600881015460068201546007830154919390926060908190611c5c90600201613264565b6000888152600e60209081526040918290208054835181840281018401909452808452939650919290830182828015611cb457602002820191906000526020600020905b815481526020019060010190808311611ca0575b50505060008a8152600e602090815260409182902060040180548351818402810184019094528084529597509194919350909150830182828015611d1757602002820191906000526020600020905b815481526020019060010190808311611d03575b5050505050905091939550919395565b60105460115460125460065460135460ff169091929394565b60025473ffffffffffffffffffffffffffffffffffffffff163314611d775760405162461bcd60e51b8152600401610ac190614304565b611d83600183836136b9565b506040517f379308d0bb59c3a96480e25be5a540b7ed745d0ba7bc0d59819082fb1d8f5a0d90600090a15050565b6012546000908152600e60205260409020611dcc9033613086565b611de85760405162461bcd60e51b8152600401610ac190614663565b6000818152600b602052604090206001015480611e175760405162461bcd60e51b8152600401610ac1906144f3565b600080838152600b602052604090205474010000000000000000000000000000000000000000900460ff166005811115611e7a577f4e487b7100000000000000000000000000000000000000000000000000000000600052602160045260246000fd5b14611e975760405162461bcd60e51b8152600401610ac190614561565b6000818152600d6020908152604080832060030154858452600b90925290912060020154611ec6904290613100565b11611ee35760405162461bcd60e51b8152600401610ac19061452a565b60008242604051602001611ef8929190613f89565b604080517fffffffffffffffffffffffffffffffffffffffffffffffffffffffffffffffe081840301815282825280516020918201206000878152600b90925291902042600382015580547fffffffffffffffffffffff00ffffffffffffffffffffffffffffffffffffffff167401000000000000000000000000000000000000000017905591507f30958bd750a3538628d246435fe2875ad4c29a883c59b7f43bc3e5b2ed8a6def90611faf9085908490613f89565b60405180910390a16000828152600d602090815260408083206006810154600491820154888652600790945282852082015492517fe134535800000000000000000000000000000000000000000000000000000000815264010000000090910473ffffffffffffffffffffffffffffffffffffffff1694859463e13453589461206694899430947f57f98d320000000000000000000000000000000000000000000000000000000094939092909160019101614093565b600060405180830381600087803b15801561208057600080fd5b505af1158015612094573d6000803e3d6000fd5b5050505050505050565b6012546000908152600e602052604090206120b99033613086565b6120d55760405162461bcd60e51b8152600401610ac190614663565b600080878152600b602052604090205474010000000000000000000000000000000000000000900460ff166005811115612138577f4e487b7100000000000000000000000000000000000000000000000000000000600052602160045260246000fd5b146121555760405162461bcd60e51b8152600401610ac190614561565b6000868152600b6020526040902060010154806121845760405162461bcd60e51b8152600401610ac1906144f3565b6000818152600d60205260409020600201546121ac9033906121a6908761326f565b896132b4565b6000878152600760205260409081902090517fea02218200000000000000000000000000000000000000000000000000000000815273__Initiative_Legislative_Lib____________9163ea0221829161221691908a908a908a908a908a903390600401614847565b60006040518083038186803b15801561222e57600080fd5b505af4158015612242573d6000803e3d6000fd5b505050507f5e46f2ef5cfdaaf8f1a78f7efcce8ca4a75d39f5097b532d44f4ac212226ca4e8787604051612277929190613f89565b60405180910390a150505050505050565b600480546040517f57f98d3200000000000000000000000000000000000000000000000000000000815273ffffffffffffffffffffffffffffffffffffffff909116916357f98d32916122dd91339101613f97565b60206040518083038186803b1580156122f557600080fd5b505afa158015612309573d6000803e3d6000fd5b505050506040513d601f19601f8201168201806040525081019061232d9190613a25565b6123495760405162461bcd60e51b8152600401610ac190614708565b60026000828152600b602052604090205474010000000000000000000000000000000000000000900460ff1660058111156123ad577f4e487b7100000000000000000000000000000000000000000000000000000000600052602160045260246000fd5b146123ca5760405162461bcd60e51b8152600401610ac190614372565b6000818152600b6020908152604080832033845260070190915290205460ff16156124075760405162461bcd60e51b8152600401610ac19061473f565b6000818152600b60205260408120600601546124249060016130af565b6000838152600b6020908152604080832033845260078101835281842080547fffffffffffffffffffffffffffffffffffffffffffffffffffffffffffffff0016600190811790915501548352600d825291829020600601546004805484517ffa91965f00000000000000000000000000000000000000000000000000000000815294519596506125309561ffff9093169473ffffffffffffffffffffffffffffffffffffffff919091169363fa91965f93828401939192909190829003018186803b1580156124f357600080fd5b505afa158015612507573d6000803e3d6000fd5b505050506040513d601f19601f8201168201806040525081019061252b9190613cf3565b6134ac565b81106126ad576000828152600b60205260409020600581015481547fffffffffffffffffffffff00ffffffffffffffffffffffffffffffffffffffff1674050000000000000000000000000000000000000000179091556006546125949082613100565b6006556000838152600b60205260409020546125c59073ffffffffffffffffffffffffffffffffffffffff1661312c565b6003546005546040517fa9059cbb00000000000000000000000000000000000000000000000000000000815273ffffffffffffffffffffffffffffffffffffffff9283169263a9059cbb9261262192911690859060040161401b565b602060405180830381600087803b15801561263b57600080fd5b505af115801561264f573d6000803e3d6000fd5b505050506040513d601f19601f820116820180604052508101906126739190613a25565b507fce51aefaea5062b86ae2fe5432aa52e50af7ff15c4e192c06e053c713ac26595836040516126a3919061408a565b60405180910390a1505b6000918252600b602052604090912060060155565b6012546000908152600e602052604090206126dd9033613086565b6126f95760405162461bcd60e51b8152600401610ac190614663565b600080898152600b602052604090205474010000000000000000000000000000000000000000900460ff16600581111561275c577f4e487b7100000000000000000000000000000000000000000000000000000000600052602160045260246000fd5b146127795760405162461bcd60e51b8152600401610ac1906146d1565b6000888152600b6020526040902060010154806127a85760405162461bcd60e51b8152600401610ac1906144f3565b6000818152600d60205260409020600201546127d09033906127ca908761326f565b8b6132b4565b6000898152600760205260408120600401546127ed9060016130af565b60008b815260076020818152604080842085855260038101835281852060050180547fffffffffffffffffffffffff00000000000000000000000000000000000000001633179055938f9052919052517f902f807f00000000000000000000000000000000000000000000000000000000815291925073__Initiative_Legislative_Lib____________9163902f807f91612899918d908d908d908d908d908d908d906004016148a5565b60006040518083038186803b1580156128b157600080fd5b505af41580156128c5573d6000803e3d6000fd5b505050507f8ab63059298b5fa878faa964524f7d8cde2fae972ce6ae3d8bffe31b63803ede8a826040516128fa929190613f89565b60405180910390a150505050505050505050565b60025473ffffffffffffffffffffffffffffffffffffffff1633146129455760405162461bcd60e51b8152600401610ac190614304565b6011546000906129569060016130af565b6000818152600f60205260409081902090517f6daaae3c00000000000000000000000000000000000000000000000000000000815291925073__Delegation_Uils_______________________91636daaae3c916129c4918c908c908c908c908c908c908c9060040161496b565b60006040518083038186803b1580156129dc57600080fd5b505af41580156129f0573d6000803e3d6000fd5b5050506011829055506040517f53d99a6ad2b984cced94e1902b72add5478755d40dfde51e8ca7a1d2495ed83e90600090a15050505050505050565b60135460ff16612a4e5760405162461bcd60e51b8152600401610ac1906142cd565b601254601380547fffffffffffffffffffffffffffffffffffffffffffffffffffffffffffffff00169055612a84816001614be3565b6012556040517ffbd77822dd2c0056a69b7b038c4ac5db05fda79e438536e8fc9c1ab38f2c1eda90600090a16000818152600e60208181526040808420600801548452600f9091529182902060049081015460115493517f195c5c3e00000000000000000000000000000000000000000000000000000000815273__Delegation_Uils_______________________9463195c5c3e94612b48949093640100000000900473ffffffffffffffffffffffffffffffffffffffff169288929101614258565b60006040518083038186803b158015612b6057600080fd5b505af4158015612b74573d6000803e3d6000fd5b5050505050565b600760205260009081526040902080548190612b9690614cb4565b80601f0160208091040260200160405190810160405280929190818152602001828054612bc290614cb4565b8015612c0f5780601f10612be457610100808354040283529160200191612c0f565b820191906000526020600020905b815481529060010190602001808311612bf257829003601f168201915b505050505090806001018054612c2490614cb4565b80601f0160208091040260200160405190810160405280929190818152602001828054612c5090614cb4565b8015612c9d5780601f10612c7257610100808354040283529160200191612c9d565b820191906000526020600020905b815481529060010190602001808311612c8057829003601f168201915b5050505050908060040154908060050154905084565b600f60205260009081526040902080546001820154600283015460038401546004909401549293919290919061ffff8082169162010000810490911690640100000000900473ffffffffffffffffffffffffffffffffffffffff1687565b60025474010000000000000000000000000000000000000000900460ff1681565b6012546000908152600e60205260409020612d4d9033613086565b612d695760405162461bcd60e51b8152600401610ac190614663565b73ffffffffffffffffffffffffffffffffffffffff851660009081526008602052604090205460ff16612dae5760405162461bcd60e51b8152600401610ac190614776565b600084848484604051602001612dc794939291906140fb565b604080517fffffffffffffffffffffffffffffffffffffffffffffffffffffffffffffffe081840301815291815281516020928301206000818152600b90935291206001015490915015612e2d5760405162461bcd60e51b8152600401610ac19061444e565b6010546000828152600b602090815260408083206001908101859055848452600d9092529091200154612e62903390846132b4565b6000828152600b6020908152604080832080547fffffffffffffffffffffffff00000000000000000000000000000000000000001673ffffffffffffffffffffffffffffffffffffffff8c1617815542600290910155600c8054600181019091557fdf6966c971051c3d54ec59162606531493a51404a002842f56009d7e5cf4a8c70185905560079091529020612efa9087876136b9565b506000828152600760205260409020612f179060010185856136b9565b5073ffffffffffffffffffffffffffffffffffffffff87166000908152600860205260408120600101805491612f4c83614d08565b91905055507fb67ed5b18454d803ae273d4b720b9c50d1983a2b09b8cd948b92df465ba544f282604051612277919061408a565b60025473ffffffffffffffffffffffffffffffffffffffff163314612fb75760405162461bcd60e51b8152600401610ac190614304565b73ffffffffffffffffffffffffffffffffffffffff811660009081526008602052604090205460ff1615612ffd5760405162461bcd60e51b8152600401610ac1906147ad565b73ffffffffffffffffffffffffffffffffffffffff8116600090815260086020526040902080547fffffffffffffffffffffffffffffffffffffffffffffffffffffffffffffff001660011790556130566009826134c9565b507ff95e5bc30f654744875db132f80d133be3bfae89add835289906a21c367c51ca816040516111b69190613f97565b60006130a88373ffffffffffffffffffffffffffffffffffffffff84166134eb565b9392505050565b6000806130bc8385614be3565b9050838110156130a85760405162461bcd60e51b8152600401610ac1906143e0565b60006130a88373ffffffffffffffffffffffffffffffffffffffff8416613503565b6000828211156131225760405162461bcd60e51b8152600401610ac1906144bc565b6130a88284614c71565b73ffffffffffffffffffffffffffffffffffffffff8116600090815260086020526040812060019081015461316091613100565b73ffffffffffffffffffffffffffffffffffffffff831660009081526008602052604090206001018190559050801580156131c1575073ffffffffffffffffffffffffffffffffffffffff821660009081526008602052604090205460ff16155b15613260576040517fb18d743b00000000000000000000000000000000000000000000000000000000815273ffffffffffffffffffffffffffffffffffffffff83169063b18d743b90613218903090600401613f97565b600060405180830381600087803b15801561323257600080fd5b505af1158015613246573d6000803e3d6000fd5b5050505061325e8260096130de90919063ffffffff16565b505b5050565b60006117f08261366b565b60008261327e5750600061058a565b600061328a8385614c34565b9050826132978583614bfb565b146130a85760405162461bcd60e51b8152600401610ac190614606565b6000818152600b602090815260408083206001810154808552600d84528285205473ffffffffffffffffffffffffffffffffffffffff891686526008909201909352922054909190613307908590614be3565b11156133255760405162461bcd60e51b8152600401610ac19061433b565b6000818152600d602052604081206006015461334b9062010000900461ffff16856134ac565b90506000613364826006546130af90919063ffffffff16565b6003546040517f70a0823100000000000000000000000000000000000000000000000000000000815291925073ffffffffffffffffffffffffffffffffffffffff16906370a08231906133bb903090600401613f97565b60206040518083038186803b1580156133d357600080fd5b505afa1580156133e7573d6000803e3d6000fd5b505050506040513d601f19601f8201168201806040525081019061340b9190613cf3565b81111561342a5760405162461bcd60e51b8152600401610ac190614598565b6000848152600b6020908152604080832073ffffffffffffffffffffffffffffffffffffffff8a1684526008019091528120805487929061346c908490614be3565b90915550506000848152600b602052604090206005015461348d90836130af565b6000948552600b60205260409094206005019390935550506006555050565b60006127106134bf8361ffff8616614c34565b6130a89190614bfb565b60006130a88373ffffffffffffffffffffffffffffffffffffffff841661366f565b60009081526001919091016020526040902054151590565b60008181526001830160205260408120548015613661576000613527600183614c71565b855490915060009061353b90600190614c71565b9050600086600001828154811061357b577f4e487b7100000000000000000000000000000000000000000000000000000000600052603260045260246000fd5b90600052602060002001549050808760000184815481106135c5577f4e487b7100000000000000000000000000000000000000000000000000000000600052603260045260246000fd5b6000918252602090912001556135dc836001614be3565b60008281526001890160205260409020558654879080613625577f4e487b7100000000000000000000000000000000000000000000000000000000600052603160045260246000fd5b6001900381819060005260206000200160009055905586600101600087815260200190815260200160002060009055600194505050505061058a565b600091505061058a565b5490565b600061367b83836134eb565b6136b15750815460018181018455600084815260208082209093018490558454848252828601909352604090209190915561058a565b50600061058a565b8280546136c590614cb4565b90600052602060002090601f0160209004810192826136e7576000855561374b565b82601f1061371e578280017fffffffffffffffffffffffffffffffffffffffffffffffffffffffffffffff0082351617855561374b565b8280016001018555821561374b579182015b8281111561374b578235825591602001919060010190613730565b5061375792915061375b565b5090565b5b80821115613757576000815560010161375c565b80516117f381614dce565b60008083601f84011261378c578182fd5b50813567ffffffffffffffff8111156137a3578182fd5b60208301915083602080830285010111156137bd57600080fd5b9250929050565b60008083601f8401126137d5578182fd5b50813567ffffffffffffffff8111156137ec578182fd5b6020830191508360208285010111156137bd57600080fd5b600082601f830112613814578081fd5b815167ffffffffffffffff81111561382e5761382e614d9f565b61385f60207fffffffffffffffffffffffffffffffffffffffffffffffffffffffffffffffe0601f84011601614b70565b818152846020838601011115613873578283fd5b613884826020830160208701614c88565b949350505050565b803561ffff811681146117f357600080fd5b6000602082840312156138af578081fd5b81356130a881614dce565b6000806000806000606086880312156138d1578081fd5b85356138dc81614dce565b9450602086013567ffffffffffffffff808211156138f8578283fd5b61390489838a016137c4565b9096509450604088013591508082111561391c578283fd5b50613929888289016137c4565b969995985093965092949392505050565b6000602080838503121561394c578182fd5b825167ffffffffffffffff811115613962578283fd5b8301601f81018513613972578283fd5b805161398561398082614bbf565b614b70565b81815283810190838501865b848110156139ba576139a88a888451890101613804565b84529286019290860190600101613991565b509098975050505050505050565b60008060008061012085870312156139de578384fd5b60c08501868111156139ee578485fd5b8594506139fa8161388c565b935050613a0960e0860161388c565b9150610100850135613a1a81614dce565b939692955090935050565b600060208284031215613a36578081fd5b815180151581146130a8578182fd5b600060208284031215613a56578081fd5b5035919050565b60008060408385031215613a6f578182fd5b823591506020830135613a8181614dce565b809150509250929050565b60008060408385031215613a9e578182fd5b50508035926020909101359150565b60008060008060008060808789031215613ac5578384fd5b8635955060208701359450604087013567ffffffffffffffff80821115613aea578586fd5b613af68a838b0161377b565b90965094506060890135915080821115613b0e578283fd5b50613b1b89828a0161377b565b979a9699509497509295939492505050565b60008060008060008060008060a0898b031215613b48578586fd5b8835975060208901359650604089013567ffffffffffffffff80821115613b6d578788fd5b613b798c838d0161377b565b909850965060608b0135915080821115613b91578384fd5b613b9d8c838d0161377b565b909650945060808b0135915080821115613bb5578384fd5b50613bc28b828c016137c4565b999c989b5096995094979396929594505050565b600080600080600060a08688031215613bed578283fd5b855167ffffffffffffffff80821115613c04578485fd5b613c1089838a01613804565b9650602091508188015181811115613c26578586fd5b88019050601f81018913613c38578485fd5b8051613c4661398082614bbf565b81815283810190838501858402850186018d1015613c62578889fd5b8894505b83851015613c84578051835260019490940193918501918501613c66565b5080985050505050506040860151925060608601519150613ca760808701613770565b90509295509295909350565b60008060208385031215613cc5578182fd5b823567ffffffffffffffff811115613cdb578283fd5b613ce7858286016137c4565b90969095509350505050565b600060208284031215613d04578081fd5b5051919050565b600080600080600080600060e0888a031215613d25578081fd5b87359650602088013595506040880135945060608801359350613d4a6080890161388c565b9250613d5860a0890161388c565b915060c0880135613d6881614dce565b8091505092959891949750929550565b73ffffffffffffffffffffffffffffffffffffffff169052565b6000815180845260208085019450808401835b83811015613dc157815187529582019590820190600101613da5565b509495945050505050565b818352602080840193600091908185020181018584845b87811015613e6857828403895281357fffffffffffffffffffffffffffffffffffffffffffffffffffffffffffffffe1883603018112613e21578687fd5b8701803567ffffffffffffffff811115613e39578788fd5b803603891315613e47578788fd5b613e548682898501613ec2565b9a87019a9550505090840190600101613de3565b5091979650505050505050565b60008284527f07ffffffffffffffffffffffffffffffffffffffffffffffffffffffffffffff831115613ea6578081fd5b6020830280836020870137939093016020019283525090919050565b600082845282826020860137806020848601015260207fffffffffffffffffffffffffffffffffffffffffffffffffffffffffffffffe0601f85011685010190509392505050565b60008151808452613f22816020860160208601614c88565b601f017fffffffffffffffffffffffffffffffffffffffffffffffffffffffffffffffe0169290920160200192915050565b60609290921b7fffffffffffffffffffffffffffffffffffffffff000000000000000000000000168252601482015260340190565b918252602082015260400190565b73ffffffffffffffffffffffffffffffffffffffff91909116815260200190565b73ffffffffffffffffffffffffffffffffffffffff89168152610100810160068910613fe657613fe6614d70565b602082019890985260408101969096526060860194909452608085019290925260a084015260c083015260e090910152919050565b73ffffffffffffffffffffffffffffffffffffffff929092168252602082015260400190565b6000604082526140546040830185613d92565b82810360208401526140668185613d92565b95945050505050565b901515815260200190565b9115158252602082015260400190565b90815260200190565b96875273ffffffffffffffffffffffffffffffffffffffff9590951660208701527fffffffff000000000000000000000000000000000000000000000000000000009390931660408601526060850191909152608084015260a083015260c082015260e00190565b60006040825261410f604083018688613ec2565b8281036020840152614122818587613ec2565b979650505050505050565b600060c0825261414060c0830189613f0a565b828103602084810191909152885180835289820192820190845b818110156141765784518352938301939183019160010161415a565b505084810360408601528851808252828201935082810282018301838b01865b838110156141e2577fffffffffffffffffffffffffffffffffffffffffffffffffffffffffffffffe08584030187526141d0838351613f0a565b96860196925090850190600101614196565b5050809550505050505084606083015283608083015261412260a0830184613d78565b6000608082526142186080830187613f0a565b828103602084015261422a8187613f0a565b604084019590955250506060015292915050565b602081016007831061425257614252614d70565b91905290565b93845273ffffffffffffffffffffffffffffffffffffffff9290921660208401526040830152606082015260800190565b9384526020840192909252604083015273ffffffffffffffffffffffffffffffffffffffff16606082015260800190565b6000602082526130a86020830184613f0a565b60208082526014908201527f4e6f7420696e20456c656374696f6e2074696d65000000000000000000000000604082015260600190565b60208082526011908201527f436f6e737469747574696f6e204f6e6c79000000000000000000000000000000604082015260600190565b6020808252601b908201527f4d656d62657220636f6e73756d7074696f6e2065786365656465640000000000604082015260600190565b6020808252601c908201527f4c6177204e6f742061742043454e534f52204c41572073746174757300000000604082015260600190565b60208082526016908201527f416e20456c656374696f6e2069732050656e64696e6700000000000000000000604082015260600190565b6020808252601b908201527f536166654d6174683a206164646974696f6e206f766572666c6f770000000000604082015260600190565b6020808252600d908201527f456c656374696f6e2054696d6500000000000000000000000000000000000000604082015260600190565b6020808252601b908201527f4c61772070726f6a65637420616c726561647920637265617465640000000000604082015260600190565b60208082526009908201527f4164647265737320300000000000000000000000000000000000000000000000604082015260600190565b6020808252601e908201527f536166654d6174683a207375627472616374696f6e206f766572666c6f770000604082015260600190565b60208082526017908201527f4e6f206578697374696e67204c61772050726f6a656374000000000000000000604082015260600190565b6020808252601e908201527f50524f504f534954494f4e207374616765206e6f742066696e69736865640000604082015260600190565b6020808252601d908201527f4c6177204e6f742061742050524f504f534954494f4e20737461747573000000604082015260600190565b6020808252601a908201527f4e6f20656e6f75676820636f6c61746572616c732066756e6473000000000000604082015260600190565b6020808252600f908201527f4c6177204e6f742041444f505445440000000000000000000000000000000000604082015260600190565b60208082526021908201527f536166654d6174683a206d756c7469706c69636174696f6e206f766572666c6f60408201527f7700000000000000000000000000000000000000000000000000000000000000606082015260800190565b6020808252600f908201527f44656c65676174696f6e204f6e6c790000000000000000000000000000000000604082015260600190565b6020808252601a908201527f43454e534f52204c415720504552494f44206e6f74206f766572000000000000604082015260600190565b60208082526019908201527f4e6f742061742050524f504f534954494f4e2073746174757300000000000000604082015260600190565b6020808252600c908201527f436974697a656e204f6e6c790000000000000000000000000000000000000000604082015260600190565b6020808252600e908201527f416c7265616479205369676e6564000000000000000000000000000000000000604082015260600190565b60208082526016908201527f5265676973746572204e6f7420436f6e74726f6c656400000000000000000000604082015260600190565b6020808252601a908201527f526567697374657220616c726561647920436f6e74726f6c6564000000000000604082015260600190565b6020808252601f908201527f5265656e7472616e637947756172643a207265656e7472616e742063616c6c00604082015260600190565b928352602083019190915273ffffffffffffffffffffffffffffffffffffffff16604082015260600190565b600088825287602083015260a0604083015261486760a083018789613dcc565b828103606084015261487a818688613e75565b91505073ffffffffffffffffffffffffffffffffffffffff8316608083015298975050505050505050565b600089825288602083015260a060408301526148c560a08301888a613e75565b82810360608401526148d8818789613dcc565b905082810360808401526148ed818587613ec2565b9b9a5050505050505050505050565b858152610140810160c086602084013761ffff94851660e08301529290931661010084015273ffffffffffffffffffffffffffffffffffffffff166101209092019190915292915050565b91825273ffffffffffffffffffffffffffffffffffffffff16602082015260400190565b978852602088019690965260408701949094526060860192909252608085015261ffff90811660a08501521660c083015273ffffffffffffffffffffffffffffffffffffffff1660e08201526101000190565b600060408083018584526020828186015281865180845260608701915060608382028801019350828801865b82811015614a49578886037fffffffffffffffffffffffffffffffffffffffffffffffffffffffffffffffa00184528151805115158752850151858701889052614a3688880182613f0a565b96505092840192908401906001016149ea565b50939998505050505050505050565b600087825286602083015285604083015284606083015260c06080830152614a8360c0830185613d92565b82810360a0840152614a958185613d92565b9998505050505050505050565b9485526020850193909352604084019190915260608301521515608082015260a00190565b96875260208701959095526040860193909352606085019190915261ffff90811660808501521660a083015273ffffffffffffffffffffffffffffffffffffffff1660c082015260e00190565b988952602089019790975260408801959095526060870193909352608086019190915260a085015261ffff90811660c08501521660e083015273ffffffffffffffffffffffffffffffffffffffff166101008201526101200190565b604051601f82017fffffffffffffffffffffffffffffffffffffffffffffffffffffffffffffffe016810167ffffffffffffffff81118282101715614bb757614bb7614d9f565b604052919050565b600067ffffffffffffffff821115614bd957614bd9614d9f565b5060209081020190565b60008219821115614bf657614bf6614d41565b500190565b600082614c2f577f4e487b710000000000000000000000000000000000000000000000000000000081526012600452602481fd5b500490565b6000817fffffffffffffffffffffffffffffffffffffffffffffffffffffffffffffffff0483118215151615614c6c57614c6c614d41565b500290565b600082821015614c8357614c83614d41565b500390565b60005b83811015614ca3578181015183820152602001614c8b565b83811115610e075750506000910152565b600281046001821680614cc857607f821691505b60208210811415614d02577f4e487b7100000000000000000000000000000000000000000000000000000000600052602260045260246000fd5b50919050565b60007fffffffffffffffffffffffffffffffffffffffffffffffffffffffffffffffff821415614d3a57614d3a614d41565b5060010190565b7f4e487b7100000000000000000000000000000000000000000000000000000000600052601160045260246000fd5b7f4e487b7100000000000000000000000000000000000000000000000000000000600052602160045260246000fd5b7f4e487b7100000000000000000000000000000000000000000000000000000000600052604160045260246000fd5b73ffffffffffffffffffffffffffffffffffffffff811681146110ba57600080fdfea264697066735822122005f3e46bd3d1941d2e99ef6e80362cfea4c4bfb9765d3fb44e8bf81958b89a8864736f6c63430008010033",
  "immutableReferences": {},
  "source": "// SPDX-License-Identifier: MIT\npragma solidity ^0.8.0;\n\n//import \"Initiative_Legislative.sol\";\n//import \"IDelegation.sol\";\n//import \"Agora.sol\";\n/*import \"Initiative_Legislative_lib.sol\";\nimport \"Register.sol\";\nimport \"Citizens_Register.sol\";\nimport \"IVote.sol\";\nimport \"IDelegation.sol\";*/\n\n\nimport \"contracts/Initiative_Legislative_lib.sol\";\nimport \"contracts/Register.sol\";\nimport \"contracts/Citizens_Register.sol\";\nimport \"contracts/IVote.sol\";\nimport \"contracts/IDelegation.sol\";\n\n\n\n\n/** \n * @dev Delegation_Uils library is used to reduce the size of Delegation contract in order to avoid to exceed contract limit size. It contains heavy functions and data structures.\n*/\n\nlibrary Delegation_Uils{\n    using EnumerableSet for EnumerableSet.AddressSet;\n    \n    \n    /**\n     * @dev Parameters related to the democratic process of registers governance.\n     *          - Member_Max_Token_Usage: The maximum amount of token a member is allowed to use for a specific law project elaboration\n     *          - Law_Initialisation_Price: The price in token for creating a law project\n     *          - FunctionCall_Price: The price in token for one FunctionCall.\n     *          - Proposition_Duration: The duration of the stage in which members are allowed to submit propositions\n     *          - Vote_Duration: The duration of the stage in which members are allowed to vote for the proposition they want\n     *          - Law_Censor_Period_Duration: The duration of the stage in which all citizens are allowed to sign a etition against the law project proposed by the Delegation\n     *          - Censor_Proposition_Petition_Rate The minimum ratio of citizens required to cancel a law project\n     *          - Censor_Penalty_Rate The amount of token the delegation will lost if their law project is rejected by citizens\n     *          - Ivote_address Address of the IVote contract that will be used during voting stage\n    */\n    struct Law_Project_Parameters{\n        //uint Revert_Penalty_Limit;\n        uint Member_Max_Token_Usage;\n        uint Law_Initialisation_Price;\n        uint FunctionCall_Price; \n        uint Proposition_Duration;\n        uint Vote_Duration;\n        uint Law_Censor_Period_Duration;\n        uint16 Censor_Proposition_Petition_Rate;\n        uint16 Censor_Penalty_Rate;\n        address Ivote_address;\n        //EnumerableSet.AddressSet Associated_Institutions;\n    }\n    \n   \n     \n    /**\n     * @dev Structure reresenting parameters related to the democratic process of registers governance.\n     *          - Election_Duration Duration of the stage in which citizens are allowed to vote for Candidats they prefer\n     *          - Validation_Duration Duration of the stage in which citizens can validate their hased vote by revealing their choice and the salt that has been used for hasing \n     *          - Mandate_Duration Duration of a delegation mandate\n     *          - Immunity_Duration Amount of time after the beginning of a new mandate during which delegation's members can't be revoked\n     *          - Next_Mandate_Max_Members Maximum number of members in the delegation.\n     *          - New_Election_Petition_Rate The minimum ratio of citizens required to revoke the current delegation's members and start a new election\n     *          - Ivote_address Address of the IVote contract that will be used during election stage\n    */\n    struct Mandate_Parameter{\n        uint Election_Duration;\n        uint Validation_Duration;\n        uint Mandate_Duration;\n        uint Immunity_Duration;\n        uint16 Next_Mandate_Max_Members;\n        uint16 New_Election_Petition_Rate;\n        address Ivote_address;\n    }\n    \n    /**\n     * @dev Structure representing a mandate.\n     *          - Members Duration : List of members of the delegation\n     *          - New_Election_Petitions: List of citizens who have signed petition for revoking the current delegation's members.\n     *          - Next_Mandate_Candidats: List of accounts that are candidates for the next election\n     *          - Inauguration_Timestamps: Beginning of current mandate\n     *          - Election_Timestamps: Beginning of election\n     *          - Version: Version of parameters (Id of {Mandate_Parameter} object) used by this mandate\n    */\n    struct Mandate{\n        EnumerableSet.AddressSet Members;\n        EnumerableSet.AddressSet New_Election_Petitions;\n        EnumerableSet.AddressSet Next_Mandate_Candidats;\n        uint Inauguration_Timestamps;\n        uint Election_Timestamps;\n        uint Version;\n    }\n    \n    \n    event Governance_Parameters_Updated();\n    event Legislatif_Parameters_Updated();\n    event New_Candidat(address Candidat);\n    event Remove_Candidat(address Candidat);\n    event Sign();\n    event New_election(bytes32 Vote_key);\n    event New_Mandate();\n    \n    ///@dev Function used for updating parameters related to the democratic process of rmembers election. See {Update_Internal_Governance] function of {Delegation} or {IDelegation} contract\n    function Update_Mandate_Parameter(Mandate_Parameter storage mandate_param, uint Election_Duration, uint Validation_Duration, uint Mandate_Duration, uint Immunity_Duration,\n        uint16 Next_Mandate_Max_Members, uint16 New_Election_Petition_Rate, address Ivote_address) external {\n            mandate_param.Election_Duration = Election_Duration;\n            mandate_param.Validation_Duration = Validation_Duration;\n            mandate_param.Mandate_Duration = Mandate_Duration;\n            mandate_param.Immunity_Duration = Immunity_Duration;\n            mandate_param.Next_Mandate_Max_Members = Next_Mandate_Max_Members;\n            mandate_param.New_Election_Petition_Rate = New_Election_Petition_Rate;\n            mandate_param.Ivote_address = Ivote_address;\n            \n            emit Governance_Parameters_Updated();\n        }\n        \n        ///@dev Function used for updating parameters related to the democratic process of registers governance. See {Update_Legislatif_Process] function of {Delegation} or {IDelegation} contract\n        function Update_Law_Parameters(Law_Project_Parameters storage projet_param, uint[6] calldata Uint256_Legislatifs_Arg, uint16 Censor_Proposition_Petition_Rate, \n         uint16 Censor_Penalty_Rate, address Ivote_address) external {\n             projet_param.Member_Max_Token_Usage = Uint256_Legislatifs_Arg[0];\n             projet_param.Law_Initialisation_Price = Uint256_Legislatifs_Arg[1];\n             projet_param.FunctionCall_Price = Uint256_Legislatifs_Arg[2];\n             projet_param.Proposition_Duration = Uint256_Legislatifs_Arg[3];\n             projet_param.Vote_Duration = Uint256_Legislatifs_Arg[4];\n             projet_param.Law_Censor_Period_Duration = Uint256_Legislatifs_Arg[5];\n             projet_param.Censor_Proposition_Petition_Rate = Censor_Proposition_Petition_Rate;\n             projet_param.Censor_Penalty_Rate = Censor_Penalty_Rate;\n             projet_param.Ivote_address = Ivote_address;\n             \n             emit Legislatif_Parameters_Updated();\n        }\n    \n    \n        /**\n         * @dev Function called by {End_Election} function of {Delegation} Contract to end the current contract and start a new one.\n         * @param Mandates mapping of Mandate structure idexed by uint corresponding to their order of apparition\n         * @param ivote_address Address of IVote contract used by citizens to vote during election.\n         * @param last_mandate_num Index in {Mandates} mapping of the last mandate\n         * @param Internal_Governance_Version Version of Parameters ({Mandate_Parameter} structur) u.sed by the current mandate\n         * */\n    function Transition_Mandate(mapping (uint=>Mandate) storage Mandates, address ivote_address, uint last_mandate_num, uint Internal_Governance_Version) external{\n        uint new_mandate_num=last_mandate_num+1;\n        uint[] memory results;\n        IVote Vote_Instance = IVote(ivote_address);\n        results = Vote_Instance.Get_Winning_Propositions(keccak256(abi.encodePacked(address(this),Mandates[last_mandate_num].Election_Timestamps)));\n        \n        if(results[0]==0){\n            uint actual_member_length = Mandates[last_mandate_num].Members.length();\n            for(uint i =0; i<actual_member_length; i++){\n                Mandates[new_mandate_num].Members.add(Mandates[last_mandate_num].Members.at(i));\n            }\n        }else{\n            for(uint i =0; i<results.length; i++){\n                Mandates[new_mandate_num].Members.add(Mandates[last_mandate_num].Next_Mandate_Candidats.at(results[i]-1));\n            }\n        }\n        \n        Mandates[new_mandate_num].Inauguration_Timestamps = block.timestamp;\n        Mandates[new_mandate_num].Version = Internal_Governance_Version;\n        emit New_Mandate();\n    }\n    \n    /**\n     * @dev Function called by {Candidate_Election} function of {Delegation} contract to add a new account to the list of candidats for next election\n     * @param mandate Current Mandate object\n     * @param new_candidat Account to add to the list of candidats\n    */\n    function Add_Candidats(Mandate storage mandate, address new_candidat)external{\n        require(!mandate.Next_Mandate_Candidats.contains(new_candidat), \"Already Candidate\");\n        mandate.Next_Mandate_Candidats.add(new_candidat);\n        emit New_Candidat(new_candidat);\n    \n    }\n    \n    /**\n     * @dev Function called by {Remove_Candidature} function of {Delegation} contract to remove an account from the list of candidats for next election\n     * @param mandate Current Mandate object\n     * @param remove_candidat Account to remove from the list of candidats\n    */\n    function Remove_Candidats(Mandate storage mandate, address remove_candidat)external{\n        require(mandate.Next_Mandate_Candidats.contains(remove_candidat), \"Not Candidate\");\n        mandate.Next_Mandate_Candidats.remove(remove_candidat);\n        emit Remove_Candidat(remove_candidat);\n    }\n    \n    /**\n     * @dev Function called by {Sign_New_Election_Petition} function of {Delegation} contract to add an account to list petition for revoking current delegation members\n     * @param mandate Current Mandate object\n     * @param Immunity_Duration Amount of time after the beginning of a new mandate during which delegation's members can't be revoked\n     * @param signer Address of account who want to sign the petition\n    */\n    function Sign_Petition(Mandate storage mandate, uint Immunity_Duration, address signer)external{\n        require(block.timestamp - mandate.Inauguration_Timestamps > Immunity_Duration, \"Immunity Period\");\n        require(!mandate.New_Election_Petitions.contains(signer), \"Already signed petition\");\n        mandate.New_Election_Petitions.add(signer);\n        emit Sign();\n    }\n    \n    /**\n     * @dev Function called by {New_Election} function of {Delegation} contract to start a new election\n     * @param Mandates mapping of Mandate structure idexed by uint corresponding to their order of apparition\n     * @param mandate_version Mandate_Parameter object corresponding to parameters that are used by current mandate\n     * @param num_mandate Index of the current mandate in the {Mandates} mapping\n     * @param citizen_register_address Address of {Citizens_Register} contract used in the current project to handle citizens registration \n    */\n    function New_Election(mapping(uint=>Mandate) storage Mandates, Mandate_Parameter storage mandate_version, uint num_mandate, address citizen_register_address)external returns(bool new_election){\n        uint candidats_number = Mandates[num_mandate].Next_Mandate_Candidats.length();\n        Citizens_Register citizen = Citizens_Register(citizen_register_address);\n        require(candidats_number>0, \"No Candidats\");\n        require(Mandates[num_mandate].New_Election_Petitions.length() >= Percentage(mandate_version.New_Election_Petition_Rate, citizen.Get_Citizen_Number()) || (block.timestamp - Mandates[num_mandate].Inauguration_Timestamps) > mandate_version.Mandate_Duration, \"New election impossible for now\");\n        if(candidats_number <= mandate_version.Next_Mandate_Max_Members){\n            uint new_mandate_num = num_mandate+1;\n            for(uint i =0; i<candidats_number; i++){\n                Mandates[new_mandate_num].Members.add(Mandates[num_mandate].Next_Mandate_Candidats.at(i));\n            }\n            Mandates[new_mandate_num].Inauguration_Timestamps = block.timestamp;\n            \n            emit New_Mandate();\n            return false;\n        }else{\n            Mandates[num_mandate].Election_Timestamps = block.timestamp;\n            IVote Vote_Instance = IVote(mandate_version.Ivote_address);\n            bytes32 key = keccak256(abi.encodePacked(address(this),block.timestamp));\n            emit New_election(key);\n            Vote_Instance.Create_Ballot(key, citizen_register_address, Citizens_Register(citizen_register_address).Contains_Function_Selector(), mandate_version.Election_Duration, mandate_version.Validation_Duration, candidats_number, mandate_version.Next_Mandate_Max_Members);\n           \n            return true;\n        }\n        \n    }\n    \n    /**\n     * @dev Function called by the constructor function of {Delegation} contract to start the first mandate.\n     * @param mandate Current Mandate object \n     * @param Initial_members Members of the first Delegation\n    */\n    function Set_First_Mandate(Mandate storage mandate, address[] memory Initial_members)external{\n        mandate.Inauguration_Timestamps = block.timestamp;\n        for(uint i=0; i<Initial_members.length; i++){\n            mandate.Members.add(Initial_members[i]);\n        }\n        mandate.Version= 1;\n    }\n    \n    /*function Set_Legislatif_Process_Param(uint[6] calldata Uint256_Legislatifs_Arg, uint16 Censor_Proposition_Petition_Rate, uint16 Censor_Penalty_Rate, address Ivote_address, uint version)external{\n        this.Law_Parameters_Versions[version].Member_Max_Token_Usage = Uint256_Legislatifs_Arg[0];\n        this.Law_Parameters_Versions[version].Law_Initialisation_Price = Uint256_Legislatifs_Arg[1];\n        this.Law_Parameters_Versions[version].FunctionCall_Price = Uint256_Legislatifs_Arg[2];\n        this.Law_Parameters_Versions[version].Proposition_Duration = Uint256_Legislatifs_Arg[3];\n        this.Law_Parameters_Versions[version].Vote_Duration = Uint256_Legislatifs_Arg[4];\n        this.Law_Parameters_Versions[version].Law_Censor_Period_Duration = Uint256_Legislatifs_Arg[5];\n        this.Law_Parameters_Versions[version].Censor_Proposition_Petition_Rate = Censor_Proposition_Petition_Rate;\n        this.Law_Parameters_Versions[version].Censor_Penalty_Rate = Censor_Penalty_Rate;\n        this.Law_Parameters_Versions[version].Ivote_address = Ivote_address;\n    }*/\n    \n    \n    /** \n     * @dev Utility function for computing Percentage.\n     * @param ratio The ratio is represented with 2 decimals\n     * @param base The base's number of decimal is arbitrary\n     * @return Return the {ratio}% of {base}. The result is represented with the number of decimals of {base} \n    */\n    function Percentage(uint16 ratio, uint base) internal pure returns(uint){\n        return (ratio*base)/10000 ;// ((ratio*base)/100) * 10^(-ratio_decimals)\n    }\n}\n\n\n\n\n/**\n * @dev Delegation contract is an implementation of IDelegation and thus aims at implementing a governance system in which a group of elected accounts is allowed to rule one or more controled registers contract. \n*/\n\n contract Delegation is Institution, IDelegation{// Initiative_Legislative{\n    using EnumerableSet for EnumerableSet.AddressSet;\n    using SafeMath for uint;\n    using Initiative_Legislative_Lib for Initiative_Legislative_Lib.Law_Project;\n    using Delegation_Uils for Delegation_Uils.Mandate_Parameter;\n    using Delegation_Uils for Delegation_Uils.Mandate;\n    using Delegation_Uils for Delegation_Uils.Law_Project_Parameters;\n    /*using Delegation_Uils for Delegation_Uils.Controlable_Register;\n    using Delegation_Uils for Delegation_Uils.Delegation_Law_Project;\n    using Delegation_Uils for Delegation_Uils.Status;*/\n    \n    /**\n     * @dev status of a law project\n     */\n    enum Status{\n        PROPOSITION,\n        VOTE,\n        CENSOR_LAW_PERIOD,\n        ADOPTED,\n        EXECUTED,\n        ABORTED\n    }\n    \n    /**\n     * @dev Structure representing parameters related to the democratic process of registers governance. \n     * \n     * - Member_Max_Token_Usage: The maximum amount of token a member is allowed to use for a law project elaboration\n     * - Law_Initialisation_Price: The price in token for creating a law project\n     * - FunctionCall_Price: The price in token for one FunctionCall.\n     * - Proposition_Duration: The duration of the stage in which members are allowed to submit propositions\n     * - Vote_Duration: The duration of the stage in which members are allowed to vote for the proposition they want\n     * - Law_Censor_Period_Duration: The duration of the stage in which all citizens are allowed to sign a etition against the law project proposed by the Delegation\n     * - Censor_Proposition_Petition_Rate The minimum ratio of citizens required to cancel a law project\n     * - Censor_Penalty_Rate Ratio of total amount of token belonged by the delegation that will be lost if a law project is rejected by citizens\n     * - Ivote_address Address of the IVote contract that will be used during voting stage\n     */\n    struct Law_Project_Parameters{\n        //uint Revert_Penalty_Limit;\n        uint Member_Max_Token_Usage;\n        uint Law_Initialisation_Price;\n        uint FunctionCall_Price; \n        uint Proposition_Duration;\n        uint Vote_Duration;\n        uint Law_Censor_Period_Duration;\n        uint16 Censor_Proposition_Petition_Rate;\n        uint16 Censor_Penalty_Rate;\n        address Ivote_address;\n        //EnumerableSet.AddressSet Associated_Institutions;\n    }\n    \n    /**\n     * @dev Structure representing {Register} contract that are controled by the Delegation\n     *  - Active: Whether the register is still under the actual Delegation control in the Constitution.\n     *  - Law_Project_Counter: Number of pending law project related to this register\n     * The Register can't be removed from delegation's control if there are pending law project related to it. However if {Active} field is false, then we can't start a new law project whose controled register is the current one.\n    */\n    struct Controlable_Register{\n        bool Active;                \n        uint Law_Project_Counter;\n    }\n    \n     /**\n     * @dev Structure representing a law project\n     *  - Institution_Address: Address of register being concerned by this law project\n     *  - Law_Project_Status: Status ({Status} structure) of the law project \n     *  - Version: Version of Parameters ({Law_Project_Parameters} structure) used by the current law project\n     *  - Creation_Timestamp: Beginning of current law project\n     *  - Start_Vote_Timestamps: Beginning of voting stage \n     *  - Start_Censor_Law_Period_Timestamps: Beginning of law project censorable stage\n     *  - Law_Total_Potentialy_Lost: Amount of token that could be lost in penalty fee if all pending law project were to be censored by citizens petition\n     *  - Censor_Law_Petition_Counter: Number of citizens that have signed the petition to censor the current law project\n     *  - Censor_Law_Petitions: List of citizens that have signed the petition to censor the current law project\n     *  - Members_Token_Consumption: Mapping of the amount of token consummed by each member of the delegation\n    */\n    struct Delegation_Law_Project{\n        address Institution_Address;\n        Status Law_Project_Status;\n        uint Version;\n        uint Creation_Timestamp;\n        uint Start_Vote_Timestamps;\n        uint Start_Censor_Law_Period_Timestamps;\n        uint Law_Total_Potentialy_Lost;\n        uint Censor_Law_Petition_Counter;\n        mapping(address=>bool) Censor_Law_Petitions;\n        mapping(address=>uint) Members_Token_Consumption;\n    }\n    \n    \n    modifier Citizen_Only{\n        require(Citizens.Contains(msg.sender),\"Citizen Only\");\n        _;\n    }\n    \n    modifier Delegation_Only{\n        require(Mandates[Actual_Mandate].Members.contains(msg.sender), \"Delegation Only\");\n        _;\n    }\n    \n    event Governance_Parameters_Updated();\n    event Legislatif_Parameters_Updated();\n    event New_Candidat(address Candidat);\n    event Remove_Candidat(address Candidat);\n    event Sign();\n    event New_election(bytes32 Vote_key);\n    event New_Mandate();\n    \n    event Controled_Register_Added(address register);\n    event Controled_Register_Canceled(address register);\n    event Controled_Register_Removed(address register);\n    event New_Law(bytes32 key);\n    event New_Proposal(bytes32 key, uint proposal_index);\n    event Proposal_Modified(bytes32 key, uint proposal_index);\n    event Voting_Stage_Started(bytes32 law_project, bytes32 key);\n    event Voting_Stage_Achieved(bytes32 key);\n    event Law_Aborted(bytes32 key);\n    event Law_Adopted(bytes32 key);\n    event Law_executed(bytes32 key);\n    event Function_Call_Executed( bytes32 key, uint num_function_call_ToExecute);\n    \n    \n    \n    //event New_Proposal(bytes32 key, uint num);\n    \n    /// @dev function selector of {Contains} function used to check Whether an account is member of the delegation\n    bytes4 constant Contains_Function_Selector = 0x57f98d32;\n    \n    ///@dev Instance of the {DemoCoin} token used by the Project\n    DemoCoin Democoin;\n    \n    ///@dev Instance of the {Citizens_Register} contract used by the Project\n    Citizens_Register Citizens;\n    \n    //dev Address of the {Agora} contract used by the Project\n    address Agora_address;\n    \n    ///@dev Total amount of token potentially lost via penalty fee. \n    uint Potentialy_Lost_Amount;\n    \n    /*Legislatif Process*/\n    \n    /** @dev Mapping of {Law_Project} structure ({Initiative_Legislative_Lib} library)\n     * \n     * */\n    mapping(bytes32 => Initiative_Legislative_Lib.Law_Project) public List_Law_Project;\n    \n    ///@dev Mapping of Registers ({Controlable_Register} structure) that can receive orders from the actual Delegation\n    mapping(address=>Controlable_Register) public Controled_Registers;\n    /// @dev List of Controled Registers\n    EnumerableSet.AddressSet List_Controled_Registers;\n    \n    ///@dev Mapping of {Delegation_Law_Project} structure corresponding to law project of delegation (pending, aborted and passed)\n    mapping(bytes32=>Delegation_Law_Project) public Delegation_Law_Projects;\n    ///@dev List of law projects\n    bytes32[] List_Delegation_Law_Projects;\n    ///@dev Mapping of versions of Parameters ({Law_Project_Parameters} of {Delegation_Uils} library) used for law project process\n    mapping(uint=>Delegation_Uils.Law_Project_Parameters) public Law_Parameters_Versions;\n    \n    \n    \n    /*Internal Governance*/\n    ///@dev Mapping of {Mandate} structure ({Delegation_Uils} library) corresponding to mandates of delegation (pending and passed)\n    mapping(uint=>Delegation_Uils.Mandate) Mandates;\n    ///@dev Mapping of versions of Parameters ({Mandate_Parameter} of {Delegation_Uils} library) used for delegation internal governance.\n    mapping(uint=>Delegation_Uils.Mandate_Parameter) public Mandates_Versions;\n    \n    \n    ///@dev Current version of parameters related to law project process \n    uint Legislatif_Process_Version;\n    ///@dev Current version of parameters related to delegation internal governance\n    uint Internal_Governance_Version;\n    /// @dev Id in {Mandate} mapping  of the current mandate \n    uint Actual_Mandate;\n    /// @dev Boolean set whether we are in election stage or not.\n    bool In_election_stage;\n    \n    \n     /** \n     * @param Name name of the Institution\n     * @param Initial_members List of initial members of the delegation \n     * @param token_address Address of {DemoCoin} token that will be used to transfert initial token amount to new registered citizens \n     * @param citizen_address Address of the {Citizens_Register} contract used in the Project \n     * @param agora_address Address of the {Agora} contract used in the project.\n    */\n    constructor(string memory Name, address[] memory Initial_members, address token_address, address citizen_address, address agora_address) Institution(Name) {\n        Type_Institution = Institution_Type.DELEGATION;\n        Democoin = DemoCoin(token_address);\n        Citizens = Citizens_Register(citizen_address);\n        Agora_address = agora_address;\n        \n        Mandates[0].Set_First_Mandate( Initial_members);\n        /*Mandates[1].Inauguration_Timestamps = block.timestamp;\n        for(uint i=0; i<Initial_members.length; i++){\n            Mandates[1].Members.add(Initial_members[i]);\n        }\n        Mandates[1].Version= 0;*/\n        //Actual_Mandate = 1;\n    }\n    \n    \n    /*Members Election related functions*/\n    \n    /** \n     * @dev Function called by a citizen who wish to candidate to next mandate's elections.\n    */\n    function Candidate_Election() external override Citizen_Only{\n        require(!In_election_stage, \"Election Time\");\n        Mandates[Actual_Mandate].Add_Candidats(msg.sender);\n        emit New_Candidat(msg.sender);\n        /*uint num_mandate = Actual_Mandate;\n        require(!Mandates[num_mandate].Next_Mandate_Candidats.contains(msg.sender), \"Already Candidate\");\n        Mandates[num_mandate].Next_Mandate_Candidats.add(msg.sender);*/\n    }\n    \n     /** \n     * @dev Function called by a citizen who wish to remove his candidature from next mandate's elections.\n    */\n    function Remove_Candidature()external override{\n        require(!In_election_stage, \"Election Time\");\n        Mandates[Actual_Mandate].Remove_Candidats(msg.sender);\n        emit Remove_Candidat(msg.sender);\n        /*uint num_mandate = Actual_Mandate;\n        require(Mandates[num_mandate].Next_Mandate_Candidats.contains(msg.sender), \"Not Candidate\");\n        require(!In_election_stage, \"Election Time\");\n        Mandates[num_mandate].Next_Mandate_Candidats.remove(msg.sender);*/\n    }\n    \n    /** \n     * @dev When the current mandate duration is over or if the {New_Election_Petition_Rate} (see {Mandate} struct of {Delegation_Uils} library) is reached, any citizen can call this function to start a new election\n    */\n    function New_Election() external override Citizen_Only {\n        require(!In_election_stage, \"An Election is Pending\");\n        uint num_mandate = Actual_Mandate;\n        if(Delegation_Uils.New_Election(Mandates,Mandates_Versions[Mandates[num_mandate].Version], num_mandate, address(Citizens))){\n            In_election_stage= true;\n            emit New_election(keccak256(abi.encodePacked(address(this),block.timestamp)));\n        }else{\n            uint new_mandate_num = num_mandate+1;\n            Actual_Mandate = new_mandate_num;\n            Mandates[new_mandate_num].Version = Internal_Governance_Version;\n            emit New_Mandate();\n        }\n        \n        //Mandates[num_mandate].New_Election(Mandates_Versions[Mandates[num_mandate].Version], Citizens.Get_Citizen_Number(), num_mandate, Contains_Function_Selector);\n        //In_election_stage=true;\n        /*uint num_mandate = Actual_Mandate;\n        uint version = Mandates[num_mandate].Version;\n    \n        require(Mandates[num_mandate].New_Election_Petitions.length() >= Percentage(Mandates_Versions[version].New_Election_Petition_Rate, Citizens.Get_Citizen_Number()) || block.timestamp.sub(Mandates[num_mandate].Inauguration_Timestamps) > Mandates_Versions[version].Mandate_Duration, \"New election impossible for now\");\n            \n        IVote Vote_Instance = IVote(Law_Parameters_Versions[version].Ivote_address);\n        Vote_Instance.Create_Ballot(keccak256(abi.encodePacked(address(this),num_mandate)), address(this), Contains_Function_Selector, Mandates_Versions[version].Election_Duration, Mandates_Versions[version].Validation_Duration, Mandates[num_mandate].Next_Mandate_Candidats.length(), Mandates_Versions[version].Num_Max_Members);\n        In_election_stage=true;*/\n    }\n    \n    \n    /** \n     * @dev Function can be called by a citizen to sign petition for a new election\n    */\n    function Sign_New_Election_Petition() external override Citizen_Only{\n        uint num_mandate = Actual_Mandate;\n        Mandates[num_mandate].Sign_Petition(Mandates_Versions[Mandates[num_mandate].Version].Immunity_Duration, msg.sender);\n        emit Sign();\n        /*require(block.timestamp.sub(Mandates[num_mandate].Inauguration_Timestamps) > Mandates_Versions[Mandates[num_mandate].Version].Immunity_Duration);\n        require(!Mandates[num_mandate].New_Election_Petitions.contains(msg.sender), \"Already signed petition\");\n        Mandates[num_mandate].New_Election_Petitions.add(msg.sender);*/\n    }\n    \n    /*function End_Election()external{\n        uint num_mandate = Actual_Mandate;\n        uint new_num_mandate = num_mandate.add(1);\n        uint[] memory results;\n        IVote Vote_Instance = IVote(Law_Parameters_Versions[Mandates[num_mandate].Version].Ivote_address);\n        results = Vote_Instance.Get_Winning_Propositions(keccak256(abi.encodePacked(address(this),num_mandate)));\n        for(uint i =0; i<results.length; i++){\n            Mandates[new_num_mandate].Members.add(Mandates[num_mandate].Next_Mandate_Candidats.at(results[i]));\n        }\n        Mandates[new_num_mandate].Inauguration_Timestamps = block.timestamp;\n        Mandates[num_mandate].Version=Internal_Governance_Version;\n        Actual_Mandate = new_num_mandate;\n        In_election_stage=false;\n    }*/\n    \n    /** \n     * @dev When voting stage is over, any citizen can call this function to end the election and start a new mandate.\n    */\n    function End_Election()external override {\n    \n        require(In_election_stage, \"Not in Election time\");\n        uint num_mandate = Actual_Mandate;\n        //uint new_num_mandate = num_mandate.add(1);\n          \n        In_election_stage=false;\n        Actual_Mandate = num_mandate + 1;\n        emit New_Mandate();\n        Delegation_Uils.Transition_Mandate(Mandates, Mandates_Versions[Mandates[num_mandate].Version].Ivote_address, num_mandate, Internal_Governance_Version);\n        \n    }\n    \n    \n    \n    \n    /*Legislatif Process related functions*/\n    \n    /** \n     * @dev Function can be called by a delegation member to submit a new law project. This function put {Law_Initialisation_Price} (see {Law_Project_Parameters} struct of {Delegation_Uils library}) DemoCoin token of Delegation contract in Escrow.\n     * @param register_address Address of the register contract the law project is about. Must be contained in Controled_Registers mapping.\n     * @param Title Title of the law project. Can be an hash.\n     * @param Description Text explaining the spirit and generals goals of the law project. Can be an hash.\n    */\n    function Add_Law_Project(address register_address, bytes calldata Title, bytes calldata Description)external override Delegation_Only{\n        //_Update_Law_Project();\n        require(Controled_Registers[register_address].Active, \"Register Not Controled\");\n        \n        bytes32 key = keccak256(abi.encode(Title,Description));\n        require(Delegation_Law_Projects[key].Version==0,\"Law project already created\");\n        \n        uint version =Legislatif_Process_Version;\n        Delegation_Law_Projects[key].Version = version;\n        Token_Consumption_Handler(msg.sender, Law_Parameters_Versions[version].Law_Initialisation_Price, key);\n        \n        \n        Delegation_Law_Projects[key].Institution_Address = register_address;\n        Delegation_Law_Projects[key].Creation_Timestamp = block.timestamp;\n        \n        List_Delegation_Law_Projects.push(key);\n        \n        List_Law_Project[key].Title = Title;\n        List_Law_Project[key].Description = Description;\n        \n        Controled_Registers[register_address].Law_Project_Counter++;\n        \n        emit New_Law(key);\n        //List_Law_Project[key].Add_Law_Project(Title, Description);\n        //Add_Law_Project(Title,  Description, key);\n    }\n    \n     /** \n     * @dev Function can be called by a delegation member to submit a corpus of function calls propositions to an existing pending law project. This function put in Escrow {FunctionCall_Price} (see {Law_Project_Parameters} struct of {Delegation_Uils library}) DemoCoin token\n     * multiplied by the number of function call contained in the proposition.\n     * @param law_project Id of the law project hte caller wants to add a proposition to. The Id is obtained by hashing the Title with the Description of the law project.\n     * @param Parent Proposition Id the caller wants to attach his proposition to. It's the parent proposition in the proposal tree. If there isn't any proposition in the tree we want to attach the new proposition to, we set Parent to 0\n     * @param Parent_Proposals_Reuse List of Parent's function calls index we want to reuse in the new proposition. Function calls are ordered in the order we want them to be executed. 0 elements correspond to new function calls that have to be added by the caller in {New_Function_Call} argument.\n     * @param New_Function_Call List of new function calls added by the caller. For each element of the New_Function_Call array, caller must set a 0 element in {Parent_Proposals_Reuse} array at the index he want the custom function call to be positioned \n     * @param Description Text to justify the new proposal. Can be an hash.\n    */\n    function Add_Proposal(bytes32 law_project, uint Parent, uint[] calldata Parent_Proposals_Reuse, bytes[] calldata New_Function_Call, bytes calldata Description) external override Delegation_Only{\n        require(Delegation_Law_Projects[law_project].Law_Project_Status == Status.PROPOSITION, \"Not at PROPOSITION status\");\n        uint version = Delegation_Law_Projects[law_project].Version;\n        require( version != 0, \"No existing Law Project\");\n        \n        Token_Consumption_Handler(msg.sender, Law_Parameters_Versions[version].FunctionCall_Price.mul(New_Function_Call.length), law_project);\n        uint proposal_index = List_Law_Project[law_project].Proposal_Count.add(1);\n        List_Law_Project[law_project].Proposals_Tree[proposal_index].Author = msg.sender;\n       // Add_Corpus_Proposal( law_project, Parent, Parent_Proposals_Reuse, New_Function_Call, Description) ;\n       List_Law_Project[law_project].Add_Corpus_Proposal(Parent, Parent_Proposals_Reuse, New_Function_Call, Description);\n       emit New_Proposal( law_project, proposal_index);\n    }\n    \n    /** \n     * @dev Function can be called by a delegation member to modify a proposition that he has already created (He have to be the author of the proposition). \n     * Caller must approve {FunctionCall_Price} (see {Law_Project_Parameters} struct of {Delegation_Uils library}) \n     * multiplied by the number of function call he wants to add to the proposition, token for Delegation contract.\n     * @param law_project Id of the law project the caller wants to add a proposition to. The Id is obtained by hashing the Title with the Description of the law project.\n     * @param Proposal Proposition Id to modify.\n     * @param New_Items Array of new function calls to add to the Proposition.\n     * @param Indexs array of Proposition's function call list indexs to inser new function call (contained in {New_Items}) to. {New_Items} and {Indexs} have the same length.\n    */\n    function Add_Item(bytes32 law_project, uint Proposal, bytes[] calldata New_Items, uint[] calldata Indexs) external override Delegation_Only{\n        require(Delegation_Law_Projects[law_project].Law_Project_Status == Status.PROPOSITION, \"Law Not at PROPOSITION status\");\n        uint version = Delegation_Law_Projects[law_project].Version;\n        require( version != 0, \"No existing Law Project\");\n        \n        Token_Consumption_Handler(msg.sender, Law_Parameters_Versions[version].FunctionCall_Price.mul(New_Items.length), law_project);\n        \n        //Add_Item_Proposal(law_project, Proposal, New_Items, Indexs, msg.sender);\n        List_Law_Project[law_project].Add_Item_Proposal( Proposal, New_Items, Indexs, msg.sender);\n        emit Proposal_Modified(law_project, Proposal);\n    }\n    \n    /**\n     * @dev When the period of proposition submiting is over, any citizen can call this function to start the voting stage. The Id of the ballot corresponding to current law project the IVote contract is computed by hashing {law_project} Id with current block timestamps.\n     * @param law_project Id of the law project the caller wants to add a proposition to. The Id is obtained by hashing the Title with the Description of the law project.\n     */\n    function Start_Vote(bytes32 law_project)external override Delegation_Only{\n        uint version = Delegation_Law_Projects[law_project].Version;\n        require( version != 0, \"No existing Law Project\");\n        require(Delegation_Law_Projects[law_project].Law_Project_Status == Status.PROPOSITION, \"Law Not at PROPOSITION status\");\n        require(block.timestamp.sub(Delegation_Law_Projects[law_project].Creation_Timestamp) > Law_Parameters_Versions[version].Proposition_Duration, \"PROPOSITION stage not finished\");\n        \n        bytes32 key=keccak256(abi.encodePacked(law_project,block.timestamp));\n        Delegation_Law_Projects[law_project].Start_Vote_Timestamps = block.timestamp;\n        Delegation_Law_Projects[law_project].Law_Project_Status = Status.VOTE;\n        \n        emit Voting_Stage_Started(law_project, key);\n        IVote Vote_Instance = IVote(Law_Parameters_Versions[version].Ivote_address);\n        Vote_Instance.Create_Ballot(key, address(this), Contains_Function_Selector, Law_Parameters_Versions[version].Vote_Duration,0, List_Law_Project[law_project].Proposal_Count, 1);\n        \n        \n    }\n    \n     /**\n     * @dev When the voting period is over, any citizen can call this function to end the voting stage. If the winning proposition is the default proposition is the default one (Proposition 0) the law proejct is aborted. Otherwise, the Law Censoring stage is started.\n     * @param law_project Id of the law project the caller wants to add a proposition to. The Id is obtained by hashing the Title with the Description of the law project.\n     */\n    function Achiev_Vote(bytes32 law_project) external override Delegation_Only{\n        //require( version != 0, \"No existing Law Project\");\n        //require(Delegation_Law_Projects[law_project].Law_Project_Status == Status.VOTE, \"Law Not at VOTE status\");\n        //require(block.timestamp.sub(Delegation_Law_Projects[law_project].Start_Vote_Timestamps) > Law_Parameters_Versions[version].Vote_Duration, \"VOTE stage not finished\");\n        \n        IVote Vote_Instance = IVote(Law_Parameters_Versions[Delegation_Law_Projects[law_project].Version].Ivote_address);\n        bytes32 key = keccak256(abi.encodePacked(law_project,Delegation_Law_Projects[law_project].Start_Vote_Timestamps));\n        uint winning_proposal= Vote_Instance.Get_Winning_Proposition_byId(key,0);\n        List_Law_Project[law_project].Winning_Proposal = winning_proposal;\n        \n        if(winning_proposal==0){\n            Delegation_Law_Projects[law_project].Law_Project_Status = Status.ABORTED;\n            emit Law_Aborted(law_project);\n        }else{\n            Delegation_Law_Projects[law_project].Start_Censor_Law_Period_Timestamps = block.timestamp;\n            Delegation_Law_Projects[law_project].Law_Project_Status = Status.CENSOR_LAW_PERIOD;\n            emit Voting_Stage_Achieved(law_project);\n        }\n    }\n    \n    /**\n     * @dev If we are at the Law censor stage, any citizen can call this function to sign the petition for canceling the law project. If the {Censor_Proposition_Petition_Rate} (see {Law_Project_Parameters} structure) is reached, the law project is aborted.\n     * @param law_project Id of the law project the caller wants to add a proposition to. The Id is obtained by hashing the Title with the Description of the law project.\n     */\n    function Censor_Law(bytes32 law_project)external override Citizen_Only{\n\n        require(Delegation_Law_Projects[law_project].Law_Project_Status == Status.CENSOR_LAW_PERIOD, \"Law Not at CENSOR LAW status\");\n        require(!Delegation_Law_Projects[law_project].Censor_Law_Petitions[msg.sender], \"Already Signed\");\n        \n        uint counter =Delegation_Law_Projects[law_project].Censor_Law_Petition_Counter.add(1);\n        Delegation_Law_Projects[law_project].Censor_Law_Petitions[msg.sender]=true;\n        \n        if(counter>= Percentage(Law_Parameters_Versions[Delegation_Law_Projects[law_project].Version].Censor_Proposition_Petition_Rate,  Citizens.Get_Citizen_Number())){ //If the number of censure petitions signatures reach the minimum ratio.\n            uint law_total_potentialy_lost = Delegation_Law_Projects[law_project].Law_Total_Potentialy_Lost;\n            \n            Delegation_Law_Projects[law_project].Law_Project_Status = Status.ABORTED;\n            Potentialy_Lost_Amount = Potentialy_Lost_Amount.sub(law_total_potentialy_lost);\n            Update_Controled_Registers(Delegation_Law_Projects[law_project].Institution_Address);\n            Democoin.transfer(Agora_address,law_total_potentialy_lost);\n            emit Law_Aborted(law_project);\n        }\n        \n        Delegation_Law_Projects[law_project].Censor_Law_Petition_Counter = counter;\n    }\n    \n    /**\n     * @dev If the Law censor period is over and the law project hasn't been rejected by citizens, then any delegation member can call this function to set the law project as ADOPTED (see {Status} enumeration).\n     * @param law_project Id of the law project the caller wants to add a proposition to. The Id is obtained by hashing the Title with the Description of the law project.\n     */\n    function Adopt_Law(bytes32 law_project)external override Delegation_Only{\n        require(Delegation_Law_Projects[law_project].Law_Project_Status == Status.CENSOR_LAW_PERIOD, \"Law Not at CENSOR LAW status\");\n        require(block.timestamp.sub(Delegation_Law_Projects[law_project].Start_Censor_Law_Period_Timestamps) > Law_Parameters_Versions[Delegation_Law_Projects[law_project].Version].Law_Censor_Period_Duration, \"CENSOR LAW PERIOD not over\");\n        \n        Delegation_Law_Projects[law_project].Law_Project_Status = Status.ADOPTED;\n        emit Law_Adopted(law_project);\n    }\n    \n    /**\n     * @dev Once the law project has been adopted (ADOPTED value of {Status} enum) then any delegation member can call this function to execute all or some of the remaining function call of the winning proposition. \n     * For the law project to be fully executed all function call have to be executed.\n     * @param law_project Id of the law project the caller wants to add a proposition to. The Id is obtained by hashing the Title with the Description of the law project.\n     * @param num_function_call_ToExecute Number of function calls to execute.\n     */\n    function Execute_Law(bytes32 law_project, uint num_function_call_ToExecute)external override Delegation_Only nonReentrant{\n        require(Delegation_Law_Projects[law_project].Law_Project_Status == Status.ADOPTED, \"Law Not ADOPTED\");\n        //if(Execute_Winning_Proposal(law_project, num_function_call_ToExecute, Delegation_Law_Projects[law_project].Institution_Address)){\n        emit Function_Call_Executed( law_project, num_function_call_ToExecute);\n        if(List_Law_Project[law_project].Execute_Winning_Proposal(num_function_call_ToExecute, Delegation_Law_Projects[law_project].Institution_Address)){\n            Delegation_Law_Projects[law_project].Law_Project_Status = Status.EXECUTED;\n            Potentialy_Lost_Amount = Potentialy_Lost_Amount.sub(Delegation_Law_Projects[law_project].Law_Total_Potentialy_Lost);\n            Update_Controled_Registers(Delegation_Law_Projects[law_project].Institution_Address);\n            emit Law_executed(law_project);\n        }\n    }\n    \n    \n    \n    \n    /*Constitution_Only Delegation paramters initialisation*/\n    \n    /*function Update_Legislatif_Process(uint Member_Max_Token_Usage, uint Law_Initialisation_Price, uint FunctionCall_Price, uint Proposition_Duration,\n         uint Vote_Duration, uint Law_Censor_Period_Duration, uint16 Censor_Proposition_Petition_Rate, \n         uint16 Censor_Penalty_Rate, address Ivote_address)external Constitution_Only{\n             \n             uint version = Legislatif_Process_Version.add(1);\n             \n             Law_Parameters_Versions[version].Member_Max_Token_Usage = Member_Max_Token_Usage;\n             Law_Parameters_Versions[version].Law_Initialisation_Price = Law_Initialisation_Price;\n             Law_Parameters_Versions[version].FunctionCall_Price = FunctionCall_Price;\n             Law_Parameters_Versions[version].Proposition_Duration = Proposition_Duration;\n             Law_Parameters_Versions[version].Vote_Duration = Vote_Duration;\n             Law_Parameters_Versions[version].Law_Censor_Period_Duration = Law_Censor_Period_Duration;\n             Law_Parameters_Versions[version].Censor_Proposition_Petition_Rate = Censor_Proposition_Petition_Rate;\n             Law_Parameters_Versions[version].Censor_Penalty_Rate = Censor_Penalty_Rate;\n             Law_Parameters_Versions[version].Ivote_address = Ivote_address;\n             \n             Legislatif_Process_Version = version;\n             \n    }*/\n         \n    /**\n     * @dev See {IDelegation} interface\n     */\n    function Update_Legislatif_Process(uint[6] calldata Uint256_Legislatifs_Arg, uint16 Censor_Proposition_Petition_Rate, \n         uint16 Censor_Penalty_Rate, address Ivote_address)external override Constitution_Only{\n             \n             uint version = Legislatif_Process_Version.add(1);\n             Law_Parameters_Versions[version].Update_Law_Parameters(Uint256_Legislatifs_Arg, Censor_Proposition_Petition_Rate, \n            Censor_Penalty_Rate, Ivote_address);\n             \n             /*Law_Parameters_Versions[version].Member_Max_Token_Usage = Uint256_Legislatifs_Arg[0];\n             Law_Parameters_Versions[version].Law_Initialisation_Price = Uint256_Legislatifs_Arg[1];\n             Law_Parameters_Versions[version].FunctionCall_Price = Uint256_Legislatifs_Arg[2];\n             Law_Parameters_Versions[version].Proposition_Duration = Uint256_Legislatifs_Arg[3];\n             Law_Parameters_Versions[version].Vote_Duration = Uint256_Legislatifs_Arg[4];\n             Law_Parameters_Versions[version].Law_Censor_Period_Duration = Uint256_Legislatifs_Arg[5];\n             Law_Parameters_Versions[version].Censor_Proposition_Petition_Rate = Censor_Proposition_Petition_Rate;\n             Law_Parameters_Versions[version].Censor_Penalty_Rate = Censor_Penalty_Rate;\n             Law_Parameters_Versions[version].Ivote_address = Ivote_address;*/\n             \n             Legislatif_Process_Version = version;\n             \n            emit Legislatif_Parameters_Updated();\n    }  \n         \n    /**\n     * @dev See {IDelegation} interface\n     */\n    function Update_Internal_Governance( uint Election_Duration, uint Validation_Duration, uint Mandate_Duration, uint Immunity_Duration,\n        uint16 Num_Max_Members, uint16 New_Election_Petition_Rate, address Ivote_address)external override Constitution_Only{\n            \n            \n            uint version = Internal_Governance_Version.add(1);\n            Mandates_Versions[version].Update_Mandate_Parameter(Election_Duration, Validation_Duration, Mandate_Duration, Immunity_Duration,\n            Num_Max_Members, New_Election_Petition_Rate, Ivote_address);\n         \n            /*Mandates_Versions[version].Election_Duration = Election_Duration;\n            Mandates_Versions[version].Validation_Duration = Validation_Duration;\n            Mandates_Versions[version].Mandate_Duration = Mandate_Duration;\n            Mandates_Versions[version].Immunity_Duration = Immunity_Duration;\n            Mandates_Versions[version].Num_Max_Members = Num_Max_Members;\n            Mandates_Versions[version].New_Election_Petition_Rate = New_Election_Petition_Rate;\n            Mandates_Versions[version].Ivote_address = Ivote_address;*/\n            \n            Internal_Governance_Version = version;\n            emit Governance_Parameters_Updated();\n    }\n         \n         \n    \n    /**\n     * @dev See {IDelegation} interface\n     * */\n    function Add_Controled_Register(address register_address) external override Constitution_Only {\n        require(!Controled_Registers[register_address].Active, \"Register already Controled\");\n        Controled_Registers[register_address].Active = true;\n        List_Controled_Registers.add(register_address);\n        emit Controled_Register_Added(register_address);\n    \n    }\n    \n    /**\n     * @dev See {IDelegation} interface\n     * */\n    function Remove_Controled_Register(address register_address) external override Constitution_Only {\n        require(Controled_Registers[register_address].Active, \"Register Not Controled\");\n        Controled_Registers[register_address].Active = false;\n        \n        if(Controled_Registers[register_address].Law_Project_Counter ==0){\n            Register(register_address).Remove_Authority(address(this));\n            List_Controled_Registers.remove(register_address);\n            emit Controled_Register_Removed(register_address);\n        }else{\n            emit Controled_Register_Canceled(register_address);\n        }\n    }\n    \n    \n    \n    /*Utils*/\n\n    /*function _Update_Law_Project() internal{\n        IConstitution_Delegation constitution = IConstitution_Delegation(Constitution_Address);\n        uint new_version = constitution.Get_Delegation_Legislatif_Process_Versions(address(this));\n        uint[6] memory Temp;\n        if(new_version>Legislatif_Process_Version){\n            \n            (Temp, Law_Parameters_Versions[new_version].Censor_Proposition_Petition_Rate, Law_Parameters_Versions[new_version].Censor_Penalty_Rate) = constitution.Get_Delegation_Legislation_Process(address(this));\n            \n            Law_Parameters_Versions[new_version].Member_Max_Token_Usage = Temp[0];\n            Law_Parameters_Versions[new_version].Law_Initialisation_Price = Temp[1];\n            Law_Parameters_Versions[new_version].FunctionCall_Price = Temp[2];\n            Law_Parameters_Versions[new_version].Proposition_Duration = Temp[3];\n            Law_Parameters_Versions[new_version].Vote_Duration = Temp[4];\n            Law_Parameters_Versions[new_version].Law_Censor_Period_Duration = Temp[5];\n        }\n        Legislatif_Process_Version = new_version;\n    }*/\n    \n\n    /**\n     * @notice Handle token consumption in the context of law project elaboration\n     * @dev The function: check that:\n     *              - check that the member's max token consumption limit for the current law project isn't exceeded by the sender\n     *              - check that the Delegation has enough funds to afford penalties if current pending were to be reverted by citizens.\n     *              - Update the value of the amount of token consumed by the sender for the law project identified by \"key\".\n     *              - Update the \"Law_Total_Potentialy_Lost\" field of the corresponding \"Delegation_Law_Project\" struct.\n     *              - Update the \"Potentialy_Lost_Amount\" state variable\n     * \n     * @param sender Address of the sender of the transaction\n     * @param amount Amount of DemoCoin sent in the transaction\n     * @param key Id of the law project \n     * */\n    function Token_Consumption_Handler(address sender, uint amount, bytes32 key) internal{\n        \n        uint version = Delegation_Law_Projects[key].Version;\n        require(Delegation_Law_Projects[key].Members_Token_Consumption[sender] +amount <= Law_Parameters_Versions[version].Member_Max_Token_Usage, \"Member consumption exceeded\");\n        \n        \n        uint amount_potentialy_lost = Percentage(Law_Parameters_Versions[version].Censor_Penalty_Rate, amount);\n        uint new_potentialy_lost_amount = Potentialy_Lost_Amount.add(amount_potentialy_lost);\n        require(new_potentialy_lost_amount <= Democoin.balanceOf(address(this)), \"No enough colaterals funds\");\n\n        Delegation_Law_Projects[key].Members_Token_Consumption[sender] += amount;\n        Delegation_Law_Projects[key].Law_Total_Potentialy_Lost = Delegation_Law_Projects[key].Law_Total_Potentialy_Lost.add(amount_potentialy_lost);\n        Potentialy_Lost_Amount = new_potentialy_lost_amount;\n    }\n    \n    /**\n     * @dev Decrease the counter (\"Law_Project_Counter\" field of Controlable_Register struct) of pending law project related to the register of address \"institution_address\". If the counter becomes null and the \"Actual\" field of Controlable_Registers struct is false,\n     * then the corresponding register is removed from List_Controled_Registers and the delegation removes it self from the register's Authorithies list (\"Register_Authorities\" state variable)\n     * @param institution_address Address of the controled register to be updated.\n    */\n    function Update_Controled_Registers(address institution_address) internal{\n        //address institution_address = Law_Projects[law_project].Institution_Address;\n        uint counter = Controled_Registers[institution_address].Law_Project_Counter.sub(1);\n        Controled_Registers[institution_address].Law_Project_Counter = counter;\n        if(counter==0 && !Controled_Registers[institution_address].Active){\n            Register(institution_address).Remove_Authority(address(this));\n            List_Controled_Registers.remove(institution_address);\n        }\n       \n    }\n    \n   \n    \n    /*Getters*/\n    /**\n     * @dev See {IDelegation} interface\n     *  \n     */\n    function Contains(address member_address) external view override returns(bool contain){\n      return Mandates[Actual_Mandate].Members.contains(member_address);\n    }\n    \n    /**\n     * @dev Get 2 arrays:\n     *    - The list of law project Id \n     *    - The list of controled Register\n     * @return Law_Project_List List of law project (pending, executed and aborted)\n     * @return Controled_Register List of register address (represented in bytes32) whose contract is under Delegation control\n     */\n    function Get_List_Law_Register()external view returns(bytes32[] memory Law_Project_List, bytes32[] memory Controled_Register ){\n        return (List_Delegation_Law_Projects, List_Controled_Registers._inner._values);\n    }\n    \n    /**\n     * @dev Get informations about a mandate\n     * @param Id Id of the mandate\n     * @return version Parameter Version used for this mandate\n     * @return Inauguration_Timestamps Inauguration_Timestamps: Beginning of current mandate\n     * @return Election_Timestamps Beginning of election\n     * @return New_Election_Petition_Number Number of signatures obtained for revoking the delegation members related to {Id} Mandate\n     * @return Members Array of {Id} mandate delegation member's address (represented in bytes32)\n     * @return Candidats Array candidats address (represented in bytes32)\n     */\n    function Get_Mandate(uint Id)external view returns(uint version, uint Inauguration_Timestamps, uint Election_Timestamps, uint New_Election_Petition_Number, bytes32[] memory Members, bytes32[] memory Candidats){\n        version = Mandates[Id].Version;\n        Inauguration_Timestamps = Mandates[Id].Inauguration_Timestamps;\n        Election_Timestamps= Mandates[Id].Election_Timestamps;\n        New_Election_Petition_Number=Mandates[Id].New_Election_Petitions.length();\n        Members = Mandates[Id].Members._inner._values;\n        Candidats = Mandates[Id].Next_Mandate_Candidats._inner._values;\n    }\n    \n    /**\n     * @dev Get the amount of DemoCoin token owned by the Delegation and used by a Delegation member for a specific delegation law project.\n     * @param key Id of law project\n     * @param member Address of delegation member \n     * @return amount Amount of token used by {member} address for {key} law project\n     * \n     */\n    function Get_Member_Amount_Consumed(bytes32 key, address member)external view returns(uint amount){\n        return Delegation_Law_Projects[key].Members_Token_Consumption[member];\n    }\n \n    /**\n     * @dev Get various Delegation state variables values.\n     * @return legislatif_process_version Current version of parameters related to delegation law project process.\n     * @return internal_governance_version Current version of parameters related to delegation internal governance.\n     * @return actual_mandate Id number of the current mandate \n     * @return potentialy_lost_amount Total amount of token potentially lost via penalty fee. \n     * @return in_election_stage Boolean assesing whether we are in election stage or not.\n     */\n    function Get_Delegation_Infos()external view returns (uint legislatif_process_version, uint internal_governance_version, uint actual_mandate, uint potentialy_lost_amount, bool in_election_stage){\n        return (Legislatif_Process_Version, Internal_Governance_Version, Actual_Mandate, Potentialy_Lost_Amount, In_election_stage);\n    }\n    \n    /**\n     * @dev Get informations about a law project proposition\n     * @param key Id of the law project\n     * @param id Id of the proposition\n     * @return description Description of the proposition\n     * @return childrens Proposition node's children in the Proposal Tree. (See {Add_Corpus_Proposal} function of {Initiative_Legislative_Lib} library)\n     * @return function_calls List of function calls proposed by the proposition\n     * @return func_call_counter Number of function calls proposed by the proposition.\n     * @return parent Id of the proposition's parent in the Proposal Tree\n     * @return author Address of the author of the proposition.\n     */\n    function Get_Proposal(bytes32 key, uint id)external view returns(bytes memory description, uint[] memory childrens, bytes[] memory function_calls, uint func_call_counter, uint parent, address author){\n        function_calls = List_Law_Project[key].Get_Proposal_FunctionCall_List(id);\n        (description, childrens,func_call_counter, parent, author) = List_Law_Project[key].Get_Proposal_Infos(id);\n    }\n    \n    /**\n     * @dev Get Results of a law project\n     * @return Winning_Proposal Id of the proposition that has been voted.\n     * @return Receipts List of receipts of {Winning_Proposal} function call's execution.\n     */\n    function Get_Law_Results(bytes32 key)external view returns(uint Winning_Proposal, Initiative_Legislative_Lib.Function_Call_Result[] memory Receipts){\n        return(List_Law_Project[key].Winning_Proposal, List_Law_Project[key].Function_Call_Receipts);\n    }\n    /*Overite functions*/\n    /*function Before_Add_Law_Project(bytes calldata Title, bytes calldata Description) internal override returns(bytes32){\n        \n    }\n    \n    function Before_Add_Corpus_Proposal(bytes32 law_project, uint Parent, uint[] calldata Parent_Proposals_Reuse, bytes[] calldata New_Function_Call, bytes calldata Description) internal override{\n        \n    }\n    \n    function Before_Add_Item_Proposal(bytes32 law_project, uint Proposal, bytes[] calldata New_Items, uint[] calldata Indexs) internal override{\n        \n    }*/\n}\n",
  "sourcePath": "/home/andrei/Alyra/Web3_Referendum/contracts/Delegation.sol",
  "compiler": {
    "name": "solc",
    "version": "0.8.1+commit.df193b15.Emscripten.clang"
  },
  "schemaVersion": "3.3.1",
  "updatedAt": "2021-04-27T21:47:47.841Z",
  "networkType": "ethereum",
  "devdoc": {
    "details": "Delegation contract is an implementation of IDelegation and thus aims at implementing a governance system in which a group of elected accounts is allowed to rule one or more controled registers contract. ",
    "kind": "dev",
    "methods": {
      "Achiev_Vote(bytes32)": {
        "details": "When the voting period is over, any citizen can call this function to end the voting stage. If the winning proposition is the default proposition is the default one (Proposition 0) the law proejct is aborted. Otherwise, the Law Censoring stage is started.",
        "params": {
          "law_project": "Id of the law project the caller wants to add a proposition to. The Id is obtained by hashing the Title with the Description of the law project."
        }
      },
      "Add_Controled_Register(address)": {
        "details": "See {IDelegation} interface "
      },
      "Add_Item(bytes32,uint256,bytes[],uint256[])": {
        "details": "Function can be called by a delegation member to modify a proposition that he has already created (He have to be the author of the proposition).  Caller must approve {FunctionCall_Price} (see {Law_Project_Parameters} struct of {Delegation_Uils library})  multiplied by the number of function call he wants to add to the proposition, token for Delegation contract.",
        "params": {
          "Indexs": "array of Proposition's function call list indexs to inser new function call (contained in {New_Items}) to. {New_Items} and {Indexs} have the same length.",
          "New_Items": "Array of new function calls to add to the Proposition.",
          "Proposal": "Proposition Id to modify.",
          "law_project": "Id of the law project the caller wants to add a proposition to. The Id is obtained by hashing the Title with the Description of the law project."
        }
      },
      "Add_Law_Project(address,bytes,bytes)": {
        "details": "Function can be called by a delegation member to submit a new law project. This function put {Law_Initialisation_Price} (see {Law_Project_Parameters} struct of {Delegation_Uils library}) DemoCoin token of Delegation contract in Escrow.",
        "params": {
          "Description": "Text explaining the spirit and generals goals of the law project. Can be an hash.",
          "Title": "Title of the law project. Can be an hash.",
          "register_address": "Address of the register contract the law project is about. Must be contained in Controled_Registers mapping."
        }
      },
      "Add_Proposal(bytes32,uint256,uint256[],bytes[],bytes)": {
        "details": "Function can be called by a delegation member to submit a corpus of function calls propositions to an existing pending law project. This function put in Escrow {FunctionCall_Price} (see {Law_Project_Parameters} struct of {Delegation_Uils library}) DemoCoin token multiplied by the number of function call contained in the proposition.",
        "params": {
          "Description": "Text to justify the new proposal. Can be an hash.",
          "New_Function_Call": "List of new function calls added by the caller. For each element of the New_Function_Call array, caller must set a 0 element in {Parent_Proposals_Reuse} array at the index he want the custom function call to be positioned ",
          "Parent": "Proposition Id the caller wants to attach his proposition to. It's the parent proposition in the proposal tree. If there isn't any proposition in the tree we want to attach the new proposition to, we set Parent to 0",
          "Parent_Proposals_Reuse": "List of Parent's function calls index we want to reuse in the new proposition. Function calls are ordered in the order we want them to be executed. 0 elements correspond to new function calls that have to be added by the caller in {New_Function_Call} argument.",
          "law_project": "Id of the law project hte caller wants to add a proposition to. The Id is obtained by hashing the Title with the Description of the law project."
        }
      },
      "Adopt_Law(bytes32)": {
        "details": "If the Law censor period is over and the law project hasn't been rejected by citizens, then any delegation member can call this function to set the law project as ADOPTED (see {Status} enumeration).",
        "params": {
          "law_project": "Id of the law project the caller wants to add a proposition to. The Id is obtained by hashing the Title with the Description of the law project."
        }
      },
      "Candidate_Election()": {
        "details": "Function called by a citizen who wish to candidate to next mandate's elections."
      },
      "Censor_Law(bytes32)": {
        "details": "If we are at the Law censor stage, any citizen can call this function to sign the petition for canceling the law project. If the {Censor_Proposition_Petition_Rate} (see {Law_Project_Parameters} structure) is reached, the law project is aborted.",
        "params": {
          "law_project": "Id of the law project the caller wants to add a proposition to. The Id is obtained by hashing the Title with the Description of the law project."
        }
      },
      "Contains(address)": {
        "details": "See {IDelegation} interface  "
      },
      "End_Election()": {
        "details": "When voting stage is over, any citizen can call this function to end the election and start a new mandate."
      },
      "Execute_Law(bytes32,uint256)": {
        "details": "Once the law project has been adopted (ADOPTED value of {Status} enum) then any delegation member can call this function to execute all or some of the remaining function call of the winning proposition.  For the law project to be fully executed all function call have to be executed.",
        "params": {
          "law_project": "Id of the law project the caller wants to add a proposition to. The Id is obtained by hashing the Title with the Description of the law project.",
          "num_function_call_ToExecute": "Number of function calls to execute."
        }
      },
      "Get_Delegation_Infos()": {
        "details": "Get various Delegation state variables values.",
        "returns": {
          "actual_mandate": "Id number of the current mandate ",
          "in_election_stage": "Boolean assesing whether we are in election stage or not.",
          "internal_governance_version": "Current version of parameters related to delegation internal governance.",
          "legislatif_process_version": "Current version of parameters related to delegation law project process.",
          "potentialy_lost_amount": "Total amount of token potentially lost via penalty fee. "
        }
      },
      "Get_Law_Results(bytes32)": {
        "details": "Get Results of a law project",
        "returns": {
          "Receipts": "List of receipts of {Winning_Proposal} function call's execution.",
          "Winning_Proposal": "Id of the proposition that has been voted."
        }
      },
      "Get_List_Law_Register()": {
        "details": "Get 2 arrays:    - The list of law project Id     - The list of controled Register",
        "returns": {
          "Controled_Register": "List of register address (represented in bytes32) whose contract is under Delegation control",
          "Law_Project_List": "List of law project (pending, executed and aborted)"
        }
      },
      "Get_Mandate(uint256)": {
        "details": "Get informations about a mandate",
        "params": {
          "Id": "Id of the mandate"
        },
        "returns": {
          "Candidats": "Array candidats address (represented in bytes32)",
          "Election_Timestamps": "Beginning of election",
          "Inauguration_Timestamps": "Inauguration_Timestamps: Beginning of current mandate",
          "Members": "Array of {Id} mandate delegation member's address (represented in bytes32)",
          "New_Election_Petition_Number": "Number of signatures obtained for revoking the delegation members related to {Id} Mandate",
          "version": "Parameter Version used for this mandate"
        }
      },
      "Get_Member_Amount_Consumed(bytes32,address)": {
        "details": "Get the amount of DemoCoin token owned by the Delegation and used by a Delegation member for a specific delegation law project.",
        "params": {
          "key": "Id of law project",
          "member": "Address of delegation member "
        },
        "returns": {
          "amount": "Amount of token used by {member} address for {key} law project "
        }
      },
      "Get_Proposal(bytes32,uint256)": {
        "details": "Get informations about a law project proposition",
        "params": {
          "id": "Id of the proposition",
          "key": "Id of the law project"
        },
        "returns": {
          "author": "Address of the author of the proposition.",
          "childrens": "Proposition node's children in the Proposal Tree. (See {Add_Corpus_Proposal} function of {Initiative_Legislative_Lib} library)",
          "description": "Description of the proposition",
          "func_call_counter": "Number of function calls proposed by the proposition.",
          "function_calls": "List of function calls proposed by the proposition",
          "parent": "Id of the proposition's parent in the Proposal Tree"
        }
      },
      "New_Election()": {
        "details": "When the current mandate duration is over or if the {New_Election_Petition_Rate} (see {Mandate} struct of {Delegation_Uils} library) is reached, any citizen can call this function to start a new election"
      },
      "Remove_Candidature()": {
        "details": "Function called by a citizen who wish to remove his candidature from next mandate's elections."
      },
      "Remove_Controled_Register(address)": {
        "details": "See {IDelegation} interface "
      },
      "Set_Constitution(address)": {
        "details": "The function Allows to change the Constitution contract the current Institution obey to. The function is only callable by the {Constitution_Address}",
        "params": {
          "new_constitution": "Address of the new Constitution contract."
        }
      },
      "Sign_New_Election_Petition()": {
        "details": "Function can be called by a citizen to sign petition for a new election"
      },
      "Start_Vote(bytes32)": {
        "details": "When the period of proposition submiting is over, any citizen can call this function to start the voting stage. The Id of the ballot corresponding to current law project the IVote contract is computed by hashing {law_project} Id with current block timestamps.",
        "params": {
          "law_project": "Id of the law project the caller wants to add a proposition to. The Id is obtained by hashing the Title with the Description of the law project."
        }
      },
      "Update_Internal_Governance(uint256,uint256,uint256,uint256,uint16,uint16,address)": {
        "details": "See {IDelegation} interface"
      },
      "Update_Legislatif_Process(uint256[6],uint16,uint16,address)": {
        "details": "See {IDelegation} interface"
      },
      "constructor": {
        "params": {
          "Initial_members": "List of initial members of the delegation ",
          "Name": "name of the Institution",
          "agora_address": "Address of the {Agora} contract used in the project.",
          "citizen_address": "Address of the {Citizens_Register} contract used in the Project ",
          "token_address": "Address of {DemoCoin} token that will be used to transfert initial token amount to new registered citizens "
        }
      }
    },
    "stateVariables": {
      "Actual_Mandate": {
        "details": "Id in {Mandate} mapping  of the current mandate "
      },
      "Citizens": {
        "details": "Instance of the {Citizens_Register} contract used by the Project"
      },
      "Contains_Function_Selector": {
        "details": "function selector of {Contains} function used to check Whether an account is member of the delegation"
      },
      "Controled_Registers": {
        "details": "Mapping of Registers ({Controlable_Register} structure) that can receive orders from the actual Delegation"
      },
      "Delegation_Law_Projects": {
        "details": "Mapping of {Delegation_Law_Project} structure corresponding to law project of delegation (pending, aborted and passed)"
      },
      "Democoin": {
        "details": "Instance of the {DemoCoin} token used by the Project"
      },
      "In_election_stage": {
        "details": "Boolean set whether we are in election stage or not."
      },
      "Internal_Governance_Version": {
        "details": "Current version of parameters related to delegation internal governance"
      },
      "Law_Parameters_Versions": {
        "details": "Mapping of versions of Parameters ({Law_Project_Parameters} of {Delegation_Uils} library) used for law project process"
      },
      "Legislatif_Process_Version": {
        "details": "Current version of parameters related to law project process "
      },
      "List_Controled_Registers": {
        "details": "List of Controled Registers"
      },
      "List_Delegation_Law_Projects": {
        "details": "List of law projects"
      },
      "List_Law_Project": {
        "details": "Mapping of {Law_Project} structure ({Initiative_Legislative_Lib} library)  "
      },
      "Mandates": {
        "details": "Mapping of {Mandate} structure ({Delegation_Uils} library) corresponding to mandates of delegation (pending and passed)"
      },
      "Mandates_Versions": {
        "details": "Mapping of versions of Parameters ({Mandate_Parameter} of {Delegation_Uils} library) used for delegation internal governance."
      },
      "Potentialy_Lost_Amount": {
        "details": "Total amount of token potentially lost via penalty fee. "
      }
    },
    "version": 1
  },
  "userdoc": {
    "kind": "user",
    "methods": {
      "Constitution_Address()": {
        "notice": "Address of the constitution of the DAO"
      },
      "Name()": {
        "notice": "Name of the institution"
      },
      "Type_Institution()": {
        "notice": "Type of the Institution"
      }
    },
    "version": 1
  }
}