{
  "contractName": "Loi",
  "abi": [
    {
      "inputs": [
        {
          "internalType": "string",
          "name": "Name",
          "type": "string"
        },
        {
          "internalType": "address",
          "name": "agora",
          "type": "address"
        }
      ],
      "stateMutability": "nonpayable",
      "type": "constructor"
    },
    {
      "anonymous": false,
      "inputs": [
        {
          "indexed": false,
          "internalType": "bytes",
          "name": "law_title",
          "type": "bytes"
        },
        {
          "indexed": false,
          "internalType": "bytes32",
          "name": "key",
          "type": "bytes32"
        }
      ],
      "name": "Article_Created",
      "type": "event"
    },
    {
      "anonymous": false,
      "inputs": [
        {
          "indexed": false,
          "internalType": "bytes",
          "name": "law_title",
          "type": "bytes"
        },
        {
          "indexed": false,
          "internalType": "bytes32",
          "name": "key",
          "type": "bytes32"
        }
      ],
      "name": "Article_Removed",
      "type": "event"
    },
    {
      "anonymous": false,
      "inputs": [
        {
          "indexed": false,
          "internalType": "address",
          "name": "authority",
          "type": "address"
        }
      ],
      "name": "Authority_Added",
      "type": "event"
    },
    {
      "anonymous": false,
      "inputs": [
        {
          "indexed": false,
          "internalType": "address",
          "name": "authority",
          "type": "address"
        }
      ],
      "name": "Authority_Removed",
      "type": "event"
    },
    {
      "anonymous": false,
      "inputs": [
        {
          "indexed": false,
          "internalType": "address",
          "name": "new_constitution",
          "type": "address"
        }
      ],
      "name": "Constitution_Changed",
      "type": "event"
    },
    {
      "anonymous": false,
      "inputs": [
        {
          "indexed": false,
          "internalType": "bytes",
          "name": "title",
          "type": "bytes"
        }
      ],
      "name": "Description_Changed",
      "type": "event"
    },
    {
      "anonymous": false,
      "inputs": [
        {
          "indexed": false,
          "internalType": "address",
          "name": "Address",
          "type": "address"
        },
        {
          "indexed": false,
          "internalType": "enum Institution.Institution_Type",
          "name": "Type",
          "type": "uint8"
        }
      ],
      "name": "Institution_Created",
      "type": "event"
    },
    {
      "anonymous": false,
      "inputs": [
        {
          "indexed": false,
          "internalType": "bytes",
          "name": "title",
          "type": "bytes"
        }
      ],
      "name": "Law_Created",
      "type": "event"
    },
    {
      "anonymous": false,
      "inputs": [
        {
          "indexed": false,
          "internalType": "bytes",
          "name": "title",
          "type": "bytes"
        }
      ],
      "name": "Law_Removed",
      "type": "event"
    },
    {
      "inputs": [
        {
          "internalType": "address",
          "name": "authority",
          "type": "address"
        }
      ],
      "name": "Add_Authority",
      "outputs": [],
      "stateMutability": "nonpayable",
      "type": "function"
    },
    {
      "inputs": [
        {
          "internalType": "bytes32",
          "name": "",
          "type": "bytes32"
        }
      ],
      "name": "Articles",
      "outputs": [
        {
          "internalType": "bytes",
          "name": "Title",
          "type": "bytes"
        },
        {
          "internalType": "bytes",
          "name": "Content",
          "type": "bytes"
        },
        {
          "internalType": "uint256",
          "name": "Timestamp",
          "type": "uint256"
        }
      ],
      "stateMutability": "view",
      "type": "function"
    },
    {
      "inputs": [],
      "name": "Constitution_Address",
      "outputs": [
        {
          "internalType": "address",
          "name": "",
          "type": "address"
        }
      ],
      "stateMutability": "view",
      "type": "function"
    },
    {
      "inputs": [],
      "name": "Get_Authorities",
      "outputs": [
        {
          "internalType": "bytes32[]",
          "name": "",
          "type": "bytes32[]"
        }
      ],
      "stateMutability": "view",
      "type": "function"
    },
    {
      "inputs": [],
      "name": "Name",
      "outputs": [
        {
          "internalType": "string",
          "name": "",
          "type": "string"
        }
      ],
      "stateMutability": "view",
      "type": "function"
    },
    {
      "inputs": [
        {
          "internalType": "address",
          "name": "authority",
          "type": "address"
        }
      ],
      "name": "Remove_Authority",
      "outputs": [],
      "stateMutability": "nonpayable",
      "type": "function"
    },
    {
      "inputs": [
        {
          "internalType": "address",
          "name": "new_constitution",
          "type": "address"
        }
      ],
      "name": "Set_Constitution",
      "outputs": [],
      "stateMutability": "nonpayable",
      "type": "function"
    },
    {
      "inputs": [],
      "name": "Type_Institution",
      "outputs": [
        {
          "internalType": "enum Institution.Institution_Type",
          "name": "",
          "type": "uint8"
        }
      ],
      "stateMutability": "view",
      "type": "function"
    },
    {
      "inputs": [
        {
          "internalType": "bytes",
          "name": "Title",
          "type": "bytes"
        },
        {
          "internalType": "bytes",
          "name": "Description",
          "type": "bytes"
        }
      ],
      "name": "AddLaw",
      "outputs": [],
      "stateMutability": "nonpayable",
      "type": "function"
    },
    {
      "inputs": [
        {
          "internalType": "bytes",
          "name": "Law_Title",
          "type": "bytes"
        },
        {
          "internalType": "bytes",
          "name": "Article_Title",
          "type": "bytes"
        },
        {
          "internalType": "bytes",
          "name": "Content",
          "type": "bytes"
        }
      ],
      "name": "AddArticle",
      "outputs": [],
      "stateMutability": "nonpayable",
      "type": "function"
    },
    {
      "inputs": [
        {
          "internalType": "bytes",
          "name": "Law_Title",
          "type": "bytes"
        },
        {
          "internalType": "bytes",
          "name": "new_Description",
          "type": "bytes"
        }
      ],
      "name": "Change_Law_Description",
      "outputs": [],
      "stateMutability": "nonpayable",
      "type": "function"
    },
    {
      "inputs": [
        {
          "internalType": "bytes",
          "name": "Law_Title",
          "type": "bytes"
        },
        {
          "internalType": "bytes32",
          "name": "article",
          "type": "bytes32"
        }
      ],
      "name": "Remove_Article",
      "outputs": [],
      "stateMutability": "nonpayable",
      "type": "function"
    },
    {
      "inputs": [
        {
          "internalType": "bytes",
          "name": "law",
          "type": "bytes"
        }
      ],
      "name": "Remove_Law",
      "outputs": [],
      "stateMutability": "nonpayable",
      "type": "function"
    },
    {
      "inputs": [],
      "name": "Get_Law_List",
      "outputs": [
        {
          "internalType": "bytes[]",
          "name": "list_lois",
          "type": "bytes[]"
        }
      ],
      "stateMutability": "view",
      "type": "function"
    },
    {
      "inputs": [
        {
          "internalType": "bytes",
          "name": "law",
          "type": "bytes"
        }
      ],
      "name": "Get_Law_Article_List",
      "outputs": [
        {
          "internalType": "bytes32[]",
          "name": "law_article_list",
          "type": "bytes32[]"
        }
      ],
      "stateMutability": "view",
      "type": "function"
    },
    {
      "inputs": [
        {
          "internalType": "bytes",
          "name": "law",
          "type": "bytes"
        }
      ],
      "name": "Get_Law_Info",
      "outputs": [
        {
          "internalType": "bytes",
          "name": "description",
          "type": "bytes"
        },
        {
          "internalType": "uint256",
          "name": "timestamp",
          "type": "uint256"
        }
      ],
      "stateMutability": "view",
      "type": "function"
    },
    {
      "inputs": [
        {
          "internalType": "bytes",
          "name": "title",
          "type": "bytes"
        },
        {
          "internalType": "bytes",
          "name": "content",
          "type": "bytes"
        }
      ],
      "name": "Encode_Articles",
      "outputs": [
        {
          "internalType": "bytes32",
          "name": "",
          "type": "bytes32"
        }
      ],
      "stateMutability": "pure",
      "type": "function"
    }
  ],
  "bytecode": "0x60806040523480156200001157600080fd5b5060405162002411380380620024118339810160408190526200003491620001eb565b60016000819055825183918291620000529190602084019062000128565b5050600280546001600160a01b03191633178082556003925060ff60a01b1916600160a01b83021790555062000098816003620000a160201b620014451790919060201c565b50505062000329565b6000620000b8836001600160a01b038416620000c1565b90505b92915050565b6000620000cf838362000110565b6200010757508154600181810184556000848152602080822090930184905584548482528286019093526040902091909155620000bb565b506000620000bb565b60009081526001919091016020526040902054151590565b8280546200013690620002d6565b90600052602060002090601f0160209004810192826200015a5760008555620001a5565b82601f106200017557805160ff1916838001178555620001a5565b82800160010185558215620001a5579182015b82811115620001a557825182559160200191906001019062000188565b50620001b3929150620001b7565b5090565b5b80821115620001b35760008155600101620001b8565b80516001600160a01b0381168114620001e657600080fd5b919050565b60008060408385031215620001fe578182fd5b82516001600160401b038082111562000215578384fd5b818501915085601f83011262000229578384fd5b8151818111156200023e576200023e62000313565b604051601f8201601f19908116603f0116810190838211818310171562000269576200026962000313565b8160405282815260209350888484870101111562000285578687fd5b8691505b82821015620002a8578482018401518183018501529083019062000289565b82821115620002b957868484830101525b9550620002cb915050858201620001ce565b925050509250929050565b600281046001821680620002eb57607f821691505b602082108114156200030d57634e487b7160e01b600052602260045260246000fd5b50919050565b634e487b7160e01b600052604160045260246000fd5b6120d880620003396000396000f3fe608060405234801561001057600080fd5b506004361061011b5760003560e01c80638017e4e9116100b2578063b18d743b11610081578063df1d4e4e11610066578063df1d4e4e1461024b578063e7a442891461026b578063eb101b231461028d5761011b565b8063b18d743b14610225578063c0583ff2146102385761011b565b80638017e4e9146101d45780638052474d146101e757806384e886e9146101fc578063b0785fc3146102045761011b565b80635836bbe6116100ee5780635836bbe61461017957806364ab437d1461018c5780636d189978146101ac5780636ea0d654146101c15761011b565b806302d4cd281461012057806303d7b4561461013e57806338df44b1146101535780633c289ea814610166575b600080fd5b6101286102a2565b6040516101359190611ac9565b60405180910390f35b61015161014c3660046119cf565b6102be565b005b610151610161366004611837565b6104c3565b610151610174366004611837565b61059c565b61015161018736600461196e565b6106aa565b61019f61019a366004611883565b610852565b6040516101359190611aea565b6101b46108c9565b6040516101359190611b2e565b6101516101cf36600461192b565b6109a2565b6101516101e23660046118f0565b610b4b565b6101ef610f09565b6040516101359190611bb5565b61019f610f97565b610217610212366004611883565b610fee565b604051610135929190611bc8565b610151610233366004611837565b6110d0565b61015161024636600461196e565b6111bd565b61025e61025936600461196e565b6112bf565b6040516101359190611bac565b61027e61027936600461186b565b6112f2565b60405161013593929190611c18565b610295611424565b6040516101359190611c4e565b60025473ffffffffffffffffffffffffffffffffffffffff1681565b6102c960033361146e565b610308576040517f08c379a00000000000000000000000000000000000000000000000000000000081526004016102ff90611e0e565b60405180910390fd5b6006836040516103189190611aad565b90815260200160405180910390206005015460001415610364576040517f08c379a00000000000000000000000000000000000000000000000000000000081526004016102ff90611eea565b60008282604051602001610379929190611bea565b604080517fffffffffffffffffffffffffffffffffffffffffffffffffffffffffffffffe0818403018152918152815160209283012060008181526005909352912060020154909150156103f9576040517f08c379a00000000000000000000000000000000000000000000000000000000081526004016102ff90611e45565b60008181526005602090815260409091208451610418928601906116a0565b506000818152600560209081526040909120835161043e926001909201918501906116a0565b5060008181526005602052604090819020426002909101555161048390829060069061046b908890611aad565b90815260405190819003602001902060030190611490565b507f0be4d6c5f8eda2ec0e166dad49186164b40c92d0e3631ec2f4baeed204a8662b84826040516104b5929190611bc8565b60405180910390a150505050565b60025473ffffffffffffffffffffffffffffffffffffffff163314610514576040517f08c379a00000000000000000000000000000000000000000000000000000000081526004016102ff90611cc6565b61051f60038261146e565b15610556576040517f08c379a00000000000000000000000000000000000000000000000000000000081526004016102ff90611e7c565b610561600382611445565b507f5211a48dd5dc810c959d67db85be9de1f52e475be92efb0f7c314b9bd361863d816040516105919190611ac9565b60405180910390a150565b60025473ffffffffffffffffffffffffffffffffffffffff1633146105ed576040517f08c379a00000000000000000000000000000000000000000000000000000000081526004016102ff90611cc6565b73ffffffffffffffffffffffffffffffffffffffff811661063a576040517f08c379a00000000000000000000000000000000000000000000000000000000081526004016102ff90611d34565b600280547fffffffffffffffffffffffff00000000000000000000000000000000000000001673ffffffffffffffffffffffffffffffffffffffff83161790556040517feaf9201ae5a091c46918bca9c5ced3b9aa103362b0a68a1f36b9f2858b0a4c1490610591908390611ac9565b6106b560033361146e565b6106eb576040517f08c379a00000000000000000000000000000000000000000000000000000000081526004016102ff90611e0e565b6006826040516106fb9190611aad565b908152602001604051809103902060050154600014610746576040517f08c379a00000000000000000000000000000000000000000000000000000000081526004016102ff90611eb3565b600780546001810182556000919091528251610789917fa66cc928b5edb82af9bd49922954155ab7b0942694bea4ce44661d9a8736c688019060208501906116a0565b5060075461079990600190611f70565b6006836040516107a99190611aad565b9081526040519081900360200181209190915581906006906107cc908590611aad565b908152602001604051809103902060020190805190602001906107f09291906116a0565b50426006836040516108029190611aad565b9081526020016040518091039020600501819055507f4a96e9c2ac0588b83315ece420971aa608c28c8cdc365c3bd297a0c6405bbd54826040516108469190611bb5565b60405180910390a15050565b606060068383604051610866929190611a9d565b90815260408051918290036020908101832060030180548083028501830190935282845291908301828280156108bb57602002820191906000526020600020905b8154815260200190600101908083116108a7575b505050505090505b92915050565b60606007805480602002602001604051908101604052809291908181526020016000905b8282101561099957838290600052602060002001805461090c90611fb7565b80601f016020809104026020016040519081016040528092919081815260200182805461093890611fb7565b80156109855780601f1061095a57610100808354040283529160200191610985565b820191906000526020600020905b81548152906001019060200180831161096857829003601f168201915b5050505050815260200190600101906108ed565b50505050905090565b6109ad60033361146e565b6109e3576040517f08c379a00000000000000000000000000000000000000000000000000000000081526004016102ff90611e0e565b60006006836040516109f59190611aad565b908152602001604051809103902060050154118015610a24575060008181526005602052604090206002015415155b610a5a576040517f08c379a00000000000000000000000000000000000000000000000000000000081526004016102ff90611cfd565b610a8681600684604051610a6e9190611aad565b9081526040519081900360200190206003019061149c565b610abc576040517f08c379a00000000000000000000000000000000000000000000000000000000081526004016102ff90611f21565b600081815260056020526040812090610ad58282611724565b610ae3600183016000611724565b60028201600090555050610b1981600684604051610b019190611aad565b908152604051908190036020019020600301906114a8565b507fd63d1491b4749915ffaa8e61a00b1beccc167d61992fa802274a3529a8d8cbd48282604051610846929190611bc8565b610b5660033361146e565b610b8c576040517f08c379a00000000000000000000000000000000000000000000000000000000081526004016102ff90611e0e565b600681604051610b9c9190611aad565b90815260200160405180910390206005015460001415610be8576040517f08c379a00000000000000000000000000000000000000000000000000000000081526004016102ff90611dd7565b6007805490600090610bfb600184611f70565b81548110610c32577f4e487b7100000000000000000000000000000000000000000000000000000000600052603260045260246000fd5b906000526020600020018054610c4790611fb7565b80601f0160208091040260200160405190810160405280929190818152602001828054610c7390611fb7565b8015610cc05780601f10610c9557610100808354040283529160200191610cc0565b820191906000526020600020905b815481529060010190602001808311610ca357829003601f168201915b50505050509050806007600685604051610cda9190611aad565b9081526040519081900360200190205481548110610d21577f4e487b7100000000000000000000000000000000000000000000000000000000600052603260045260246000fd5b906000526020600020019080519060200190610d3e9291906116a0565b506007805480610d77577f4e487b7100000000000000000000000000000000000000000000000000000000600052603160045260246000fd5b600190038181906000526020600020016000610d939190611724565b90556000600684604051610da79190611aad565b90815260405190819003602001902060030154905060005b81811015610e7a5760056000600687604051610ddb9190611aad565b908152604051908190036020019020600301805484908110610e26577f4e487b7100000000000000000000000000000000000000000000000000000000600052603260045260246000fd5b9060005260206000200154815260200190815260200160002060008082016000610e509190611724565b610e5e600183016000611724565b5060006002919091015580610e728161200b565b915050610dbf565b50600684604051610e8b9190611aad565b9081526040519081900360200190206000808255610eac6001830182611724565b610eba600283016000611724565b6003820160008181610ecc8282611763565b50505050600582016000905550507ff264114d38a99411ef839dc140166a1bc51536d65f0ad002efabd75c8d2deaa1846040516104b59190611bb5565b60018054610f1690611fb7565b80601f0160208091040260200160405190810160405280929190818152602001828054610f4290611fb7565b8015610f8f5780601f10610f6457610100808354040283529160200191610f8f565b820191906000526020600020905b815481529060010190602001808311610f7257829003601f168201915b505050505081565b600380546040805160208084028201810190925282815260609390929091830182828015610fe457602002820191906000526020600020905b815481526020019060010190808311610fd0575b5050505050905090565b6060600060068484604051611004929190611a9d565b908152602001604051809103902060020160068585604051611027929190611a9d565b90815260200160405180910390206005015481805461104590611fb7565b80601f016020809104026020016040519081016040528092919081815260200182805461107190611fb7565b80156110be5780601f10611093576101008083540402835291602001916110be565b820191906000526020600020905b8154815290600101906020018083116110a157829003601f168201915b50505050509150915091509250929050565b3373ffffffffffffffffffffffffffffffffffffffff8216148061110b575060025473ffffffffffffffffffffffffffffffffffffffff1633145b611141576040517f08c379a00000000000000000000000000000000000000000000000000000000081526004016102ff90611d6b565b61114c60038261146e565b611182576040517f08c379a00000000000000000000000000000000000000000000000000000000081526004016102ff90611da0565b61118d6003826114b4565b507fb08d132e7857df60570932b8e15c9544f136a8f716c15b00f65a64814457875b816040516105919190611ac9565b6111c860033361146e565b6111fe576040517f08c379a00000000000000000000000000000000000000000000000000000000081526004016102ff90611e0e565b60068260405161120e9190611aad565b9081526020016040518091039020600501546000141561125a576040517f08c379a00000000000000000000000000000000000000000000000000000000081526004016102ff90611c8f565b8060068360405161126b9190611aad565b9081526020016040518091039020600201908051906020019061128f9291906116a0565b507fb45505410456bfcc4b9be885a35d9d4bacaec34c3d2f0ef626957e44672ae370826040516108469190611bb5565b600082826040516020016112d4929190611bea565b60405160208183030381529060405280519060200120905092915050565b60056020526000908152604090208054819061130d90611fb7565b80601f016020809104026020016040519081016040528092919081815260200182805461133990611fb7565b80156113865780601f1061135b57610100808354040283529160200191611386565b820191906000526020600020905b81548152906001019060200180831161136957829003601f168201915b50505050509080600101805461139b90611fb7565b80601f01602080910402602001604051908101604052809291908181526020018280546113c790611fb7565b80156114145780601f106113e957610100808354040283529160200191611414565b820191906000526020600020905b8154815290600101906020018083116113f757829003601f168201915b5050505050908060020154905083565b60025474010000000000000000000000000000000000000000900460ff1681565b60006114678373ffffffffffffffffffffffffffffffffffffffff84166114d6565b9392505050565b60006114678373ffffffffffffffffffffffffffffffffffffffff8416611520565b600061146783836114d6565b60006114678383611520565b60006114678383611538565b60006114678373ffffffffffffffffffffffffffffffffffffffff8416611538565b60006114e28383611520565b611518575081546001818101845560008481526020808220909301849055845484825282860190935260409020919091556108c3565b5060006108c3565b60009081526001919091016020526040902054151590565b6000818152600183016020526040812054801561169657600061155c600183611f70565b855490915060009061157090600190611f70565b905060008660000182815481106115b0577f4e487b7100000000000000000000000000000000000000000000000000000000600052603260045260246000fd5b90600052602060002001549050808760000184815481106115fa577f4e487b7100000000000000000000000000000000000000000000000000000000600052603260045260246000fd5b600091825260209091200155611611836001611f58565b6000828152600189016020526040902055865487908061165a577f4e487b7100000000000000000000000000000000000000000000000000000000600052603160045260246000fd5b600190038181906000526020600020016000905590558660010160008781526020019081526020016000206000905560019450505050506108c3565b60009150506108c3565b8280546116ac90611fb7565b90600052602060002090601f0160209004810192826116ce5760008555611714565b82601f106116e757805160ff1916838001178555611714565b82800160010185558215611714579182015b828111156117145782518255916020019190600101906116f9565b5061172092915061177d565b5090565b50805461173090611fb7565b6000825580601f106117425750611760565b601f016020900490600052602060002090810190611760919061177d565b50565b508054600082559060005260206000209081019061176091905b5b80821115611720576000815560010161177e565b600082601f8301126117a2578081fd5b813567ffffffffffffffff808211156117bd576117bd612073565b604051601f83017fffffffffffffffffffffffffffffffffffffffffffffffffffffffffffffffe0908116603f0116810190828211818310171561180357611803612073565b8160405283815286602085880101111561181b578485fd5b8360208701602083013792830160200193909352509392505050565b600060208284031215611848578081fd5b813573ffffffffffffffffffffffffffffffffffffffff81168114611467578182fd5b60006020828403121561187c578081fd5b5035919050565b60008060208385031215611895578081fd5b823567ffffffffffffffff808211156118ac578283fd5b818501915085601f8301126118bf578283fd5b8135818111156118cd578384fd5b8660208285010111156118de578384fd5b60209290920196919550909350505050565b600060208284031215611901578081fd5b813567ffffffffffffffff811115611917578182fd5b61192384828501611792565b949350505050565b6000806040838503121561193d578182fd5b823567ffffffffffffffff811115611953578283fd5b61195f85828601611792565b95602094909401359450505050565b60008060408385031215611980578182fd5b823567ffffffffffffffff80821115611997578384fd5b6119a386838701611792565b935060208501359150808211156119b8578283fd5b506119c585828601611792565b9150509250929050565b6000806000606084860312156119e3578081fd5b833567ffffffffffffffff808211156119fa578283fd5b611a0687838801611792565b94506020860135915080821115611a1b578283fd5b611a2787838801611792565b93506040860135915080821115611a3c578283fd5b50611a4986828701611792565b9150509250925092565b60008151808452611a6b816020860160208601611f87565b601f017fffffffffffffffffffffffffffffffffffffffffffffffffffffffffffffffe0169290920160200192915050565b6000828483379101908152919050565b60008251611abf818460208701611f87565b9190910192915050565b73ffffffffffffffffffffffffffffffffffffffff91909116815260200190565b6020808252825182820181905260009190848201906040850190845b81811015611b2257835183529284019291840191600101611b06565b50909695505050505050565b6000602080830181845280855180835260408601915060408482028701019250838701855b82811015611b9f577fffffffffffffffffffffffffffffffffffffffffffffffffffffffffffffffc0888603018452611b8d858351611a53565b94509285019290850190600101611b53565b5092979650505050505050565b90815260200190565b6000602082526114676020830184611a53565b600060408252611bdb6040830185611a53565b90508260208301529392505050565b600060408252611bfd6040830185611a53565b8281036020840152611c0f8185611a53565b95945050505050565b600060608252611c2b6060830186611a53565b8281036020840152611c3d8186611a53565b915050826040830152949350505050565b6020810160078310611c89577f4e487b7100000000000000000000000000000000000000000000000000000000600052602160045260246000fd5b91905290565b60208082526016908201527f4c6f693a204c617720646f65736e277420657869737400000000000000000000604082015260600190565b60208082526011908201527f436f6e737469747574696f6e204f6e6c79000000000000000000000000000000604082015260600190565b60208082526018908201527f4e6f6e206578697374696e672061727469636c652f6c61770000000000000000604082015260600190565b60208082526009908201527f4164647265737320300000000000000000000000000000000000000000000000604082015260600190565b6020808252818101527f4e6f7420416c6c6f7765642052656d6f76696e6720417574686f726974696573604082015260600190565b6020808252601e908201527f4e6f74206578697374696e6720617574686f72697479206163636f756e740000604082015260600190565b60208082526011908201527f4c617720646f65736e2774206578697374000000000000000000000000000000604082015260600190565b60208082526010908201527f417574686f726974696573204f6e6c7900000000000000000000000000000000604082015260600190565b6020808252601d908201527f4c6f693a20416c7265616479206578697374696e672061727469636c65000000604082015260600190565b6020808252601a908201527f416c7265616479206578697374696e6720617574686f72697479000000000000604082015260600190565b6020808252601b908201527f4c6f693a205469746c6520616c7265616479206578697374696e670000000000604082015260600190565b60208082526015908201527f4c6f693a204e6f6e206578697374696e67206c61770000000000000000000000604082015260600190565b6020808252601c908201527f41727469636c65206e6f20657869737420696e2074686973206c617700000000604082015260600190565b60008219821115611f6b57611f6b612044565b500190565b600082821015611f8257611f82612044565b500390565b60005b83811015611fa2578181015183820152602001611f8a565b83811115611fb1576000848401525b50505050565b600281046001821680611fcb57607f821691505b60208210811415612005577f4e487b7100000000000000000000000000000000000000000000000000000000600052602260045260246000fd5b50919050565b60007fffffffffffffffffffffffffffffffffffffffffffffffffffffffffffffffff82141561203d5761203d612044565b5060010190565b7f4e487b7100000000000000000000000000000000000000000000000000000000600052601160045260246000fd5b7f4e487b7100000000000000000000000000000000000000000000000000000000600052604160045260246000fdfea264697066735822122022839fe9fe5ea64898dca18a923cff83bf9aa177b47f2214e8aa8e8bdb132f0b64736f6c63430008010033",
  "immutableReferences": {},
  "source": "// SPDX-License-Identifier: MIT\npragma solidity ^0.8.0;\n\nimport \"contracts/Register.sol\";\n//import \"Register.sol\";\n/**\n * @notice Contract registering written laws. \n * @dev Laws can be edited (add, remove) by address contained in {Register_Authorities} list (Defined in the \"Register\" inherited contract)\n * \n * */\n contract Loi is Register{\n    using EnumerableSet for EnumerableSet.AddressSet;\n    using EnumerableSet for EnumerableSet.Bytes32Set;\n    \n    /*struct Clear_Article{\n        string Title;\n        string Content;\n        uint Timestamp;\n    }*/\n    \n    struct Article{\n        bytes Title;\n        bytes Content;\n        uint Timestamp;\n    }\n    \n    struct Law{\n        uint Index;\n        bytes Title;\n        bytes Description;\n        EnumerableSet.Bytes32Set List_Articles;\n        uint Timestamp;\n    }\n    \n    event Law_Created(bytes title);\n    event Article_Created(bytes law_title, bytes32 key);\n    event Article_Removed(bytes law_title, bytes32 key);\n    event Description_Changed(bytes title);\n    event Law_Removed(bytes title);\n    \n    /*State*/\n    //mapping(bytes32=>Clear_Article) public Claire_Articles;\n    \n    /**\n     * @dev Mapping of All registered in the contract (No matter which Law they belong to). The key is the keccak256 hash of it's Title and Content field. \n     * */\n    mapping(bytes32=>Article) public Articles;\n    \n    /**\n     * @dev Mapping of all Laws registered in the contract. The key is a bytes corresponding to the Title of the Law. The title can be clear or hashed. \n     * */\n    mapping(bytes=>Law) Lois; // Title=>Law\n    \n    /**\n     * @dev List of all laws of registered in the contract. \n     * */\n    bytes[] List_Lois;\n    \n    \n    /**\n     * @dev Add the address of Agora Contract to {Register_Authorities}.\n     * \n     * @param agora Address of Agora contract\n     * */\n    constructor(string memory Name, address agora) Register(Name){\n        Type_Institution = Institution_Type.LOI;\n        Register_Authorities.add(agora);\n    }\n    \n    \n    /*Register API functions. Callable by Register_Authorities contracts*/\n    \n    \n    /**\n     * @notice Add a new law to the register\n     * \n     * @param Title title of the law. It's the ID of the law\n     * @param Description Text explaining the aim of the law\n     * \n     * @dev Parameters can be hashed! The new law is added to {Lois} mapping and to {List_Lois} array.\n    */\n    function AddLaw(bytes memory Title, bytes memory Description) external Register_Authorities_Only {\n        require(Lois[Title].Timestamp == 0, \"Loi: Title already existing\");\n      \n        List_Lois.push(Title);\n        Lois[Title].Index = List_Lois.length - 1;\n        Lois[Title].Description = Description;\n        Lois[Title].Timestamp = block.timestamp;\n        emit Law_Created(Title);\n        \n    }\n    \n    /**\n     * @notice Add a new article to an existing law\n     * \n     * @param Law_Title Title of the law we want to add a new article. The corresponding law must exist.\n     * @param Article_Title Title of the Article\n     * @param Content Text content of the article\n     * \n     * @dev The ID of an article is the keccak256 hash of it's title and it's content. So (Article_Title, Content) tutple is the ID of the article and have to be unique among all registered Articles.\n     */\n    function AddArticle(bytes memory Law_Title, bytes memory Article_Title, bytes memory Content ) external Register_Authorities_Only {\n        require(Lois[Law_Title].Timestamp != 0, \"Loi: Non existing law\");\n       \n        bytes32 key = keccak256(abi.encode(Article_Title, Content));\n        require(Articles[key].Timestamp ==0, \"Loi: Already existing article\");\n        \n        Articles[key].Title = Article_Title;\n        Articles[key].Content = Content;\n        Articles[key].Timestamp = block.timestamp;\n        Lois[Law_Title].List_Articles.add(key);\n        \n        emit Article_Created(Law_Title, key);\n        \n    }\n    \n    \n    /**\n     * @notice Change the Description of an existing law\n     * \n     * @param Law_Title Title of the Law \n     * @param new_Description New description of the law\n     * \n     * @dev We can't change the \"Title\" field of the Law as it's his ID \n     */\n    function Change_Law_Description(bytes memory Law_Title, bytes memory new_Description)external Register_Authorities_Only {\n        \n        require(Lois[Law_Title].Timestamp !=0, \"Loi: Law doesn't exist\");\n        Lois[Law_Title].Description = new_Description;\n        \n        emit Description_Changed(Law_Title);\n    }\n    \n    \n    /**\n     * @notice Remove an article from a law\n     * \n     * @param Law_Title Title of the Law from which we want to remove an Article\n     * @param article Hash ID of the article to remove\n     * \n     * @dev The Article is deleted from {Articles} mapping and from corresponding Law {List_Articles} List field\n     * \n     * */\n    function Remove_Article(bytes memory Law_Title, bytes32 article) external Register_Authorities_Only {\n    \n        require(Lois[Law_Title].Timestamp >0 && Articles[article].Timestamp > 0, \"Non existing article/law\" );\n        require(Lois[Law_Title].List_Articles.contains(article), \"Article no exist in this law\");\n       \n        delete Articles[article];\n        Lois[Law_Title].List_Articles.remove(article);\n        \n        emit Article_Removed(Law_Title, article);\n        \n    }\n    \n    \n    /**\n     * @notice Remove a law\n     * \n     * @param law Title of the Law we want to remove\n     * \n     * @dev All Articles of the law are deleted from {Articles} mapping. The Law is deleted from {List_Lois} mapping and from {Lois} Array.\n     * \n     * */\n    function Remove_Law(bytes memory law) external Register_Authorities_Only {\n       \n        require(Lois[law].Timestamp !=0, \"Law doesn't exist\");\n        uint law_num = List_Lois.length;\n        bytes memory Last_Value = List_Lois[law_num-1];\n        List_Lois[Lois[law].Index] = Last_Value;\n        List_Lois.pop();\n        \n        uint article_num = Lois[law].List_Articles._inner._values.length;\n        for(uint i=0; i<article_num;i++){\n            delete Articles[Lois[law].List_Articles._inner._values[i]];\n        }\n        \n        delete Lois[law];\n        emit Law_Removed(law);\n    }\n    \n    /*function Check_Function_Call(bytes memory Data) public override view returns(bool){\n        \n    }*/\n    \n    \n    \n    /*GETTERS*/\n    /*function Get_Number_of_Law() external view returns(uint){\n        return List_Lois.length;\n    }*/\n    \n    \n    /**\n     * @dev Return the list of all laws's titles registered in the contract\n     * @return list_lois Array of of all registered laws's titles\n     * */\n    function Get_Law_List() external view returns(bytes[] memory list_lois){\n        return List_Lois;\n    }\n    \n    /**\n     * @dev Return the list of all articles contained by a specific law\n     * @param law Title of the law from which we want to get all Articles.\n     * @return law_article_list Array of all articles ID of a law\n     * */\n    function Get_Law_Article_List(bytes calldata law )external view returns(bytes32[] memory law_article_list){\n        return Lois[law].List_Articles._inner._values;\n    }\n    \n    /**\n     * @dev Return informations about a specific law.\n     * @param law Title of the law from which we want to get Infos.\n     * @return description {Description} field of the law\n     * @return timestamp {Timestamp} field of the law\n     * */\n    function Get_Law_Info(bytes calldata law) external view returns(bytes memory description, uint timestamp){\n        return (Lois[law].Description, Lois[law].Timestamp);\n    }\n    \n    \n    /*Utils Temporaire*/\n    \n    function Encode_Articles(bytes memory title, bytes memory content) external pure returns(bytes32){\n        return keccak256(abi.encode(title, content));\n    }\n        \n    //0x0000000000000000000000000000000000000000\n    \n    \n}",
  "sourcePath": "/home/andrei/Alyra/Web3_Referendum/contracts/Loi.sol",
  "compiler": {
    "name": "solc",
    "version": "0.8.1+commit.df193b15.Emscripten.clang"
  },
  "schemaVersion": "3.3.1",
  "updatedAt": "2021-04-07T11:21:26.421Z",
  "devdoc": {
    "details": "Laws can be edited (add, remove) by address contained in {Register_Authorities} list (Defined in the \"Register\" inherited contract)  ",
    "kind": "dev",
    "methods": {
      "AddArticle(bytes,bytes,bytes)": {
        "details": "The ID of an article is the keccak256 hash of it's title and it's content. So (Article_Title, Content) tutple is the ID of the article and have to be unique among all registered Articles.",
        "params": {
          "Article_Title": "Title of the Article",
          "Content": "Text content of the article ",
          "Law_Title": "Title of the law we want to add a new article. The corresponding law must exist."
        }
      },
      "AddLaw(bytes,bytes)": {
        "details": "Parameters can be hashed! The new law is added to {Lois} mapping and to {List_Lois} array.",
        "params": {
          "Description": "Text explaining the aim of the law ",
          "Title": "title of the law. It's the ID of the law"
        }
      },
      "Add_Authority(address)": {
        "params": {
          "authority": "address to add to the {Register_Authorities} "
        }
      },
      "Change_Law_Description(bytes,bytes)": {
        "details": "We can't change the \"Title\" field of the Law as it's his ID ",
        "params": {
          "Law_Title": "Title of the Law ",
          "new_Description": "New description of the law "
        }
      },
      "Get_Authorities()": {
        "returns": {
          "_0": "return address registered in the {Register_Authorities}"
        }
      },
      "Get_Law_Article_List(bytes)": {
        "details": "Return the list of all articles contained by a specific law",
        "params": {
          "law": "Title of the law from which we want to get all Articles."
        },
        "returns": {
          "law_article_list": "Array of all articles ID of a law "
        }
      },
      "Get_Law_Info(bytes)": {
        "details": "Return informations about a specific law.",
        "params": {
          "law": "Title of the law from which we want to get Infos."
        },
        "returns": {
          "description": "{Description} field of the law",
          "timestamp": "{Timestamp} field of the law "
        }
      },
      "Get_Law_List()": {
        "details": "Return the list of all laws's titles registered in the contract",
        "returns": {
          "list_lois": "Array of of all registered laws's titles "
        }
      },
      "Remove_Article(bytes,bytes32)": {
        "details": "The Article is deleted from {Articles} mapping and from corresponding Law {List_Articles} List field  ",
        "params": {
          "Law_Title": "Title of the Law from which we want to remove an Article",
          "article": "Hash ID of the article to remove "
        }
      },
      "Remove_Authority(address)": {
        "params": {
          "authority": "address to remove from the {Register_Authorities} "
        }
      },
      "Remove_Law(bytes)": {
        "details": "All Articles of the law are deleted from {Articles} mapping. The Law is deleted from {List_Lois} mapping and from {Lois} Array.  ",
        "params": {
          "law": "Title of the Law we want to remove "
        }
      },
      "Set_Constitution(address)": {
        "details": "The function Allows to change the Constitution contract the current Institution obey to. The function is only callable by the {Constitution_Address}",
        "params": {
          "new_constitution": "Address of the new Constitution contract."
        }
      },
      "constructor": {
        "details": "Add the address of Agora Contract to {Register_Authorities}. ",
        "params": {
          "agora": "Address of Agora contract "
        }
      }
    },
    "stateVariables": {
      "Articles": {
        "details": "Mapping of All registered in the contract (No matter which Law they belong to). The key is the keccak256 hash of it's Title and Content field.  "
      },
      "List_Lois": {
        "details": "List of all laws of registered in the contract.  "
      },
      "Lois": {
        "details": "Mapping of all Laws registered in the contract. The key is a bytes corresponding to the Title of the Law. The title can be clear or hashed.  "
      }
    },
    "version": 1
  },
  "userdoc": {
    "kind": "user",
    "methods": {
      "AddArticle(bytes,bytes,bytes)": {
        "notice": "Add a new article to an existing law "
      },
      "AddLaw(bytes,bytes)": {
        "notice": "Add a new law to the register "
      },
      "Add_Authority(address)": {
        "notice": "Add an account address to {Register_Authorities}"
      },
      "Change_Law_Description(bytes,bytes)": {
        "notice": "Change the Description of an existing law "
      },
      "Constitution_Address()": {
        "notice": "Address of the constitution of the DAO"
      },
      "Get_Authorities()": {
        "notice": "Getter for {Register_Authorities}"
      },
      "Name()": {
        "notice": "Name of the institution"
      },
      "Remove_Article(bytes,bytes32)": {
        "notice": "Remove an article from a law "
      },
      "Remove_Authority(address)": {
        "notice": "Removes an account address from the {Register_Authorities}"
      },
      "Remove_Law(bytes)": {
        "notice": "Remove a law "
      },
      "Type_Institution()": {
        "notice": "Type of the Institution"
      }
    },
    "notice": "Contract registering written laws. ",
    "version": 1
  }
}