{
  "contractName": "Majority_Judgment_Ballot",
  "abi": [
    {
      "anonymous": false,
      "inputs": [
        {
          "indexed": false,
          "internalType": "bytes32",
          "name": "key",
          "type": "bytes32"
        }
      ],
      "name": "Ballot_Created",
      "type": "event"
    },
    {
      "anonymous": false,
      "inputs": [
        {
          "indexed": false,
          "internalType": "bytes32",
          "name": "key",
          "type": "bytes32"
        }
      ],
      "name": "Begin_Validation",
      "type": "event"
    },
    {
      "anonymous": false,
      "inputs": [
        {
          "indexed": false,
          "internalType": "bytes32",
          "name": "key",
          "type": "bytes32"
        },
        {
          "indexed": false,
          "internalType": "address",
          "name": "voter",
          "type": "address"
        }
      ],
      "name": "Validated_Vote",
      "type": "event"
    },
    {
      "anonymous": false,
      "inputs": [
        {
          "indexed": false,
          "internalType": "bytes32",
          "name": "key",
          "type": "bytes32"
        }
      ],
      "name": "Vote_Finished",
      "type": "event"
    },
    {
      "anonymous": false,
      "inputs": [
        {
          "indexed": false,
          "internalType": "bytes32",
          "name": "key",
          "type": "bytes32"
        },
        {
          "indexed": false,
          "internalType": "address",
          "name": "voter",
          "type": "address"
        }
      ],
      "name": "Voted_Clear",
      "type": "event"
    },
    {
      "anonymous": false,
      "inputs": [
        {
          "indexed": false,
          "internalType": "bytes32",
          "name": "key",
          "type": "bytes32"
        },
        {
          "indexed": false,
          "internalType": "address",
          "name": "voter",
          "type": "address"
        }
      ],
      "name": "Voted_Hashed",
      "type": "event"
    },
    {
      "inputs": [
        {
          "internalType": "bytes32",
          "name": "",
          "type": "bytes32"
        }
      ],
      "name": "Ballots",
      "outputs": [
        {
          "internalType": "address",
          "name": "Voters_Register_Address",
          "type": "address"
        },
        {
          "internalType": "bytes4",
          "name": "Check_Voter_Selector",
          "type": "bytes4"
        },
        {
          "internalType": "enum Majority_Judgment_Ballot.Ballot_Status",
          "name": "Status",
          "type": "uint8"
        },
        {
          "internalType": "uint256",
          "name": "Creation_Timestamp",
          "type": "uint256"
        },
        {
          "internalType": "uint256",
          "name": "End_Vote_Timestamp",
          "type": "uint256"
        },
        {
          "internalType": "uint256",
          "name": "Vote_Duration",
          "type": "uint256"
        },
        {
          "internalType": "uint256",
          "name": "Vote_Validation_Duration",
          "type": "uint256"
        },
        {
          "internalType": "uint256",
          "name": "Propositions_Number",
          "type": "uint256"
        },
        {
          "internalType": "uint256",
          "name": "Max_Winning_Propositions_Number",
          "type": "uint256"
        },
        {
          "internalType": "uint256",
          "name": "Voter_Number",
          "type": "uint256"
        }
      ],
      "stateMutability": "view",
      "type": "function"
    },
    {
      "inputs": [
        {
          "internalType": "bytes32",
          "name": "key",
          "type": "bytes32"
        },
        {
          "internalType": "address",
          "name": "Voters_Register_Address",
          "type": "address"
        },
        {
          "internalType": "bytes4",
          "name": "Check_Voter_Selector",
          "type": "bytes4"
        },
        {
          "internalType": "uint256",
          "name": "Vote_Duration",
          "type": "uint256"
        },
        {
          "internalType": "uint256",
          "name": "Vote_Validation_Duration",
          "type": "uint256"
        },
        {
          "internalType": "uint256",
          "name": "Propositions_Number",
          "type": "uint256"
        },
        {
          "internalType": "uint256",
          "name": "Max_Winning_Propositions_Number",
          "type": "uint256"
        }
      ],
      "name": "Create_Ballot",
      "outputs": [],
      "stateMutability": "nonpayable",
      "type": "function"
    },
    {
      "inputs": [
        {
          "internalType": "bytes32",
          "name": "key",
          "type": "bytes32"
        },
        {
          "internalType": "uint256[]",
          "name": "Choices",
          "type": "uint256[]"
        }
      ],
      "name": "Vote_Clear",
      "outputs": [],
      "stateMutability": "nonpayable",
      "type": "function"
    },
    {
      "inputs": [
        {
          "internalType": "bytes32",
          "name": "key",
          "type": "bytes32"
        },
        {
          "internalType": "bytes32",
          "name": "Hash",
          "type": "bytes32"
        }
      ],
      "name": "Vote_Hashed",
      "outputs": [],
      "stateMutability": "nonpayable",
      "type": "function"
    },
    {
      "inputs": [
        {
          "internalType": "bytes32",
          "name": "key",
          "type": "bytes32"
        }
      ],
      "name": "End_Vote",
      "outputs": [],
      "stateMutability": "nonpayable",
      "type": "function"
    },
    {
      "inputs": [
        {
          "internalType": "bytes32",
          "name": "key",
          "type": "bytes32"
        },
        {
          "internalType": "uint256[]",
          "name": "Choices",
          "type": "uint256[]"
        },
        {
          "internalType": "bytes32",
          "name": "salt",
          "type": "bytes32"
        }
      ],
      "name": "Valdiate_Vote",
      "outputs": [],
      "stateMutability": "nonpayable",
      "type": "function"
    },
    {
      "inputs": [
        {
          "internalType": "bytes32",
          "name": "key",
          "type": "bytes32"
        }
      ],
      "name": "End_Validation_Vote",
      "outputs": [],
      "stateMutability": "nonpayable",
      "type": "function"
    },
    {
      "inputs": [
        {
          "internalType": "bytes32",
          "name": "key",
          "type": "bytes32"
        }
      ],
      "name": "Get_Winning_Propositions",
      "outputs": [
        {
          "internalType": "uint256[]",
          "name": "Winning_Propositions_List",
          "type": "uint256[]"
        }
      ],
      "stateMutability": "view",
      "type": "function"
    },
    {
      "inputs": [
        {
          "internalType": "bytes32",
          "name": "key",
          "type": "bytes32"
        },
        {
          "internalType": "uint256",
          "name": "Id",
          "type": "uint256"
        }
      ],
      "name": "Get_Winning_Proposition_byId",
      "outputs": [
        {
          "internalType": "uint256",
          "name": "Winning_Proposition",
          "type": "uint256"
        }
      ],
      "stateMutability": "view",
      "type": "function"
    },
    {
      "inputs": [
        {
          "internalType": "bytes32",
          "name": "key",
          "type": "bytes32"
        },
        {
          "internalType": "address",
          "name": "voter_address",
          "type": "address"
        }
      ],
      "name": "HasVoted",
      "outputs": [
        {
          "internalType": "bool",
          "name": "hasvoted",
          "type": "bool"
        }
      ],
      "stateMutability": "view",
      "type": "function"
    },
    {
      "inputs": [
        {
          "internalType": "bytes32",
          "name": "key",
          "type": "bytes32"
        },
        {
          "internalType": "address",
          "name": "voter_address",
          "type": "address"
        }
      ],
      "name": "HasValidated",
      "outputs": [
        {
          "internalType": "bool",
          "name": "Validated",
          "type": "bool"
        },
        {
          "internalType": "bytes32",
          "name": "Choice",
          "type": "bytes32"
        }
      ],
      "stateMutability": "view",
      "type": "function"
    },
    {
      "inputs": [
        {
          "internalType": "bytes32",
          "name": "key",
          "type": "bytes32"
        }
      ],
      "name": "Get_Voter_Number",
      "outputs": [
        {
          "internalType": "uint256",
          "name": "voter_num",
          "type": "uint256"
        }
      ],
      "stateMutability": "view",
      "type": "function"
    },
    {
      "inputs": [
        {
          "internalType": "bytes32",
          "name": "key",
          "type": "bytes32"
        },
        {
          "internalType": "uint256",
          "name": "proposition_Id",
          "type": "uint256"
        }
      ],
      "name": "Get_Propositions_Result",
      "outputs": [
        {
          "components": [
            {
              "internalType": "uint256[5]",
              "name": "Cumulated_Score",
              "type": "uint256[5]"
            },
            {
              "internalType": "enum Majority_Judgment_Ballot.Assessement",
              "name": "Median_Grade",
              "type": "uint8"
            }
          ],
          "internalType": "struct Majority_Judgment_Ballot.Propositions_Result",
          "name": "proposition_result",
          "type": "tuple"
        }
      ],
      "stateMutability": "view",
      "type": "function"
    }
  ],
  "bytecode": "0x608060405234801561001057600080fd5b506124cf806100206000396000f3fe608060405234801561001057600080fd5b50600436106100df5760003560e01c8063589edb441161008c578063c0fac25011610066578063c0fac250146101f2578063ce584e1214610205578063e134535814610218578063f766ddf61461022b576100df565b8063589edb441461019e5780636e85cb0a146101bf578063b0a0787e146101df576100df565b80633f71f876116100bd5780633f71f876146101565780634e39b6e61461016b57806352d1b5231461018b576100df565b8063097d60ef146100e45780631d1a8231146101165780632422de8714610136575b600080fd5b6100f76100f2366004611c76565b61023e565b60405161010d9a99989796959493929190611e55565b60405180910390f35b610129610124366004611c76565b6102ce565b60405161010d9190611f45565b610149610144366004611c76565b6103c1565b60405161010d9190611fa4565b610169610164366004611c76565b6103d6565b005b61017e610179366004611dda565b610526565b60405161010d9190612378565b610169610199366004611d89565b6105d5565b6101b16101ac366004611c8e565b610911565b60405161010d929190611f94565b6101d26101cd366004611c8e565b61095b565b60405161010d9190611f89565b6101696101ed366004611c76565b610995565b610169610200366004611dda565b610bcb565b610149610213366004611dda565b610db8565b610169610226366004611cb9565b610e46565b610169610239366004611d3f565b6110d2565b6000602081905290815260409020805460018201546002830154600384015460048501546005860154600687015460079097015473ffffffffffffffffffffffffffffffffffffffff87169774010000000000000000000000000000000000000000880460e01b977801000000000000000000000000000000000000000000000000900460ff169695949392918a565b606060036000838152602081905260409020547801000000000000000000000000000000000000000000000000900460ff16600381111561031f57634e487b7160e01b600052602160045260246000fd5b1461035f576040517f08c379a000000000000000000000000000000000000000000000000000000000815260040161035690612008565b60405180910390fd5b60008281526020818152604091829020600801805483518184028101840190945280845290918301828280156103b457602002820191906000526020600020905b8154815260200190600101908083116103a0575b505050505090505b919050565b60009081526020819052604090206007015490565b60026000828152602081905260409020547801000000000000000000000000000000000000000000000000900460ff16600381111561042557634e487b7160e01b600052602160045260246000fd5b14801561045d575060008181526020819052604090206002015461044990426123f3565b600082815260208190526040902060040154105b610493576040517f08c379a000000000000000000000000000000000000000000000000000000000815260040161035690612265565b61049c816113e9565b6000818152602081905260409081902080547fffffffffffffff00ffffffffffffffffffffffffffffffffffffffffffffffff167803000000000000000000000000000000000000000000000000179055517fe96bdd59a53e270495249e7854a0227aacf98b768837e8d590d2469ab43553619061051b908390611fa4565b60405180910390a150565b61052e611bac565b600083815260208181526040808320858452600a0190915290819020815160e08101835291829081018260058282826020028201915b815481526020019060010190808311610564575050509183525050600582015460209091019060ff1660048111156105ac57634e487b7160e01b600052602160045260246000fd5b60048111156105cb57634e487b7160e01b600052602160045260246000fd5b9052509392505050565b60026000858152602081905260409020547801000000000000000000000000000000000000000000000000900460ff16600381111561062457634e487b7160e01b600052602160045260246000fd5b1461065b576040517f08c379a000000000000000000000000000000000000000000000000000000000815260040161035690612341565b600084815260208181526040808320338452600901909152902054610100900460ff16156106b5576040517f08c379a00000000000000000000000000000000000000000000000000000000081526004016103569061211b565b600084815260208190526040902060050154829081906106d69060016123c7565b1461070d576040517f08c379a000000000000000000000000000000000000000000000000000000000815260040161035690612189565b600084848460405160200161072493929190611eeb565b604080517fffffffffffffffffffffffffffffffffffffffffffffffffffffffffffffffe08184030181529181528151602092830120600089815280845282812033825260090190935291206001015490915081146107af576040517f08c379a00000000000000000000000000000000000000000000000000000000081526004016103569061229c565b60008681526020818152604080832033845260098101835290832080547fffffffffffffffffffffffffffffffffffffffffffffffffffffffffffff00ff16610100179055888352919052600701546108099060016123c7565b6000878152602081905260408120600701919091555b848110156108cf57600086868381811061084957634e487b7160e01b600052603260045260246000fd5b9050602002013590505b60058110156108bc57600088815260208181526040808320858452600a019091529020816005811061089557634e487b7160e01b600052603260045260246000fd5b0180549060006108a48361240a565b919050555080806108b49061240a565b915050610853565b50806108c78161240a565b91505061081f565b507fa0c983f45e87f58b01ca20537cec70181d303e2ec150391e9f3716e68ecc53fd8633604051610901929190611fad565b60405180910390a1505050505050565b60008281526020818152604080832073ffffffffffffffffffffffffffffffffffffffff851684526009019091529020805460019091015461010090910460ff16905b9250929050565b60008281526020818152604080832073ffffffffffffffffffffffffffffffffffffffff8516845260090190915290205460ff1692915050565b60016000828152602081905260409020547801000000000000000000000000000000000000000000000000900460ff1660038111156109e457634e487b7160e01b600052602160045260246000fd5b14610a1b576040517f08c379a000000000000000000000000000000000000000000000000000000000815260040161035690612152565b600081815260208190526040902060010154610a3790426123f3565b60008281526020819052604090206003015410610a80576040517f08c379a0000000000000000000000000000000000000000000000000000000008152600401610356906121f7565b60008181526020819052604090206004015415610b23576000818152602081905260409081902080547fffffffffffffff00ffffffffffffffffffffffffffffffffffffffffffffffff167802000000000000000000000000000000000000000000000000179055517fff677262295f7ba2a3a32db725abf746d1b7b106cf8e123775db03177a912f9790610b16908390611fa4565b60405180910390a1610bb4565b610b2c816113e9565b6000818152602081905260409081902080547fffffffffffffff00ffffffffffffffffffffffffffffffffffffffffffffffff167803000000000000000000000000000000000000000000000000179055517fe96bdd59a53e270495249e7854a0227aacf98b768837e8d590d2469ab435536190610bab908390611fa4565b60405180910390a15b600090815260208190526040902042600290910155565b60016000838152602081905260409020547801000000000000000000000000000000000000000000000000900460ff166003811115610c1a57634e487b7160e01b600052602160045260246000fd5b14610c51576040517f08c379a000000000000000000000000000000000000000000000000000000000815260040161035690612152565b60008281526020818152604080832033845260090190915290205460ff1615610ca6576040517f08c379a000000000000000000000000000000000000000000000000000000000815260040161035690612076565b610cb0823361195e565b610ce6576040517f08c379a000000000000000000000000000000000000000000000000000000000815260040161035690611fd1565b600082815260208190526040902060040154610d2e576040517f08c379a0000000000000000000000000000000000000000000000000000000008152600401610356906122d3565b6000828152602081815260408083203380855260099091019092529182902080547fffffffffffffffffffffffffffffffffffffffffffffffffffffffffffffff0016600190811782550183905590517faf7369025904012c0f1acb24841aa1018ba994d0ba5dc0f14600d322739c375391610dac91859190611fad565b60405180910390a15050565b6000828152602081905260408120600801548210610e02576040517f08c379a00000000000000000000000000000000000000000000000000000000081526004016103569061230a565b6000838152602081905260409020600801805483908110610e3357634e487b7160e01b600052603260045260246000fd5b9060005260206000200154905092915050565b60008781526020819052604090206001015415610e8f576040517f08c379a00000000000000000000000000000000000000000000000000000000081526004016103569061203f565b73ffffffffffffffffffffffffffffffffffffffff86161580610ed257507fffffffff000000000000000000000000000000000000000000000000000000008516155b80610edb575083155b80610ee4575080155b15610f1b576040517f08c379a00000000000000000000000000000000000000000000000000000000081526004016103569061222e565b8160011415610f635780600114610f5e576040517f08c379a0000000000000000000000000000000000000000000000000000000008152600401610356906120ad565b610f9c565b808211610f9c576040517f08c379a0000000000000000000000000000000000000000000000000000000008152600401610356906120ad565b600087815260208190526040902080547fffffffffffffffffffffffff00000000000000000000000000000000000000001673ffffffffffffffffffffffffffffffffffffffff8816177fffffffffffffffff00000000ffffffffffffffffffffffffffffffffffffffff167401000000000000000000000000000000000000000060e088901c0217808255600382018690556004820185905560058201849055600682018390554260018084019190915591907fffffffffffffff00ffffffffffffffffffffffffffffffffffffffffffffffff1678010000000000000000000000000000000000000000000000008302179055507f71197020ed13a7746ac14a164ff9942e4ecd6bb6ed9dee9edcf1a3f98daffc51876040516110c19190611fa4565b60405180910390a150505050505050565b60016000848152602081905260409020547801000000000000000000000000000000000000000000000000900460ff16600381111561112157634e487b7160e01b600052602160045260246000fd5b14611158576040517f08c379a000000000000000000000000000000000000000000000000000000000815260040161035690612152565b60008381526020818152604080832033845260090190915290205460ff16156111ad576040517f08c379a000000000000000000000000000000000000000000000000000000000815260040161035690612076565b6111b7833361195e565b6111ed576040517f08c379a000000000000000000000000000000000000000000000000000000000815260040161035690611fd1565b60008381526020819052604090206004015415611236576040517f08c379a0000000000000000000000000000000000000000000000000000000008152600401610356906120e4565b600083815260208190526040902060050154819081906112579060016123c7565b1461128e576040517f08c379a000000000000000000000000000000000000000000000000000000000815260040161035690612189565b6000848152602081905260409020600701546112ab9060016123c7565b60008581526020818152604080832060078101949094553383526009909301905290812080547fffffffffffffffffffffffffffffffffffffffffffffffffffffffffffffff001660011790555b818110156113a957600084848381811061132357634e487b7160e01b600052603260045260246000fd5b9050602002013590505b600581101561139657600086815260208181526040808320858452600a019091529020816005811061136f57634e487b7160e01b600052603260045260246000fd5b01805490600061137e8361240a565b9190505550808061138e9061240a565b91505061132d565b50806113a18161240a565b9150506112f9565b507fad7d4bea7584cc2dd746b3a323fe8f2db17a81dc2b34db12371f846b6a86321d84336040516113db929190611fad565b60405180910390a150505050565b6000818152602081905260408120600581015460079091015490919061141190600290612443565b60008481526020819052604090206007015461142f906002906123df565b61143991906123c7565b6000848152602081905260408120600601549192506114598260016123c7565b67ffffffffffffffff81111561147f57634e487b7160e01b600052604160045260246000fd5b6040519080825280602002602001820160405280156114a8578160200160208202803683370190505b50905060006114b88360016123c7565b67ffffffffffffffff8111156114de57634e487b7160e01b600052604160045260246000fd5b604051908082528060200260200182016040528015611507578160200160208202803683370190505b509050600080808080805b8a8111611845575b60008c815260208181526040808320848452600a0190915290208a90876005811061155557634e487b7160e01b600052603260045260246000fd5b0154101561156f57856115678161240a565b96505061151a565b85600481111561158f57634e487b7160e01b600052602160045260246000fd5b60008d815260208181526040808320858452600a01909152902060050180547fffffffffffffffffffffffffffffffffffffffffffffffffffffffffffffff001660018360048111156115f257634e487b7160e01b600052602160045260246000fd5b0217905550600192505b82801561160857508385105b156116c6578587868151811061162e57634e487b7160e01b600052603260045260246000fd5b602002602001015110806116a557508587868151811061165e57634e487b7160e01b600052603260045260246000fd5b60200260200101511480156116a55750806116a28d8a888151811061169357634e487b7160e01b600052603260045260246000fd5b6020026020010151848a611ada565b14155b156116bc57846116b48161240a565b9550506116c1565b600092505b6115fc565b6116d18960016123c7565b8410156116e657836116e28161240a565b9450505b8091505b8385101561182c57836116fe8660016123c7565b10156117c9578188868151811061172557634e487b7160e01b600052603260045260246000fd5b602002602001015189878151811061174d57634e487b7160e01b600052603260045260246000fd5b602002602001018194508281525050508587868151811061177e57634e487b7160e01b600052603260045260246000fd5b60200260200101518887815181106117a657634e487b7160e01b600052603260045260246000fd5b6020026020010181985082815250505084806117c19061240a565b955050611827565b818886815181106117ea57634e487b7160e01b600052603260045260246000fd5b6020026020010181815250508587868151811061181757634e487b7160e01b600052603260045260246000fd5b6020026020010181815250508394505b6116ea565b600095508594508061183d8161240a565b915050611512565b508660008151811061186757634e487b7160e01b600052603260045260246000fd5b60200260200101516000141561189d5760008b815260208181526040822060080180546001810182559083529082200155611951565b60005b60008c81526020819052604090206008015489111561194f578781815181106118d957634e487b7160e01b600052603260045260246000fd5b602002602001015160001461193d576000808d815260200190815260200160002060080188828151811061191d57634e487b7160e01b600052603260045260246000fd5b602090810291909101810151825460018101845560009384529190922001555b806119478161240a565b9150506118a0565b505b5050505050505050505050565b6000828152602081905260408082205490518291829173ffffffffffffffffffffffffffffffffffffffff82169174010000000000000000000000000000000000000000900460e01b906119b6908790602401611e34565b604080517fffffffffffffffffffffffffffffffffffffffffffffffffffffffffffffffe08184030181529181526020820180517bffffffffffffffffffffffffffffffffffffffffffffffffffffffff167fffffffff00000000000000000000000000000000000000000000000000000000909416939093179092529051611a3f9190611dfb565b6000604051808303816000865af19150503d8060008114611a7c576040519150601f19603f3d011682016040523d82523d6000602084013e611a81565b606091505b509150915081611abd576040517f08c379a0000000000000000000000000000000000000000000000000000000008152600401610356906121c0565b80806020019051810190611ad19190611c4f565b95945050505050565b600081611b1c57600085815260208181526040808320868452600a019091528082205486835290822090915b015410611b135783611b15565b825b9050611ba4565b600085815260208181526040808320868452600a019091529020611b416001846123f3565b60058110611b5f57634e487b7160e01b600052603260045260246000fd5b0154600086815260208181526040808320888452600a019091529020611b866001856123f3565b60058110611b0657634e487b7160e01b600052603260045260246000fd5b949350505050565b6040518060400160405280611bbf611bcb565b81526020016000905290565b6040518060a001604052806005906020820280368337509192915050565b803573ffffffffffffffffffffffffffffffffffffffff811681146103bc57600080fd5b60008083601f840112611c1e578182fd5b50813567ffffffffffffffff811115611c35578182fd5b602083019150836020808302850101111561095457600080fd5b600060208284031215611c60578081fd5b81518015158114611c6f578182fd5b9392505050565b600060208284031215611c87578081fd5b5035919050565b60008060408385031215611ca0578081fd5b82359150611cb060208401611be9565b90509250929050565b600080600080600080600060e0888a031215611cd3578283fd5b87359650611ce360208901611be9565b955060408801357fffffffff0000000000000000000000000000000000000000000000000000000081168114611d17578384fd5b969995985095966060810135965060808101359560a0820135955060c0909101359350915050565b600080600060408486031215611d53578283fd5b83359250602084013567ffffffffffffffff811115611d70578283fd5b611d7c86828701611c0d565b9497909650939450505050565b60008060008060608587031215611d9e578384fd5b84359350602085013567ffffffffffffffff811115611dbb578384fd5b611dc787828801611c0d565b9598909750949560400135949350505050565b60008060408385031215611dec578182fd5b50508035926020909101359150565b60008251815b81811015611e1b5760208186018101518583015201611e01565b81811115611e295782828501525b509190910192915050565b73ffffffffffffffffffffffffffffffffffffffff91909116815260200190565b73ffffffffffffffffffffffffffffffffffffffff8b1681527fffffffff000000000000000000000000000000000000000000000000000000008a166020820152610140810160048a10611eab57611eab612483565b60408201999099526060810197909752608087019590955260a086019390935260c085019190915260e08401526101008301526101209091015292915050565b6000604082528360408301527f07ffffffffffffffffffffffffffffffffffffffffffffffffffffffffffffff841115611f23578081fd5b6020840280866060850137820160600190815260209091019190915292915050565b6020808252825182820181905260009190848201906040850190845b81811015611f7d57835183529284019291840191600101611f61565b50909695505050505050565b901515815260200190565b9115158252602082015260400190565b90815260200190565b91825273ffffffffffffffffffffffffffffffffffffffff16602082015260400190565b60208082526013908201527f41646472657373204e6f7420416c6c6f77656400000000000000000000000000604082015260600190565b60208082526014908201527f42616c6c6f74207374696c6c2050656e64696e67000000000000000000000000604082015260600190565b60208082526017908201527f416c7265616479204578697374696e672042616c6c6f74000000000000000000604082015260600190565b6020808252600d908201527f416c726561647920566f74656400000000000000000000000000000000000000604082015260600190565b60208082526016908201527f417267756d656e7420496e636f6e73697374656e637900000000000000000000604082015260600190565b60208082526016908201527f53686f756c642055736520566f74655f48617368656400000000000000000000604082015260600190565b60208082526016908201527f566f746520416c72656164792056616c69646174656400000000000000000000604082015260600190565b60208082526013908201527f4e6f7420617420766f74696e6720737461676500000000000000000000000000604082015260600190565b6020808252601b908201527f43686f6963657320617267756d656e742077726f6e672073697a650000000000604082015260600190565b6020808252601d908201527f566f74657220636865636b2066756e6374696f6e207265766572746564000000604082015260600190565b60208082526019908201527f566f74696e67207374616765206e6f742066696e697368656400000000000000604082015260600190565b60208082526013908201527f42616420417267756d656e742056616c75657300000000000000000000000000604082015260600190565b6020808252601a908201527f4e6f7420617420766f746520636f756e74696e67207374616765000000000000604082015260600190565b60208082526012908201527f48617368657320646f6e2774206d617463680000000000000000000000000000604082015260600190565b60208082526015908201527f53686f756c642055736520566f74655f436c6561720000000000000000000000604082015260600190565b60208082526018908201527f4964206578636565642057696e6e696e67206c656e6774680000000000000000604082015260600190565b6020808252601c908201527f4e6f7420617420766f74652076616c69646174696f6e20737461676500000000604082015260600190565b815160c08201908260005b60058110156123a2578251825260209283019290910190600101612383565b5050506020830151600581106123ba576123ba612483565b8060a08401525092915050565b600082198211156123da576123da612457565b500190565b6000826123ee576123ee61246d565b500490565b60008282101561240557612405612457565b500390565b60007fffffffffffffffffffffffffffffffffffffffffffffffffffffffffffffffff82141561243c5761243c612457565b5060010190565b6000826124525761245261246d565b500690565b634e487b7160e01b600052601160045260246000fd5b634e487b7160e01b600052601260045260246000fd5b634e487b7160e01b600052602160045260246000fdfea264697066735822122086ba4cf8756acbbe214d8675414f8af62731d5c9e03f9bab5b722dda40e9222c64736f6c63430008010033",
  "immutableReferences": {},
  "source": "// SPDX-License-Identifier: MIT\npragma solidity ^0.8.0;\n\n\n/*pragma solidity >=0.6.0 <0.8.0;*/\nimport \"contracts/IVote.sol\";\nimport \"@openzeppelin/contracts/math/SafeMath.sol\";\n\n/*import \"IVote.sol\";\nimport \"https://github.com/OpenZeppelin/openzeppelin-contracts/blob/master/contracts/utils/math/SafeMath.sol\";\n*/\n\n/** \n * @notice Implementation of IVote interface. Majority_Judgment_Ballot contract implement the Majority Judgment which is a ballot process proven to be able to avoid biases of classical Uninominal ballot such as strategic vote. In Majority Judgment ballot, \n * citizens assess each candidat and give it a grade. In our implementation, each candidat proposition can be assessed as Reject, Bad, Neutral, Good and Excelent. \n * For each candidat proposition, citizens assessment are sorted from best grades to worst ones (from Excelent to Reject). The majority grade of a proposition corresponds to its median grade. If the majority grade of a candidat proposition is Good, \n * it means that 50% of citizens think that this proposition is Good or Better.\n * Winning propositions are the M candidats propositions that have the best Majority grade.\n * If the most popular proposition is the blank vote, then we ignore the other M-1 winning propositions.\n * */\n \n /// @dev Implementation of IVote interface. Majority_Judgment_Ballot contract implement the Majority Judgment which is a ballot process proven to be able to avoid biases of classical Uninominal ballot such as strategic vote. In Majority Judgment ballot, \ncontract Majority_Judgment_Ballot is IVote{\n\n    enum Assessement{\n        EXCELENT,\n        GOOD,\n        NEUTRAL,\n        BAD,\n        REJECT\n    }\n    \n    enum Ballot_Status{\n        NON_CREATED,\n        VOTE,\n        VOTE_VALIDATION,\n        FINISHED\n    }\n    \n    struct Voter{\n        bool Voted;\n        bool Validated;\n        bytes32 Choice;\n    }\n    \n    struct Propositions_Result{\n        uint[5] Cumulated_Score;\n        Assessement Median_Grade;\n    }\n    \n    struct Ballot{\n        address Voters_Register_Address;\n        bytes4 Check_Voter_Selector;\n        Ballot_Status Status;\n        uint Creation_Timestamp;\n        uint End_Vote_Timestamp;\n        uint Vote_Duration;\n        uint Vote_Validation_Duration;\n        uint Propositions_Number;  \n        uint Max_Winning_Propositions_Number;\n        uint Voter_Number;\n        uint[] Winning_Propositions;\n        mapping(address=>Voter) Voters;\n        mapping(uint=>Propositions_Result) Propositions_Results; //From 0 to Propositions_Number. If the 0 proposition get the first place, the oder propositions are rejected.\n    }\n    \n    event Ballot_Created(bytes32 key);\n    event Voted_Clear(bytes32 key, address voter);\n    event Voted_Hashed(bytes32 key, address voter);\n    event Begin_Validation(bytes32 key);\n    event Validated_Vote(bytes32 key, address voter);\n    event Vote_Finished(bytes32 key);\n    \n    /// @dev Mapping of all voting sessions of the contract. \n    mapping(bytes32=>Ballot) public Ballots;\n    \n    /// @dev See {IVote} interface.\n    function Create_Ballot(bytes32 key, address Voters_Register_Address, bytes4 Check_Voter_Selector, uint Vote_Duration, uint Vote_Validation_Duration, uint Propositions_Number, uint Max_Winning_Propositions_Number) external override {\n        require(Ballots[key].Creation_Timestamp == 0, \"Already Existing Ballot\");\n        if(Voters_Register_Address==address(0) || Check_Voter_Selector==bytes4(0) || Vote_Duration==0 || Max_Winning_Propositions_Number==0 ){\n            revert(\"Bad Argument Values\");\n        }\n        \n        if(Propositions_Number==1){\n            require(Max_Winning_Propositions_Number==1, \"Argument Inconsistency\");\n            \n        }else{\n            require(Propositions_Number>Max_Winning_Propositions_Number, \"Argument Inconsistency\");\n        }\n        \n        Ballots[key].Voters_Register_Address =Voters_Register_Address;\n        Ballots[key].Check_Voter_Selector = Check_Voter_Selector;\n        Ballots[key].Vote_Duration = Vote_Duration;\n        Ballots[key].Vote_Validation_Duration = Vote_Validation_Duration;\n        Ballots[key].Propositions_Number = Propositions_Number;\n        Ballots[key].Max_Winning_Propositions_Number = Max_Winning_Propositions_Number;\n        \n        Ballots[key].Creation_Timestamp =block.timestamp;\n        Ballots[key].Status = Ballot_Status.VOTE;\n\n        emit Ballot_Created(key);\n    }\n        \n    /// @dev See {IVote} interface.\n    function Vote_Clear(bytes32 key, uint[] calldata Choices) external override{\n        require(Ballots[key].Status == Ballot_Status.VOTE, \"Not at voting stage\");\n        require(!Ballots[key].Voters[msg.sender].Voted, \"Already Voted\");\n        require(Check_Voter_Address(key, msg.sender), \"Address Not Allowed\");\n        require(Ballots[key].Vote_Validation_Duration == 0, \"Should Use Vote_Hashed\");\n        uint choice_len = Choices.length ;\n        require(Ballots[key].Propositions_Number + 1 == choice_len, \"Choices argument wrong size\");\n        \n        Ballots[key].Voter_Number = Ballots[key].Voter_Number +1;\n        \n        Ballots[key].Voters[msg.sender].Voted = true;\n        for(uint i=0; i< choice_len; i++){\n            for(uint j=Choices[i]; j<5; j++){\n                Ballots[key].Propositions_Results[i].Cumulated_Score[j]++;\n            }\n        }\n        emit Voted_Clear(key, msg.sender);\n    }\n    \n    /// @dev See {IVote} interface.\n    function Vote_Hashed(bytes32 key, bytes32 Hash) external override{\n        require(Ballots[key].Status == Ballot_Status.VOTE, \"Not at voting stage\");\n        require(!Ballots[key].Voters[msg.sender].Voted, \"Already Voted\");\n        require(Check_Voter_Address(key, msg.sender), \"Address Not Allowed\");\n        require(Ballots[key].Vote_Validation_Duration > 0, \"Should Use Vote_Clear\");\n\n        Ballots[key].Voters[msg.sender].Voted = true;\n        Ballots[key].Voters[msg.sender].Choice = Hash;\n        \n        emit Voted_Hashed( key, msg.sender);\n    }\n    \n    /// @dev See {IVote} interface.\n    function End_Vote(bytes32 key)external override{\n        require(Ballots[key].Status==Ballot_Status.VOTE, \"Not at voting stage\");\n        require(Ballots[key].Vote_Duration < block.timestamp - Ballots[key].Creation_Timestamp, \"Voting stage not finished\");\n        if(Ballots[key].Vote_Validation_Duration>0){\n            Ballots[key].Status = Ballot_Status.VOTE_VALIDATION;\n            emit Begin_Validation(key);\n        }else{\n            _Talling_Votes(key);\n            Ballots[key].Status = Ballot_Status.FINISHED;\n            emit Vote_Finished(key);\n        }\n        Ballots[key].End_Vote_Timestamp = block.timestamp;\n        \n    }\n    \n    /// @dev See {IVote} interface.\n    function Valdiate_Vote(bytes32 key, uint[] calldata Choices, bytes32 salt )external override {\n        require(Ballots[key].Status==Ballot_Status.VOTE_VALIDATION, \"Not at vote validation stage\");\n        require(!Ballots[key].Voters[msg.sender].Validated, \"Vote Already Validated\");\n        uint choice_len = Choices.length ;\n        require(Ballots[key].Propositions_Number+1 == choice_len, \"Choices argument wrong size\");\n        \n        bytes32 hash = keccak256(abi.encode(Choices, salt));\n        require(hash==Ballots[key].Voters[msg.sender].Choice, \"Hashes don't match\");\n        \n        Ballots[key].Voters[msg.sender].Validated = true;\n        Ballots[key].Voter_Number = Ballots[key].Voter_Number+1;\n        \n        for(uint i=0; i<Choices.length; i++){\n            for(uint j=Choices[i]; j<5; j++){\n                Ballots[key].Propositions_Results[i].Cumulated_Score[j]++;\n            }\n        }\n        \n        emit Validated_Vote(key, msg.sender);\n    }\n    \n    /// @dev See {IVote} interface.\n    function End_Validation_Vote(bytes32 key) external override{\n        require( (Ballots[key].Status == Ballot_Status.VOTE_VALIDATION && Ballots[key].Vote_Validation_Duration < block.timestamp - Ballots[key].End_Vote_Timestamp), \"Not at vote counting stage\");\n        _Talling_Votes(key);\n        Ballots[key].Status = Ballot_Status.FINISHED;\n        emit Vote_Finished(key);\n        \n    }\n    \n    /** \n     * @dev Count votes. \n     * @param key Id of the voting session\n    */\n    function _Talling_Votes(bytes32 key) internal{\n        uint number_propositions = Ballots[key].Propositions_Number;\n        uint half_voters = Ballots[key].Voter_Number/2 +  Ballots[key].Voter_Number%2;\n        uint winning_propositions_number = Ballots[key].Max_Winning_Propositions_Number;\n        uint[] memory winning_propositions = new uint[](winning_propositions_number+1);\n        uint[] memory winning_propositions_grades = new uint[](winning_propositions_number+1);\n        uint mention;\n        uint rank;\n        uint winning_list_size;\n        bool continu;\n        uint Temp_prop;\n\n        //Assessement of eaxh proposition\n        for(uint prop=0; prop<=number_propositions; prop++){\n            while(Ballots[key].Propositions_Results[prop].Cumulated_Score[mention]<half_voters){\n                mention++;\n            }\n            Ballots[key].Propositions_Results[prop].Median_Grade = Assessement(mention);\n\n         \n         //Fetching the \"winning_propositions_number\" winning propositions.\n            continu=true;\n            while(continu && rank<winning_list_size){\n                if(winning_propositions_grades[rank]<mention || (winning_propositions_grades[rank]==mention && Order_Proposition_Result(key, winning_propositions[rank], prop, mention)!=prop)){\n                    rank++;\n                }else{\n                    continu=false;\n                }\n            }\n                \n            if(winning_list_size<winning_propositions_number+1){\n                winning_list_size++;\n            }\n            \n            Temp_prop=prop;\n            \n            while(rank<winning_list_size){\n                if(rank+1<winning_list_size){\n                    (winning_propositions[rank], Temp_prop) = (Temp_prop, winning_propositions[rank]);\n                    (winning_propositions_grades[rank], mention) = (mention, winning_propositions_grades[rank]);\n                    rank++;\n                }else{\n                    winning_propositions[rank]=Temp_prop;\n                    winning_propositions_grades[rank]=mention;\n                    rank = winning_list_size;\n                }\n            }\n                \n            rank=0; \n            mention=0;\n        }\n            \n        if(winning_propositions[0]==0){ //If the first proposition is the default proposition\n            Ballots[key].Winning_Propositions.push(0);\n        }else{\n            uint i;\n            while(Ballots[key].Winning_Propositions.length<winning_propositions_number){\n                if(winning_propositions[i]!=0){ //0 proposition is conssidered only if it is in the first position\n                    Ballots[key].Winning_Propositions.push(winning_propositions[i]);\n                }\n                i++;        \n            }\n        }\n        \n        \n    }\n    \n     /**\n     * @dev Sort by their score two propositions that have the same {median_grade}. The function returns the id of the most popular function.\n     * @param key Id of the voting session\n     * @param prop1 First proposition Id. \n     * @param prop2 Second proposition Id.\n     * @param median_grade Median grade score.\n     * \n    */\n    function Order_Proposition_Result(bytes32 key, uint prop1, uint prop2, uint median_grade)internal view returns(uint){\n        if(median_grade==0){\n            return (Ballots[key].Propositions_Results[prop1].Cumulated_Score[0]<Ballots[key].Propositions_Results[prop2].Cumulated_Score[0])? prop2:prop1;\n        }else{\n            return (Ballots[key].Propositions_Results[prop1].Cumulated_Score[median_grade-1]<Ballots[key].Propositions_Results[prop2].Cumulated_Score[median_grade-1])? prop2:prop1;\n        }\n        \n    }\n    \n    /**\n     * @dev Check whether an account is registered in the {Voters_Register_Address} contract. In other words, it checks whether the account has the right to vote in the voting session or not.\n     * @param key Id of the voting session\n     * @param voter_address Address of the account.\n     * \n    */\n    function Check_Voter_Address(bytes32 key, address voter_address) internal returns(bool){\n        (bool success, bytes memory Data) = Ballots[key].Voters_Register_Address.call(abi.encodeWithSelector(Ballots[key].Check_Voter_Selector, voter_address));\n        require(success, \"Voter check function reverted\");\n        \n        return abi.decode(Data, (bool));\n    }\n    \n    \n    /*GETTER*/\n    \n    /// @dev See {IVote} interface\n    function Get_Winning_Propositions(bytes32 key)external view override returns(uint[] memory Winning_Propositions_List){\n        require(Ballots[key].Status == Ballot_Status.FINISHED, \"Ballot still Pending\");\n        return Ballots[key].Winning_Propositions;\n    }\n    \n    /// @dev See {IVote} interface\n    function Get_Winning_Proposition_byId(bytes32 key, uint Id)external view override returns(uint Winning_Proposition){\n        require(Id<Ballots[key].Winning_Propositions.length, \"Id exceed Winning length\");\n        return Ballots[key].Winning_Propositions[Id];\n    }\n\n    /// @dev See {IVote} interface\n    function HasVoted(bytes32 key, address voter_address) external view override returns(bool hasvoted){\n        return Ballots[key].Voters[voter_address].Voted;\n    }\n    \n    /// @dev See {IVote} interface\n    function HasValidated(bytes32 key, address voter_address) external view override returns(bool Validated, bytes32 Choice){\n         return (Ballots[key].Voters[voter_address].Validated, Ballots[key].Voters[voter_address].Choice);\n    }\n    \n    /// @dev See {IVote} interface\n    function Get_Voter_Number(bytes32 key)external view override returns(uint voter_num){\n        return Ballots[key].Voter_Number;\n    }\n    \n    /**\n     * @dev Get the score obtained by a proposition\n     * @param key Id of the voting session\n     * @param proposition_Id Index of the proposition\n     * @return proposition_result\n     *  \n     * */\n    function Get_Propositions_Result(bytes32 key, uint proposition_Id) external view returns(Propositions_Result memory proposition_result){\n        return Ballots[key].Propositions_Results[proposition_Id];\n    }\n}\n",
  "sourcePath": "/home/andrei/Alyra/Web3_Referendum/contracts/Majority_Judgment_Ballot.sol",
  "compiler": {
    "name": "solc",
    "version": "0.8.1+commit.df193b15.Emscripten.clang"
  },
  "schemaVersion": "3.3.1",
  "updatedAt": "2021-04-28T21:24:22.770Z",
  "devdoc": {
    "details": "Implementation of IVote interface. Majority_Judgment_Ballot contract implement the Majority Judgment which is a ballot process proven to be able to avoid biases of classical Uninominal ballot such as strategic vote. In Majority Judgment ballot, ",
    "kind": "dev",
    "methods": {
      "Create_Ballot(bytes32,address,bytes4,uint256,uint256,uint256,uint256)": {
        "details": "See {IVote} interface."
      },
      "End_Validation_Vote(bytes32)": {
        "details": "See {IVote} interface."
      },
      "End_Vote(bytes32)": {
        "details": "See {IVote} interface."
      },
      "Get_Propositions_Result(bytes32,uint256)": {
        "details": "Get the score obtained by a proposition",
        "params": {
          "key": "Id of the voting session",
          "proposition_Id": "Index of the proposition"
        },
        "returns": {
          "proposition_result": "  "
        }
      },
      "Get_Voter_Number(bytes32)": {
        "details": "See {IVote} interface"
      },
      "Get_Winning_Proposition_byId(bytes32,uint256)": {
        "details": "See {IVote} interface"
      },
      "Get_Winning_Propositions(bytes32)": {
        "details": "See {IVote} interface"
      },
      "HasValidated(bytes32,address)": {
        "details": "See {IVote} interface"
      },
      "HasVoted(bytes32,address)": {
        "details": "See {IVote} interface"
      },
      "Valdiate_Vote(bytes32,uint256[],bytes32)": {
        "details": "See {IVote} interface."
      },
      "Vote_Clear(bytes32,uint256[])": {
        "details": "See {IVote} interface."
      },
      "Vote_Hashed(bytes32,bytes32)": {
        "details": "See {IVote} interface."
      }
    },
    "stateVariables": {
      "Ballots": {
        "details": "Mapping of all voting sessions of the contract. "
      }
    },
    "version": 1
  },
  "userdoc": {
    "kind": "user",
    "methods": {},
    "version": 1
  }
}